{
  "address": "0x88C76c7C2096Ca197F9A3F35AACbF5540AD1123D",
  "abi": [
    {
      "constant": true,
      "inputs": [],
      "name": "hasInitialized",
      "outputs": [
        {
          "name": "",
          "type": "bool"
        }
      ],
      "payable": false,
      "stateMutability": "view",
      "type": "function"
    },
    {
      "constant": true,
      "inputs": [],
      "name": "PPM",
      "outputs": [
        {
          "name": "",
          "type": "uint256"
        }
      ],
      "payable": false,
      "stateMutability": "view",
      "type": "function"
    },
    {
      "constant": false,
      "inputs": [
        {
          "name": "_kernel",
          "type": "address"
        },
        {
          "name": "_controller",
          "type": "address"
        },
        {
          "name": "_marketMaker",
          "type": "address"
        },
        {
          "name": "_bondedToken",
          "type": "address"
        },
        {
          "name": "_reserve",
          "type": "address"
        },
        {
          "name": "_beneficiary",
          "type": "address"
        },
        {
          "name": "_erc20ContribToken",
          "type": "address"
        },
        {
          "name": "_period",
          "type": "uint64"
        },
        {
          "name": "_exchangeRate",
          "type": "uint256"
        },
        {
          "name": "_mintingForBeneficiaryPct",
          "type": "uint256"
        },
        {
          "name": "_openDate",
          "type": "uint64"
        }
      ],
      "name": "initialize",
      "outputs": [],
      "payable": false,
      "stateMutability": "nonpayable",
      "type": "function"
    },
    {
      "constant": true,
      "inputs": [],
      "name": "marketMaker",
      "outputs": [
        {
          "name": "",
          "type": "address"
        }
      ],
      "payable": false,
      "stateMutability": "view",
      "type": "function"
    },
    {
      "constant": true,
      "inputs": [
        {
          "name": "",
          "type": "address"
        }
      ],
      "name": "contributors",
      "outputs": [
        {
          "name": "",
          "type": "uint256"
        }
      ],
      "payable": false,
      "stateMutability": "view",
      "type": "function"
    },
    {
      "constant": true,
      "inputs": [
        {
          "name": "_script",
          "type": "bytes"
        }
      ],
      "name": "getEVMScriptExecutor",
      "outputs": [
        {
          "name": "",
          "type": "address"
        }
      ],
      "payable": false,
      "stateMutability": "view",
      "type": "function"
    },
    {
      "constant": false,
      "inputs": [
        {
          "name": "_period",
          "type": "uint64"
        }
      ],
      "name": "setPeriod",
      "outputs": [],
      "payable": false,
      "stateMutability": "nonpayable",
      "type": "function"
    },
    {
      "constant": true,
      "inputs": [],
      "name": "getRecoveryVault",
      "outputs": [
        {
          "name": "",
          "type": "address"
        }
      ],
      "payable": false,
      "stateMutability": "view",
      "type": "function"
    },
    {
      "constant": true,
      "inputs": [],
      "name": "beneficiary",
      "outputs": [
        {
          "name": "",
          "type": "address"
        }
      ],
      "payable": false,
      "stateMutability": "view",
      "type": "function"
    },
    {
      "constant": true,
      "inputs": [],
      "name": "exchangeRate",
      "outputs": [
        {
          "name": "",
          "type": "uint256"
        }
      ],
      "payable": false,
      "stateMutability": "view",
      "type": "function"
    },
    {
      "constant": false,
      "inputs": [
        {
          "name": "",
          "type": "address"
        },
        {
          "name": "",
          "type": "uint256"
        }
      ],
      "name": "refund",
      "outputs": [],
      "payable": false,
      "stateMutability": "nonpayable",
      "type": "function"
    },
    {
      "constant": false,
      "inputs": [],
      "name": "close",
      "outputs": [],
      "payable": false,
      "stateMutability": "nonpayable",
      "type": "function"
    },
    {
      "constant": false,
      "inputs": [
        {
          "name": "_date",
          "type": "uint64"
        }
      ],
      "name": "setOpenDate",
      "outputs": [],
      "payable": false,
      "stateMutability": "nonpayable",
      "type": "function"
    },
    {
      "constant": true,
      "inputs": [],
      "name": "contributionToken",
      "outputs": [
        {
          "name": "",
          "type": "address"
        }
      ],
      "payable": false,
      "stateMutability": "view",
      "type": "function"
    },
    {
      "constant": true,
      "inputs": [],
      "name": "mintingForBeneficiaryPct",
      "outputs": [
        {
          "name": "",
          "type": "uint256"
        }
      ],
      "payable": false,
      "stateMutability": "view",
      "type": "function"
    },
    {
      "constant": true,
      "inputs": [],
      "name": "OPEN_ROLE",
      "outputs": [
        {
          "name": "",
          "type": "bytes32"
        }
      ],
      "payable": false,
      "stateMutability": "view",
      "type": "function"
    },
    {
      "constant": true,
      "inputs": [],
      "name": "contributorsCounter",
      "outputs": [
        {
          "name": "",
          "type": "uint256"
        }
      ],
      "payable": false,
      "stateMutability": "view",
      "type": "function"
    },
    {
      "constant": true,
      "inputs": [],
      "name": "REDUCE_BENEFICIARY_PCT_ROLE",
      "outputs": [
        {
          "name": "",
          "type": "bytes32"
        }
      ],
      "payable": false,
      "stateMutability": "view",
      "type": "function"
    },
    {
      "constant": true,
      "inputs": [
        {
          "name": "token",
          "type": "address"
        }
      ],
      "name": "allowRecoverability",
      "outputs": [
        {
          "name": "",
          "type": "bool"
        }
      ],
      "payable": false,
      "stateMutability": "view",
      "type": "function"
    },
    {
      "constant": true,
      "inputs": [],
      "name": "appId",
      "outputs": [
        {
          "name": "",
          "type": "bytes32"
        }
      ],
      "payable": false,
      "stateMutability": "view",
      "type": "function"
    },
    {
      "constant": false,
      "inputs": [
        {
          "name": "_contributor",
          "type": "address"
        },
        {
          "name": "_value",
          "type": "uint256"
        }
      ],
      "name": "contribute",
      "outputs": [],
      "payable": true,
      "stateMutability": "payable",
      "type": "function"
    },
    {
      "constant": true,
      "inputs": [],
      "name": "getInitializationBlock",
      "outputs": [
        {
          "name": "",
          "type": "uint256"
        }
      ],
      "payable": false,
      "stateMutability": "view",
      "type": "function"
    },
    {
      "constant": true,
      "inputs": [],
      "name": "totalSold",
      "outputs": [
        {
          "name": "",
          "type": "uint256"
        }
      ],
      "payable": false,
      "stateMutability": "view",
      "type": "function"
    },
    {
      "constant": true,
      "inputs": [
        {
          "name": "_value",
          "type": "uint256"
        }
      ],
      "name": "contributionToTokens",
      "outputs": [
        {
          "name": "",
          "type": "uint256"
        }
      ],
      "payable": false,
      "stateMutability": "view",
      "type": "function"
    },
    {
      "constant": false,
      "inputs": [
        {
          "name": "_token",
          "type": "address"
        }
      ],
      "name": "transferToVault",
      "outputs": [],
      "payable": false,
      "stateMutability": "nonpayable",
      "type": "function"
    },
    {
      "constant": true,
      "inputs": [
        {
          "name": "_sender",
          "type": "address"
        },
        {
          "name": "_role",
          "type": "bytes32"
        },
        {
          "name": "_params",
          "type": "uint256[]"
        }
      ],
      "name": "canPerform",
      "outputs": [
        {
          "name": "",
          "type": "bool"
        }
      ],
      "payable": false,
      "stateMutability": "view",
      "type": "function"
    },
    {
      "constant": true,
      "inputs": [],
      "name": "CONTRIBUTE_ROLE",
      "outputs": [
        {
          "name": "",
          "type": "bytes32"
        }
      ],
      "payable": false,
      "stateMutability": "view",
      "type": "function"
    },
    {
      "constant": true,
      "inputs": [],
      "name": "getEVMScriptRegistry",
      "outputs": [
        {
          "name": "",
          "type": "address"
        }
      ],
      "payable": false,
      "stateMutability": "view",
      "type": "function"
    },
    {
      "constant": false,
      "inputs": [
        {
          "name": "_pct",
          "type": "uint64"
        }
      ],
      "name": "reduceBeneficiaryPct",
      "outputs": [],
      "payable": false,
      "stateMutability": "nonpayable",
      "type": "function"
    },
    {
      "constant": true,
      "inputs": [],
      "name": "state",
      "outputs": [
        {
          "name": "",
          "type": "uint8"
        }
      ],
      "payable": false,
      "stateMutability": "view",
      "type": "function"
    },
    {
      "constant": true,
      "inputs": [],
      "name": "isClosed",
      "outputs": [
        {
          "name": "",
          "type": "bool"
        }
      ],
      "payable": false,
      "stateMutability": "view",
      "type": "function"
    },
    {
      "constant": true,
      "inputs": [],
      "name": "totalRaised",
      "outputs": [
        {
          "name": "",
          "type": "uint256"
        }
      ],
      "payable": false,
      "stateMutability": "view",
      "type": "function"
    },
    {
      "constant": true,
      "inputs": [],
      "name": "reserve",
      "outputs": [
        {
          "name": "",
          "type": "address"
        }
      ],
      "payable": false,
      "stateMutability": "view",
      "type": "function"
    },
    {
      "constant": true,
      "inputs": [],
      "name": "kernel",
      "outputs": [
        {
          "name": "",
          "type": "address"
        }
      ],
      "payable": false,
      "stateMutability": "view",
      "type": "function"
    },
    {
      "constant": true,
      "inputs": [],
      "name": "isPetrified",
      "outputs": [
        {
          "name": "",
          "type": "bool"
        }
      ],
      "payable": false,
      "stateMutability": "view",
      "type": "function"
    },
    {
      "constant": true,
      "inputs": [],
      "name": "bondedToken",
      "outputs": [
        {
          "name": "",
          "type": "address"
        }
      ],
      "payable": false,
      "stateMutability": "view",
      "type": "function"
    },
    {
      "constant": true,
      "inputs": [],
      "name": "openDate",
      "outputs": [
        {
          "name": "",
          "type": "uint64"
        }
      ],
      "payable": false,
      "stateMutability": "view",
      "type": "function"
    },
    {
      "constant": true,
      "inputs": [],
      "name": "period",
      "outputs": [
        {
          "name": "",
          "type": "uint64"
        }
      ],
      "payable": false,
      "stateMutability": "view",
      "type": "function"
    },
    {
      "constant": true,
      "inputs": [],
      "name": "controller",
      "outputs": [
        {
          "name": "",
          "type": "address"
        }
      ],
      "payable": false,
      "stateMutability": "view",
      "type": "function"
    },
    {
      "constant": false,
      "inputs": [],
      "name": "open",
      "outputs": [],
      "payable": false,
      "stateMutability": "nonpayable",
      "type": "function"
    },
    {
      "anonymous": false,
      "inputs": [
        {
          "indexed": false,
          "name": "date",
          "type": "uint64"
        }
      ],
      "name": "SetOpenDate",
      "type": "event"
    },
    {
      "anonymous": false,
      "inputs": [
        {
          "indexed": false,
          "name": "pct",
          "type": "uint256"
        }
      ],
      "name": "ReduceBeneficiatyPct",
      "type": "event"
    },
    {
      "anonymous": false,
      "inputs": [],
      "name": "Close",
      "type": "event"
    },
    {
      "anonymous": false,
      "inputs": [
        {
          "indexed": true,
          "name": "contributor",
          "type": "address"
        },
        {
          "indexed": false,
          "name": "value",
          "type": "uint256"
        },
        {
          "indexed": false,
          "name": "amount",
          "type": "uint256"
        }
      ],
      "name": "Contribute",
      "type": "event"
    },
    {
      "anonymous": false,
      "inputs": [
        {
          "indexed": true,
          "name": "executor",
          "type": "address"
        },
        {
          "indexed": false,
          "name": "script",
          "type": "bytes"
        },
        {
          "indexed": false,
          "name": "input",
          "type": "bytes"
        },
        {
          "indexed": false,
          "name": "returnData",
          "type": "bytes"
        }
      ],
      "name": "ScriptResult",
      "type": "event"
    },
    {
      "anonymous": false,
      "inputs": [
        {
          "indexed": true,
          "name": "vault",
          "type": "address"
        },
        {
          "indexed": true,
          "name": "token",
          "type": "address"
        },
        {
          "indexed": false,
          "name": "amount",
          "type": "uint256"
        }
      ],
      "name": "RecoverToVault",
      "type": "event"
    }
  ],
  "transactionHash": "0xf0bb577c0d8c5e0ce3229d83e4fd5fa59a65d8fd73cb8ab41dd9b5daad59e5d1",
  "args": [],
  "solcInputHash": "59374ad4749d81208e78b237aaa210a3",
  "bytecode": "0x60806040526200001764010000000062000047810204565b6200004160008051602062003745833981519152600064010000000062002bb86200014f82021704565b62000265565b6200005a64010000000062000153810204565b60408051808201909152601881527f494e49545f414c52454144595f494e495449414c495a454400000000000000006020820152901562000136576040517f08c379a00000000000000000000000000000000000000000000000000000000081526004018080602001828103825283818151815260200191508051906020019080838360005b83811015620000fa578181015183820152602001620000e0565b50505050905090810190601f168015620001285780820380516001836020036101000a031916815260200191505b509250505060405180910390fd5b506200014d60001964010000000062000182810204565b565b9055565b60006200017d6000805160206200374583398151915264010000000062002bb46200026182021704565b905090565b6200019564010000000062000153810204565b60408051808201909152601881527f494e49545f414c52454144595f494e495449414c495a454400000000000000006020820152901562000234576040517f08c379a000000000000000000000000000000000000000000000000000000000815260040180806020018281038252838181518152602001915080519060200190808383600083811015620000fa578181015183820152602001620000e0565b506200025e600080516020620037458339815191528264010000000062002bb86200014f82021704565b50565b5490565b6134d080620002756000396000f3006080604052600436106101d45763ffffffff60e060020a6000350416630803fac081146101d95780630d720bbc1461020257806315168fc3146102295780631f21f9af1461028e5780631f6d4942146102bf5780632914b9bd146102e0578063309cb5ea1461033957806332f0a3b51461035b57806338af3eed146103705780633ba0b9a914610385578063410085df1461039a57806343d726d6146103be5780634a15fd93146103d35780634bedf9a8146103f5578063542ba2981461040a5780636a928e8f1461041f57806372f93cc2146104345780637af2b8a0146104495780637e7db6e11461045e57806380afdea81461047f5780638418cd99146104945780638b3dd749146104ab5780639106d7ba146104c057806396330f46146104d55780639d4941d8146104ed578063a1658fad1461050e578063a2b96b6f14610575578063a479e5081461058a578063b086d7401461059f578063c19d93fb146105c1578063c2b6b58c146105fa578063c5c4744c1461060f578063cd3293de14610624578063d4aae0c414610639578063de4796ed1461064e578063e36a4ec714610663578063ec8cb28114610678578063ef78d4fd146106aa578063f77c4791146106bf578063fcfff16f146106d4575b600080fd5b3480156101e557600080fd5b506101ee6106e9565b604080519115158252519081900360200190f35b34801561020e57600080fd5b50610217610712565b60408051918252519081900360200190f35b34801561023557600080fd5b5061028c600160a060020a0360043581169060243581169060443581169060643581169060843581169060a43581169060c4351667ffffffffffffffff60e435811690610104359061012435906101443516610719565b005b34801561029a57600080fd5b506102a3610cc8565b60408051600160a060020a039092168252519081900360200190f35b3480156102cb57600080fd5b50610217600160a060020a0360043516610cd7565b3480156102ec57600080fd5b506040805160206004803580820135601f81018490048402850184019095528484526102a3943694929360249392840191908190840183828082843750949750610ce99650505050505050565b34801561034557600080fd5b5061028c67ffffffffffffffff60043516610dcf565b34801561036757600080fd5b506102a3610e81565b34801561037c57600080fd5b506102a3610efa565b34801561039157600080fd5b50610217610f09565b3480156103a657600080fd5b5061028c600160a060020a0360043516602435610f0f565b3480156103ca57600080fd5b5061028c611009565b3480156103df57600080fd5b5061028c67ffffffffffffffff6004351661154a565b34801561040157600080fd5b506102a36115f6565b34801561041657600080fd5b50610217611605565b34801561042b57600080fd5b5061021761160b565b34801561044057600080fd5b5061021761161d565b34801561045557600080fd5b50610217611623565b34801561046a57600080fd5b506101ee600160a060020a0360043516611647565b34801561048b57600080fd5b5061021761164d565b61028c600160a060020a036004351660243561167d565b3480156104b757600080fd5b50610217611d90565b3480156104cc57600080fd5b50610217611dbb565b3480156104e157600080fd5b50610217600435611dc1565b3480156104f957600080fd5b5061028c600160a060020a0360043516611e6e565b34801561051a57600080fd5b5060408051602060046044358181013583810280860185019096528085526101ee958335600160a060020a03169560248035963696956064959394920192918291850190849080828437509497506120fd9650505050505050565b34801561058157600080fd5b5061021761224d565b34801561059657600080fd5b506102a3612271565b3480156105ab57600080fd5b5061028c67ffffffffffffffff60043516612326565b3480156105cd57600080fd5b506105d66124b5565b604051808260038111156105e657fe5b60ff16815260200191505060405180910390f35b34801561060657600080fd5b506101ee6125d3565b34801561061b57600080fd5b506102176125e8565b34801561063057600080fd5b506102a36125ee565b34801561064557600080fd5b506102a36125fd565b34801561065a57600080fd5b506101ee612628565b34801561066f57600080fd5b506102a361263b565b34801561068457600080fd5b5061068d61264a565b6040805167ffffffffffffffff9092168252519081900360200190f35b3480156106b657600080fd5b5061068d61265a565b3480156106cb57600080fd5b506102a3612682565b3480156106e057600080fd5b5061028c612691565b6000806106f4611d90565b9050801580159061070c575080610709612747565b10155b91505090565b620f424081565b610721611d90565b60408051808201909152601881527f494e49545f414c52454144595f494e495449414c495a45440000000000000000602082015290156107e25760405160e560020a62461bcd0281526004018080602001828103825283818151815260200191508051906020019080838360005b838110156107a757818101518382015260200161078f565b50505050905090810190601f1680156107d45780820380516001836020036101000a031916815260200191505b509250505060405180910390fd5b506107ec8a61274b565b604080518082019091526017815260008051602061342583398151915260208201529015156108605760405160e560020a62461bcd028152600401808060200182810382528381815181526020019150805190602001908083836000838110156107a757818101518382015260200161078f565b5061086a8961274b565b604080518082019091526017815260008051602061342583398151915260208201529015156108de5760405160e560020a62461bcd028152600401808060200182810382528381815181526020019150805190602001908083836000838110156107a757818101518382015260200161078f565b506108e88861274b565b6040805180820190915260178152600080516020613425833981519152602082015290151561095c5760405160e560020a62461bcd028152600401808060200182810382528381815181526020019150805190602001908083836000838110156107a757818101518382015260200161078f565b506109668761274b565b604080518082019091526017815260008051602061342583398151915260208201529015156109da5760405160e560020a62461bcd028152600401808060200182810382528381815181526020019150805190602001908083836000838110156107a757818101518382015260200161078f565b5060408051808201909152601b81527f50524553414c455f494e56414c49445f42454e454649434941525900000000006020820152600160a060020a0387161515610a6a5760405160e560020a62461bcd028152600401808060200182810382528381815181526020019150805190602001908083836000838110156107a757818101518382015260200161078f565b50610a748561274b565b6040805190810160405280602081526020017f50524553414c455f494e56414c49445f434f4e545249425554455f544f4b454e815250901515610afc5760405160e560020a62461bcd028152600401808060200182810382528381815181526020019150805190602001908083836000838110156107a757818101518382015260200161078f565b5060408051808201909152601d81527f50524553414c455f494e56414c49445f45584348414e47455f52415445000000602082015260008411610b845760405160e560020a62461bcd028152600401808060200182810382528381815181526020019150805190602001908083836000838110156107a757818101518382015260200161078f565b5060408051808201909152601381527f50524553414c455f494e56414c49445f504354000000000000000000000000006020820152620f42408310610c0e5760405160e560020a62461bcd028152600401808060200182810382528381815181526020019150805190602001908083836000838110156107a757818101518382015260200161078f565b50610c17612778565b6000805473ffffffffffffffffffffffffffffffffffffffff19908116600160a060020a038d8116919091179092556001805482168c84161790556002805482168b84161790556003805482168a84161790556004805482168984161790556005805490911691871691909117905560068390556007829055610c998b612840565b610ca284612870565b67ffffffffffffffff811615610cbb57610cbb81612a25565b5050505050505050505050565b600154600160a060020a031681565b600c6020526000908152604090205481565b6000610cf3612271565b600160a060020a03166304bf2a7f836040518263ffffffff1660e060020a0281526004018080602001828103825283818151815260200191508051906020019080838360005b83811015610d51578181015183820152602001610d39565b50505050905090810190601f168015610d7e5780820380516001836020036101000a031916815260200191505b5092505050602060405180830381600087803b158015610d9d57600080fd5b505af1158015610db1573d6000803e3d6000fd5b505050506040513d6020811015610dc757600080fd5b505192915050565b6040805160008082526020820190925260008051602061344583398151915291610dff9133918491905b506120fd565b60408051808201909152600f81526000805160206134058339815191526020820152901515610e735760405160e560020a62461bcd028152600401808060200182810382528381815181526020019150805190602001908083836000838110156107a757818101518382015260200161078f565b50610e7d82612870565b5050565b6000610e8b6125fd565b600160a060020a03166332f0a3b56040518163ffffffff1660e060020a028152600401602060405180830381600087803b158015610ec857600080fd5b505af1158015610edc573d6000803e3d6000fd5b505050506040513d6020811015610ef257600080fd5b505190505b90565b600454600160a060020a031681565b60065481565b610f176106e9565b60408051808201909152601481526000805160206134858339815191526020820152901515610f8b5760405160e560020a62461bcd028152600401808060200182810382528381815181526020019150805190602001908083836000838110156107a757818101518382015260200161078f565b50604080518082018252601281527f50524553414c455f4e4f5f524546554e445300000000000000000000000000006020808301918252925160e560020a62461bcd028152600481019384528251602482015282519293928392604490920191908083836000838110156107a757818101518382015260200161078f565b6000808080611025600080516020613465833981519152612bb4565b60408051808201909152601981527f5245454e5452414e43595f5245454e5452414e545f43414c4c00000000000000602082015290156110aa5760405160e560020a62461bcd028152600401808060200182810382528381815181526020019150805190602001908083836000838110156107a757818101518382015260200161078f565b506110ca600080516020613465833981519152600163ffffffff612bb816565b6110d26106e9565b604080518082019091526014815260008051602061348583398151915260208201529015156111465760405160e560020a62461bcd028152600401808060200182810382528381815181526020019150805190602001908083836000838110156107a757818101518382015260200161078f565b5060026111516124b5565b600381111561115c57fe5b60408051808201909152601581527f50524553414c455f494e56414c49445f53544154450000000000000000000000602082015291146111e15760405160e560020a62461bcd028152600401808060200182810382528381815181526020019150805190602001908083836000838110156107a757818101518382015260200161078f565b506008805468ff0000000000000000191668010000000000000000179055600754600010156112c557600754620f424003611229600754600a54612bbc90919063ffffffff16565b81151561123257fe5b60025460048054604080517f40c10f19000000000000000000000000000000000000000000000000000000008152600160a060020a0392831693810193909352949093046024820181905293519397509116916340c10f199160448082019260009290919082900301818387803b1580156112ac57600080fd5b505af11580156112c0573d6000803e3d6000fd5b505050505b600154600554604080517ff190e427000000000000000000000000000000000000000000000000000000008152600160a060020a0392831660048201529051919092169163f190e4279160248083019260a09291908290030181600087803b15801561133057600080fd5b505af1158015611344573d6000803e3d6000fd5b505050506040513d60a081101561135a57600080fd5b5060600151600754600954919450620f4240916113a09163ffffffff808816929185039161138a918690612bbc16565b81151561139357fe5b049063ffffffff612bbc16565b8115156113a957fe5b6005546003549290910493506113ce91600160a060020a039182169130911685612c73565b600554604080517f70a082310000000000000000000000000000000000000000000000000000000081523060048201529051600160a060020a03909216916370a08231916024808201926020929091908290030181600087803b15801561143457600080fd5b505af1158015611448573d6000803e3d6000fd5b505050506040513d602081101561145e57600080fd5b50519050600081111561148a5760055460045461148a91600160a060020a039081169130911684612c73565b60008054604080517fc9567bf90000000000000000000000000000000000000000000000000000000081529051600160a060020a039092169263c9567bf99260048084019382900301818387803b1580156114e457600080fd5b505af11580156114f8573d6000803e3d6000fd5b50506040517fc35789ccff76271dc0efa6bfde2f4d4a32cd48dd86278f75f8648cb068c86e3b925060009150a1611544600080516020613465833981519152600063ffffffff612bb816565b50505050565b6040805160008082526020820190925260008051602061344583398151915291611578913391849190610df9565b60408051808201909152600f815260008051602061340583398151915260208201529015156115ec5760405160e560020a62461bcd028152600401808060200182810382528381815181526020019150805190602001908083836000838110156107a757818101518382015260200161078f565b50610e7d82612a25565b600554600160a060020a031690565b60075481565b60008051602061344583398151915281565b600b5481565b7f2738f3f227143b7fbb9720e93e2e5b36d7a15966e130b49f1582c6432d949aa981565b50600190565b60006116787fd625496217aa6a3453eecb9c3489dc5a53e6c67b444329ea2b2cbc9ff547639b612bb4565b905090565b6000611696600080516020613465833981519152612bb4565b60408051808201909152601981527f5245454e5452414e43595f5245454e5452414e545f43414c4c000000000000006020820152901561171b5760405160e560020a62461bcd028152600401808060200182810382528381815181526020019150805190602001908083836000838110156107a757818101518382015260200161078f565b5061173b600080516020613465833981519152600163ffffffff612bb816565b604080516000808252602082019092527f9ccaca4edf2127f20c425fdd86af1ba178b9e5bee280cd70d88ac5f6874c4f079161177b913391849190610df9565b60408051808201909152600f815260008051602061340583398151915260208201529015156117ef5760405160e560020a62461bcd028152600401808060200182810382528381815181526020019150805190602001908083836000838110156107a757818101518382015260200161078f565b5060016117fa6124b5565b600381111561180557fe5b60408051808201909152601581527f50524553414c455f494e56414c49445f535441544500000000000000000000006020820152911461188a5760405160e560020a62461bcd028152600401808060200182810382528381815181526020019150805190602001908083836000838110156107a757818101518382015260200161078f565b506040805180820190915260208082527f50524553414c455f494e56414c49445f434f4e545249425554455f56414c55459082015234156119105760405160e560020a62461bcd028152600401808060200182810382528381815181526020019150805190602001908083836000838110156107a757818101518382015260200161078f565b506040805180820190915260208082527f50524553414c455f494e56414c49445f434f4e545249425554455f56414c554590820152600084116119985760405160e560020a62461bcd028152600401808060200182810382528381815181526020019150805190602001908083836000838110156107a757818101518382015260200161078f565b50600554604080517f70a08231000000000000000000000000000000000000000000000000000000008152600160a060020a0387811660048301529151869392909216916370a08231916024808201926020929091908290030181600087803b158015611a0457600080fd5b505af1158015611a18573d6000803e3d6000fd5b505050506040513d6020811015611a2e57600080fd5b505160408051808201909152601c81527f50524553414c455f494e53554646494349454e545f42414c414e4345000000006020820152911115611ab65760405160e560020a62461bcd028152600401808060200182810382528381815181526020019150805190602001908083836000838110156107a757818101518382015260200161078f565b50600554604080517fdd62ed3e000000000000000000000000000000000000000000000000000000008152600160a060020a03878116600483015230602483015291518693929092169163dd62ed3e916044808201926020929091908290030181600087803b158015611b2857600080fd5b505af1158015611b3c573d6000803e3d6000fd5b505050506040513d6020811015611b5257600080fd5b505160408051808201909152601e81527f50524553414c455f494e53554646494349454e545f414c4c4f57414e434500006020820152911115611bda5760405160e560020a62461bcd028152600401808060200182810382528381815181526020019150805190602001908083836000838110156107a757818101518382015260200161078f565b50600554611bf390600160a060020a0316853086612c73565b611bfc83611dc1565b600954909250611c12908463ffffffff612dd216565b600955600a54611c28908363ffffffff612dd216565b600a55600254604080517f40c10f19000000000000000000000000000000000000000000000000000000008152600160a060020a03878116600483015260248201869052915191909216916340c10f1991604480830192600092919082900301818387803b158015611c9957600080fd5b505af1158015611cad573d6000803e3d6000fd5b50505050600160a060020a0384166000908152600c60205260409020541515611ce857600b54611ce490600163ffffffff612dd216565b600b555b600160a060020a0384166000908152600c6020526040902054611d11908463ffffffff612dd216565b600160a060020a0385166000818152600c6020908152604091829020939093558051868152928301859052805191927fc9ec9df36a160cd05ae36393dca23c0128234fc68a48baec833a6d8b5967d6da929081900390910190a250611d8b600080516020613465833981519152600063ffffffff612bb816565b505050565b60006116787febb05b386a8d34882b8711d156f463690983dc47815980fb82aeeff1aa43579e612bb4565b600a5481565b6000611dcb6106e9565b60408051808201909152601481526000805160206134858339815191526020820152901515611e3f5760405160e560020a62461bcd028152600401808060200182810382528381815181526020019150805190602001908083836000838110156107a757818101518382015260200161078f565b50611e68620f4240611e5c60065485612bbc90919063ffffffff16565b9063ffffffff612e6416565b92915050565b6000806000611e7c84611647565b60408051808201909152601281527f5245434f5645525f444953414c4c4f57454400000000000000000000000000006020820152901515611f025760405160e560020a62461bcd028152600401808060200182810382528381815181526020019150805190602001908083836000838110156107a757818101518382015260200161078f565b50611f0b610e81565b9250611f168361274b565b60408051808201909152601a81527f5245434f5645525f5641554c545f4e4f545f434f4e54524143540000000000006020820152901515611f9c5760405160e560020a62461bcd028152600401808060200182810382528381815181526020019150805190602001908083836000838110156107a757818101518382015260200161078f565b50600160a060020a0384161515611fed5760405130319250600160a060020a0384169083156108fc029084906000818181858888f19350505050158015611fe7573d6000803e3d6000fd5b506120ac565b5082612008600160a060020a0382163063ffffffff612f0416565b9150612024600160a060020a038216848463ffffffff61301916565b60408051808201909152601d81527f5245434f5645525f544f4b454e5f5452414e534645525f4641494c454400000060208201529015156120aa5760405160e560020a62461bcd028152600401808060200182810382528381815181526020019150805190602001908083836000838110156107a757818101518382015260200161078f565b505b83600160a060020a031683600160a060020a03167f596caf56044b55fb8c4ca640089bbc2b63cae3e978b851f5745cbb7c5b288e02846040518082815260200191505060405180910390a350505050565b6000806121086106e9565b15156121175760009150612245565b61211f6125fd565b9050600160a060020a038116151561213a5760009150612245565b80600160a060020a031663fdef9106863087612155886130a4565b60405160e060020a63ffffffff8716028152600160a060020a03808616600483019081529085166024830152604482018490526080606483019081528351608484015283519192909160a490910190602085019080838360005b838110156121c75781810151838201526020016121af565b50505050905090810190601f1680156121f45780820380516001836020036101000a031916815260200191505b5095505050505050602060405180830381600087803b15801561221657600080fd5b505af115801561222a573d6000803e3d6000fd5b505050506040513d602081101561224057600080fd5b505191505b509392505050565b7f9ccaca4edf2127f20c425fdd86af1ba178b9e5bee280cd70d88ac5f6874c4f0781565b60008061227c6125fd565b604080517fbe00bbd80000000000000000000000000000000000000000000000000000000081527fd6f028ca0e8edb4a8c9757ca4fdccab25fa1e0317da1188108f7d2dee14902fb60048201527fddbcfd564f642ab5627cf68b9b7d374fb4f8a36e941a75d89c87998cef03bd6160248201529051600160a060020a03929092169163be00bbd8916044808201926020929091908290030181600087803b158015610d9d57600080fd5b604080516000808252602082019092527f2738f3f227143b7fbb9720e93e2e5b36d7a15966e130b49f1582c6432d949aa991612366913391849190610df9565b60408051808201909152600f815260008051602061340583398151915260208201529015156123da5760405160e560020a62461bcd028152600401808060200182810382528381815181526020019150805190602001908083836000838110156107a757818101518382015260200161078f565b5060075460408051808201909152601381527f50524553414c455f494e56414c49445f5043540000000000000000000000000060208201529067ffffffffffffffff84161061246e5760405160e560020a62461bcd028152600401808060200182810382528381815181526020019150805190602001908083836000838110156107a757818101518382015260200161078f565b5067ffffffffffffffff8216600781905560408051918252517fa50304e35b9add7e0d49e0d23f05a2a2935cfa28fdc3abe3636318af4bed22459181900360200190a15050565b60006124bf6106e9565b604080518082019091526014815260008051602061348583398151915260208201529015156125335760405160e560020a62461bcd028152600401808060200182810382528381815181526020019150805190602001908083836000838110156107a757818101518382015260200161078f565b5060085467ffffffffffffffff16158061256357506125506130ae565b60085467ffffffffffffffff9182169116115b1561257057506000610ef7565b60085468010000000000000000900460ff161561258f57506003610ef7565b60055474010000000000000000000000000000000000000000900467ffffffffffffffff166125bc6130c0565b67ffffffffffffffff161061164757506002610ef7565b60085468010000000000000000900460ff1681565b60095481565b600354600160a060020a031681565b60006116787f4172f0f7d2289153072b0a6ca36959e0cbe2efc3afe50fc81636caa96338137b612bb4565b6000600019612635611d90565b14905090565b600254600160a060020a031681565b60085467ffffffffffffffff1681565b60055474010000000000000000000000000000000000000000900467ffffffffffffffff1681565b600054600160a060020a031681565b60408051600080825260208201909252600080516020613445833981519152916126bf913391849190610df9565b60408051808201909152600f815260008051602061340583398151915260208201529015156127335760405160e560020a62461bcd028152600401808060200182810382528381815181526020019150805190602001908083836000838110156107a757818101518382015260200161078f565b5061274461273f6130ae565b612a25565b50565b4390565b600080600160a060020a03831615156127675760009150612772565b823b90506000811191505b50919050565b612780611d90565b60408051808201909152601881527f494e49545f414c52454144595f494e495449414c495a45440000000000000000602082015290156128055760405160e560020a62461bcd028152600401808060200182810382528381815181526020019150805190602001908083836000838110156107a757818101518382015260200161078f565b5061283e612811612747565b7febb05b386a8d34882b8711d156f463690983dc47815980fb82aeeff1aa43579e9063ffffffff612bb816565b565b6127447f4172f0f7d2289153072b0a6ca36959e0cbe2efc3afe50fc81636caa96338137b8263ffffffff612bb816565b60408051808201909152601881527f50524553414c455f54494d455f504552494f445f5a45524f00000000000000006020820152600067ffffffffffffffff8316116129015760405160e560020a62461bcd028152600401808060200182810382528381815181526020019150805190602001908083836000838110156107a757818101518382015260200161078f565b5060085467ffffffffffffffff16158061294b575061291e6130ae565b60085467ffffffffffffffff9182169161293f91168363ffffffff61311816565b67ffffffffffffffff16115b60408051808201909152601b81527f50524553414c455f494e56414c49445f54494d455f504552494f44000000000060208201529015156129d15760405160e560020a62461bcd028152600401808060200182810382528381815181526020019150805190602001908083836000838110156107a757818101518382015260200161078f565b506005805467ffffffffffffffff90921674010000000000000000000000000000000000000000027fffffffff0000000000000000ffffffffffffffffffffffffffffffffffffffff909216919091179055565b6000612a2f6124b5565b6003811115612a3a57fe5b60408051808201909152601581527f50524553414c455f494e56414c49445f5354415445000000000000000000000060208201529114612abf5760405160e560020a62461bcd028152600401808060200182810382528381815181526020019150805190602001908083836000838110156107a757818101518382015260200161078f565b50612ac86130ae565b60408051808201909152601981527f50524553414c455f494e56414c49445f4f50454e5f444154450000000000000060208201529067ffffffffffffffff9081169083161015612b5d5760405160e560020a62461bcd028152600401808060200182810382528381815181526020019150805190602001908083836000838110156107a757818101518382015260200161078f565b506008805467ffffffffffffffff831667ffffffffffffffff19909116811790915560408051918252517fab2aeaceefdbd207caa02bf58306335f7c37fd3b434a6cc547733be5e33a86779181900360200190a150565b5490565b9055565b600080831515612bcf5760009150612c6c565b50828202828482811515612bdf57fe5b60408051808201909152601181527f4d4154485f4d554c5f4f564552464c4f5700000000000000000000000000000060208201529291900414612c675760405160e560020a62461bcd028152600401808060200182810382528381815181526020019150805190602001908083836000838110156107a757818101518382015260200161078f565b508091505b5092915050565b600160a060020a038316301415612d2a57612c9e600160a060020a038516838363ffffffff61301916565b60408051808201909152601f81527f50524553414c455f544f4b454e5f5452414e534645525f5245564552544544006020820152901515612d245760405160e560020a62461bcd028152600401808060200182810382528381815181526020019150805190602001908083836000838110156107a757818101518382015260200161078f565b50611544565b612d45600160a060020a03851684848463ffffffff6131b316565b60408051808201909152601f81527f50524553414c455f544f4b454e5f5452414e534645525f5245564552544544006020820152901515612dcb5760405160e560020a62461bcd028152600401808060200182810382528381815181526020019150805190602001908083836000838110156107a757818101518382015260200161078f565b5050505050565b60408051808201909152601181527f4d4154485f4144445f4f564552464c4f5700000000000000000000000000000060208201526000908383019084821015612c675760405160e560020a62461bcd028152600401808060200182810382528381815181526020019150805190602001908083836000838110156107a757818101518382015260200161078f565b5490565b60408051808201909152600d81527f4d4154485f4449565f5a45524f0000000000000000000000000000000000000060208201526000908190818411612eef5760405160e560020a62461bcd028152600401808060200182810382528381815181526020019150805190602001908083836000838110156107a757818101518382015260200161078f565b508284811515612efb57fe5b04949350505050565b60408051600160a060020a0383166024808301919091528251808303909101815260449091019091526020810180517bffffffffffffffffffffffffffffffffffffffffffffffffffffffff167f70a08231000000000000000000000000000000000000000000000000000000001790526000908180612f848684613247565b60408051808201909152601c81527f534146455f4552435f32305f42414c414e43455f5245564552544544000000006020820152919350915082151561300f5760405160e560020a62461bcd028152600401808060200182810382528381815181526020019150805190602001908083836000838110156107a757818101518382015260200161078f565b5095945050505050565b60408051600160a060020a038416602482015260448082018490528251808303909101815260649091019091526020810180517bffffffffffffffffffffffffffffffffffffffffffffffffffffffff167fa9059cbb0000000000000000000000000000000000000000000000000000000017905260009061309b8582613278565b95945050505050565b8051602002815290565b60006116786130bb6132c6565b6132ca565b60085460009067ffffffffffffffff1615156130de57506000610ef7565b60085461310d9067ffffffffffffffff166130f76130ae565b67ffffffffffffffff169063ffffffff61336316565b9050610ef7565b9055565b60408051808201909152601381527f4d41544836345f4144445f4f564552464c4f570000000000000000000000000060208201526000908383019067ffffffffffffffff8086169083161015612c675760405160e560020a62461bcd028152600401808060200182810382528381815181526020019150805190602001908083836000838110156107a757818101518382015260200161078f565b60408051600160a060020a0385811660248301528416604482015260648082018490528251808303909101815260849091019091526020810180517bffffffffffffffffffffffffffffffffffffffffffffffffffffffff167f23b872dd0000000000000000000000000000000000000000000000000000000017905260009061323d8682613278565b9695505050505050565b6000806000806040516020818751602089018a5afa9250600083111561326c57805191505b50909590945092505050565b6000806040516020818551602087016000895af160008111156132bc573d80156132a957602081146132b2576132ba565b600193506132ba565b600183511493505b505b5090949350505050565b4290565b60408051808201909152601581527f55494e5436345f4e554d4245525f544f4f5f4249470000000000000000000000602082015260009067ffffffffffffffff83111561335c5760405160e560020a62461bcd028152600401808060200182810382528381815181526020019150805190602001908083836000838110156107a757818101518382015260200161078f565b5090919050565b60408051808201909152601481527f4d41544836345f5355425f554e444552464c4f570000000000000000000000006020820152600090819067ffffffffffffffff80861690851611156133fc5760405160e560020a62461bcd028152600401808060200182810382528381815181526020019150805190602001908083836000838110156107a757818101518382015260200161078f565b50505090039056004150505f415554485f4641494c4544000000000000000000000000000000000050524553414c455f434f4e54524143545f49535f454f41000000000000000000efa06053e2ca99a43c97c4a4f3d8a394ee3323a8ff237e625fba09fe30ceb0a4e855346402235fdd185c890e68d2c4ecad599b88587635ee285bce2fda58dacb494e49545f4e4f545f494e495449414c495a4544000000000000000000000000a165627a7a72305820c030cb6d2d8cc3e9e24008306b869d9800ce947468247e44b2d1b4779dc070b70029ebb05b386a8d34882b8711d156f463690983dc47815980fb82aeeff1aa43579e",
  "devdoc": {
    "methods": {
      "allowRecoverability(address)": {
        "details": "By default deriving from AragonApp makes it recoverable",
        "params": {
          "token": "Token address that would be recovered"
        },
        "return": "bool whether the app allows the recovery"
      },
      "canPerform(address,bytes32,uint256[])": {
        "details": "Check whether an action can be performed by a sender for a particular role on this app",
        "params": {
          "_params": "Permission params for the role",
          "_role": "Role on this app",
          "_sender": "Sender of the call"
        },
        "return": "Boolean indicating whether the sender has the permissions to perform the action.        Always returns false if the app hasn't been initialized yet."
      },
      "contribute(address,uint256)": {
        "params": {
          "_contributor": "The address of the contributor",
          "_value": "The amount of contribution token to be spent"
        }
      },
      "contributionToTokens(uint256)": {
        "params": {
          "_value": "The amount of contribution tokens to be used in that computation"
        }
      },
      "getInitializationBlock()": {
        "return": "Block number in which the contract was initialized"
      },
      "getRecoveryVault()": {
        "details": "Get the recovery vault for the app",
        "return": "Recovery vault address for the app"
      },
      "hasInitialized()": {
        "return": "Whether the contract has been initialized by the time of the current block"
      },
      "initialize(address,address,address,address,address,address,address,uint64,uint256,uint256,uint64)": {
        "params": {
          "_beneficiary": "The address of the beneficiary [to whom a percentage of the raised funds is be to be sent]",
          "_bondedToken": "The address of the bonded token",
          "_controller": "The address of the controller contract",
          "_erc20ContribToken": "The address of the token to be used to contribute",
          "_exchangeRate": "The exchangeRate [= 1/price] at which [bonded] tokens are to be purchased for that presale [in PPM]",
          "_marketMaker": "The address of the market maker contract",
          "_openDate": "The date upon which that presale is to be open [ignored if 0]",
          "_period": "The period within which to accept contribution for that presale",
          "_reserve": "The address of the reserve [pool] contract"
        }
      },
      "reduceBeneficiaryPct(uint64)": {
        "params": {
          "_pct": "New percentage to be set"
        }
      },
      "setOpenDate(uint64)": {
        "params": {
          "_date": "New date to be set"
        }
      },
      "setPeriod(uint64)": {
        "params": {
          "_period": "New duration to be set"
        }
      },
      "transferToVault(address)": {
        "params": {
          "_token": "Token balance to be sent to recovery vault."
        }
      }
    }
  },
  "userdoc": {
    "methods": {
      "close()": {
        "notice": "Close presale and open trading"
      },
      "contribute(address,uint256)": {
        "notice": "Contribute to the presale up to `@tokenAmount(self.erc20ContribToken(): address, _value)`"
      },
      "contributionToTokens(uint256)": {
        "notice": "Computes the amount of [bonded] tokens that would be purchased for `@tokenAmount(self.contributionToken(): address, _value)`"
      },
      "initialize(address,address,address,address,address,address,address,uint64,uint256,uint256,uint64)": {
        "notice": "Initialize presale"
      },
      "open()": {
        "notice": "Open presale [enabling users to contribute]"
      },
      "reduceBeneficiaryPct(uint64)": {
        "notice": "Reduce pre-minting for beneficiary percentage to `_pct`"
      },
      "refund(address,uint256)": {
        "notice": "Does nothing. Interface compliance."
      },
      "setOpenDate(uint64)": {
        "notice": "Set presale open date"
      },
      "setPeriod(uint64)": {
        "notice": "Set presale duration"
      },
      "state()": {
        "notice": "Returns the current state of that presale"
      },
      "transferToVault(address)": {
        "notice": "Send funds to recovery Vault. This contract should never receive funds,        but in case it does, this function allows one to recover them."
      }
    }
  }
}