{
  "address": "0xf75170ce8d4060b8D5fc24E996FA00A94bb8A232",
  "abi": [
    {
      "constant": true,
      "inputs": [],
      "name": "hasInitialized",
      "outputs": [
        {
          "name": "",
          "type": "bool"
        }
      ],
      "payable": false,
      "stateMutability": "view",
      "type": "function"
    },
    {
      "constant": false,
      "inputs": [
        {
          "name": "_beneficiary",
          "type": "address"
        }
      ],
      "name": "updateBeneficiary",
      "outputs": [],
      "payable": false,
      "stateMutability": "nonpayable",
      "type": "function"
    },
    {
      "constant": true,
      "inputs": [],
      "name": "PPM",
      "outputs": [
        {
          "name": "",
          "type": "uint32"
        }
      ],
      "payable": false,
      "stateMutability": "view",
      "type": "function"
    },
    {
      "constant": true,
      "inputs": [],
      "name": "UPDATE_FORMULA_ROLE",
      "outputs": [
        {
          "name": "",
          "type": "bytes32"
        }
      ],
      "payable": false,
      "stateMutability": "view",
      "type": "function"
    },
    {
      "constant": false,
      "inputs": [
        {
          "name": "_seller",
          "type": "address"
        },
        {
          "name": "_collateral",
          "type": "address"
        },
        {
          "name": "_amount",
          "type": "uint256"
        }
      ],
      "name": "openSellOrder",
      "outputs": [],
      "payable": false,
      "stateMutability": "nonpayable",
      "type": "function"
    },
    {
      "constant": true,
      "inputs": [
        {
          "name": "",
          "type": "uint256"
        }
      ],
      "name": "metaBatches",
      "outputs": [
        {
          "name": "initialized",
          "type": "bool"
        },
        {
          "name": "realSupply",
          "type": "uint256"
        },
        {
          "name": "buyFeePct",
          "type": "uint256"
        },
        {
          "name": "sellFeePct",
          "type": "uint256"
        },
        {
          "name": "formula",
          "type": "address"
        }
      ],
      "payable": false,
      "stateMutability": "view",
      "type": "function"
    },
    {
      "constant": true,
      "inputs": [
        {
          "name": "_script",
          "type": "bytes"
        }
      ],
      "name": "getEVMScriptExecutor",
      "outputs": [
        {
          "name": "",
          "type": "address"
        }
      ],
      "payable": false,
      "stateMutability": "view",
      "type": "function"
    },
    {
      "constant": true,
      "inputs": [],
      "name": "OPEN_BUY_ORDER_ROLE",
      "outputs": [
        {
          "name": "",
          "type": "bytes32"
        }
      ],
      "payable": false,
      "stateMutability": "view",
      "type": "function"
    },
    {
      "constant": true,
      "inputs": [],
      "name": "UPDATE_COLLATERAL_TOKEN_ROLE",
      "outputs": [
        {
          "name": "",
          "type": "bytes32"
        }
      ],
      "payable": false,
      "stateMutability": "view",
      "type": "function"
    },
    {
      "constant": true,
      "inputs": [],
      "name": "getRecoveryVault",
      "outputs": [
        {
          "name": "",
          "type": "address"
        }
      ],
      "payable": false,
      "stateMutability": "view",
      "type": "function"
    },
    {
      "constant": true,
      "inputs": [],
      "name": "beneficiary",
      "outputs": [
        {
          "name": "",
          "type": "address"
        }
      ],
      "payable": false,
      "stateMutability": "view",
      "type": "function"
    },
    {
      "constant": false,
      "inputs": [
        {
          "name": "_buyer",
          "type": "address"
        },
        {
          "name": "_collateral",
          "type": "address"
        },
        {
          "name": "_value",
          "type": "uint256"
        }
      ],
      "name": "openBuyOrder",
      "outputs": [],
      "payable": true,
      "stateMutability": "payable",
      "type": "function"
    },
    {
      "constant": true,
      "inputs": [],
      "name": "UPDATE_BENEFICIARY_ROLE",
      "outputs": [
        {
          "name": "",
          "type": "bytes32"
        }
      ],
      "payable": false,
      "stateMutability": "view",
      "type": "function"
    },
    {
      "constant": true,
      "inputs": [],
      "name": "isOpen",
      "outputs": [
        {
          "name": "",
          "type": "bool"
        }
      ],
      "payable": false,
      "stateMutability": "view",
      "type": "function"
    },
    {
      "constant": true,
      "inputs": [
        {
          "name": "",
          "type": "address"
        }
      ],
      "name": "collateralsToBeClaimed",
      "outputs": [
        {
          "name": "",
          "type": "uint256"
        }
      ],
      "payable": false,
      "stateMutability": "view",
      "type": "function"
    },
    {
      "constant": true,
      "inputs": [],
      "name": "formula",
      "outputs": [
        {
          "name": "",
          "type": "address"
        }
      ],
      "payable": false,
      "stateMutability": "view",
      "type": "function"
    },
    {
      "constant": false,
      "inputs": [
        {
          "name": "_seller",
          "type": "address"
        },
        {
          "name": "_batchId",
          "type": "uint256"
        },
        {
          "name": "_collateral",
          "type": "address"
        }
      ],
      "name": "claimSellOrder",
      "outputs": [],
      "payable": false,
      "stateMutability": "nonpayable",
      "type": "function"
    },
    {
      "constant": true,
      "inputs": [],
      "name": "ADD_COLLATERAL_TOKEN_ROLE",
      "outputs": [
        {
          "name": "",
          "type": "bytes32"
        }
      ],
      "payable": false,
      "stateMutability": "view",
      "type": "function"
    },
    {
      "constant": true,
      "inputs": [],
      "name": "UPDATE_FEES_ROLE",
      "outputs": [
        {
          "name": "",
          "type": "bytes32"
        }
      ],
      "payable": false,
      "stateMutability": "view",
      "type": "function"
    },
    {
      "constant": true,
      "inputs": [
        {
          "name": "_batchId",
          "type": "uint256"
        },
        {
          "name": "_collateral",
          "type": "address"
        }
      ],
      "name": "getBatch",
      "outputs": [
        {
          "name": "",
          "type": "bool"
        },
        {
          "name": "",
          "type": "bool"
        },
        {
          "name": "",
          "type": "uint256"
        },
        {
          "name": "",
          "type": "uint256"
        },
        {
          "name": "",
          "type": "uint32"
        },
        {
          "name": "",
          "type": "uint256"
        },
        {
          "name": "",
          "type": "uint256"
        },
        {
          "name": "",
          "type": "uint256"
        },
        {
          "name": "",
          "type": "uint256"
        },
        {
          "name": "",
          "type": "uint256"
        }
      ],
      "payable": false,
      "stateMutability": "view",
      "type": "function"
    },
    {
      "constant": true,
      "inputs": [],
      "name": "OPEN_ROLE",
      "outputs": [
        {
          "name": "",
          "type": "bytes32"
        }
      ],
      "payable": false,
      "stateMutability": "view",
      "type": "function"
    },
    {
      "constant": false,
      "inputs": [
        {
          "name": "_buyFeePct",
          "type": "uint256"
        },
        {
          "name": "_sellFeePct",
          "type": "uint256"
        }
      ],
      "name": "updateFees",
      "outputs": [],
      "payable": false,
      "stateMutability": "nonpayable",
      "type": "function"
    },
    {
      "constant": false,
      "inputs": [
        {
          "name": "_buyer",
          "type": "address"
        },
        {
          "name": "_batchId",
          "type": "uint256"
        },
        {
          "name": "_collateral",
          "type": "address"
        }
      ],
      "name": "claimBuyOrder",
      "outputs": [],
      "payable": false,
      "stateMutability": "nonpayable",
      "type": "function"
    },
    {
      "constant": true,
      "inputs": [],
      "name": "sellFeePct",
      "outputs": [
        {
          "name": "",
          "type": "uint256"
        }
      ],
      "payable": false,
      "stateMutability": "view",
      "type": "function"
    },
    {
      "constant": true,
      "inputs": [
        {
          "name": "_supply",
          "type": "uint256"
        },
        {
          "name": "_balance",
          "type": "uint256"
        },
        {
          "name": "_reserveRatio",
          "type": "uint32"
        }
      ],
      "name": "getStaticPricePPM",
      "outputs": [
        {
          "name": "",
          "type": "uint256"
        }
      ],
      "payable": false,
      "stateMutability": "view",
      "type": "function"
    },
    {
      "constant": true,
      "inputs": [
        {
          "name": "token",
          "type": "address"
        }
      ],
      "name": "allowRecoverability",
      "outputs": [
        {
          "name": "",
          "type": "bool"
        }
      ],
      "payable": false,
      "stateMutability": "view",
      "type": "function"
    },
    {
      "constant": true,
      "inputs": [],
      "name": "appId",
      "outputs": [
        {
          "name": "",
          "type": "bytes32"
        }
      ],
      "payable": false,
      "stateMutability": "view",
      "type": "function"
    },
    {
      "constant": false,
      "inputs": [
        {
          "name": "_collateral",
          "type": "address"
        },
        {
          "name": "_virtualSupply",
          "type": "uint256"
        },
        {
          "name": "_virtualBalance",
          "type": "uint256"
        },
        {
          "name": "_reserveRatio",
          "type": "uint32"
        },
        {
          "name": "_slippage",
          "type": "uint256"
        }
      ],
      "name": "updateCollateralToken",
      "outputs": [],
      "payable": false,
      "stateMutability": "nonpayable",
      "type": "function"
    },
    {
      "constant": true,
      "inputs": [],
      "name": "getInitializationBlock",
      "outputs": [
        {
          "name": "",
          "type": "uint256"
        }
      ],
      "payable": false,
      "stateMutability": "view",
      "type": "function"
    },
    {
      "constant": false,
      "inputs": [
        {
          "name": "_buyer",
          "type": "address"
        },
        {
          "name": "_batchId",
          "type": "uint256"
        },
        {
          "name": "_collateral",
          "type": "address"
        }
      ],
      "name": "claimCancelledBuyOrder",
      "outputs": [],
      "payable": false,
      "stateMutability": "nonpayable",
      "type": "function"
    },
    {
      "constant": false,
      "inputs": [
        {
          "name": "_collateral",
          "type": "address"
        }
      ],
      "name": "removeCollateralToken",
      "outputs": [],
      "payable": false,
      "stateMutability": "nonpayable",
      "type": "function"
    },
    {
      "constant": true,
      "inputs": [],
      "name": "tokensToBeMinted",
      "outputs": [
        {
          "name": "",
          "type": "uint256"
        }
      ],
      "payable": false,
      "stateMutability": "view",
      "type": "function"
    },
    {
      "constant": false,
      "inputs": [
        {
          "name": "_token",
          "type": "address"
        }
      ],
      "name": "transferToVault",
      "outputs": [],
      "payable": false,
      "stateMutability": "nonpayable",
      "type": "function"
    },
    {
      "constant": true,
      "inputs": [
        {
          "name": "_sender",
          "type": "address"
        },
        {
          "name": "_role",
          "type": "bytes32"
        },
        {
          "name": "_params",
          "type": "uint256[]"
        }
      ],
      "name": "canPerform",
      "outputs": [
        {
          "name": "",
          "type": "bool"
        }
      ],
      "payable": false,
      "stateMutability": "view",
      "type": "function"
    },
    {
      "constant": true,
      "inputs": [],
      "name": "getEVMScriptRegistry",
      "outputs": [
        {
          "name": "",
          "type": "address"
        }
      ],
      "payable": false,
      "stateMutability": "view",
      "type": "function"
    },
    {
      "constant": true,
      "inputs": [],
      "name": "REMOVE_COLLATERAL_TOKEN_ROLE",
      "outputs": [
        {
          "name": "",
          "type": "bytes32"
        }
      ],
      "payable": false,
      "stateMutability": "view",
      "type": "function"
    },
    {
      "constant": true,
      "inputs": [],
      "name": "batchBlocks",
      "outputs": [
        {
          "name": "",
          "type": "uint256"
        }
      ],
      "payable": false,
      "stateMutability": "view",
      "type": "function"
    },
    {
      "constant": true,
      "inputs": [],
      "name": "reserve",
      "outputs": [
        {
          "name": "",
          "type": "address"
        }
      ],
      "payable": false,
      "stateMutability": "view",
      "type": "function"
    },
    {
      "constant": true,
      "inputs": [],
      "name": "OPEN_SELL_ORDER_ROLE",
      "outputs": [
        {
          "name": "",
          "type": "bytes32"
        }
      ],
      "payable": false,
      "stateMutability": "view",
      "type": "function"
    },
    {
      "constant": true,
      "inputs": [],
      "name": "kernel",
      "outputs": [
        {
          "name": "",
          "type": "address"
        }
      ],
      "payable": false,
      "stateMutability": "view",
      "type": "function"
    },
    {
      "constant": false,
      "inputs": [
        {
          "name": "_formula",
          "type": "address"
        }
      ],
      "name": "updateFormula",
      "outputs": [],
      "payable": false,
      "stateMutability": "nonpayable",
      "type": "function"
    },
    {
      "constant": false,
      "inputs": [
        {
          "name": "_seller",
          "type": "address"
        },
        {
          "name": "_batchId",
          "type": "uint256"
        },
        {
          "name": "_collateral",
          "type": "address"
        }
      ],
      "name": "claimCancelledSellOrder",
      "outputs": [],
      "payable": false,
      "stateMutability": "nonpayable",
      "type": "function"
    },
    {
      "constant": true,
      "inputs": [],
      "name": "isPetrified",
      "outputs": [
        {
          "name": "",
          "type": "bool"
        }
      ],
      "payable": false,
      "stateMutability": "view",
      "type": "function"
    },
    {
      "constant": false,
      "inputs": [
        {
          "name": "_kernel",
          "type": "address"
        },
        {
          "name": "_controller",
          "type": "address"
        },
        {
          "name": "_bondedToken",
          "type": "address"
        },
        {
          "name": "_formula",
          "type": "address"
        },
        {
          "name": "_reserve",
          "type": "address"
        },
        {
          "name": "_beneficiary",
          "type": "address"
        },
        {
          "name": "_batchBlocks",
          "type": "uint256"
        },
        {
          "name": "_buyFeePct",
          "type": "uint256"
        },
        {
          "name": "_sellFeePct",
          "type": "uint256"
        }
      ],
      "name": "initialize",
      "outputs": [],
      "payable": false,
      "stateMutability": "nonpayable",
      "type": "function"
    },
    {
      "constant": true,
      "inputs": [],
      "name": "bondedToken",
      "outputs": [
        {
          "name": "",
          "type": "address"
        }
      ],
      "payable": false,
      "stateMutability": "view",
      "type": "function"
    },
    {
      "constant": true,
      "inputs": [],
      "name": "getCurrentBatchId",
      "outputs": [
        {
          "name": "",
          "type": "uint256"
        }
      ],
      "payable": false,
      "stateMutability": "view",
      "type": "function"
    },
    {
      "constant": true,
      "inputs": [
        {
          "name": "",
          "type": "address"
        }
      ],
      "name": "collaterals",
      "outputs": [
        {
          "name": "whitelisted",
          "type": "bool"
        },
        {
          "name": "virtualSupply",
          "type": "uint256"
        },
        {
          "name": "virtualBalance",
          "type": "uint256"
        },
        {
          "name": "reserveRatio",
          "type": "uint32"
        },
        {
          "name": "slippage",
          "type": "uint256"
        }
      ],
      "payable": false,
      "stateMutability": "view",
      "type": "function"
    },
    {
      "constant": true,
      "inputs": [
        {
          "name": "_collateral",
          "type": "address"
        }
      ],
      "name": "getCollateralToken",
      "outputs": [
        {
          "name": "",
          "type": "bool"
        },
        {
          "name": "",
          "type": "uint256"
        },
        {
          "name": "",
          "type": "uint256"
        },
        {
          "name": "",
          "type": "uint32"
        },
        {
          "name": "",
          "type": "uint256"
        }
      ],
      "payable": false,
      "stateMutability": "view",
      "type": "function"
    },
    {
      "constant": true,
      "inputs": [],
      "name": "controller",
      "outputs": [
        {
          "name": "",
          "type": "address"
        }
      ],
      "payable": false,
      "stateMutability": "view",
      "type": "function"
    },
    {
      "constant": true,
      "inputs": [],
      "name": "buyFeePct",
      "outputs": [
        {
          "name": "",
          "type": "uint256"
        }
      ],
      "payable": false,
      "stateMutability": "view",
      "type": "function"
    },
    {
      "constant": true,
      "inputs": [],
      "name": "PCT_BASE",
      "outputs": [
        {
          "name": "",
          "type": "uint256"
        }
      ],
      "payable": false,
      "stateMutability": "view",
      "type": "function"
    },
    {
      "constant": false,
      "inputs": [],
      "name": "open",
      "outputs": [],
      "payable": false,
      "stateMutability": "nonpayable",
      "type": "function"
    },
    {
      "constant": false,
      "inputs": [
        {
          "name": "_collateral",
          "type": "address"
        },
        {
          "name": "_virtualSupply",
          "type": "uint256"
        },
        {
          "name": "_virtualBalance",
          "type": "uint256"
        },
        {
          "name": "_reserveRatio",
          "type": "uint32"
        },
        {
          "name": "_slippage",
          "type": "uint256"
        }
      ],
      "name": "addCollateralToken",
      "outputs": [],
      "payable": false,
      "stateMutability": "nonpayable",
      "type": "function"
    },
    {
      "anonymous": false,
      "inputs": [
        {
          "indexed": true,
          "name": "beneficiary",
          "type": "address"
        }
      ],
      "name": "UpdateBeneficiary",
      "type": "event"
    },
    {
      "anonymous": false,
      "inputs": [
        {
          "indexed": true,
          "name": "formula",
          "type": "address"
        }
      ],
      "name": "UpdateFormula",
      "type": "event"
    },
    {
      "anonymous": false,
      "inputs": [
        {
          "indexed": false,
          "name": "buyFeePct",
          "type": "uint256"
        },
        {
          "indexed": false,
          "name": "sellFeePct",
          "type": "uint256"
        }
      ],
      "name": "UpdateFees",
      "type": "event"
    },
    {
      "anonymous": false,
      "inputs": [
        {
          "indexed": true,
          "name": "id",
          "type": "uint256"
        },
        {
          "indexed": false,
          "name": "supply",
          "type": "uint256"
        },
        {
          "indexed": false,
          "name": "buyFeePct",
          "type": "uint256"
        },
        {
          "indexed": false,
          "name": "sellFeePct",
          "type": "uint256"
        },
        {
          "indexed": false,
          "name": "formula",
          "type": "address"
        }
      ],
      "name": "NewMetaBatch",
      "type": "event"
    },
    {
      "anonymous": false,
      "inputs": [
        {
          "indexed": true,
          "name": "id",
          "type": "uint256"
        },
        {
          "indexed": true,
          "name": "collateral",
          "type": "address"
        },
        {
          "indexed": false,
          "name": "supply",
          "type": "uint256"
        },
        {
          "indexed": false,
          "name": "balance",
          "type": "uint256"
        },
        {
          "indexed": false,
          "name": "reserveRatio",
          "type": "uint32"
        },
        {
          "indexed": false,
          "name": "slippage",
          "type": "uint256"
        }
      ],
      "name": "NewBatch",
      "type": "event"
    },
    {
      "anonymous": false,
      "inputs": [
        {
          "indexed": true,
          "name": "id",
          "type": "uint256"
        },
        {
          "indexed": true,
          "name": "collateral",
          "type": "address"
        }
      ],
      "name": "CancelBatch",
      "type": "event"
    },
    {
      "anonymous": false,
      "inputs": [
        {
          "indexed": true,
          "name": "collateral",
          "type": "address"
        },
        {
          "indexed": false,
          "name": "virtualSupply",
          "type": "uint256"
        },
        {
          "indexed": false,
          "name": "virtualBalance",
          "type": "uint256"
        },
        {
          "indexed": false,
          "name": "reserveRatio",
          "type": "uint32"
        },
        {
          "indexed": false,
          "name": "slippage",
          "type": "uint256"
        }
      ],
      "name": "AddCollateralToken",
      "type": "event"
    },
    {
      "anonymous": false,
      "inputs": [
        {
          "indexed": true,
          "name": "collateral",
          "type": "address"
        }
      ],
      "name": "RemoveCollateralToken",
      "type": "event"
    },
    {
      "anonymous": false,
      "inputs": [
        {
          "indexed": true,
          "name": "collateral",
          "type": "address"
        },
        {
          "indexed": false,
          "name": "virtualSupply",
          "type": "uint256"
        },
        {
          "indexed": false,
          "name": "virtualBalance",
          "type": "uint256"
        },
        {
          "indexed": false,
          "name": "reserveRatio",
          "type": "uint32"
        },
        {
          "indexed": false,
          "name": "slippage",
          "type": "uint256"
        }
      ],
      "name": "UpdateCollateralToken",
      "type": "event"
    },
    {
      "anonymous": false,
      "inputs": [],
      "name": "Open",
      "type": "event"
    },
    {
      "anonymous": false,
      "inputs": [
        {
          "indexed": true,
          "name": "buyer",
          "type": "address"
        },
        {
          "indexed": true,
          "name": "batchId",
          "type": "uint256"
        },
        {
          "indexed": true,
          "name": "collateral",
          "type": "address"
        },
        {
          "indexed": false,
          "name": "fee",
          "type": "uint256"
        },
        {
          "indexed": false,
          "name": "value",
          "type": "uint256"
        }
      ],
      "name": "OpenBuyOrder",
      "type": "event"
    },
    {
      "anonymous": false,
      "inputs": [
        {
          "indexed": true,
          "name": "seller",
          "type": "address"
        },
        {
          "indexed": true,
          "name": "batchId",
          "type": "uint256"
        },
        {
          "indexed": true,
          "name": "collateral",
          "type": "address"
        },
        {
          "indexed": false,
          "name": "amount",
          "type": "uint256"
        }
      ],
      "name": "OpenSellOrder",
      "type": "event"
    },
    {
      "anonymous": false,
      "inputs": [
        {
          "indexed": true,
          "name": "buyer",
          "type": "address"
        },
        {
          "indexed": true,
          "name": "batchId",
          "type": "uint256"
        },
        {
          "indexed": true,
          "name": "collateral",
          "type": "address"
        },
        {
          "indexed": false,
          "name": "amount",
          "type": "uint256"
        }
      ],
      "name": "ClaimBuyOrder",
      "type": "event"
    },
    {
      "anonymous": false,
      "inputs": [
        {
          "indexed": true,
          "name": "seller",
          "type": "address"
        },
        {
          "indexed": true,
          "name": "batchId",
          "type": "uint256"
        },
        {
          "indexed": true,
          "name": "collateral",
          "type": "address"
        },
        {
          "indexed": false,
          "name": "fee",
          "type": "uint256"
        },
        {
          "indexed": false,
          "name": "value",
          "type": "uint256"
        }
      ],
      "name": "ClaimSellOrder",
      "type": "event"
    },
    {
      "anonymous": false,
      "inputs": [
        {
          "indexed": true,
          "name": "buyer",
          "type": "address"
        },
        {
          "indexed": true,
          "name": "batchId",
          "type": "uint256"
        },
        {
          "indexed": true,
          "name": "collateral",
          "type": "address"
        },
        {
          "indexed": false,
          "name": "value",
          "type": "uint256"
        }
      ],
      "name": "ClaimCancelledBuyOrder",
      "type": "event"
    },
    {
      "anonymous": false,
      "inputs": [
        {
          "indexed": true,
          "name": "seller",
          "type": "address"
        },
        {
          "indexed": true,
          "name": "batchId",
          "type": "uint256"
        },
        {
          "indexed": true,
          "name": "collateral",
          "type": "address"
        },
        {
          "indexed": false,
          "name": "amount",
          "type": "uint256"
        }
      ],
      "name": "ClaimCancelledSellOrder",
      "type": "event"
    },
    {
      "anonymous": false,
      "inputs": [
        {
          "indexed": true,
          "name": "batchId",
          "type": "uint256"
        },
        {
          "indexed": true,
          "name": "collateral",
          "type": "address"
        },
        {
          "indexed": false,
          "name": "totalBuySpend",
          "type": "uint256"
        },
        {
          "indexed": false,
          "name": "totalBuyReturn",
          "type": "uint256"
        },
        {
          "indexed": false,
          "name": "totalSellSpend",
          "type": "uint256"
        },
        {
          "indexed": false,
          "name": "totalSellReturn",
          "type": "uint256"
        }
      ],
      "name": "UpdatePricing",
      "type": "event"
    },
    {
      "anonymous": false,
      "inputs": [
        {
          "indexed": true,
          "name": "executor",
          "type": "address"
        },
        {
          "indexed": false,
          "name": "script",
          "type": "bytes"
        },
        {
          "indexed": false,
          "name": "input",
          "type": "bytes"
        },
        {
          "indexed": false,
          "name": "returnData",
          "type": "bytes"
        }
      ],
      "name": "ScriptResult",
      "type": "event"
    },
    {
      "anonymous": false,
      "inputs": [
        {
          "indexed": true,
          "name": "vault",
          "type": "address"
        },
        {
          "indexed": true,
          "name": "token",
          "type": "address"
        },
        {
          "indexed": false,
          "name": "amount",
          "type": "uint256"
        }
      ],
      "name": "RecoverToVault",
      "type": "event"
    }
  ],
  "transactionHash": "0x37b641f81efa0555b2855eda070b2b77c46ca1f930282eda5e530a2fb52716ba",
  "args": [],
  "solcInputHash": "c0610d08bb5b39d5a913143ed6b9b91b",
  "bytecode": "0x60806040526200001764010000000062000047810204565b6200004160008051602062005e7883398151915260006401000000006200400f6200014f82021704565b62000265565b6200005a64010000000062000153810204565b60408051808201909152601881527f494e49545f414c52454144595f494e495449414c495a454400000000000000006020820152901562000136576040517f08c379a00000000000000000000000000000000000000000000000000000000081526004018080602001828103825283818151815260200191508051906020019080838360005b83811015620000fa578181015183820152602001620000e0565b50505050905090810190601f168015620001285780820380516001836020036101000a031916815260200191505b509250505060405180910390fd5b506200014d60001964010000000062000182810204565b565b9055565b60006200017d60008051602062005e788339815191526401000000006200400b6200026182021704565b905090565b6200019564010000000062000153810204565b60408051808201909152601881527f494e49545f414c52454144595f494e495449414c495a454400000000000000006020820152901562000234576040517f08c379a000000000000000000000000000000000000000000000000000000000815260040180806020018281038252838181518152602001915080519060200190808383600083811015620000fa578181015183820152602001620000e0565b506200025e60008051602062005e78833981519152826401000000006200400f6200014f82021704565b50565b5490565b615c0380620002756000396000f3006080604052600436106102635763ffffffff60e060020a6000350416630803fac081146102685780630aaffd2a146102915780630d720bbc146102b45780630e85d277146102e25780630f1ff5ea14610309578063177c1499146103335780632914b9bd146103815780632cd4a270146103f65780633017dbed1461040b57806332f0a3b51461042057806338af3eed146104355780633fae9bfb1461044a57806341644f8c1461046757806347535d7b1461047c5780634afe6c47146104915780634b75f54f146104b25780635e6f6c77146104c7578063608bac05146104f257806360e14b6014610507578063683dee471461051c5780636a928e8f146105975780636db79437146105ac57806378ea6103146105c75780637b9e86bf146105f25780637cfab0cb146106075780637e7db6e11461062b57806380afdea81461064c5780638a9b1e2d146106615780638b3dd749146106945780639249be28146106a957806394f9059f146106d45780639ba9dada146106f55780639d4941d81461070a578063a1658fad1461072b578063a479e50814610792578063b6e9c826146107a7578063c56f0f6c146107bc578063cd3293de146107d1578063cf9d82f2146107e6578063d4aae0c4146107fb578063d5b49a7114610810578063dbbdf2fe14610831578063de4796ed1461085c578063df5377fe14610871578063e36a4ec7146108ba578063e720ac8e146108cf578063eeb97d3b146108e4578063f190e42714610938578063f77c479114610959578063f79c5c7c1461096e578063fc157cb414610983578063fcfff16f14610998578063fd531e03146109ad575b600080fd5b34801561027457600080fd5b5061027d6109e0565b604080519115158252519081900360200190f35b34801561029d57600080fd5b506102b2600160a060020a0360043516610a09565b005b3480156102c057600080fd5b506102c9610b99565b6040805163ffffffff9092168252519081900360200190f35b3480156102ee57600080fd5b506102f7610ba0565b60408051918252519081900360200190f35b34801561031557600080fd5b506102b2600160a060020a0360043581169060243516604435610bc4565b34801561033f57600080fd5b5061034b600435610eab565b6040805195151586526020860194909452848401929092526060840152600160a060020a03166080830152519081900360a00190f35b34801561038d57600080fd5b506040805160206004803580820135601f81018490048402850184019095528484526103da943694929360249392840191908190840183828082843750949750610ee79650505050505050565b60408051600160a060020a039092168252519081900360200190f35b34801561040257600080fd5b506102f7610fcd565b34801561041757600080fd5b506102f7610ff1565b34801561042c57600080fd5b506103da611015565b34801561044157600080fd5b506103da61108d565b6102b2600160a060020a036004358116906024351660443561109c565b34801561047357600080fd5b506102f7611379565b34801561048857600080fd5b5061027d61139d565b34801561049d57600080fd5b506102f7600160a060020a03600435166113a6565b3480156104be57600080fd5b506103da6113b8565b3480156104d357600080fd5b506102b2600160a060020a0360043581169060243590604435166113c7565b3480156104fe57600080fd5b506102f7611729565b34801561051357600080fd5b506102f761174d565b34801561052857600080fd5b50610540600435600160a060020a0360243516611771565b604080519a15158b5298151560208b015289890197909752606089019590955263ffffffff909316608088015260a087019190915260c086015260e085015261010084015261012083015251908190036101400190f35b3480156105a357600080fd5b506102f76118ba565b3480156105b857600080fd5b506102b26004356024356118de565b3480156105d357600080fd5b506102b2600160a060020a036004358116906024359060443516611a3d565b3480156105fe57600080fd5b506102f7611d7b565b34801561061357600080fd5b506102f760043560243563ffffffff60443516611d81565b34801561063757600080fd5b5061027d600160a060020a0360043516611e15565b34801561065857600080fd5b506102f7611e1b565b34801561066d57600080fd5b506102b2600160a060020a036004351660243560443563ffffffff60643516608435611e4b565b3480156106a057600080fd5b506102f7612023565b3480156106b557600080fd5b506102b2600160a060020a03600435811690602435906044351661204e565b3480156106e057600080fd5b506102b2600160a060020a0360043516612291565b34801561070157600080fd5b506102f76123cd565b34801561071657600080fd5b506102b2600160a060020a03600435166123d3565b34801561073757600080fd5b50604080516020600460443581810135838102808601850190965280855261027d958335600160a060020a03169560248035963696956064959394920192918291850190849080828437509497506126629650505050505050565b34801561079e57600080fd5b506103da6127b2565b3480156107b357600080fd5b506102f7612867565b3480156107c857600080fd5b506102f761288b565b3480156107dd57600080fd5b506103da612891565b3480156107f257600080fd5b506102f76128a0565b34801561080757600080fd5b506103da6128c4565b34801561081c57600080fd5b506102b2600160a060020a03600435166128ef565b34801561083d57600080fd5b506102b2600160a060020a036004358116906024359060443516612a2b565b34801561086857600080fd5b5061027d612c6e565b34801561087d57600080fd5b506102b2600160a060020a0360043581169060243581169060443581169060643581169060843581169060a4351660c43560e43561010435612c81565b3480156108c657600080fd5b506103da6131cb565b3480156108db57600080fd5b506102f76131da565b3480156108f057600080fd5b50610905600160a060020a0360043516613261565b60408051951515865260208601949094528484019290925263ffffffff1660608401526080830152519081900360a00190f35b34801561094457600080fd5b50610905600160a060020a036004351661329a565b34801561096557600080fd5b506103da61336c565b34801561097a57600080fd5b506102f761337b565b34801561098f57600080fd5b506102f7613381565b3480156109a457600080fd5b506102b261338d565b3480156109b957600080fd5b506102b2600160a060020a036004351660243560443563ffffffff606435166084356134d9565b6000806109eb612023565b90508015801590610a03575080610a00613784565b10155b91505090565b604080516000808252602082019092527ff7ea2b80c7b6a2cab2c11d2290cb005c3748397358a25e17113658c83b73259391610a4b9133918491905b50612662565b60408051808201909152600f8152600080516020615ad88339815191526020820152901515610afb5760405160e560020a62461bcd0281526004018080602001828103825283818151815260200191508051906020019080838360005b83811015610ac0578181015183820152602001610aa8565b50505050905090810190601f168015610aed5780820380516001836020036101000a031916815260200191505b509250505060405180910390fd5b50610b0582613788565b60408051808201909152601681527f4d4d5f494e56414c49445f42454e4546494349415259000000000000000000006020820152901515610b8b5760405160e560020a62461bcd02815260040180806020018281038252838181518152602001915080519060200190808383600083811015610ac0578181015183820152602001610aa8565b50610b9582613796565b5050565b620f424081565b7fbfb76d8d43f55efe58544ea32af187792a7bdb983850d8fed33478266eec3cbb81565b604080516000808252602082019092527fd68ba2b769fa37a2a7bd4bed9241b448bc99eca41f519ef037406386a8f291c091610c04913391849190610a45565b60408051808201909152600f8152600080516020615ad88339815191526020820152901515610c785760405160e560020a62461bcd02815260040180806020018281038252838181518152602001915080519060200190808383600083811015610ac0578181015183820152602001610aa8565b5060085460408051808201909152600b81527f4d4d5f4e4f545f4f50454e00000000000000000000000000000000000000000060208201529060ff161515610d055760405160e560020a62461bcd02815260040180806020018281038252838181518152602001915080519060200190808383600083811015610ac0578181015183820152602001610aa8565b50610d0f836137ed565b60408051808201909152601d8152600080516020615b588339815191526020820152901515610d835760405160e560020a62461bcd02815260040180806020018281038252838181518152602001915080519060200190808383600083811015610ac0578181015183820152602001610aa8565b50610d95610d8f61380b565b84613831565b6040805180820190915260128152600080516020615af883398151915260208201529015610e085760405160e560020a62461bcd02815260040180806020018281038252838181518152602001915080519060200190808383600083811015610ac0578181015183820152602001610aa8565b50610e138483613865565b60408051808201909152601681527f4d4d5f494e56414c49445f424f4e445f414d4f554e54000000000000000000006020820152901515610e995760405160e560020a62461bcd02815260040180806020018281038252838181518152602001915080519060200190808383600083811015610ac0578181015183820152602001610aa8565b50610ea5848484613911565b50505050565b600c602052600090815260409020805460018201546002830154600384015460049094015460ff909316939192909190600160a060020a031685565b6000610ef16127b2565b600160a060020a03166304bf2a7f836040518263ffffffff1660e060020a0281526004018080602001828103825283818151815260200191508051906020019080838360005b83811015610f4f578181015183820152602001610f37565b50505050905090810190601f168015610f7c5780820380516001836020036101000a031916815260200191505b5092505050602060405180830381600087803b158015610f9b57600080fd5b505af1158015610faf573d6000803e3d6000fd5b505050506040513d6020811015610fc557600080fd5b505192915050565b7fa589c8f284b76fc8d510d9d553485c47dbef1b0745ae00e0f3fd4e28fcd77ea781565b7fe0565c2c43e0d841e206bb36a37f12f22584b4652ccee6f9e0c071b697a2e13d81565b600061101f6128c4565b600160a060020a03166332f0a3b56040518163ffffffff1660e060020a028152600401602060405180830381600087803b15801561105c57600080fd5b505af1158015611070573d6000803e3d6000fd5b505050506040513d602081101561108657600080fd5b5051905090565b600354600160a060020a031681565b604080516000808252602082019092527fa589c8f284b76fc8d510d9d553485c47dbef1b0745ae00e0f3fd4e28fcd77ea7916110dc913391849190610a45565b60408051808201909152600f8152600080516020615ad883398151915260208201529015156111505760405160e560020a62461bcd02815260040180806020018281038252838181518152602001915080519060200190808383600083811015610ac0578181015183820152602001610aa8565b5060085460408051808201909152600b81527f4d4d5f4e4f545f4f50454e00000000000000000000000000000000000000000060208201529060ff1615156111dd5760405160e560020a62461bcd02815260040180806020018281038252838181518152602001915080519060200190808383600083811015610ac0578181015183820152602001610aa8565b506111e7836137ed565b60408051808201909152601d8152600080516020615b58833981519152602082015290151561125b5760405160e560020a62461bcd02815260040180806020018281038252838181518152602001915080519060200190808383600083811015610ac0578181015183820152602001610aa8565b50611267610d8f61380b565b6040805180820190915260128152600080516020615af8833981519152602082015290156112da5760405160e560020a62461bcd02815260040180806020018281038252838181518152602001915080519060200190808383600083811015610ac0578181015183820152602001610aa8565b506112e784848434613c12565b60408051808201909152601b81527f4d4d5f494e56414c49445f434f4c4c41544552414c5f56414c55450000000000602082015290151561136d5760405160e560020a62461bcd02815260040180806020018281038252838181518152602001915080519060200190808383600083811015610ac0578181015183820152602001610aa8565b50610ea5848484613d95565b7ff7ea2b80c7b6a2cab2c11d2290cb005c3748397358a25e17113658c83b73259381565b60085460ff1681565b600a6020526000908152604090205481565b600454600160a060020a031681565b6113de600080516020615b7883398151915261400b565b6040805180820190915260198152600080516020615b18833981519152602082015290156114515760405160e560020a62461bcd02815260040180806020018281038252838181518152602001915080519060200190808383600083811015610ac0578181015183820152602001610aa8565b50611471600080516020615b78833981519152600163ffffffff61400f16565b6114796109e0565b6040805180820190915260148152600080516020615bb883398151915260208201529015156114ed5760405160e560020a62461bcd02815260040180806020018281038252838181518152602001915080519060200190808383600083811015610ac0578181015183820152602001610aa8565b506114f7816137ed565b60408051808201909152601d8152600080516020615b58833981519152602082015290151561156b5760405160e560020a62461bcd02815260040180806020018281038252838181518152602001915080519060200190808383600083811015610ac0578181015183820152602001610aa8565b5061157582614013565b60408051808201909152601181527f4d4d5f42415443485f4e4f545f4f56455200000000000000000000000000000060208201529015156115fb5760405160e560020a62461bcd02815260040180806020018281038252838181518152602001915080519060200190808383600083811015610ac0578181015183820152602001610aa8565b506116068282613831565b6040805180820190915260128152600080516020615af8833981519152602082015290156116795760405160e560020a62461bcd02815260040180806020018281038252838181518152602001915080519060200190808383600083811015610ac0578181015183820152602001610aa8565b50611685828285614025565b6040805180820190915260138152600080516020615b9883398151915260208201529015156116f95760405160e560020a62461bcd02815260040180806020018281038252838181518152602001915080519060200190808383600083811015610ac0578181015183820152602001610aa8565b5061170583838361405f565b611724600080516020615b78833981519152600063ffffffff61400f16565b505050565b7f217b79cb2bc7760defc88529853ef81ab33ae5bb315408ce9f5af09c8776662d81565b7f5f9be2932ed3a723f295a763be1804c7ebfd1a41c1348fb8bdf5be1c5cdca82281565b600080600080600080600080600080600061178a6109e0565b6040805180820190915260148152600080516020615bb883398151915260208201529015156117fe5760405160e560020a62461bcd02815260040180806020018281038252838181518152602001915080519060200190808383600083811015610ac0578181015183820152602001610aa8565b50600c60008e815260200190815260200160002060050160008d600160a060020a0316600160a060020a0316815260200190815260200160002090508060000160009054906101000a900460ff168160000160019054906101000a900460ff16826001015483600201548460030160009054906101000a900463ffffffff16856004015486600501548760060154886007015489600801549a509a509a509a509a509a509a509a509a509a50509295989b9194979a5092959850565b7fefa06053e2ca99a43c97c4a4f3d8a394ee3323a8ff237e625fba09fe30ceb0a481565b604080516000808252602082019092527f5f9be2932ed3a723f295a763be1804c7ebfd1a41c1348fb8bdf5be1c5cdca8229161191e913391849190610a45565b60408051808201909152600f8152600080516020615ad883398151915260208201529015156119925760405160e560020a62461bcd02815260040180806020018281038252838181518152602001915080519060200190808383600083811015610ac0578181015183820152602001610aa8565b5061199c836142eb565b80156119ac57506119ac826142eb565b60408051808201909152601581527f4d4d5f494e56414c49445f50455243454e5441474500000000000000000000006020820152901515611a325760405160e560020a62461bcd02815260040180806020018281038252838181518152602001915080519060200190808383600083811015610ac0578181015183820152602001610aa8565b5061172483836142f8565b611a54600080516020615b7883398151915261400b565b6040805180820190915260198152600080516020615b1883398151915260208201529015611ac75760405160e560020a62461bcd02815260040180806020018281038252838181518152602001915080519060200190808383600083811015610ac0578181015183820152602001610aa8565b50611ae7600080516020615b78833981519152600163ffffffff61400f16565b611aef6109e0565b6040805180820190915260148152600080516020615bb88339815191526020820152901515611b635760405160e560020a62461bcd02815260040180806020018281038252838181518152602001915080519060200190808383600083811015610ac0578181015183820152602001610aa8565b50611b6d816137ed565b60408051808201909152601d8152600080516020615b588339815191526020820152901515611be15760405160e560020a62461bcd02815260040180806020018281038252838181518152602001915080519060200190808383600083811015610ac0578181015183820152602001610aa8565b50611beb82614013565b60408051808201909152601181527f4d4d5f42415443485f4e4f545f4f5645520000000000000000000000000000006020820152901515611c715760405160e560020a62461bcd02815260040180806020018281038252838181518152602001915080519060200190808383600083811015610ac0578181015183820152602001610aa8565b50611c7c8282613831565b6040805180820190915260128152600080516020615af883398151915260208201529015611cef5760405160e560020a62461bcd02815260040180806020018281038252838181518152602001915080519060200190808383600083811015610ac0578181015183820152602001610aa8565b50611cfb828285614341565b6040805180820190915260138152600080516020615b988339815191526020820152901515611d6f5760405160e560020a62461bcd02815260040180806020018281038252838181518152602001915080519060200190808383600083811015610ac0578181015183820152602001610aa8565b5061170583838361437b565b60075481565b6000611d8b6109e0565b6040805180820190915260148152600080516020615bb88339815191526020820152901515611dff5760405160e560020a62461bcd02815260040180806020018281038252838181518152602001915080519060200190808383600083811015610ac0578181015183820152602001610aa8565b50611e0b8484846144eb565b90505b9392505050565b50600190565b6000611e467fd625496217aa6a3453eecb9c3489dc5a53e6c67b444329ea2b2cbc9ff547639b61400b565b905090565b604080516000808252602082019092527fe0565c2c43e0d841e206bb36a37f12f22584b4652ccee6f9e0c071b697a2e13d91611e8b913391849190610a45565b60408051808201909152600f8152600080516020615ad88339815191526020820152901515611eff5760405160e560020a62461bcd02815260040180806020018281038252838181518152602001915080519060200190808383600083811015610ac0578181015183820152602001610aa8565b50611f09866137ed565b60408051808201909152601d8152600080516020615b588339815191526020820152901515611f7d5760405160e560020a62461bcd02815260040180806020018281038252838181518152602001915080519060200190808383600083811015610ac0578181015183820152602001610aa8565b50611f8783614514565b60408051808201909152601881527f4d4d5f494e56414c49445f524553455256455f524154494f0000000000000000602082015290151561200d5760405160e560020a62461bcd02815260040180806020018281038252838181518152602001915080519060200190808383600083811015610ac0578181015183820152602001610aa8565b5061201b8686868686614526565b505050505050565b6000611e467febb05b386a8d34882b8711d156f463690983dc47815980fb82aeeff1aa43579e61400b565b612065600080516020615b7883398151915261400b565b6040805180820190915260198152600080516020615b18833981519152602082015290156120d85760405160e560020a62461bcd02815260040180806020018281038252838181518152602001915080519060200190808383600083811015610ac0578181015183820152602001610aa8565b506120f8600080516020615b78833981519152600163ffffffff61400f16565b6121006109e0565b6040805180820190915260148152600080516020615bb883398151915260208201529015156121745760405160e560020a62461bcd02815260040180806020018281038252838181518152602001915080519060200190808383600083811015610ac0578181015183820152602001610aa8565b5061217f8282613831565b60408051808201909152601681527f4d4d5f42415443485f4e4f545f43414e43454c4c45440000000000000000000060208201529015156122055760405160e560020a62461bcd02815260040180806020018281038252838181518152602001915080519060200190808383600083811015610ac0578181015183820152602001610aa8565b50612211828285614341565b6040805180820190915260138152600080516020615b9883398151915260208201529015156122855760405160e560020a62461bcd02815260040180806020018281038252838181518152602001915080519060200190808383600083811015610ac0578181015183820152602001610aa8565b506117058383836145c0565b604080516000808252602082019092527f2044e56de223845e4be7d0a6f4e9a29b635547f16413a6d1327c58d9db438ee2916122d1913391849190610a45565b60408051808201909152600f8152600080516020615ad883398151915260208201529015156123455760405160e560020a62461bcd02815260040180806020018281038252838181518152602001915080519060200190808383600083811015610ac0578181015183820152602001610aa8565b5061234f826137ed565b60408051808201909152601d8152600080516020615b5883398151915260208201529015156123c35760405160e560020a62461bcd02815260040180806020018281038252838181518152602001915080519060200190808383600083811015610ac0578181015183820152602001610aa8565b50610b9582614722565b60095481565b60008060006123e184611e15565b60408051808201909152601281527f5245434f5645525f444953414c4c4f574544000000000000000000000000000060208201529015156124675760405160e560020a62461bcd02815260040180806020018281038252838181518152602001915080519060200190808383600083811015610ac0578181015183820152602001610aa8565b50612470611015565b925061247b8361479f565b60408051808201909152601a81527f5245434f5645525f5641554c545f4e4f545f434f4e545241435400000000000060208201529015156125015760405160e560020a62461bcd02815260040180806020018281038252838181518152602001915080519060200190808383600083811015610ac0578181015183820152602001610aa8565b50600160a060020a03841615156125525760405130319250600160a060020a0384169083156108fc029084906000818181858888f1935050505015801561254c573d6000803e3d6000fd5b50612611565b508261256d600160a060020a0382163063ffffffff6147cc16565b9150612589600160a060020a038216848463ffffffff6148e116565b60408051808201909152601d81527f5245434f5645525f544f4b454e5f5452414e534645525f4641494c4544000000602082015290151561260f5760405160e560020a62461bcd02815260040180806020018281038252838181518152602001915080519060200190808383600083811015610ac0578181015183820152602001610aa8565b505b83600160a060020a031683600160a060020a03167f596caf56044b55fb8c4ca640089bbc2b63cae3e978b851f5745cbb7c5b288e02846040518082815260200191505060405180910390a350505050565b60008061266d6109e0565b151561267c57600091506127aa565b6126846128c4565b9050600160a060020a038116151561269f57600091506127aa565b80600160a060020a031663fdef91068630876126ba8861496c565b60405160e060020a63ffffffff8716028152600160a060020a03808616600483019081529085166024830152604482018490526080606483019081528351608484015283519192909160a490910190602085019080838360005b8381101561272c578181015183820152602001612714565b50505050905090810190601f1680156127595780820380516001836020036101000a031916815260200191505b5095505050505050602060405180830381600087803b15801561277b57600080fd5b505af115801561278f573d6000803e3d6000fd5b505050506040513d60208110156127a557600080fd5b505191505b509392505050565b6000806127bd6128c4565b604080517fbe00bbd80000000000000000000000000000000000000000000000000000000081527fd6f028ca0e8edb4a8c9757ca4fdccab25fa1e0317da1188108f7d2dee14902fb60048201527fddbcfd564f642ab5627cf68b9b7d374fb4f8a36e941a75d89c87998cef03bd6160248201529051600160a060020a03929092169163be00bbd8916044808201926020929091908290030181600087803b158015610f9b57600080fd5b7f2044e56de223845e4be7d0a6f4e9a29b635547f16413a6d1327c58d9db438ee281565b60055481565b600254600160a060020a031681565b7fd68ba2b769fa37a2a7bd4bed9241b448bc99eca41f519ef037406386a8f291c081565b6000611e467f4172f0f7d2289153072b0a6ca36959e0cbe2efc3afe50fc81636caa96338137b61400b565b604080516000808252602082019092527fbfb76d8d43f55efe58544ea32af187792a7bdb983850d8fed33478266eec3cbb9161292f913391849190610a45565b60408051808201909152600f8152600080516020615ad883398151915260208201529015156129a35760405160e560020a62461bcd02815260040180806020018281038252838181518152602001915080519060200190808383600083811015610ac0578181015183820152602001610aa8565b506129ad8261479f565b6040805180820190915260128152600080516020615b388339815191526020820152901515612a215760405160e560020a62461bcd02815260040180806020018281038252838181518152602001915080519060200190808383600083811015610ac0578181015183820152602001610aa8565b50610b9582614976565b612a42600080516020615b7883398151915261400b565b6040805180820190915260198152600080516020615b1883398151915260208201529015612ab55760405160e560020a62461bcd02815260040180806020018281038252838181518152602001915080519060200190808383600083811015610ac0578181015183820152602001610aa8565b50612ad5600080516020615b78833981519152600163ffffffff61400f16565b612add6109e0565b6040805180820190915260148152600080516020615bb88339815191526020820152901515612b515760405160e560020a62461bcd02815260040180806020018281038252838181518152602001915080519060200190808383600083811015610ac0578181015183820152602001610aa8565b50612b5c8282613831565b60408051808201909152601681527f4d4d5f42415443485f4e4f545f43414e43454c4c4544000000000000000000006020820152901515612be25760405160e560020a62461bcd02815260040180806020018281038252838181518152602001915080519060200190808383600083811015610ac0578181015183820152602001610aa8565b50612bee828285614025565b6040805180820190915260138152600080516020615b988339815191526020820152901515612c625760405160e560020a62461bcd02815260040180806020018281038252838181518152602001915080519060200190808383600083811015610ac0578181015183820152602001610aa8565b506117058383836149cd565b6000600019612c7b612023565b14905090565b612c89612023565b60408051808201909152601881527f494e49545f414c52454144595f494e495449414c495a4544000000000000000060208201529015612d0e5760405160e560020a62461bcd02815260040180806020018281038252838181518152602001915080519060200190808383600083811015610ac0578181015183820152602001610aa8565b50612d17614b02565b612d208961479f565b6040805180820190915260128152600080516020615b388339815191526020820152901515612d945760405160e560020a62461bcd02815260040180806020018281038252838181518152602001915080519060200190808383600083811015610ac0578181015183820152602001610aa8565b50612d9e8861479f565b6040805180820190915260128152600080516020615b388339815191526020820152901515612e125760405160e560020a62461bcd02815260040180806020018281038252838181518152602001915080519060200190808383600083811015610ac0578181015183820152602001610aa8565b50612e1c8761479f565b6040805180820190915260128152600080516020615b388339815191526020820152901515612e905760405160e560020a62461bcd02815260040180806020018281038252838181518152602001915080519060200190808383600083811015610ac0578181015183820152602001610aa8565b50612e9a8661479f565b6040805180820190915260128152600080516020615b388339815191526020820152901515612f0e5760405160e560020a62461bcd02815260040180806020018281038252838181518152602001915080519060200190808383600083811015610ac0578181015183820152602001610aa8565b50612f188561479f565b6040805180820190915260128152600080516020615b388339815191526020820152901515612f8c5760405160e560020a62461bcd02815260040180806020018281038252838181518152602001915080519060200190808383600083811015610ac0578181015183820152602001610aa8565b50612f9684613788565b60408051808201909152601681527f4d4d5f494e56414c49445f42454e454649434941525900000000000000000000602082015290151561301c5760405160e560020a62461bcd02815260040180806020018281038252838181518152602001915080519060200190808383600083811015610ac0578181015183820152602001610aa8565b5060408051808201909152601781527f4d4d5f494e56414c49445f42415443485f424c4f434b530000000000000000006020820152600084116130a45760405160e560020a62461bcd02815260040180806020018281038252838181518152602001915080519060200190808383600083811015610ac0578181015183820152602001610aa8565b506130ae826142eb565b80156130be57506130be816142eb565b60408051808201909152601581527f4d4d5f494e56414c49445f50455243454e54414745000000000000000000000060208201529015156131445760405160e560020a62461bcd02815260040180806020018281038252838181518152602001915080519060200190808383600083811015610ac0578181015183820152602001610aa8565b506000805473ffffffffffffffffffffffffffffffffffffffff19908116600160a060020a038b8116919091179092556001805482168a8416179055600480548216898416179055600280548216888416179055600380549091169186169190911790556005839055600682905560078190556131c089614bca565b505050505050505050565b600154600160a060020a031681565b60006131e46109e0565b6040805180820190915260148152600080516020615bb883398151915260208201529015156132585760405160e560020a62461bcd02815260040180806020018281038252838181518152602001915080519060200190808383600083811015610ac0578181015183820152602001610aa8565b50611e4661380b565b600b602052600090815260409020805460018201546002830154600384015460049094015460ff909316939192909163ffffffff169085565b6000806000806000806132ab6109e0565b6040805180820190915260148152600080516020615bb8833981519152602082015290151561331f5760405160e560020a62461bcd02815260040180806020018281038252838181518152602001915080519060200190808383600083811015610ac0578181015183820152602001610aa8565b50505050600160a060020a03939093166000908152600b60205260409020805460018201546002830154600384015460049094015460ff90931697919650945063ffffffff909216925090565b600054600160a060020a031681565b60065481565b670de0b6b3a764000081565b604080516000808252602082019092527fefa06053e2ca99a43c97c4a4f3d8a394ee3323a8ff237e625fba09fe30ceb0a4916133cd913391849190610a45565b60408051808201909152600f8152600080516020615ad883398151915260208201529015156134415760405160e560020a62461bcd02815260040180806020018281038252838181518152602001915080519060200190808383600083811015610ac0578181015183820152602001610aa8565b5060085460408051808201909152600f81527f4d4d5f414c52454144595f4f50454e000000000000000000000000000000000060208201529060ff16156134cd5760405160e560020a62461bcd02815260040180806020018281038252838181518152602001915080519060200190808383600083811015610ac0578181015183820152602001610aa8565b506134d6614bfa565b50565b604080516000808252602082019092527f217b79cb2bc7760defc88529853ef81ab33ae5bb315408ce9f5af09c8776662d91613519913391849190610a45565b60408051808201909152600f8152600080516020615ad8833981519152602082015290151561358d5760405160e560020a62461bcd02815260040180806020018281038252838181518152602001915080519060200190808383600083811015610ac0578181015183820152602001610aa8565b506135978661479f565b806135a95750600160a060020a038616155b60408051808201909152601581527f4d4d5f494e56414c49445f434f4c4c41544552414c0000000000000000000000602082015290151561362f5760405160e560020a62461bcd02815260040180806020018281038252838181518152602001915080519060200190808383600083811015610ac0578181015183820152602001610aa8565b50613639866137ed565b60408051606081018252602181527f4d4d5f434f4c4c41544552414c5f414c52454144595f57484954454c4953544560208201527f44000000000000000000000000000000000000000000000000000000000000009181019190915290156136e65760405160e560020a62461bcd02815260040180806020018281038252838181518152602001915080519060200190808383600083811015610ac0578181015183820152602001610aa8565b506136f083614514565b60408051808201909152601881527f4d4d5f494e56414c49445f524553455256455f524154494f000000000000000060208201529015156137765760405160e560020a62461bcd02815260040180806020018281038252838181518152602001915080519060200190808383600083811015610ac0578181015183820152602001610aa8565b5061201b8686868686614c32565b4390565b600160a060020a0316151590565b6003805473ffffffffffffffffffffffffffffffffffffffff1916600160a060020a0383169081179091556040517fe6131a64e93e9aa4ff38892c34d563c06dcc1e03b3d6897cc65f0903e2ad684890600090a250565b600160a060020a03166000908152600b602052604090205460ff1690565b600554600090611e4690613825438263ffffffff614cd316565b9063ffffffff614d7816565b6000918252600c60209081526040808420600160a060020a0393909316845260059092019052902054610100900460ff1690565b60008115801590611e0e5750600154604080517f70a08231000000000000000000000000000000000000000000000000000000008152600160a060020a0386811660048301529151859392909216916370a08231916024808201926020929091908290030181600087803b1580156138dc57600080fd5b505af11580156138f0573d6000803e3d6000fd5b505050506040513d602081101561390657600080fd5b505110159392505050565b60008060008061392086614e23565b600154604080517f9dc29fac000000000000000000000000000000000000000000000000000000008152600160a060020a038c81166004830152602482018b905291519498509296501691639dc29fac9160448082019260009290919082900301818387803b15801561399257600080fd5b505af11580156139a6573d6000803e3d6000fd5b50505060068401546008850154600786015491945092506139ce91508663ffffffff6151c316565b6007840155600160a060020a0387166000908152600a840160205260409020546139fe908663ffffffff6151c316565b600160a060020a0388166000908152600a85016020526040902055613a24838588615251565b613a4d8360060154613a418460095461556b90919063ffffffff16565b9063ffffffff6151c316565b6009556008830154600160a060020a0387166000908152600a6020526040902054613a839190613a41908463ffffffff61556b16565b600160a060020a0387166000908152600a6020526040902055613aa683876155ff565b60408051808201909152601981527f4d4d5f534c4950504147455f455843454544535f4c494d4954000000000000006020820152901515613b2c5760405160e560020a62461bcd02815260040180806020018281038252838181518152602001915080519060200190808383600083811015610ac0578181015183820152602001610aa8565b50613b3686615669565b60408051808201909152601c81527f4d4d5f494e53554646494349454e545f504f4f4c5f42414c414e4345000000006020820152901515613bbc5760405160e560020a62461bcd02815260040180806020018281038252838181518152602001915080519060200190808383600083811015610ac0578181015183820152602001610aa8565b5085600160a060020a03168488600160a060020a03167f8c103b7b044048ad0382ad31454a2ca34da952258d6526af3a57a9e799cbb7ec886040518082815260200191505060405180910390a450505050505050565b6000821515613c2357506000613d8d565b600160a060020a0384161515613c3c5750808214613d8d565b81158015613ce9575060008054604080517ff7888aec000000000000000000000000000000000000000000000000000000008152600160a060020a038981166004830152888116602483015291518794929093169263f7888aec92604480840193602093929083900390910190829087803b158015613cba57600080fd5b505af1158015613cce573d6000803e3d6000fd5b505050506040513d6020811015613ce457600080fd5b505110155b8015613d8a5750604080517fdd62ed3e000000000000000000000000000000000000000000000000000000008152600160a060020a0387811660048301523060248301529151859287169163dd62ed3e9160448083019260209291908290030181600087803b158015613d5b57600080fd5b505af1158015613d6f573d6000803e3d6000fd5b505050506040513d6020811015613d8557600080fd5b505110155b90505b949350505050565b600080600080600080613da788614e23565b6000828152600c60205260409020600201549197509550613de990670de0b6b3a764000090613ddd908a9063ffffffff614d7816565b9063ffffffff614cd316565b9350613dfb878563ffffffff61556b16565b92506000841115613e1f57600354613e1f908a90600160a060020a03168a87615721565b600254613e38908a90600160a060020a03168a86615721565b5050600683015460088401546005850154613e59908463ffffffff6151c316565b6005860155600160a060020a0389166000908152600986016020526040902054613e89908463ffffffff6151c316565b600160a060020a038a166000908152600987016020526040902055613eaf85878a615251565b613ecc8560060154613a418460095461556b90919063ffffffff16565b6009556008850154600160a060020a0389166000908152600a6020526040902054613f029190613a41908463ffffffff61556b16565b600160a060020a0389166000908152600a6020526040902055613f2585896155ff565b60408051808201909152601981527f4d4d5f534c4950504147455f455843454544535f4c494d4954000000000000006020820152901515613fab5760405160e560020a62461bcd02815260040180806020018281038252838181518152602001915080519060200190808383600083811015610ac0578181015183820152602001610aa8565b5087600160a060020a0316868a600160a060020a03167fecab89c21a18231f17bff6027decbe0682bc9916e969562a87781927b18b2e4d8787604051808381526020018281526020019250505060405180910390a4505050505050505050565b5490565b9055565b600061401d61380b565b909110919050565b6000928352600c60209081526040808520600160a060020a0394851686526005018252808520929093168452600a90910190528120541190565b6000828152600c60209081526040808320600160a060020a03808616855260059091018352818420600781015460088201549289168652600a820190945291842054919392839283926140bc9291613ddd9163ffffffff614d7816565b6000878152600c60205260409020600301549093506140f090670de0b6b3a764000090613ddd90869063ffffffff614d7816565b9150614102838363ffffffff61556b16565b600160a060020a0388166000908152600a8601602052604081208190559091508111156141f357600160a060020a0385166000908152600a6020526040902054614152908463ffffffff61556b16565b600160a060020a038087166000818152600a60205260408082209490945560025484517fbeabacc800000000000000000000000000000000000000000000000000000000815260048101939093528b84166024840152604483018690529351939092169263beabacc89260648084019391929182900301818387803b1580156141da57600080fd5b505af11580156141ee573d6000803e3d6000fd5b505050505b600082111561428e57600254600354604080517fbeabacc8000000000000000000000000000000000000000000000000000000008152600160a060020a0389811660048301529283166024820152604481018690529051919092169163beabacc891606480830192600092919082900301818387803b15801561427557600080fd5b505af1158015614289573d6000803e3d6000fd5b505050505b84600160a060020a03168688600160a060020a03167f0eca047a22717e04fff16b883e2490c1490c953ec49bf7af9270fffddd8b53028585604051808381526020018281526020019250505060405180910390a450505050505050565b670de0b6b3a76400001190565b60068290556007819055604080518381526020810183905281517f53482196ef67ac615caab1c3eca2c270acbfdcd75e57c5f24c1b98b10c8e6e04929181900390910190a15050565b6000928352600c60209081526040808520600160a060020a0394851686526005018252808520929093168452600990910190528120541190565b6000828152600c60209081526040808320600160a060020a03808616855260059182018452828520918201546006830154918916865260098301909452918420549093926143d4929091613ddd9163ffffffff614d7816565b600160a060020a038616600090815260098401602052604081208190559091508111156144985760095461440e908263ffffffff61556b16565b600955600154604080517f40c10f19000000000000000000000000000000000000000000000000000000008152600160a060020a03888116600483015260248201859052915191909216916340c10f1991604480830192600092919082900301818387803b15801561447f57600080fd5b505af1158015614493573d6000803e3d6000fd5b505050505b82600160a060020a03168486600160a060020a03167f1d3062ef0b6bc8ec6a09d7a72a4f2f8c332a0a1055605166c7ae24592c33a50b846040518082815260200191505060405180910390a45050505050565b6000611e0b6145038563ffffffff80861690614d7816565b613ddd85613825620f424080614d78565b620f424063ffffffff82161115919050565b600160a060020a0385166000818152600b6020908152604091829020600181018890556002810187905560038101805463ffffffff881663ffffffff19909116811790915560049091018590558251888152918201879052818301526060810184905290517f1b8a18e7f392180ec571af2dd1c185cbc26951042ba1f62e87db979ee7643a2c9181900360800190a25050505050565b5490565b6000828152600c60209081526040808320600160a060020a03808616855260059091018352818420908716845260098101909252822080549083905590918111156146cf57600160a060020a0383166000908152600a602052604090205461462e908263ffffffff61556b16565b600160a060020a038085166000818152600a60205260408082209490945560025484517fbeabacc800000000000000000000000000000000000000000000000000000000815260048101939093528984166024840152604483018690529351939092169263beabacc89260648084019391929182900301818387803b1580156146b657600080fd5b505af11580156146ca573d6000803e3d6000fd5b505050505b82600160a060020a03168486600160a060020a03167feb3996b71a45309a78196a4ec37faf4860dccc26536b7f6232e078b47baf2cb8846040518082815260200191505060405180910390a45050505050565b600061472d82615815565b50600160a060020a0381166000818152600b6020526040808220805460ff19168155600181018390556002810183905560038101805463ffffffff191690556004810183905590519092917fef578b3b1649eb50cb7766e79f596caa69b7de7e3fef0c0f4e678976a5d51e1591a25050565b600080600160a060020a03831615156147bb57600091506147c6565b823b90506000811191505b50919050565b60408051600160a060020a0383166024808301919091528251808303909101815260449091019091526020810180517bffffffffffffffffffffffffffffffffffffffffffffffffffffffff167f70a0823100000000000000000000000000000000000000000000000000000000179052600090818061484c86846158ec565b60408051808201909152601c81527f534146455f4552435f32305f42414c414e43455f524556455254454400000000602082015291935091508215156148d75760405160e560020a62461bcd02815260040180806020018281038252838181518152602001915080519060200190808383600083811015610ac0578181015183820152602001610aa8565b5095945050505050565b60408051600160a060020a038416602482015260448082018490528251808303909101815260649091019091526020810180517bffffffffffffffffffffffffffffffffffffffffffffffffffffffff167fa9059cbb00000000000000000000000000000000000000000000000000000000179052600090614963858261591d565b95945050505050565b8051602002815290565b6004805473ffffffffffffffffffffffffffffffffffffffff1916600160a060020a0383169081179091556040517f050a79a49cc1dc3aeeccd8636685ad0469db41a9bd51254a34fc1cf616693d4190600090a250565b6000828152600c60209081526040808320600160a060020a038086168552600590910183528184209087168452600a810190925282208054908390559091811115614aaf57600954614a25908263ffffffff61556b16565b600955600154604080517f40c10f19000000000000000000000000000000000000000000000000000000008152600160a060020a03888116600483015260248201859052915191909216916340c10f1991604480830192600092919082900301818387803b158015614a9657600080fd5b505af1158015614aaa573d6000803e3d6000fd5b505050505b82600160a060020a03168486600160a060020a03167f27335af9c3970a20380b78bda3af53f3ff8ad00e68ec511285c933afe4d42dd7846040518082815260200191505060405180910390a45050505050565b614b0a612023565b60408051808201909152601881527f494e49545f414c52454144595f494e495449414c495a4544000000000000000060208201529015614b8f5760405160e560020a62461bcd02815260040180806020018281038252838181518152602001915080519060200190808383600083811015610ac0578181015183820152602001610aa8565b50614bc8614b9b613784565b7febb05b386a8d34882b8711d156f463690983dc47815980fb82aeeff1aa43579e9063ffffffff61400f16565b565b6134d67f4172f0f7d2289153072b0a6ca36959e0cbe2efc3afe50fc81636caa96338137b8263ffffffff61400f16565b6008805460ff191660011790556040517f59ebeb90bc63057b6515673c3ecf9438e5058bca0f92585014eced636878c9a590600090a1565b600160a060020a0385166000818152600b6020908152604091829020805460ff19166001908117825581018890556002810187905560038101805463ffffffff881663ffffffff19909116811790915560049091018590558251888152918201879052818301526060810184905290517f769df79ace8fd94960b301fa390e66bcd330b25e4a6001f7107540a6d5e55eed9181900360800190a25050505050565b60408051808201909152600d81527f4d4154485f4449565f5a45524f0000000000000000000000000000000000000060208201526000908190818411614d5e5760405160e560020a62461bcd02815260040180806020018281038252838181518152602001915080519060200190808383600083811015610ac0578181015183820152602001610aa8565b508284811515614d6a57fe5b0490508091505b5092915050565b600080831515614d8b5760009150614d71565b50828202828482811515614d9b57fe5b60408051808201909152601181527f4d4154485f4d554c5f4f564552464c4f57000000000000000000000000000000602082015292919004146127aa5760405160e560020a62461bcd02815260040180806020018281038252838181518152602001915080519060200190808383600083811015610ac0578181015183820152602001610aa8565b6000806000806000614e3361380b565b6000818152600c60209081526040808320600160a060020a038b168452600581019092529091208154929550909350915060ff161515614faf57600954600154604080517f18160ddd0000000000000000000000000000000000000000000000000000000081529051614f0a9392600160a060020a0316916318160ddd9160048083019260209291908290030181600087803b158015614ed257600080fd5b505af1158015614ee6573d6000803e3d6000fd5b505050506040513d6020811015614efc57600080fd5b50519063ffffffff6151c316565b6001808401829055600654600285018190556007546003860181905560048054908701805473ffffffffffffffffffffffffffffffffffffffff1916600160a060020a039283161790819055875460ff19169094178755604080519586526020860193909352848301919091529190911660608301525184917f78ac2fc513d7c0ec8ae43a339f0da247ef78f9db22b6d6769163943f05c1a7fe919081900360800190a25b805460ff1615156151b75760008054604080517f846a0a89000000000000000000000000000000000000000000000000000000008152600160a060020a038a811660048301529151919092169263846a0a89926024808201939182900301818387803b15801561501e57600080fd5b505af1158015615032573d6000803e3d6000fd5b50505050600160a060020a0386166000908152600b6020526040902060019081015490830154615061916151c3565b6001820155600160a060020a038087166000818152600a6020908152604080832054600b83528184206002908101548554915484517ff7888aec00000000000000000000000000000000000000000000000000000000815290891660048201526024810197909752925161510d979296615101969495929093169363f7888aec936044808201949392918390030190829087803b158015614ed257600080fd5b9063ffffffff61556b16565b60028201819055600160a060020a0387166000818152600b6020908152604091829020600380820154908701805463ffffffff191663ffffffff9283161790819055600492830154928801839055875460ff1916600190811789558801548551908152938401969096529490941681830152606081019390935251909185917f4bdd04ed9d5392ce48b8fc80abc6fdc0916ce12072be2d571c2d482416349a389181900360800190a35b91959194509092505050565b60408051808201909152601181527f4d4154485f4144445f4f564552464c4f57000000000000000000000000000000602082015260009083830190848210156127aa5760405160e560020a62461bcd02815260040180806020018281038252838181518152602001915080519060200190808383600083811015610ac0578181015183820152602001610aa8565b60008060008060008061528189600101548a600201548b60030160009054906101000a900463ffffffff166144eb565b60078a015490965061529c90620f424090613ddd9089614d78565b945088600501548511156153df5760058901546152c2908790613ddd90620f4240614d78565b60068a0181905560078a01546152dd9163ffffffff61556b16565b9350600c600089815260200190815260200160002060040160009054906101000a9004600160a060020a0316600160a060020a03166349f9b0f78a600101548b600201548c60030160009054906101000a900463ffffffff16886040518563ffffffff1660e060020a028152600401808581526020018481526020018363ffffffff1663ffffffff168152602001828152602001945050505050602060405180830381600087803b15801561539157600080fd5b505af11580156153a5573d6000803e3d6000fd5b505050506040513d60208110156153bb57600080fd5b505160058a01549093506153d5908463ffffffff6151c316565b60088a01556154f9565b6008890185905560058901546153fb908663ffffffff61556b16565b9150600c600089815260200190815260200160002060040160009054906101000a9004600160a060020a0316600160a060020a03166329a00e7c8a600101548b600201548c60030160009054906101000a900463ffffffff16866040518563ffffffff1660e060020a028152600401808581526020018481526020018363ffffffff1663ffffffff168152602001828152602001945050505050602060405180830381600087803b1580156154af57600080fd5b505af11580156154c3573d6000803e3d6000fd5b505050506040513d60208110156154d957600080fd5b505160078a01549091506154f3908263ffffffff6151c316565b60068a01555b600589015460068a015460078b015460088c015460408051948552602085019390935283830191909152606083015251600160a060020a038916918a917f365713522b06a53828592398186ff46abd75365ace3b70c1fad31872ae5da2229181900360800190a3505050505050505050565b60408051808201909152601281527f4d4154485f5355425f554e444552464c4f57000000000000000000000000000060208201526000908190848411156155f75760405160e560020a62461bcd02815260040180806020018281038252838181518152602001915080519060200190808383600083811015610ac0578181015183820152602001610aa8565b505050900390565b6001820154600283015460038401546000928392839261562692919063ffffffff166144eb565b91508460040154905081600014156156415760019250615661565b61564c85838361596f565b801561565e575061565e8583836159d9565b92505b505092915050565b600160a060020a038082166000818152600a6020908152604080832054835460025483517ff7888aec0000000000000000000000000000000000000000000000000000000081529088166004820152602481019690965291519395909491169263f7888aec9260448084019391929182900301818887803b1580156156ed57600080fd5b505af1158015615701573d6000803e3d6000fd5b505050506040513d602081101561571757600080fd5b5051101592915050565b600160a060020a038216151561576d57604051600160a060020a0384169082156108fc029083906000818181858888f19350505050158015615767573d6000803e3d6000fd5b50610ea5565b615788600160a060020a03831685858463ffffffff615a4316565b60408051808201909152601781527f4d4d5f5452414e534645525f46524f4d5f4641494c4544000000000000000000602082015290151561580e5760405160e560020a62461bcd02815260040180806020018281038252838181518152602001915080519060200190808383600083811015610ac0578181015183820152602001610aa8565b5050505050565b60008061582183614e23565b80549193509150610100900460ff16151561172457805461ff001916610100178155600781015460068201546009546158659291613a41919063ffffffff61556b16565b60095560088101546005820154600160a060020a0385166000908152600a60205260409020546158a09291615101919063ffffffff6151c316565b600160a060020a0384166000818152600a6020526040808220939093559151909184917f75fe92dc34008d900951376546f4b5a99223fe53a5241a96516002ad912029e19190a3505050565b6000806000806040516020818751602089018a5afa9250600083111561591157805191505b50909590945092505050565b6000806040516020818551602087016000895af16000811115615961573d801561594e57602081146159575761595f565b6001935061595f565b600183511493505b505b5090949350505050565b9055565b600583015460009061599290620f42409061382590670de0b6b3a7640000614d78565b6159c26159ad670de0b6b3a76400008563ffffffff6151c316565b6006870154613825908763ffffffff614d7816565b106159cf57506001611e0e565b5060009392505050565b6000670de0b6b3a764000082106159f257506001611e0e565b6007840154615a2390613825615a16670de0b6b3a76400008663ffffffff61556b16565b869063ffffffff614d7816565b60088501546159c290620f42409061382590670de0b6b3a7640000614d78565b60408051600160a060020a0385811660248301528416604482015260648082018490528251808303909101815260849091019091526020810180517bffffffffffffffffffffffffffffffffffffffffffffffffffffffff167f23b872dd00000000000000000000000000000000000000000000000000000000179052600090615acd868261591d565b969550505050505056004150505f415554485f4641494c454400000000000000000000000000000000004d4d5f42415443485f43414e43454c4c454400000000000000000000000000005245454e5452414e43595f5245454e5452414e545f43414c4c000000000000004d4d5f434f4e54524143545f49535f454f4100000000000000000000000000004d4d5f434f4c4c41544552414c5f4e4f545f57484954454c4953544544000000e855346402235fdd185c890e68d2c4ecad599b88587635ee285bce2fda58dacb4d4d5f4e4f5448494e475f544f5f434c41494d00000000000000000000000000494e49545f4e4f545f494e495449414c495a4544000000000000000000000000a165627a7a723058200e08b908ee10684c97655537d126390012f845a475079954975994e6aef797250029ebb05b386a8d34882b8711d156f463690983dc47815980fb82aeeff1aa43579e",
  "devdoc": {
    "methods": {
      "addCollateralToken(address,uint256,uint256,uint32,uint256)": {
        "params": {
          "_collateral": "The address of the collateral token to be whitelisted",
          "_reserveRatio": "The reserve ratio to be used for that collateral token [in PPM]",
          "_slippage": "The price slippage below which each batch is to be kept for that collateral token [in PCT_BASE]",
          "_virtualBalance": "The virtual balance to be used for that collateral token [in wei]",
          "_virtualSupply": "The virtual supply to be used for that collateral token [in wei]"
        }
      },
      "allowRecoverability(address)": {
        "details": "By default deriving from AragonApp makes it recoverable",
        "params": {
          "token": "Token address that would be recovered"
        },
        "return": "bool whether the app allows the recovery"
      },
      "canPerform(address,bytes32,uint256[])": {
        "details": "Check whether an action can be performed by a sender for a particular role on this app",
        "params": {
          "_params": "Permission params for the role",
          "_role": "Role on this app",
          "_sender": "Sender of the call"
        },
        "return": "Boolean indicating whether the sender has the permissions to perform the action.        Always returns false if the app hasn't been initialized yet."
      },
      "claimBuyOrder(address,uint256,address)": {
        "params": {
          "_batchId": "The id of the batch in which buy orders are to be claimed",
          "_buyer": "The address of the user whose buy orders are to be claimed",
          "_collateral": "The address of the collateral token against which buy orders are to be claimed"
        }
      },
      "claimCancelledBuyOrder(address,uint256,address)": {
        "params": {
          "_batchId": "The id of the batch in which cancelled buy orders are to be claimed",
          "_buyer": "The address of the user whose cancelled buy orders are to be claimed",
          "_collateral": "The address of the collateral token against which cancelled buy orders are to be claimed"
        }
      },
      "claimCancelledSellOrder(address,uint256,address)": {
        "params": {
          "_batchId": "The id of the batch in which cancelled sell orders are to be claimed",
          "_collateral": "The address of the collateral token against which cancelled sell orders are to be claimed",
          "_seller": "The address of the user whose cancelled sell orders are to be claimed"
        }
      },
      "claimSellOrder(address,uint256,address)": {
        "params": {
          "_batchId": "The id of the batch in which sell orders are to be claimed",
          "_collateral": "The address of the collateral token against which sell orders are to be claimed",
          "_seller": "The address of the user whose sell orders are to be claimed"
        }
      },
      "getInitializationBlock()": {
        "return": "Block number in which the contract was initialized"
      },
      "getRecoveryVault()": {
        "details": "Get the recovery vault for the app",
        "return": "Recovery vault address for the app"
      },
      "hasInitialized()": {
        "return": "Whether the contract has been initialized by the time of the current block"
      },
      "initialize(address,address,address,address,address,address,uint256,uint256,uint256)": {
        "params": {
          "_batchBlocks": "The number of blocks batches are to last",
          "_beneficiary": "The address of the beneficiary [to whom fees are to be sent]",
          "_bondedToken": "The address of the bonded token",
          "_buyFeePct": "The fee to be deducted from buy orders [in PCT_BASE]",
          "_controller": "The address of the controller contract",
          "_formula": "The address of the BancorFormula [computation] contract",
          "_reserve": "The address of the reserve [pool] contract",
          "_sellFeePct": "The fee to be deducted from sell orders [in PCT_BASE]"
        }
      },
      "openBuyOrder(address,address,uint256)": {
        "params": {
          "_buyer": "The address of the buyer",
          "_collateral": "The address of the collateral token to be spent",
          "_value": "The amount of collateral token to be spent"
        }
      },
      "openSellOrder(address,address,uint256)": {
        "params": {
          "_amount": "The amount of bonded token to be spent",
          "_collateral": "The address of the collateral token to be returned",
          "_seller": "The address of the seller"
        }
      },
      "removeCollateralToken(address)": {
        "params": {
          "_collateral": "The address of the collateral token to be un-whitelisted"
        }
      },
      "transferToVault(address)": {
        "params": {
          "_token": "Token balance to be sent to recovery vault."
        }
      },
      "updateBeneficiary(address)": {
        "params": {
          "_beneficiary": "The address of the new beneficiary [to whom fees are to be sent]"
        }
      },
      "updateCollateralToken(address,uint256,uint256,uint32,uint256)": {
        "params": {
          "_collateral": "The address of the collateral token whose collateralization settings are to be updated",
          "_reserveRatio": "The new reserve ratio to be used for that collateral token [in PPM]",
          "_slippage": "The new price slippage below which each batch is to be kept for that collateral token [in PCT_BASE]",
          "_virtualBalance": "The new virtual balance to be used for that collateral token [in wei]",
          "_virtualSupply": "The new virtual supply to be used for that collateral token [in wei]"
        }
      },
      "updateFees(uint256,uint256)": {
        "params": {
          "_buyFeePct": "The new fee to be deducted from buy orders [in PCT_BASE]",
          "_sellFeePct": "The new fee to be deducted from sell orders [in PCT_BASE]"
        }
      },
      "updateFormula(address)": {
        "params": {
          "_formula": "The address of the new BancorFormula [computation] contract"
        }
      }
    }
  },
  "userdoc": {
    "methods": {
      "addCollateralToken(address,uint256,uint256,uint32,uint256)": {
        "notice": "Add `_collateral.symbol(): string` as a whitelisted collateral token"
      },
      "claimBuyOrder(address,uint256,address)": {
        "notice": "Claim the results of `_buyer`'s `_collateral.symbol(): string` buy orders from batch #`_batchId`"
      },
      "claimCancelledBuyOrder(address,uint256,address)": {
        "notice": "Claim the investments of `_buyer`'s `_collateral.symbol(): string` buy orders from cancelled batch #`_batchId`"
      },
      "claimCancelledSellOrder(address,uint256,address)": {
        "notice": "Claim the investments of `_seller`'s `_collateral.symbol(): string` sell orders from cancelled batch #`_batchId`"
      },
      "claimSellOrder(address,uint256,address)": {
        "notice": "Claim the results of `_seller`'s `_collateral.symbol(): string` sell orders from batch #`_batchId`"
      },
      "getCurrentBatchId()": {
        "notice": "*** public view functions ****"
      },
      "initialize(address,address,address,address,address,address,uint256,uint256,uint256)": {
        "notice": "Initialize market maker"
      },
      "open()": {
        "notice": "Open market making [enabling users to open buy and sell orders]"
      },
      "openBuyOrder(address,address,uint256)": {
        "notice": "Open a buy order worth `@tokenAmount(_collateral, _value)`"
      },
      "openSellOrder(address,address,uint256)": {
        "notice": "Open a sell order worth `@tokenAmount(self.token(): address, _amount)` against `_collateral.symbol(): string`"
      },
      "removeCollateralToken(address)": {
        "notice": "Remove `_collateral.symbol(): string` as a whitelisted collateral token"
      },
      "transferToVault(address)": {
        "notice": "Send funds to recovery Vault. This contract should never receive funds,        but in case it does, this function allows one to recover them."
      },
      "updateBeneficiary(address)": {
        "notice": "Update beneficiary to `_beneficiary`"
      },
      "updateCollateralToken(address,uint256,uint256,uint32,uint256)": {
        "notice": "Update `_collateral.symbol(): string` collateralization settings"
      },
      "updateFees(uint256,uint256)": {
        "notice": "Update fees deducted from buy and sell orders to respectively `@formatPct(_buyFeePct)`% and `@formatPct(_sellFeePct)`%"
      },
      "updateFormula(address)": {
        "notice": "Update formula to `_formula`"
      }
    }
  }
}