{
  "address": "0x03d917a2642BE52304B32B55D92f8BF76f2e0b80",
  "abi": [
    {
      "constant": true,
      "inputs": [],
      "name": "hasInitialized",
      "outputs": [
        {
          "name": "",
          "type": "bool"
        }
      ],
      "payable": false,
      "stateMutability": "view",
      "type": "function"
    },
    {
      "constant": true,
      "inputs": [],
      "name": "PPM",
      "outputs": [
        {
          "name": "",
          "type": "uint256"
        }
      ],
      "payable": false,
      "stateMutability": "view",
      "type": "function"
    },
    {
      "constant": true,
      "inputs": [],
      "name": "marketMaker",
      "outputs": [
        {
          "name": "",
          "type": "address"
        }
      ],
      "payable": false,
      "stateMutability": "view",
      "type": "function"
    },
    {
      "constant": true,
      "inputs": [
        {
          "name": "_script",
          "type": "bytes"
        }
      ],
      "name": "getEVMScriptExecutor",
      "outputs": [
        {
          "name": "",
          "type": "address"
        }
      ],
      "payable": false,
      "stateMutability": "view",
      "type": "function"
    },
    {
      "constant": true,
      "inputs": [],
      "name": "tokenManager",
      "outputs": [
        {
          "name": "",
          "type": "address"
        }
      ],
      "payable": false,
      "stateMutability": "view",
      "type": "function"
    },
    {
      "constant": false,
      "inputs": [
        {
          "name": "_period",
          "type": "uint64"
        }
      ],
      "name": "setPeriod",
      "outputs": [],
      "payable": false,
      "stateMutability": "nonpayable",
      "type": "function"
    },
    {
      "constant": true,
      "inputs": [],
      "name": "getRecoveryVault",
      "outputs": [
        {
          "name": "",
          "type": "address"
        }
      ],
      "payable": false,
      "stateMutability": "view",
      "type": "function"
    },
    {
      "constant": true,
      "inputs": [],
      "name": "beneficiary",
      "outputs": [
        {
          "name": "",
          "type": "address"
        }
      ],
      "payable": false,
      "stateMutability": "view",
      "type": "function"
    },
    {
      "constant": true,
      "inputs": [],
      "name": "exchangeRate",
      "outputs": [
        {
          "name": "",
          "type": "uint256"
        }
      ],
      "payable": false,
      "stateMutability": "view",
      "type": "function"
    },
    {
      "constant": false,
      "inputs": [
        {
          "name": "",
          "type": "address"
        },
        {
          "name": "",
          "type": "uint256"
        }
      ],
      "name": "refund",
      "outputs": [],
      "payable": false,
      "stateMutability": "nonpayable",
      "type": "function"
    },
    {
      "constant": false,
      "inputs": [],
      "name": "close",
      "outputs": [],
      "payable": false,
      "stateMutability": "nonpayable",
      "type": "function"
    },
    {
      "constant": false,
      "inputs": [
        {
          "name": "_date",
          "type": "uint64"
        }
      ],
      "name": "setOpenDate",
      "outputs": [],
      "payable": false,
      "stateMutability": "nonpayable",
      "type": "function"
    },
    {
      "constant": true,
      "inputs": [],
      "name": "contributionToken",
      "outputs": [
        {
          "name": "",
          "type": "address"
        }
      ],
      "payable": false,
      "stateMutability": "view",
      "type": "function"
    },
    {
      "constant": true,
      "inputs": [],
      "name": "mintingForBeneficiaryPct",
      "outputs": [
        {
          "name": "",
          "type": "uint256"
        }
      ],
      "payable": false,
      "stateMutability": "view",
      "type": "function"
    },
    {
      "constant": true,
      "inputs": [],
      "name": "OPEN_ROLE",
      "outputs": [
        {
          "name": "",
          "type": "bytes32"
        }
      ],
      "payable": false,
      "stateMutability": "view",
      "type": "function"
    },
    {
      "constant": true,
      "inputs": [],
      "name": "REDUCE_BENEFICIARY_PCT_ROLE",
      "outputs": [
        {
          "name": "",
          "type": "bytes32"
        }
      ],
      "payable": false,
      "stateMutability": "view",
      "type": "function"
    },
    {
      "constant": true,
      "inputs": [
        {
          "name": "token",
          "type": "address"
        }
      ],
      "name": "allowRecoverability",
      "outputs": [
        {
          "name": "",
          "type": "bool"
        }
      ],
      "payable": false,
      "stateMutability": "view",
      "type": "function"
    },
    {
      "constant": true,
      "inputs": [],
      "name": "appId",
      "outputs": [
        {
          "name": "",
          "type": "bytes32"
        }
      ],
      "payable": false,
      "stateMutability": "view",
      "type": "function"
    },
    {
      "constant": false,
      "inputs": [
        {
          "name": "_contributor",
          "type": "address"
        },
        {
          "name": "_value",
          "type": "uint256"
        }
      ],
      "name": "contribute",
      "outputs": [],
      "payable": true,
      "stateMutability": "payable",
      "type": "function"
    },
    {
      "constant": true,
      "inputs": [],
      "name": "getInitializationBlock",
      "outputs": [
        {
          "name": "",
          "type": "uint256"
        }
      ],
      "payable": false,
      "stateMutability": "view",
      "type": "function"
    },
    {
      "constant": true,
      "inputs": [],
      "name": "totalSold",
      "outputs": [
        {
          "name": "",
          "type": "uint256"
        }
      ],
      "payable": false,
      "stateMutability": "view",
      "type": "function"
    },
    {
      "constant": true,
      "inputs": [
        {
          "name": "_value",
          "type": "uint256"
        }
      ],
      "name": "contributionToTokens",
      "outputs": [
        {
          "name": "",
          "type": "uint256"
        }
      ],
      "payable": false,
      "stateMutability": "view",
      "type": "function"
    },
    {
      "constant": false,
      "inputs": [
        {
          "name": "_token",
          "type": "address"
        }
      ],
      "name": "transferToVault",
      "outputs": [],
      "payable": false,
      "stateMutability": "nonpayable",
      "type": "function"
    },
    {
      "constant": true,
      "inputs": [
        {
          "name": "_sender",
          "type": "address"
        },
        {
          "name": "_role",
          "type": "bytes32"
        },
        {
          "name": "_params",
          "type": "uint256[]"
        }
      ],
      "name": "canPerform",
      "outputs": [
        {
          "name": "",
          "type": "bool"
        }
      ],
      "payable": false,
      "stateMutability": "view",
      "type": "function"
    },
    {
      "constant": true,
      "inputs": [],
      "name": "CONTRIBUTE_ROLE",
      "outputs": [
        {
          "name": "",
          "type": "bytes32"
        }
      ],
      "payable": false,
      "stateMutability": "view",
      "type": "function"
    },
    {
      "constant": true,
      "inputs": [],
      "name": "getEVMScriptRegistry",
      "outputs": [
        {
          "name": "",
          "type": "address"
        }
      ],
      "payable": false,
      "stateMutability": "view",
      "type": "function"
    },
    {
      "constant": false,
      "inputs": [
        {
          "name": "_pct",
          "type": "uint64"
        }
      ],
      "name": "reduceBeneficiaryPct",
      "outputs": [],
      "payable": false,
      "stateMutability": "nonpayable",
      "type": "function"
    },
    {
      "constant": true,
      "inputs": [],
      "name": "state",
      "outputs": [
        {
          "name": "",
          "type": "uint8"
        }
      ],
      "payable": false,
      "stateMutability": "view",
      "type": "function"
    },
    {
      "constant": false,
      "inputs": [
        {
          "name": "_controller",
          "type": "address"
        },
        {
          "name": "_marketMaker",
          "type": "address"
        },
        {
          "name": "_tokenManager",
          "type": "address"
        },
        {
          "name": "_reserve",
          "type": "address"
        },
        {
          "name": "_beneficiary",
          "type": "address"
        },
        {
          "name": "_erc20ContribToken",
          "type": "address"
        },
        {
          "name": "_period",
          "type": "uint64"
        },
        {
          "name": "_exchangeRate",
          "type": "uint256"
        },
        {
          "name": "_mintingForBeneficiaryPct",
          "type": "uint256"
        },
        {
          "name": "_openDate",
          "type": "uint64"
        }
      ],
      "name": "initialize",
      "outputs": [],
      "payable": false,
      "stateMutability": "nonpayable",
      "type": "function"
    },
    {
      "constant": true,
      "inputs": [],
      "name": "isClosed",
      "outputs": [
        {
          "name": "",
          "type": "bool"
        }
      ],
      "payable": false,
      "stateMutability": "view",
      "type": "function"
    },
    {
      "constant": true,
      "inputs": [],
      "name": "totalRaised",
      "outputs": [
        {
          "name": "",
          "type": "uint256"
        }
      ],
      "payable": false,
      "stateMutability": "view",
      "type": "function"
    },
    {
      "constant": true,
      "inputs": [],
      "name": "reserve",
      "outputs": [
        {
          "name": "",
          "type": "address"
        }
      ],
      "payable": false,
      "stateMutability": "view",
      "type": "function"
    },
    {
      "constant": true,
      "inputs": [],
      "name": "kernel",
      "outputs": [
        {
          "name": "",
          "type": "address"
        }
      ],
      "payable": false,
      "stateMutability": "view",
      "type": "function"
    },
    {
      "constant": true,
      "inputs": [],
      "name": "isPetrified",
      "outputs": [
        {
          "name": "",
          "type": "bool"
        }
      ],
      "payable": false,
      "stateMutability": "view",
      "type": "function"
    },
    {
      "constant": true,
      "inputs": [],
      "name": "openDate",
      "outputs": [
        {
          "name": "",
          "type": "uint64"
        }
      ],
      "payable": false,
      "stateMutability": "view",
      "type": "function"
    },
    {
      "constant": true,
      "inputs": [],
      "name": "period",
      "outputs": [
        {
          "name": "",
          "type": "uint64"
        }
      ],
      "payable": false,
      "stateMutability": "view",
      "type": "function"
    },
    {
      "constant": true,
      "inputs": [],
      "name": "controller",
      "outputs": [
        {
          "name": "",
          "type": "address"
        }
      ],
      "payable": false,
      "stateMutability": "view",
      "type": "function"
    },
    {
      "constant": false,
      "inputs": [],
      "name": "open",
      "outputs": [],
      "payable": false,
      "stateMutability": "nonpayable",
      "type": "function"
    },
    {
      "anonymous": false,
      "inputs": [
        {
          "indexed": false,
          "name": "date",
          "type": "uint64"
        }
      ],
      "name": "SetOpenDate",
      "type": "event"
    },
    {
      "anonymous": false,
      "inputs": [
        {
          "indexed": false,
          "name": "pct",
          "type": "uint256"
        }
      ],
      "name": "ReduceBeneficiatyPct",
      "type": "event"
    },
    {
      "anonymous": false,
      "inputs": [],
      "name": "Close",
      "type": "event"
    },
    {
      "anonymous": false,
      "inputs": [
        {
          "indexed": true,
          "name": "contributor",
          "type": "address"
        },
        {
          "indexed": false,
          "name": "value",
          "type": "uint256"
        },
        {
          "indexed": false,
          "name": "amount",
          "type": "uint256"
        }
      ],
      "name": "Contribute",
      "type": "event"
    },
    {
      "anonymous": false,
      "inputs": [
        {
          "indexed": true,
          "name": "executor",
          "type": "address"
        },
        {
          "indexed": false,
          "name": "script",
          "type": "bytes"
        },
        {
          "indexed": false,
          "name": "input",
          "type": "bytes"
        },
        {
          "indexed": false,
          "name": "returnData",
          "type": "bytes"
        }
      ],
      "name": "ScriptResult",
      "type": "event"
    },
    {
      "anonymous": false,
      "inputs": [
        {
          "indexed": true,
          "name": "vault",
          "type": "address"
        },
        {
          "indexed": true,
          "name": "token",
          "type": "address"
        },
        {
          "indexed": false,
          "name": "amount",
          "type": "uint256"
        }
      ],
      "name": "RecoverToVault",
      "type": "event"
    }
  ],
  "transactionHash": "0xe3a8e1dc8da02cc42cc31196ad2416905859831d17239e16edb62c0d07bf04a7",
  "args": [],
  "solcInputHash": "73f0b14ba9b59a87bafad8cc1d104ba5",
  "bytecode": "0x6080604052620000176401000000006200001d810204565b6200023b565b6200003064010000000062000125810204565b60408051808201909152601881527f494e49545f414c52454144595f494e495449414c495a45440000000000000000602082015290156200010c576040517f08c379a00000000000000000000000000000000000000000000000000000000081526004018080602001828103825283818151815260200191508051906020019080838360005b83811015620000d0578181015183820152602001620000b6565b50505050905090810190601f168015620000fe5780820380516001836020036101000a031916815260200191505b509250505060405180910390fd5b506200012360001964010000000062000154810204565b565b60006200014f60008051602062003602833981519152640100000000620028176200023382021704565b905090565b6200016764010000000062000125810204565b60408051808201909152601881527f494e49545f414c52454144595f494e495449414c495a454400000000000000006020820152901562000206576040517f08c379a000000000000000000000000000000000000000000000000000000000815260040180806020018281038252838181518152602001915080519060200190808383600083811015620000d0578181015183820152602001620000b6565b506200023060008051602062003602833981519152826401000000006200281b6200023782021704565b50565b5490565b9055565b6133b7806200024b6000396000f3006080604052600436106101be5763ffffffff60e060020a6000350416630803fac081146101c35780630d720bbc146101ec5780631f21f9af146102135780632914b9bd146102445780632a709b141461029d578063309cb5ea146102b257806332f0a3b5146102d657806338af3eed146102eb5780633ba0b9a914610300578063410085df1461031557806343d726d6146103395780634a15fd931461034e5780634bedf9a814610370578063542ba298146103855780636a928e8f1461039a5780637af2b8a0146103af5780637e7db6e1146103c457806380afdea8146103e55780638418cd99146103fa5780638b3dd749146104115780639106d7ba1461042657806396330f461461043b5780639d4941d814610453578063a1658fad14610474578063a2b96b6f146104db578063a479e508146104f0578063b086d74014610505578063c19d93fb14610527578063c226793b14610560578063c2b6b58c146105bc578063c5c4744c146105d1578063cd3293de146105e6578063d4aae0c4146105fb578063de4796ed14610610578063ec8cb28114610625578063ef78d4fd14610657578063f77c47911461066c578063fcfff16f14610681575b600080fd5b3480156101cf57600080fd5b506101d8610696565b604080519115158252519081900360200190f35b3480156101f857600080fd5b506102016106bf565b60408051918252519081900360200190f35b34801561021f57600080fd5b506102286106c6565b60408051600160a060020a039092168252519081900360200190f35b34801561025057600080fd5b506040805160206004803580820135601f81018490048402850184019095528484526102289436949293602493928401919081908401838280828437509497506106d59650505050505050565b3480156102a957600080fd5b506102286107bb565b3480156102be57600080fd5b506102d467ffffffffffffffff600435166107ca565b005b3480156102e257600080fd5b506102286108b8565b3480156102f757600080fd5b50610228610931565b34801561030c57600080fd5b50610201610940565b34801561032157600080fd5b506102d4600160a060020a0360043516602435610946565b34801561034557600080fd5b506102d4610a40565b34801561035a57600080fd5b506102d467ffffffffffffffff60043516610f81565b34801561037c57600080fd5b5061022861102d565b34801561039157600080fd5b5061020161103c565b3480156103a657600080fd5b50610201611042565b3480156103bb57600080fd5b50610201611054565b3480156103d057600080fd5b506101d8600160a060020a0360043516611078565b3480156103f157600080fd5b5061020161107e565b6102d4600160a060020a03600435166024356110ae565b34801561041d57600080fd5b5061020161174d565b34801561043257600080fd5b50610201611778565b34801561044757600080fd5b5061020160043561177e565b34801561045f57600080fd5b506102d4600160a060020a036004351661182b565b34801561048057600080fd5b5060408051602060046044358181013583810280860185019096528085526101d8958335600160a060020a0316956024803596369695606495939492019291829185019084908082843750949750611aba9650505050505050565b3480156104e757600080fd5b50610201611c0a565b3480156104fc57600080fd5b50610228611c2e565b34801561051157600080fd5b506102d467ffffffffffffffff60043516611ce3565b34801561053357600080fd5b5061053c611e72565b6040518082600381111561054c57fe5b60ff16815260200191505060405180910390f35b34801561056c57600080fd5b506102d4600160a060020a0360043581169060243581169060443581169060643581169060843581169060a4351667ffffffffffffffff60c43581169060e4359061010435906101243516611f90565b3480156105c857600080fd5b506101d86124f9565b3480156105dd57600080fd5b5061020161250e565b3480156105f257600080fd5b50610228612514565b34801561060757600080fd5b50610228612523565b34801561061c57600080fd5b506101d861254e565b34801561063157600080fd5b5061063a612561565b6040805167ffffffffffffffff9092168252519081900360200190f35b34801561066357600080fd5b5061063a612571565b34801561067857600080fd5b50610228612599565b34801561068d57600080fd5b506102d46125a8565b6000806106a161174d565b905080158015906106b95750806106b661265e565b10155b91505090565b620f424081565b600154600160a060020a031681565b60006106df611c2e565b600160a060020a03166304bf2a7f836040518263ffffffff1660e060020a0281526004018080602001828103825283818151815260200191508051906020019080838360005b8381101561073d578181015183820152602001610725565b50505050905090810190601f16801561076a5780820380516001836020036101000a031916815260200191505b5092505050602060405180830381600087803b15801561078957600080fd5b505af115801561079d573d6000803e3d6000fd5b505050506040513d60208110156107b357600080fd5b505192915050565b600254600160a060020a031681565b6040805160008082526020820190925260008051602061332c833981519152916107fa9133918491905b50611aba565b60408051808201909152600f81526000805160206132ec83398151915260208201529015156108aa5760405160e560020a62461bcd0281526004018080602001828103825283818151815260200191508051906020019080838360005b8381101561086f578181015183820152602001610857565b50505050905090810190601f16801561089c5780820380516001836020036101000a031916815260200191505b509250505060405180910390fd5b506108b482612662565b5050565b60006108c2612523565b600160a060020a03166332f0a3b56040518163ffffffff1660e060020a028152600401602060405180830381600087803b1580156108ff57600080fd5b505af1158015610913573d6000803e3d6000fd5b505050506040513d602081101561092957600080fd5b505190505b90565b600454600160a060020a031681565b60065481565b61094e610696565b604080518082019091526014815260008051602061336c83398151915260208201529015156109c25760405160e560020a62461bcd0281526004018080602001828103825283818151815260200191508051906020019080838360008381101561086f578181015183820152602001610857565b50604080518082018252601281527f50524553414c455f4e4f5f524546554e445300000000000000000000000000006020808301918252925160e560020a62461bcd0281526004810193845282516024820152825192939283926044909201919080838360008381101561086f578181015183820152602001610857565b6000808080610a5c60008051602061334c833981519152612817565b60408051808201909152601981527f5245454e5452414e43595f5245454e5452414e545f43414c4c0000000000000060208201529015610ae15760405160e560020a62461bcd0281526004018080602001828103825283818151815260200191508051906020019080838360008381101561086f578181015183820152602001610857565b50610b0160008051602061334c833981519152600163ffffffff61281b16565b610b09610696565b604080518082019091526014815260008051602061336c8339815191526020820152901515610b7d5760405160e560020a62461bcd0281526004018080602001828103825283818151815260200191508051906020019080838360008381101561086f578181015183820152602001610857565b506002610b88611e72565b6003811115610b9357fe5b60408051808201909152601581527f50524553414c455f494e56414c49445f5354415445000000000000000000000060208201529114610c185760405160e560020a62461bcd0281526004018080602001828103825283818151815260200191508051906020019080838360008381101561086f578181015183820152602001610857565b506008805468ff000000000000000019166801000000000000000017905560075460001015610cfc57600754620f424003610c60600754600a5461281f90919063ffffffff16565b811515610c6957fe5b60025460048054604080517f40c10f19000000000000000000000000000000000000000000000000000000008152600160a060020a0392831693810193909352949093046024820181905293519397509116916340c10f199160448082019260009290919082900301818387803b158015610ce357600080fd5b505af1158015610cf7573d6000803e3d6000fd5b505050505b600154600554604080517ff190e427000000000000000000000000000000000000000000000000000000008152600160a060020a0392831660048201529051919092169163f190e4279160248083019260a09291908290030181600087803b158015610d6757600080fd5b505af1158015610d7b573d6000803e3d6000fd5b505050506040513d60a0811015610d9157600080fd5b5060600151600754600954919450620f424091610dd79163ffffffff8088169291850391610dc191869061281f16565b811515610dca57fe5b049063ffffffff61281f16565b811515610de057fe5b600554600354929091049350610e0591600160a060020a0391821691309116856128d6565b600554604080517f70a082310000000000000000000000000000000000000000000000000000000081523060048201529051600160a060020a03909216916370a08231916024808201926020929091908290030181600087803b158015610e6b57600080fd5b505af1158015610e7f573d6000803e3d6000fd5b505050506040513d6020811015610e9557600080fd5b505190506000811115610ec157600554600454610ec191600160a060020a0390811691309116846128d6565b60008054604080517fc9567bf90000000000000000000000000000000000000000000000000000000081529051600160a060020a039092169263c9567bf99260048084019382900301818387803b158015610f1b57600080fd5b505af1158015610f2f573d6000803e3d6000fd5b50506040517fc35789ccff76271dc0efa6bfde2f4d4a32cd48dd86278f75f8648cb068c86e3b925060009150a1610f7b60008051602061334c833981519152600063ffffffff61281b16565b50505050565b6040805160008082526020820190925260008051602061332c83398151915291610faf9133918491906107f4565b60408051808201909152600f81526000805160206132ec83398151915260208201529015156110235760405160e560020a62461bcd0281526004018080602001828103825283818151815260200191508051906020019080838360008381101561086f578181015183820152602001610857565b506108b482612a35565b600554600160a060020a031690565b60075481565b60008051602061332c83398151915281565b7f2738f3f227143b7fbb9720e93e2e5b36d7a15966e130b49f1582c6432d949aa981565b50600190565b60006110a97fd625496217aa6a3453eecb9c3489dc5a53e6c67b444329ea2b2cbc9ff547639b612817565b905090565b60006110c760008051602061334c833981519152612817565b60408051808201909152601981527f5245454e5452414e43595f5245454e5452414e545f43414c4c000000000000006020820152901561114c5760405160e560020a62461bcd0281526004018080602001828103825283818151815260200191508051906020019080838360008381101561086f578181015183820152602001610857565b5061116c60008051602061334c833981519152600163ffffffff61281b16565b604080516000808252602082019092527f9ccaca4edf2127f20c425fdd86af1ba178b9e5bee280cd70d88ac5f6874c4f07916111ac9133918491906107f4565b60408051808201909152600f81526000805160206132ec83398151915260208201529015156112205760405160e560020a62461bcd0281526004018080602001828103825283818151815260200191508051906020019080838360008381101561086f578181015183820152602001610857565b50600161122b611e72565b600381111561123657fe5b60408051808201909152601581527f50524553414c455f494e56414c49445f53544154450000000000000000000000602082015291146112bb5760405160e560020a62461bcd0281526004018080602001828103825283818151815260200191508051906020019080838360008381101561086f578181015183820152602001610857565b506040805180820190915260208082527f50524553414c455f494e56414c49445f434f4e545249425554455f56414c55459082015234156113415760405160e560020a62461bcd0281526004018080602001828103825283818151815260200191508051906020019080838360008381101561086f578181015183820152602001610857565b506040805180820190915260208082527f50524553414c455f494e56414c49445f434f4e545249425554455f56414c554590820152600084116113c95760405160e560020a62461bcd0281526004018080602001828103825283818151815260200191508051906020019080838360008381101561086f578181015183820152602001610857565b50600554604080517f70a08231000000000000000000000000000000000000000000000000000000008152600160a060020a0387811660048301529151869392909216916370a08231916024808201926020929091908290030181600087803b15801561143557600080fd5b505af1158015611449573d6000803e3d6000fd5b505050506040513d602081101561145f57600080fd5b505160408051808201909152601c81527f50524553414c455f494e53554646494349454e545f42414c414e43450000000060208201529111156114e75760405160e560020a62461bcd0281526004018080602001828103825283818151815260200191508051906020019080838360008381101561086f578181015183820152602001610857565b50600554604080517fdd62ed3e000000000000000000000000000000000000000000000000000000008152600160a060020a03878116600483015230602483015291518693929092169163dd62ed3e916044808201926020929091908290030181600087803b15801561155957600080fd5b505af115801561156d573d6000803e3d6000fd5b505050506040513d602081101561158357600080fd5b505160408051808201909152601e81527f50524553414c455f494e53554646494349454e545f414c4c4f57414e43450000602082015291111561160b5760405160e560020a62461bcd0281526004018080602001828103825283818151815260200191508051906020019080838360008381101561086f578181015183820152602001610857565b5060055461162490600160a060020a03168530866128d6565b61162d8361177e565b600954909250611643908463ffffffff612bc416565b600955600a54611659908363ffffffff612bc416565b600a55600254604080517f40c10f19000000000000000000000000000000000000000000000000000000008152600160a060020a03878116600483015260248201869052915191909216916340c10f1991604480830192600092919082900301818387803b1580156116ca57600080fd5b505af11580156116de573d6000803e3d6000fd5b505060408051868152602081018690528151600160a060020a03891694507fc9ec9df36a160cd05ae36393dca23c0128234fc68a48baec833a6d8b5967d6da93509081900390910190a25061174860008051602061334c833981519152600063ffffffff61281b16565b505050565b60006110a97febb05b386a8d34882b8711d156f463690983dc47815980fb82aeeff1aa43579e612817565b600a5481565b6000611788610696565b604080518082019091526014815260008051602061336c83398151915260208201529015156117fc5760405160e560020a62461bcd0281526004018080602001828103825283818151815260200191508051906020019080838360008381101561086f578181015183820152602001610857565b50611825620f42406118196006548561281f90919063ffffffff16565b9063ffffffff612c5616565b92915050565b600080600061183984611078565b60408051808201909152601281527f5245434f5645525f444953414c4c4f574544000000000000000000000000000060208201529015156118bf5760405160e560020a62461bcd0281526004018080602001828103825283818151815260200191508051906020019080838360008381101561086f578181015183820152602001610857565b506118c86108b8565b92506118d383612cf6565b60408051808201909152601a81527f5245434f5645525f5641554c545f4e4f545f434f4e545241435400000000000060208201529015156119595760405160e560020a62461bcd0281526004018080602001828103825283818151815260200191508051906020019080838360008381101561086f578181015183820152602001610857565b50600160a060020a03841615156119aa5760405130319250600160a060020a0384169083156108fc029084906000818181858888f193505050501580156119a4573d6000803e3d6000fd5b50611a69565b50826119c5600160a060020a0382163063ffffffff612d2316565b91506119e1600160a060020a038216848463ffffffff612e3816565b60408051808201909152601d81527f5245434f5645525f544f4b454e5f5452414e534645525f4641494c45440000006020820152901515611a675760405160e560020a62461bcd0281526004018080602001828103825283818151815260200191508051906020019080838360008381101561086f578181015183820152602001610857565b505b83600160a060020a031683600160a060020a03167f596caf56044b55fb8c4ca640089bbc2b63cae3e978b851f5745cbb7c5b288e02846040518082815260200191505060405180910390a350505050565b600080611ac5610696565b1515611ad45760009150611c02565b611adc612523565b9050600160a060020a0381161515611af75760009150611c02565b80600160a060020a031663fdef9106863087611b1288612ec3565b60405160e060020a63ffffffff8716028152600160a060020a03808616600483019081529085166024830152604482018490526080606483019081528351608484015283519192909160a490910190602085019080838360005b83811015611b84578181015183820152602001611b6c565b50505050905090810190601f168015611bb15780820380516001836020036101000a031916815260200191505b5095505050505050602060405180830381600087803b158015611bd357600080fd5b505af1158015611be7573d6000803e3d6000fd5b505050506040513d6020811015611bfd57600080fd5b505191505b509392505050565b7f9ccaca4edf2127f20c425fdd86af1ba178b9e5bee280cd70d88ac5f6874c4f0781565b600080611c39612523565b604080517fbe00bbd80000000000000000000000000000000000000000000000000000000081527fd6f028ca0e8edb4a8c9757ca4fdccab25fa1e0317da1188108f7d2dee14902fb60048201527fddbcfd564f642ab5627cf68b9b7d374fb4f8a36e941a75d89c87998cef03bd6160248201529051600160a060020a03929092169163be00bbd8916044808201926020929091908290030181600087803b15801561078957600080fd5b604080516000808252602082019092527f2738f3f227143b7fbb9720e93e2e5b36d7a15966e130b49f1582c6432d949aa991611d239133918491906107f4565b60408051808201909152600f81526000805160206132ec8339815191526020820152901515611d975760405160e560020a62461bcd0281526004018080602001828103825283818151815260200191508051906020019080838360008381101561086f578181015183820152602001610857565b5060075460408051808201909152601381527f50524553414c455f494e56414c49445f5043540000000000000000000000000060208201529067ffffffffffffffff841610611e2b5760405160e560020a62461bcd0281526004018080602001828103825283818151815260200191508051906020019080838360008381101561086f578181015183820152602001610857565b5067ffffffffffffffff8216600781905560408051918252517fa50304e35b9add7e0d49e0d23f05a2a2935cfa28fdc3abe3636318af4bed22459181900360200190a15050565b6000611e7c610696565b604080518082019091526014815260008051602061336c8339815191526020820152901515611ef05760405160e560020a62461bcd0281526004018080602001828103825283818151815260200191508051906020019080838360008381101561086f578181015183820152602001610857565b5060085467ffffffffffffffff161580611f205750611f0d612ecd565b60085467ffffffffffffffff9182169116115b15611f2d5750600061092e565b60085468010000000000000000900460ff1615611f4c5750600361092e565b60055474010000000000000000000000000000000000000000900467ffffffffffffffff16611f79612edf565b67ffffffffffffffff16106110785750600261092e565b611f9861174d565b60408051808201909152601881527f494e49545f414c52454144595f494e495449414c495a454400000000000000006020820152901561201d5760405160e560020a62461bcd0281526004018080602001828103825283818151815260200191508051906020019080838360008381101561086f578181015183820152602001610857565b506120278a612cf6565b604080518082019091526017815260008051602061330c833981519152602082015290151561209b5760405160e560020a62461bcd0281526004018080602001828103825283818151815260200191508051906020019080838360008381101561086f578181015183820152602001610857565b506120a589612cf6565b604080518082019091526017815260008051602061330c83398151915260208201529015156121195760405160e560020a62461bcd0281526004018080602001828103825283818151815260200191508051906020019080838360008381101561086f578181015183820152602001610857565b5061212388612cf6565b604080518082019091526017815260008051602061330c83398151915260208201529015156121975760405160e560020a62461bcd0281526004018080602001828103825283818151815260200191508051906020019080838360008381101561086f578181015183820152602001610857565b506121a187612cf6565b604080518082019091526017815260008051602061330c83398151915260208201529015156122155760405160e560020a62461bcd0281526004018080602001828103825283818151815260200191508051906020019080838360008381101561086f578181015183820152602001610857565b5060408051808201909152601b81527f50524553414c455f494e56414c49445f42454e454649434941525900000000006020820152600160a060020a03871615156122a55760405160e560020a62461bcd0281526004018080602001828103825283818151815260200191508051906020019080838360008381101561086f578181015183820152602001610857565b506122af85612cf6565b6040805190810160405280602081526020017f50524553414c455f494e56414c49445f434f4e545249425554455f544f4b454e8152509015156123375760405160e560020a62461bcd0281526004018080602001828103825283818151815260200191508051906020019080838360008381101561086f578181015183820152602001610857565b5060408051808201909152601d81527f50524553414c455f494e56414c49445f45584348414e47455f524154450000006020820152600084116123bf5760405160e560020a62461bcd0281526004018080602001828103825283818151815260200191508051906020019080838360008381101561086f578181015183820152602001610857565b5060408051808201909152601381527f50524553414c455f494e56414c49445f504354000000000000000000000000006020820152620f424083106124495760405160e560020a62461bcd0281526004018080602001828103825283818151815260200191508051906020019080838360008381101561086f578181015183820152602001610857565b50612452612f33565b6000805473ffffffffffffffffffffffffffffffffffffffff19908116600160a060020a038d8116919091179092556001805482168c84161790556002805482168b84161790556003805482168a841617905560048054821689841617905560058054909116918716919091179055600683905560078290556124d484612662565b67ffffffffffffffff8116156124ed576124ed81612a35565b50505050505050505050565b60085468010000000000000000900460ff1681565b60095481565b600354600160a060020a031681565b60006110a97f4172f0f7d2289153072b0a6ca36959e0cbe2efc3afe50fc81636caa96338137b612817565b600060001961255b61174d565b14905090565b60085467ffffffffffffffff1681565b60055474010000000000000000000000000000000000000000900467ffffffffffffffff1681565b600054600160a060020a031681565b6040805160008082526020820190925260008051602061332c833981519152916125d69133918491906107f4565b60408051808201909152600f81526000805160206132ec833981519152602082015290151561264a5760405160e560020a62461bcd0281526004018080602001828103825283818151815260200191508051906020019080838360008381101561086f578181015183820152602001610857565b5061265b612656612ecd565b612a35565b50565b4390565b60408051808201909152601881527f50524553414c455f54494d455f504552494f445f5a45524f00000000000000006020820152600067ffffffffffffffff8316116126f35760405160e560020a62461bcd0281526004018080602001828103825283818151815260200191508051906020019080838360008381101561086f578181015183820152602001610857565b5060085467ffffffffffffffff16158061273d5750612710612ecd565b60085467ffffffffffffffff9182169161273191168363ffffffff612ffb16565b67ffffffffffffffff16115b60408051808201909152601b81527f50524553414c455f494e56414c49445f54494d455f504552494f44000000000060208201529015156127c35760405160e560020a62461bcd0281526004018080602001828103825283818151815260200191508051906020019080838360008381101561086f578181015183820152602001610857565b506005805467ffffffffffffffff90921674010000000000000000000000000000000000000000027fffffffff0000000000000000ffffffffffffffffffffffffffffffffffffffff909216919091179055565b5490565b9055565b60008083151561283257600091506128cf565b5082820282848281151561284257fe5b60408051808201909152601181527f4d4154485f4d554c5f4f564552464c4f57000000000000000000000000000000602082015292919004146128ca5760405160e560020a62461bcd0281526004018080602001828103825283818151815260200191508051906020019080838360008381101561086f578181015183820152602001610857565b508091505b5092915050565b600160a060020a03831630141561298d57612901600160a060020a038516838363ffffffff612e3816565b60408051808201909152601f81527f50524553414c455f544f4b454e5f5452414e534645525f52455645525445440060208201529015156129875760405160e560020a62461bcd0281526004018080602001828103825283818151815260200191508051906020019080838360008381101561086f578181015183820152602001610857565b50610f7b565b6129a8600160a060020a03851684848463ffffffff61309616565b60408051808201909152601f81527f50524553414c455f544f4b454e5f5452414e534645525f5245564552544544006020820152901515612a2e5760405160e560020a62461bcd0281526004018080602001828103825283818151815260200191508051906020019080838360008381101561086f578181015183820152602001610857565b5050505050565b6000612a3f611e72565b6003811115612a4a57fe5b60408051808201909152601581527f50524553414c455f494e56414c49445f5354415445000000000000000000000060208201529114612acf5760405160e560020a62461bcd0281526004018080602001828103825283818151815260200191508051906020019080838360008381101561086f578181015183820152602001610857565b50612ad8612ecd565b60408051808201909152601981527f50524553414c455f494e56414c49445f4f50454e5f444154450000000000000060208201529067ffffffffffffffff9081169083161015612b6d5760405160e560020a62461bcd0281526004018080602001828103825283818151815260200191508051906020019080838360008381101561086f578181015183820152602001610857565b506008805467ffffffffffffffff831667ffffffffffffffff19909116811790915560408051918252517fab2aeaceefdbd207caa02bf58306335f7c37fd3b434a6cc547733be5e33a86779181900360200190a150565b60408051808201909152601181527f4d4154485f4144445f4f564552464c4f57000000000000000000000000000000602082015260009083830190848210156128ca5760405160e560020a62461bcd0281526004018080602001828103825283818151815260200191508051906020019080838360008381101561086f578181015183820152602001610857565b5490565b60408051808201909152600d81527f4d4154485f4449565f5a45524f0000000000000000000000000000000000000060208201526000908190818411612ce15760405160e560020a62461bcd0281526004018080602001828103825283818151815260200191508051906020019080838360008381101561086f578181015183820152602001610857565b508284811515612ced57fe5b04949350505050565b600080600160a060020a0383161515612d125760009150612d1d565b823b90506000811191505b50919050565b60408051600160a060020a0383166024808301919091528251808303909101815260449091019091526020810180517bffffffffffffffffffffffffffffffffffffffffffffffffffffffff167f70a08231000000000000000000000000000000000000000000000000000000001790526000908180612da3868461312a565b60408051808201909152601c81527f534146455f4552435f32305f42414c414e43455f52455645525445440000000060208201529193509150821515612e2e5760405160e560020a62461bcd0281526004018080602001828103825283818151815260200191508051906020019080838360008381101561086f578181015183820152602001610857565b5095945050505050565b60408051600160a060020a038416602482015260448082018490528251808303909101815260649091019091526020810180517bffffffffffffffffffffffffffffffffffffffffffffffffffffffff167fa9059cbb00000000000000000000000000000000000000000000000000000000179052600090612eba858261315b565b95945050505050565b8051602002815290565b60006110a9612eda6131a9565b6131ad565b60085460009067ffffffffffffffff161515612efd5750600061092e565b600854612f2c9067ffffffffffffffff16612f16612ecd565b67ffffffffffffffff169063ffffffff61324616565b905061092e565b612f3b61174d565b60408051808201909152601881527f494e49545f414c52454144595f494e495449414c495a4544000000000000000060208201529015612fc05760405160e560020a62461bcd0281526004018080602001828103825283818151815260200191508051906020019080838360008381101561086f578181015183820152602001610857565b50612ff9612fcc61265e565b7febb05b386a8d34882b8711d156f463690983dc47815980fb82aeeff1aa43579e9063ffffffff61281b16565b565b60408051808201909152601381527f4d41544836345f4144445f4f564552464c4f570000000000000000000000000060208201526000908383019067ffffffffffffffff80861690831610156128ca5760405160e560020a62461bcd0281526004018080602001828103825283818151815260200191508051906020019080838360008381101561086f578181015183820152602001610857565b60408051600160a060020a0385811660248301528416604482015260648082018490528251808303909101815260849091019091526020810180517bffffffffffffffffffffffffffffffffffffffffffffffffffffffff167f23b872dd00000000000000000000000000000000000000000000000000000000179052600090613120868261315b565b9695505050505050565b6000806000806040516020818751602089018a5afa9250600083111561314f57805191505b50909590945092505050565b6000806040516020818551602087016000895af1600081111561319f573d801561318c57602081146131955761319d565b6001935061319d565b600183511493505b505b5090949350505050565b4290565b60408051808201909152601581527f55494e5436345f4e554d4245525f544f4f5f4249470000000000000000000000602082015260009067ffffffffffffffff83111561323f5760405160e560020a62461bcd0281526004018080602001828103825283818151815260200191508051906020019080838360008381101561086f578181015183820152602001610857565b5090919050565b60408051808201909152601481527f4d41544836345f5355425f554e444552464c4f570000000000000000000000006020820152600090819067ffffffffffffffff80861690851611156132df5760405160e560020a62461bcd0281526004018080602001828103825283818151815260200191508051906020019080838360008381101561086f578181015183820152602001610857565b505050900390565b905556004150505f415554485f4641494c4544000000000000000000000000000000000050524553414c455f434f4e54524143545f49535f454f41000000000000000000efa06053e2ca99a43c97c4a4f3d8a394ee3323a8ff237e625fba09fe30ceb0a4e855346402235fdd185c890e68d2c4ecad599b88587635ee285bce2fda58dacb494e49545f4e4f545f494e495449414c495a4544000000000000000000000000a165627a7a723058202eada31ef4f55302653ce6bc8c2fee8c6ed798f010fb6a95767a093af4b9272a0029ebb05b386a8d34882b8711d156f463690983dc47815980fb82aeeff1aa43579e",
  "devdoc": {
    "methods": {
      "allowRecoverability(address)": {
        "details": "By default deriving from AragonApp makes it recoverable",
        "params": {
          "token": "Token address that would be recovered"
        },
        "return": "bool whether the app allows the recovery"
      },
      "canPerform(address,bytes32,uint256[])": {
        "details": "Check whether an action can be performed by a sender for a particular role on this app",
        "params": {
          "_params": "Permission params for the role",
          "_role": "Role on this app",
          "_sender": "Sender of the call"
        },
        "return": "Boolean indicating whether the sender has the permissions to perform the action.        Always returns false if the app hasn't been initialized yet."
      },
      "contribute(address,uint256)": {
        "params": {
          "_contributor": "The address of the contributor",
          "_value": "The amount of contribution token to be spent"
        }
      },
      "contributionToTokens(uint256)": {
        "params": {
          "_value": "The amount of contribution tokens to be used in that computation"
        }
      },
      "getInitializationBlock()": {
        "return": "Block number in which the contract was initialized"
      },
      "getRecoveryVault()": {
        "details": "Get the recovery vault for the app",
        "return": "Recovery vault address for the app"
      },
      "hasInitialized()": {
        "return": "Whether the contract has been initialized by the time of the current block"
      },
      "initialize(address,address,address,address,address,address,uint64,uint256,uint256,uint64)": {
        "params": {
          "_beneficiary": "The address of the beneficiary [to whom a percentage of the raised funds is be to be sent]",
          "_controller": "The address of the controller contract",
          "_erc20ContribToken": "The address of the token to be used to contribute",
          "_exchangeRate": "The exchangeRate [= 1/price] at which [bonded] tokens are to be purchased for that presale [in PPM]",
          "_marketMaker": "The address of the market maker contract",
          "_openDate": "The date upon which that presale is to be open [ignored if 0]",
          "_period": "The period within which to accept contribution for that presale",
          "_reserve": "The address of the reserve [pool] contract",
          "_tokenManager": "The address of the [bonded] token manager contract"
        }
      },
      "reduceBeneficiaryPct(uint64)": {
        "params": {
          "_pct": "New percentage to be set"
        }
      },
      "setOpenDate(uint64)": {
        "params": {
          "_date": "New date to be set"
        }
      },
      "setPeriod(uint64)": {
        "params": {
          "_period": "New duration to be set"
        }
      },
      "transferToVault(address)": {
        "params": {
          "_token": "Token balance to be sent to recovery vault."
        }
      }
    }
  },
  "userdoc": {
    "methods": {
      "close()": {
        "notice": "Close presale and open trading"
      },
      "contribute(address,uint256)": {
        "notice": "Contribute to the presale up to `@tokenAmount(self.erc20ContribToken(): address, _value)`"
      },
      "contributionToTokens(uint256)": {
        "notice": "Computes the amount of [bonded] tokens that would be purchased for `@tokenAmount(self.contributionToken(): address, _value)`"
      },
      "initialize(address,address,address,address,address,address,uint64,uint256,uint256,uint64)": {
        "notice": "Initialize presale"
      },
      "open()": {
        "notice": "Open presale [enabling users to contribute]"
      },
      "reduceBeneficiaryPct(uint64)": {
        "notice": "Reduce pre-minting for beneficiary percentage to `_pct`"
      },
      "refund(address,uint256)": {
        "notice": "Does nothing. Interface compliance."
      },
      "setOpenDate(uint64)": {
        "notice": "Set presale open date"
      },
      "setPeriod(uint64)": {
        "notice": "Set presale duration"
      },
      "state()": {
        "notice": "Returns the current state of that presale"
      },
      "transferToVault(address)": {
        "notice": "Send funds to recovery Vault. This contract should never receive funds,        but in case it does, this function allows one to recover them."
      }
    }
  }
}