{
  "address": "0x9f4904fa2612f3b6b61B0b7f75Ae27C1fCB7aADd",
  "abi": [
    {
      "constant": false,
      "inputs": [
        {
          "name": "_maximumTapRateIncreasePct",
          "type": "uint256"
        }
      ],
      "name": "updateMaximumTapRateIncreasePct",
      "outputs": [],
      "payable": false,
      "stateMutability": "nonpayable",
      "type": "function"
    },
    {
      "constant": true,
      "inputs": [],
      "name": "hasInitialized",
      "outputs": [
        {
          "name": "",
          "type": "bool"
        }
      ],
      "payable": false,
      "stateMutability": "view",
      "type": "function"
    },
    {
      "constant": false,
      "inputs": [
        {
          "name": "_beneficiary",
          "type": "address"
        }
      ],
      "name": "updateBeneficiary",
      "outputs": [],
      "payable": false,
      "stateMutability": "nonpayable",
      "type": "function"
    },
    {
      "constant": true,
      "inputs": [],
      "name": "TO_RESET_CAP",
      "outputs": [
        {
          "name": "",
          "type": "uint256"
        }
      ],
      "payable": false,
      "stateMutability": "view",
      "type": "function"
    },
    {
      "constant": true,
      "inputs": [],
      "name": "OPEN_TRADING_ROLE",
      "outputs": [
        {
          "name": "",
          "type": "bytes32"
        }
      ],
      "payable": false,
      "stateMutability": "view",
      "type": "function"
    },
    {
      "constant": true,
      "inputs": [],
      "name": "OPEN_PRESALE_ROLE",
      "outputs": [
        {
          "name": "",
          "type": "bytes32"
        }
      ],
      "payable": false,
      "stateMutability": "view",
      "type": "function"
    },
    {
      "constant": true,
      "inputs": [],
      "name": "marketMaker",
      "outputs": [
        {
          "name": "",
          "type": "address"
        }
      ],
      "payable": false,
      "stateMutability": "view",
      "type": "function"
    },
    {
      "constant": true,
      "inputs": [
        {
          "name": "_script",
          "type": "bytes"
        }
      ],
      "name": "getEVMScriptExecutor",
      "outputs": [
        {
          "name": "",
          "type": "address"
        }
      ],
      "payable": false,
      "stateMutability": "view",
      "type": "function"
    },
    {
      "constant": true,
      "inputs": [],
      "name": "OPEN_BUY_ORDER_ROLE",
      "outputs": [
        {
          "name": "",
          "type": "bytes32"
        }
      ],
      "payable": false,
      "stateMutability": "view",
      "type": "function"
    },
    {
      "constant": true,
      "inputs": [],
      "name": "UPDATE_COLLATERAL_TOKEN_ROLE",
      "outputs": [
        {
          "name": "",
          "type": "bytes32"
        }
      ],
      "payable": false,
      "stateMutability": "view",
      "type": "function"
    },
    {
      "constant": true,
      "inputs": [],
      "name": "getRecoveryVault",
      "outputs": [
        {
          "name": "",
          "type": "address"
        }
      ],
      "payable": false,
      "stateMutability": "view",
      "type": "function"
    },
    {
      "constant": false,
      "inputs": [
        {
          "name": "_token",
          "type": "address"
        },
        {
          "name": "_rate",
          "type": "uint256"
        },
        {
          "name": "_floor",
          "type": "uint256"
        }
      ],
      "name": "addTokenTap",
      "outputs": [],
      "payable": false,
      "stateMutability": "nonpayable",
      "type": "function"
    },
    {
      "constant": false,
      "inputs": [
        {
          "name": "_contributor",
          "type": "address"
        },
        {
          "name": "_vestedPurchaseId",
          "type": "uint256"
        }
      ],
      "name": "refund",
      "outputs": [],
      "payable": false,
      "stateMutability": "nonpayable",
      "type": "function"
    },
    {
      "constant": true,
      "inputs": [],
      "name": "UPDATE_BENEFICIARY_ROLE",
      "outputs": [
        {
          "name": "",
          "type": "bytes32"
        }
      ],
      "payable": false,
      "stateMutability": "view",
      "type": "function"
    },
    {
      "constant": true,
      "inputs": [
        {
          "name": "_collateral",
          "type": "address"
        }
      ],
      "name": "collateralsToBeClaimed",
      "outputs": [
        {
          "name": "",
          "type": "uint256"
        }
      ],
      "payable": false,
      "stateMutability": "view",
      "type": "function"
    },
    {
      "constant": true,
      "inputs": [],
      "name": "contributionToken",
      "outputs": [
        {
          "name": "",
          "type": "address"
        }
      ],
      "payable": false,
      "stateMutability": "view",
      "type": "function"
    },
    {
      "constant": false,
      "inputs": [
        {
          "name": "_token",
          "type": "address"
        }
      ],
      "name": "withdraw",
      "outputs": [],
      "payable": false,
      "stateMutability": "nonpayable",
      "type": "function"
    },
    {
      "constant": false,
      "inputs": [
        {
          "name": "_seller",
          "type": "address"
        },
        {
          "name": "_batchId",
          "type": "uint256"
        },
        {
          "name": "_collateral",
          "type": "address"
        }
      ],
      "name": "claimSellOrder",
      "outputs": [],
      "payable": false,
      "stateMutability": "nonpayable",
      "type": "function"
    },
    {
      "constant": true,
      "inputs": [],
      "name": "ADD_COLLATERAL_TOKEN_ROLE",
      "outputs": [
        {
          "name": "",
          "type": "bytes32"
        }
      ],
      "payable": false,
      "stateMutability": "view",
      "type": "function"
    },
    {
      "constant": true,
      "inputs": [],
      "name": "UPDATE_FEES_ROLE",
      "outputs": [
        {
          "name": "",
          "type": "bytes32"
        }
      ],
      "payable": false,
      "stateMutability": "view",
      "type": "function"
    },
    {
      "constant": false,
      "inputs": [
        {
          "name": "_collateral",
          "type": "address"
        },
        {
          "name": "_virtualSupply",
          "type": "uint256"
        },
        {
          "name": "_virtualBalance",
          "type": "uint256"
        },
        {
          "name": "_reserveRatio",
          "type": "uint32"
        },
        {
          "name": "_slippage",
          "type": "uint256"
        }
      ],
      "name": "reAddCollateralToken",
      "outputs": [],
      "payable": false,
      "stateMutability": "nonpayable",
      "type": "function"
    },
    {
      "constant": false,
      "inputs": [],
      "name": "closePresale",
      "outputs": [],
      "payable": false,
      "stateMutability": "nonpayable",
      "type": "function"
    },
    {
      "constant": false,
      "inputs": [
        {
          "name": "_buyFeePct",
          "type": "uint256"
        },
        {
          "name": "_sellFeePct",
          "type": "uint256"
        }
      ],
      "name": "updateFees",
      "outputs": [],
      "payable": false,
      "stateMutability": "nonpayable",
      "type": "function"
    },
    {
      "constant": false,
      "inputs": [
        {
          "name": "_buyer",
          "type": "address"
        },
        {
          "name": "_batchId",
          "type": "uint256"
        },
        {
          "name": "_collateral",
          "type": "address"
        }
      ],
      "name": "claimBuyOrder",
      "outputs": [],
      "payable": false,
      "stateMutability": "nonpayable",
      "type": "function"
    },
    {
      "constant": false,
      "inputs": [
        {
          "name": "_collateral",
          "type": "address"
        },
        {
          "name": "_amount",
          "type": "uint256"
        }
      ],
      "name": "openSellOrder",
      "outputs": [],
      "payable": false,
      "stateMutability": "nonpayable",
      "type": "function"
    },
    {
      "constant": true,
      "inputs": [
        {
          "name": "token",
          "type": "address"
        }
      ],
      "name": "allowRecoverability",
      "outputs": [
        {
          "name": "",
          "type": "bool"
        }
      ],
      "payable": false,
      "stateMutability": "view",
      "type": "function"
    },
    {
      "constant": true,
      "inputs": [],
      "name": "appId",
      "outputs": [
        {
          "name": "",
          "type": "bytes32"
        }
      ],
      "payable": false,
      "stateMutability": "view",
      "type": "function"
    },
    {
      "constant": false,
      "inputs": [
        {
          "name": "_token",
          "type": "address"
        }
      ],
      "name": "updateTappedAmount",
      "outputs": [],
      "payable": false,
      "stateMutability": "nonpayable",
      "type": "function"
    },
    {
      "constant": false,
      "inputs": [
        {
          "name": "_collateral",
          "type": "address"
        },
        {
          "name": "_virtualSupply",
          "type": "uint256"
        },
        {
          "name": "_virtualBalance",
          "type": "uint256"
        },
        {
          "name": "_reserveRatio",
          "type": "uint32"
        },
        {
          "name": "_slippage",
          "type": "uint256"
        }
      ],
      "name": "updateCollateralToken",
      "outputs": [],
      "payable": false,
      "stateMutability": "nonpayable",
      "type": "function"
    },
    {
      "constant": true,
      "inputs": [],
      "name": "getInitializationBlock",
      "outputs": [
        {
          "name": "",
          "type": "uint256"
        }
      ],
      "payable": false,
      "stateMutability": "view",
      "type": "function"
    },
    {
      "constant": true,
      "inputs": [],
      "name": "ADD_TOKEN_TAP_ROLE",
      "outputs": [
        {
          "name": "",
          "type": "bytes32"
        }
      ],
      "payable": false,
      "stateMutability": "view",
      "type": "function"
    },
    {
      "constant": false,
      "inputs": [],
      "name": "openPresale",
      "outputs": [],
      "payable": false,
      "stateMutability": "nonpayable",
      "type": "function"
    },
    {
      "constant": false,
      "inputs": [
        {
          "name": "_collateral",
          "type": "address"
        }
      ],
      "name": "removeCollateralToken",
      "outputs": [],
      "payable": false,
      "stateMutability": "nonpayable",
      "type": "function"
    },
    {
      "constant": false,
      "inputs": [
        {
          "name": "_collateral",
          "type": "address"
        },
        {
          "name": "_virtualSupply",
          "type": "uint256"
        },
        {
          "name": "_virtualBalance",
          "type": "uint256"
        },
        {
          "name": "_reserveRatio",
          "type": "uint32"
        },
        {
          "name": "_slippage",
          "type": "uint256"
        },
        {
          "name": "_rate",
          "type": "uint256"
        },
        {
          "name": "_floor",
          "type": "uint256"
        }
      ],
      "name": "addCollateralToken",
      "outputs": [],
      "payable": false,
      "stateMutability": "nonpayable",
      "type": "function"
    },
    {
      "constant": false,
      "inputs": [
        {
          "name": "_token",
          "type": "address"
        }
      ],
      "name": "transferToVault",
      "outputs": [],
      "payable": false,
      "stateMutability": "nonpayable",
      "type": "function"
    },
    {
      "constant": true,
      "inputs": [
        {
          "name": "_sender",
          "type": "address"
        },
        {
          "name": "_role",
          "type": "bytes32"
        },
        {
          "name": "_params",
          "type": "uint256[]"
        }
      ],
      "name": "canPerform",
      "outputs": [
        {
          "name": "",
          "type": "bool"
        }
      ],
      "payable": false,
      "stateMutability": "view",
      "type": "function"
    },
    {
      "constant": true,
      "inputs": [],
      "name": "CONTRIBUTE_ROLE",
      "outputs": [
        {
          "name": "",
          "type": "bytes32"
        }
      ],
      "payable": false,
      "stateMutability": "view",
      "type": "function"
    },
    {
      "constant": true,
      "inputs": [],
      "name": "getEVMScriptRegistry",
      "outputs": [
        {
          "name": "",
          "type": "address"
        }
      ],
      "payable": false,
      "stateMutability": "view",
      "type": "function"
    },
    {
      "constant": true,
      "inputs": [],
      "name": "UPDATE_TOKEN_TAP_ROLE",
      "outputs": [
        {
          "name": "",
          "type": "bytes32"
        }
      ],
      "payable": false,
      "stateMutability": "view",
      "type": "function"
    },
    {
      "constant": true,
      "inputs": [],
      "name": "REMOVE_COLLATERAL_TOKEN_ROLE",
      "outputs": [
        {
          "name": "",
          "type": "bytes32"
        }
      ],
      "payable": false,
      "stateMutability": "view",
      "type": "function"
    },
    {
      "constant": false,
      "inputs": [
        {
          "name": "_token",
          "type": "address"
        },
        {
          "name": "_rate",
          "type": "uint256"
        },
        {
          "name": "_floor",
          "type": "uint256"
        }
      ],
      "name": "updateTokenTap",
      "outputs": [],
      "payable": false,
      "stateMutability": "nonpayable",
      "type": "function"
    },
    {
      "constant": true,
      "inputs": [],
      "name": "UPDATE_MAXIMUM_TAP_RATE_INCREASE_PCT_ROLE",
      "outputs": [
        {
          "name": "",
          "type": "bytes32"
        }
      ],
      "payable": false,
      "stateMutability": "view",
      "type": "function"
    },
    {
      "constant": false,
      "inputs": [
        {
          "name": "_value",
          "type": "uint256"
        }
      ],
      "name": "contribute",
      "outputs": [],
      "payable": true,
      "stateMutability": "payable",
      "type": "function"
    },
    {
      "constant": false,
      "inputs": [],
      "name": "openTrading",
      "outputs": [],
      "payable": false,
      "stateMutability": "nonpayable",
      "type": "function"
    },
    {
      "constant": true,
      "inputs": [],
      "name": "UPDATE_MAXIMUM_TAP_FLOOR_DECREASE_PCT_ROLE",
      "outputs": [
        {
          "name": "",
          "type": "bytes32"
        }
      ],
      "payable": false,
      "stateMutability": "view",
      "type": "function"
    },
    {
      "constant": true,
      "inputs": [],
      "name": "reserve",
      "outputs": [
        {
          "name": "",
          "type": "address"
        }
      ],
      "payable": false,
      "stateMutability": "view",
      "type": "function"
    },
    {
      "constant": true,
      "inputs": [
        {
          "name": "",
          "type": "uint256"
        }
      ],
      "name": "toReset",
      "outputs": [
        {
          "name": "",
          "type": "address"
        }
      ],
      "payable": false,
      "stateMutability": "view",
      "type": "function"
    },
    {
      "constant": true,
      "inputs": [],
      "name": "OPEN_SELL_ORDER_ROLE",
      "outputs": [
        {
          "name": "",
          "type": "bytes32"
        }
      ],
      "payable": false,
      "stateMutability": "view",
      "type": "function"
    },
    {
      "constant": false,
      "inputs": [
        {
          "name": "_maximumTapFloorDecreasePct",
          "type": "uint256"
        }
      ],
      "name": "updateMaximumTapFloorDecreasePct",
      "outputs": [],
      "payable": false,
      "stateMutability": "nonpayable",
      "type": "function"
    },
    {
      "constant": false,
      "inputs": [
        {
          "name": "_collateral",
          "type": "address"
        },
        {
          "name": "_value",
          "type": "uint256"
        }
      ],
      "name": "openBuyOrder",
      "outputs": [],
      "payable": true,
      "stateMutability": "payable",
      "type": "function"
    },
    {
      "constant": true,
      "inputs": [],
      "name": "kernel",
      "outputs": [
        {
          "name": "",
          "type": "address"
        }
      ],
      "payable": false,
      "stateMutability": "view",
      "type": "function"
    },
    {
      "constant": true,
      "inputs": [],
      "name": "isPetrified",
      "outputs": [
        {
          "name": "",
          "type": "bool"
        }
      ],
      "payable": false,
      "stateMutability": "view",
      "type": "function"
    },
    {
      "constant": true,
      "inputs": [],
      "name": "WITHDRAW_ROLE",
      "outputs": [
        {
          "name": "",
          "type": "bytes32"
        }
      ],
      "payable": false,
      "stateMutability": "view",
      "type": "function"
    },
    {
      "constant": true,
      "inputs": [
        {
          "name": "_token",
          "type": "address"
        }
      ],
      "name": "getMaximumWithdrawal",
      "outputs": [
        {
          "name": "",
          "type": "uint256"
        }
      ],
      "payable": false,
      "stateMutability": "view",
      "type": "function"
    },
    {
      "constant": true,
      "inputs": [
        {
          "name": "_who",
          "type": "address"
        },
        {
          "name": "_token",
          "type": "address"
        }
      ],
      "name": "balanceOf",
      "outputs": [
        {
          "name": "",
          "type": "uint256"
        }
      ],
      "payable": false,
      "stateMutability": "view",
      "type": "function"
    },
    {
      "constant": false,
      "inputs": [
        {
          "name": "_presale",
          "type": "address"
        },
        {
          "name": "_marketMaker",
          "type": "address"
        },
        {
          "name": "_reserve",
          "type": "address"
        },
        {
          "name": "_tap",
          "type": "address"
        },
        {
          "name": "_toReset",
          "type": "address[]"
        }
      ],
      "name": "initialize",
      "outputs": [],
      "payable": false,
      "stateMutability": "nonpayable",
      "type": "function"
    },
    {
      "constant": true,
      "inputs": [],
      "name": "token",
      "outputs": [
        {
          "name": "",
          "type": "address"
        }
      ],
      "payable": false,
      "stateMutability": "view",
      "type": "function"
    },
    {
      "constant": true,
      "inputs": [],
      "name": "tap",
      "outputs": [
        {
          "name": "",
          "type": "address"
        }
      ],
      "payable": false,
      "stateMutability": "view",
      "type": "function"
    },
    {
      "constant": true,
      "inputs": [],
      "name": "presale",
      "outputs": [
        {
          "name": "",
          "type": "address"
        }
      ],
      "payable": false,
      "stateMutability": "view",
      "type": "function"
    },
    {
      "anonymous": false,
      "inputs": [
        {
          "indexed": true,
          "name": "executor",
          "type": "address"
        },
        {
          "indexed": false,
          "name": "script",
          "type": "bytes"
        },
        {
          "indexed": false,
          "name": "input",
          "type": "bytes"
        },
        {
          "indexed": false,
          "name": "returnData",
          "type": "bytes"
        }
      ],
      "name": "ScriptResult",
      "type": "event"
    },
    {
      "anonymous": false,
      "inputs": [
        {
          "indexed": true,
          "name": "vault",
          "type": "address"
        },
        {
          "indexed": true,
          "name": "token",
          "type": "address"
        },
        {
          "indexed": false,
          "name": "amount",
          "type": "uint256"
        }
      ],
      "name": "RecoverToVault",
      "type": "event"
    }
  ],
  "transactionHash": "0x658a935ffd1c08e5408589566dfa874714c7dded1aead759cd0487435cef018f",
  "args": [],
  "solcInputHash": "73f0b14ba9b59a87bafad8cc1d104ba5",
  "bytecode": "0x6080604052620000176401000000006200001d810204565b6200023b565b6200003064010000000062000125810204565b60408051808201909152601881527f494e49545f414c52454144595f494e495449414c495a45440000000000000000602082015290156200010c576040517f08c379a00000000000000000000000000000000000000000000000000000000081526004018080602001828103825283818151815260200191508051906020019080838360005b83811015620000d0578181015183820152602001620000b6565b50505050905090810190601f168015620000fe5780820380516001836020036101000a031916815260200191505b509250505060405180910390fd5b506200012360001964010000000062000154810204565b565b60006200014f60008051602062003d86833981519152640100000000620036ce6200023382021704565b905090565b6200016764010000000062000125810204565b60408051808201909152601881527f494e49545f414c52454144595f494e495449414c495a454400000000000000006020820152901562000206576040517f08c379a000000000000000000000000000000000000000000000000000000000815260040180806020018281038252838181518152602001915080519060200190808383600083811015620000d0578181015183820152602001620000b6565b506200023060008051602062003d868339815191528264010000000062003aab6200023782021704565b50565b5490565b9055565b613b3b806200024b6000396000f3006080604052600436106102a55763ffffffff60e060020a60003504166307e18bc881146102aa5780630803fac0146102c45780630aaffd2a146102ed5780630d3047911461030e5780630f97e2fe146103355780631c1966591461034a5780631f21f9af1461035f5780632914b9bd146103905780632cd4a270146103e95780633017dbed146103fe57806332f0a3b5146104135780633b3fadb614610428578063410085df1461044f57806341644f8c146104735780634afe6c47146104885780634bedf9a8146104a957806351cff8d9146104be5780635e6f6c77146104df578063608bac051461050a57806360e14b601461051f578063628b95b51461053457806363cea450146105675780636db794371461057c57806378ea6103146105975780637b0d772e146105c25780637e7db6e1146105e657806380afdea814610607578063846a0a891461061c5780638a9b1e2d1461063d5780638b3dd749146106705780638b488634146106855780638dd983121461069a57806394f9059f146106af57806397ff256a146106d05780639d4941d814610709578063a1658fad1461072a578063a2b96b6f14610791578063a479e508146107a6578063b0d88a40146107bb578063b6e9c826146107d0578063b8fd61a8146107e5578063c102b1b51461080c578063c1cbbca714610821578063c9567bf91461082c578063cc77491b14610841578063cd3293de14610856578063cf6adb401461086b578063cf9d82f214610883578063d21bd82014610898578063d441e2b7146108b0578063d4aae0c4146108c7578063de4796ed146108dc578063e02023a1146108f1578063e2a5aec514610906578063f7888aec14610927578063f8453e7c1461094e578063fc0c546a1461098d578063fd221031146109a2578063fdea8e0b146109b7575b600080fd5b3480156102b657600080fd5b506102c26004356109cc565b005b3480156102d057600080fd5b506102d9610b41565b604080519115158252519081900360200190f35b3480156102f957600080fd5b506102c2600160a060020a0360043516610b6a565b34801561031a57600080fd5b50610323610d05565b60408051918252519081900360200190f35b34801561034157600080fd5b50610323610d0a565b34801561035657600080fd5b50610323610d2e565b34801561036b57600080fd5b50610374610d52565b60408051600160a060020a039092168252519081900360200190f35b34801561039c57600080fd5b506040805160206004803580820135601f8101849004840285018401909552848452610374943694929360249392840191908190840183828082843750949750610d619650505050505050565b3480156103f557600080fd5b50610323610e47565b34801561040a57600080fd5b50610323610e6b565b34801561041f57600080fd5b50610374610e8f565b34801561043457600080fd5b506102c2600160a060020a0360043516602435604435610f07565b34801561045b57600080fd5b506102c2600160a060020a036004351660243561104f565b34801561047f57600080fd5b50610323611137565b34801561049457600080fd5b50610323600160a060020a036004351661115b565b3480156104b557600080fd5b50610374611242565b3480156104ca57600080fd5b506102c2600160a060020a0360043516611313565b3480156104eb57600080fd5b506102c2600160a060020a03600435811690602435906044351661142f565b34801561051657600080fd5b5061032361153f565b34801561052b57600080fd5b50610323611563565b34801561054057600080fd5b506102c2600160a060020a036004351660243560443563ffffffff60643516608435611587565b34801561057357600080fd5b506102c26116e4565b34801561058857600080fd5b506102c26004356024356117d5565b3480156105a357600080fd5b506102c2600160a060020a0360043581169060243590604435166118f7565b3480156105ce57600080fd5b506102c2600160a060020a03600435166024356119ea565b3480156105f257600080fd5b506102d9600160a060020a0360043516611b13565b34801561061357600080fd5b50610323611b19565b34801561062857600080fd5b506102c2600160a060020a0360043516611b49565b34801561064957600080fd5b506102c2600160a060020a036004351660243560443563ffffffff60643516608435611bcb565b34801561067c57600080fd5b50610323611d08565b34801561069157600080fd5b50610323611d33565b3480156106a657600080fd5b506102c2611d57565b3480156106bb57600080fd5b506102c2600160a060020a0360043516611e66565b3480156106dc57600080fd5b506102c2600160a060020a036004351660243560443563ffffffff6064351660843560a43560c435611f82565b34801561071557600080fd5b506102c2600160a060020a0360043516612206565b34801561073657600080fd5b5060408051602060046044358181013583810280860185019096528085526102d9958335600160a060020a03169560248035963696956064959394920192918291850190849080828437509497506124959650505050505050565b34801561079d57600080fd5b506103236125e5565b3480156107b257600080fd5b50610374612609565b3480156107c757600080fd5b506103236126be565b3480156107dc57600080fd5b506103236126e2565b3480156107f157600080fd5b506102c2600160a060020a0360043516602435604435612706565b34801561081857600080fd5b50610323612830565b6102c2600435612854565b34801561083857600080fd5b506102c2612974565b34801561084d57600080fd5b50610323612bc3565b34801561086257600080fd5b50610374612be7565b34801561087757600080fd5b50610374600435612bf6565b34801561088f57600080fd5b50610323612c1e565b3480156108a457600080fd5b506102c2600435612c42565b6102c2600160a060020a0360043516602435612d5d565b3480156108d357600080fd5b50610374612e89565b3480156108e857600080fd5b506102d9612eb4565b3480156108fd57600080fd5b50610323612ec7565b34801561091257600080fd5b50610323600160a060020a0360043516612eeb565b34801561093357600080fd5b50610323600160a060020a0360043581169060243516612fd2565b34801561095a57600080fd5b506102c2600160a060020a036004803582169160248035821692604435831692606435169160843590810191013561315c565b34801561099957600080fd5b506103746135da565b3480156109ae57600080fd5b506103746136ac565b3480156109c357600080fd5b506103746136bb565b604080516000808252602082019092527f5d94de7e429250eee4ff97e30ab9f383bea3cd564d6780e0a9e965b1add1d20791610a0e9133918491905b50612495565b60408051808201909152600f8152600080516020613ab08339815191526020820152901515610abe5760405160e560020a62461bcd0281526004018080602001828103825283818151815260200191508051906020019080838360005b83811015610a83578181015183820152602001610a6b565b50505050905090810190601f168015610ab05780820380516001836020036101000a031916815260200191505b509250505060405180910390fd5b50600354604080517f07e18bc8000000000000000000000000000000000000000000000000000000008152600481018590529051600160a060020a03909216916307e18bc89160248082019260009290919082900301818387803b158015610b2557600080fd5b505af1158015610b39573d6000803e3d6000fd5b505050505050565b600080610b4c611d08565b90508015801590610b64575080610b616136ca565b10155b91505090565b604080516000808252602082019092527ff7ea2b80c7b6a2cab2c11d2290cb005c3748397358a25e17113658c83b73259391610baa913391849190610a08565b60408051808201909152600f8152600080516020613ab08339815191526020820152901515610c1e5760405160e560020a62461bcd02815260040180806020018281038252838181518152602001915080519060200190808383600083811015610a83578181015183820152602001610a6b565b50600154604080517f0aaffd2a000000000000000000000000000000000000000000000000000000008152600160a060020a03858116600483015291519190921691630aaffd2a91602480830192600092919082900301818387803b158015610c8657600080fd5b505af1158015610c9a573d6000803e3d6000fd5b5050600354604080517f0aaffd2a000000000000000000000000000000000000000000000000000000008152600160a060020a0387811660048301529151919092169350630aaffd2a9250602480830192600092919082900301818387803b158015610b2557600080fd5b600a81565b7f26ce034204208c0bbca4c8a793d17b99e546009b1dd31d3c1ef761f66372caf681565b7ff323aa41eef4850a8ae7ebd047d4c89f01ce49c781f3308be67303db9cdd48c281565b600154600160a060020a031681565b6000610d6b612609565b600160a060020a03166304bf2a7f836040518263ffffffff1660e060020a0281526004018080602001828103825283818151815260200191508051906020019080838360005b83811015610dc9578181015183820152602001610db1565b50505050905090810190601f168015610df65780820380516001836020036101000a031916815260200191505b5092505050602060405180830381600087803b158015610e1557600080fd5b505af1158015610e29573d6000803e3d6000fd5b505050506040513d6020811015610e3f57600080fd5b505192915050565b7fa589c8f284b76fc8d510d9d553485c47dbef1b0745ae00e0f3fd4e28fcd77ea781565b7fe0565c2c43e0d841e206bb36a37f12f22584b4652ccee6f9e0c071b697a2e13d81565b6000610e99612e89565b600160a060020a03166332f0a3b56040518163ffffffff1660e060020a028152600401602060405180830381600087803b158015610ed657600080fd5b505af1158015610eea573d6000803e3d6000fd5b505050506040513d6020811015610f0057600080fd5b5051905090565b604080516000808252602082019092527fbc9cb5e3f7ce81c4fd021d86a4bcb193dee9df315b540808c3ed59a81e59620791610f47913391849190610a08565b60408051808201909152600f8152600080516020613ab08339815191526020820152901515610fbb5760405160e560020a62461bcd02815260040180806020018281038252838181518152602001915080519060200190808383600083811015610a83578181015183820152602001610a6b565b50600354604080517fb897b628000000000000000000000000000000000000000000000000000000008152600160a060020a03878116600483015260248201879052604482018690529151919092169163b897b62891606480830192600092919082900301818387803b15801561103157600080fd5b505af1158015611045573d6000803e3d6000fd5b5050505050505050565b611057610b41565b6040805180820190915260148152600080516020613af083398151915260208201529015156110cb5760405160e560020a62461bcd02815260040180806020018281038252838181518152602001915080519060200190808383600083811015610a83578181015183820152602001610a6b565b5060008054604080517f410085df000000000000000000000000000000000000000000000000000000008152600160a060020a038681166004830152602482018690529151919092169263410085df926044808201939182900301818387803b158015610b2557600080fd5b7ff7ea2b80c7b6a2cab2c11d2290cb005c3748397358a25e17113658c83b73259381565b6000611165610b41565b6040805180820190915260148152600080516020613af083398151915260208201529015156111d95760405160e560020a62461bcd02815260040180806020018281038252838181518152602001915080519060200190808383600083811015610a83578181015183820152602001610a6b565b50600154604080517f4afe6c47000000000000000000000000000000000000000000000000000000008152600160a060020a03858116600483015291519190921691634afe6c479160248083019260209291908290030181600087803b158015610e1557600080fd5b600061124c610b41565b6040805180820190915260148152600080516020613af083398151915260208201529015156112c05760405160e560020a62461bcd02815260040180806020018281038252838181518152602001915080519060200190808383600083811015610a83578181015183820152602001610a6b565b506000809054906101000a9004600160a060020a0316600160a060020a0316634bedf9a86040518163ffffffff1660e060020a028152600401602060405180830381600087803b158015610ed657600080fd5b604080516000808252602082019092527f5d8e12c39142ff96d79d04d15d1ba1269e4fe57bb9d26f43523628b34ba108ec91611353913391849190610a08565b60408051808201909152600f8152600080516020613ab083398151915260208201529015156113c75760405160e560020a62461bcd02815260040180806020018281038252838181518152602001915080519060200190808383600083811015610a83578181015183820152602001610a6b565b50600354604080517f51cff8d9000000000000000000000000000000000000000000000000000000008152600160a060020a038581166004830152915191909216916351cff8d991602480830192600092919082900301818387803b158015610b2557600080fd5b611437610b41565b6040805180820190915260148152600080516020613af083398151915260208201529015156114ab5760405160e560020a62461bcd02815260040180806020018281038252838181518152602001915080519060200190808383600083811015610a83578181015183820152602001610a6b565b50600154604080517f5e6f6c77000000000000000000000000000000000000000000000000000000008152600160a060020a03868116600483015260248201869052848116604483015291519190921691635e6f6c7791606480830192600092919082900301818387803b15801561152257600080fd5b505af1158015611536573d6000803e3d6000fd5b50505050505050565b7f217b79cb2bc7760defc88529853ef81ab33ae5bb315408ce9f5af09c8776662d81565b7f5f9be2932ed3a723f295a763be1804c7ebfd1a41c1348fb8bdf5be1c5cdca82281565b604080516000808252602082019092527f217b79cb2bc7760defc88529853ef81ab33ae5bb315408ce9f5af09c8776662d916115c7913391849190610a08565b60408051808201909152600f8152600080516020613ab0833981519152602082015290151561163b5760405160e560020a62461bcd02815260040180806020018281038252838181518152602001915080519060200190808383600083811015610a83578181015183820152602001610a6b565b50600154604080517ffd531e03000000000000000000000000000000000000000000000000000000008152600160a060020a038981166004830152602482018990526044820188905263ffffffff87166064830152608482018690529151919092169163fd531e039160a480830192600092919082900301818387803b1580156116c457600080fd5b505af11580156116d8573d6000803e3d6000fd5b50505050505050505050565b6116ec610b41565b6040805180820190915260148152600080516020613af083398151915260208201529015156117605760405160e560020a62461bcd02815260040180806020018281038252838181518152602001915080519060200190808383600083811015610a83578181015183820152602001610a6b565b5060008054604080517f43d726d60000000000000000000000000000000000000000000000000000000081529051600160a060020a03909216926343d726d69260048084019382900301818387803b1580156117bb57600080fd5b505af11580156117cf573d6000803e3d6000fd5b50505050565b604080516000808252602082019092527f5f9be2932ed3a723f295a763be1804c7ebfd1a41c1348fb8bdf5be1c5cdca82291611815913391849190610a08565b60408051808201909152600f8152600080516020613ab083398151915260208201529015156118895760405160e560020a62461bcd02815260040180806020018281038252838181518152602001915080519060200190808383600083811015610a83578181015183820152602001610a6b565b50600154604080517f6db7943700000000000000000000000000000000000000000000000000000000815260048101869052602481018590529051600160a060020a0390921691636db794379160448082019260009290919082900301818387803b15801561152257600080fd5b6118ff610b41565b6040805180820190915260148152600080516020613af083398151915260208201529015156119735760405160e560020a62461bcd02815260040180806020018281038252838181518152602001915080519060200190808383600083811015610a83578181015183820152602001610a6b565b50600154604080517f78ea6103000000000000000000000000000000000000000000000000000000008152600160a060020a038681166004830152602482018690528481166044830152915191909216916378ea610391606480830192600092919082900301818387803b15801561152257600080fd5b604080516000808252602082019092527fd68ba2b769fa37a2a7bd4bed9241b448bc99eca41f519ef037406386a8f291c091611a2a913391849190610a08565b60408051808201909152600f8152600080516020613ab08339815191526020820152901515611a9e5760405160e560020a62461bcd02815260040180806020018281038252838181518152602001915080519060200190808383600083811015610a83578181015183820152602001610a6b565b50600154604080517f0f1ff5ea000000000000000000000000000000000000000000000000000000008152336004820152600160a060020a0386811660248301526044820186905291519190921691630f1ff5ea91606480830192600092919082900301818387803b15801561152257600080fd5b50600190565b6000611b447fd625496217aa6a3453eecb9c3489dc5a53e6c67b444329ea2b2cbc9ff547639b6136ce565b905090565b600354604080517f846a0a89000000000000000000000000000000000000000000000000000000008152600160a060020a0384811660048301529151919092169163846a0a8991602480830192600092919082900301818387803b158015611bb057600080fd5b505af1158015611bc4573d6000803e3d6000fd5b5050505050565b604080516000808252602082019092527fe0565c2c43e0d841e206bb36a37f12f22584b4652ccee6f9e0c071b697a2e13d91611c0b913391849190610a08565b60408051808201909152600f8152600080516020613ab08339815191526020820152901515611c7f5760405160e560020a62461bcd02815260040180806020018281038252838181518152602001915080519060200190808383600083811015610a83578181015183820152602001610a6b565b50600154604080517f8a9b1e2d000000000000000000000000000000000000000000000000000000008152600160a060020a038981166004830152602482018990526044820188905263ffffffff871660648301526084820186905291519190921691638a9b1e2d9160a480830192600092919082900301818387803b1580156116c457600080fd5b6000611b447febb05b386a8d34882b8711d156f463690983dc47815980fb82aeeff1aa43579e6136ce565b7fbc9cb5e3f7ce81c4fd021d86a4bcb193dee9df315b540808c3ed59a81e59620781565b604080516000808252602082019092527ff323aa41eef4850a8ae7ebd047d4c89f01ce49c781f3308be67303db9cdd48c291611d97913391849190610a08565b60408051808201909152600f8152600080516020613ab08339815191526020820152901515611e0b5760405160e560020a62461bcd02815260040180806020018281038252838181518152602001915080519060200190808383600083811015610a83578181015183820152602001610a6b565b5060008054604080517ffcfff16f0000000000000000000000000000000000000000000000000000000081529051600160a060020a039092169263fcfff16f9260048084019382900301818387803b158015611bb057600080fd5b604080516000808252602082019092527f2044e56de223845e4be7d0a6f4e9a29b635547f16413a6d1327c58d9db438ee291611ea6913391849190610a08565b60408051808201909152600f8152600080516020613ab08339815191526020820152901515611f1a5760405160e560020a62461bcd02815260040180806020018281038252838181518152602001915080519060200190808383600083811015610a83578181015183820152602001610a6b565b50600154604080517f94f9059f000000000000000000000000000000000000000000000000000000008152600160a060020a038581166004830152915191909216916394f9059f91602480830192600092919082900301818387803b158015610b2557600080fd5b604080516000808252602082019092527f217b79cb2bc7760defc88529853ef81ab33ae5bb315408ce9f5af09c8776662d91611fc2913391849190610a08565b60408051808201909152600f8152600080516020613ab083398151915260208201529015156120365760405160e560020a62461bcd02815260040180806020018281038252838181518152602001915080519060200190808383600083811015610a83578181015183820152602001610a6b565b50600154604080517ffd531e03000000000000000000000000000000000000000000000000000000008152600160a060020a038b81166004830152602482018b9052604482018a905263ffffffff89166064830152608482018890529151919092169163fd531e039160a480830192600092919082900301818387803b1580156120bf57600080fd5b505af11580156120d3573d6000803e3d6000fd5b50505050600160a060020a0388161561216657600254604080517f6298e902000000000000000000000000000000000000000000000000000000008152600160a060020a038b8116600483015291519190921691636298e90291602480830192600092919082900301818387803b15801561214d57600080fd5b505af1158015612161573d6000803e3d6000fd5b505050505b600083111561104557600354604080517fb897b628000000000000000000000000000000000000000000000000000000008152600160a060020a038b8116600483015260248201879052604482018690529151919092169163b897b62891606480830192600092919082900301818387803b1580156121e457600080fd5b505af11580156121f8573d6000803e3d6000fd5b505050505050505050505050565b600080600061221484611b13565b60408051808201909152601281527f5245434f5645525f444953414c4c4f5745440000000000000000000000000000602082015290151561229a5760405160e560020a62461bcd02815260040180806020018281038252838181518152602001915080519060200190808383600083811015610a83578181015183820152602001610a6b565b506122a3610e8f565b92506122ae836136d6565b60408051808201909152601a81527f5245434f5645525f5641554c545f4e4f545f434f4e545241435400000000000060208201529015156123345760405160e560020a62461bcd02815260040180806020018281038252838181518152602001915080519060200190808383600083811015610a83578181015183820152602001610a6b565b50600160a060020a03841615156123855760405130319250600160a060020a0384169083156108fc029084906000818181858888f1935050505015801561237f573d6000803e3d6000fd5b50612444565b50826123a0600160a060020a0382163063ffffffff61370316565b91506123bc600160a060020a038216848463ffffffff61381816565b60408051808201909152601d81527f5245434f5645525f544f4b454e5f5452414e534645525f4641494c454400000060208201529015156124425760405160e560020a62461bcd02815260040180806020018281038252838181518152602001915080519060200190808383600083811015610a83578181015183820152602001610a6b565b505b83600160a060020a031683600160a060020a03167f596caf56044b55fb8c4ca640089bbc2b63cae3e978b851f5745cbb7c5b288e02846040518082815260200191505060405180910390a350505050565b6000806124a0610b41565b15156124af57600091506125dd565b6124b7612e89565b9050600160a060020a03811615156124d257600091506125dd565b80600160a060020a031663fdef91068630876124ed886138a3565b60405160e060020a63ffffffff8716028152600160a060020a03808616600483019081529085166024830152604482018490526080606483019081528351608484015283519192909160a490910190602085019080838360005b8381101561255f578181015183820152602001612547565b50505050905090810190601f16801561258c5780820380516001836020036101000a031916815260200191505b5095505050505050602060405180830381600087803b1580156125ae57600080fd5b505af11580156125c2573d6000803e3d6000fd5b505050506040513d60208110156125d857600080fd5b505191505b509392505050565b7f9ccaca4edf2127f20c425fdd86af1ba178b9e5bee280cd70d88ac5f6874c4f0781565b600080612614612e89565b604080517fbe00bbd80000000000000000000000000000000000000000000000000000000081527fd6f028ca0e8edb4a8c9757ca4fdccab25fa1e0317da1188108f7d2dee14902fb60048201527fddbcfd564f642ab5627cf68b9b7d374fb4f8a36e941a75d89c87998cef03bd6160248201529051600160a060020a03929092169163be00bbd8916044808201926020929091908290030181600087803b158015610e1557600080fd5b7fdb8c88bedbc61ea0f92e1ce46da0b7a915affbd46d1c76c4bbac9a209e4a841681565b7f2044e56de223845e4be7d0a6f4e9a29b635547f16413a6d1327c58d9db438ee281565b604080516000808252602082019092527fdb8c88bedbc61ea0f92e1ce46da0b7a915affbd46d1c76c4bbac9a209e4a841691612746913391849190610a08565b60408051808201909152600f8152600080516020613ab083398151915260208201529015156127ba5760405160e560020a62461bcd02815260040180806020018281038252838181518152602001915080519060200190808383600083811015610a83578181015183820152602001610a6b565b50600354604080517ff30a00ce000000000000000000000000000000000000000000000000000000008152600160a060020a03878116600483015260248201879052604482018690529151919092169163f30a00ce91606480830192600092919082900301818387803b15801561103157600080fd5b7f5d94de7e429250eee4ff97e30ab9f383bea3cd564d6780e0a9e965b1add1d20781565b604080516000808252602082019092527f9ccaca4edf2127f20c425fdd86af1ba178b9e5bee280cd70d88ac5f6874c4f0791612894913391849190610a08565b60408051808201909152600f8152600080516020613ab083398151915260208201529015156129085760405160e560020a62461bcd02815260040180806020018281038252838181518152602001915080519060200190808383600083811015610a83578181015183820152602001610a6b565b5060008054604080517f8418cd99000000000000000000000000000000000000000000000000000000008152336004820152602481018690529051600160a060020a0390921692638418cd99923492604480820193929182900301818588803b15801561152257600080fd5b604080516000808252602082019092527f26ce034204208c0bbca4c8a793d17b99e546009b1dd31d3c1ef761f66372caf6906129b4903390839085610a08565b60408051808201909152600f8152600080516020613ab08339815191526020820152901515612a285760405160e560020a62461bcd02815260040180806020018281038252838181518152602001915080519060200190808383600083811015610a83578181015183820152602001610a6b565b50600091505b600454821015612b705760035460048054600092600160a060020a03169163a8734f0b9186908110612a5c57fe5b60009182526020808320909101546040805160e060020a63ffffffff8716028152600160a060020a0390921660048301525160248083019491928390030190829087803b158015612aac57600080fd5b505af1158015612ac0573d6000803e3d6000fd5b505050506040513d6020811015612ad657600080fd5b505114612b655760035460048054600160a060020a0390921691639cbbba88919085908110612b0157fe5b60009182526020822001546040805160e060020a63ffffffff8616028152600160a060020a039092166004830152516024808301939282900301818387803b158015612b4c57600080fd5b505af1158015612b60573d6000803e3d6000fd5b505050505b600190910190612a2e565b600160009054906101000a9004600160a060020a0316600160a060020a031663fcfff16f6040518163ffffffff1660e060020a028152600401600060405180830381600087803b158015610b2557600080fd5b7f57c9c67896cf0a4ffe92cbea66c2f7c34380af06bf14215dabb078cf8a6d99e181565b600254600160a060020a031681565b6004805482908110612c0457fe5b600091825260209091200154600160a060020a0316905081565b7fd68ba2b769fa37a2a7bd4bed9241b448bc99eca41f519ef037406386a8f291c081565b604080516000808252602082019092527f57c9c67896cf0a4ffe92cbea66c2f7c34380af06bf14215dabb078cf8a6d99e191612c82913391849190610a08565b60408051808201909152600f8152600080516020613ab08339815191526020820152901515612cf65760405160e560020a62461bcd02815260040180806020018281038252838181518152602001915080519060200190808383600083811015610a83578181015183820152602001610a6b565b50600354604080517fd21bd820000000000000000000000000000000000000000000000000000000008152600481018590529051600160a060020a039092169163d21bd8209160248082019260009290919082900301818387803b158015610b2557600080fd5b604080516000808252602082019092527fa589c8f284b76fc8d510d9d553485c47dbef1b0745ae00e0f3fd4e28fcd77ea791612d9d913391849190610a08565b60408051808201909152600f8152600080516020613ab08339815191526020820152901515612e115760405160e560020a62461bcd02815260040180806020018281038252838181518152602001915080519060200190808383600083811015610a83578181015183820152602001610a6b565b50600154604080517f3fae9bfb000000000000000000000000000000000000000000000000000000008152336004820152600160a060020a0386811660248301526044820186905291519190921691633fae9bfb91349160648082019260009290919082900301818588803b15801561103157600080fd5b6000611b447f4172f0f7d2289153072b0a6ca36959e0cbe2efc3afe50fc81636caa96338137b6136ce565b6000600019612ec1611d08565b14905090565b7f5d8e12c39142ff96d79d04d15d1ba1269e4fe57bb9d26f43523628b34ba108ec81565b6000612ef5610b41565b6040805180820190915260148152600080516020613af08339815191526020820152901515612f695760405160e560020a62461bcd02815260040180806020018281038252838181518152602001915080519060200190808383600083811015610a83578181015183820152602001610a6b565b50600354604080517fe2a5aec5000000000000000000000000000000000000000000000000000000008152600160a060020a0385811660048301529151919092169163e2a5aec59160248083019260209291908290030181600087803b158015610e1557600080fd5b600080612fdd610b41565b6040805180820190915260148152600080516020613af083398151915260208201529015156130515760405160e560020a62461bcd02815260040180806020018281038252838181518152602001915080519060200190808383600083811015610a83578181015183820152602001610a6b565b50600160a060020a0383161561307f5761307a600160a060020a0384168563ffffffff61370316565b61308b565b83600160a060020a0316315b600254909150600160a060020a038581169116141561315157600354604080517fe2a5aec5000000000000000000000000000000000000000000000000000000008152600160a060020a038681166004830152915161314a93929092169163e2a5aec5916024808201926020929091908290030181600087803b15801561311157600080fd5b505af1158015613125573d6000803e3d6000fd5b505050506040513d602081101561313b57600080fd5b5051829063ffffffff6138ad16565b9150613155565b8091505b5092915050565b6000613166611d08565b60408051808201909152601881527f494e49545f414c52454144595f494e495449414c495a45440000000000000000602082015290156131eb5760405160e560020a62461bcd02815260040180806020018281038252838181518152602001915080519060200190808383600083811015610a83578181015183820152602001610a6b565b506131f5876136d6565b60408051808201909152601b8152600080516020613ad083398151915260208201529015156132695760405160e560020a62461bcd02815260040180806020018281038252838181518152602001915080519060200190808383600083811015610a83578181015183820152602001610a6b565b50613273866136d6565b60408051808201909152601b8152600080516020613ad083398151915260208201529015156132e75760405160e560020a62461bcd02815260040180806020018281038252838181518152602001915080519060200190808383600083811015610a83578181015183820152602001610a6b565b506132f1856136d6565b60408051808201909152601b8152600080516020613ad083398151915260208201529015156133655760405160e560020a62461bcd02815260040180806020018281038252838181518152602001915080519060200190808383600083811015610a83578181015183820152602001610a6b565b5061336f846136d6565b60408051808201909152601b8152600080516020613ad083398151915260208201529015156133e35760405160e560020a62461bcd02815260040180806020018281038252838181518152602001915080519060200190808383600083811015610a83578181015183820152602001610a6b565b5060408051808201909152601a81527f46554e4452414953494e475f494e56414c49445f544f4b454e530000000000006020820152600a831061346b5760405160e560020a62461bcd02815260040180806020018281038252838181518152602001915080519060200190808383600083811015610a83578181015183820152602001610a6b565b50613474613941565b5060008054600160a060020a0380891673ffffffffffffffffffffffffffffffffffffffff19928316178355600180548983169084161790556002805488831690841617905560038054918716919092161790555b81811015611536576134f58383838181106134e057fe5b90506020020135600160a060020a0316613a09565b60408051808201909152601a81527f46554e4452414953494e475f494e56414c49445f544f4b454e53000000000000602082015290151561357b5760405160e560020a62461bcd02815260040180806020018281038252838181518152602001915080519060200190808383600083811015610a83578181015183820152602001610a6b565b50600483838381811061358a57fe5b8354600181810186556000958652602095869020909101805473ffffffffffffffffffffffffffffffffffffffff1916600160a060020a03969093029490940135949094161790915550016134c9565b60006135e4610b41565b6040805180820190915260148152600080516020613af083398151915260208201529015156136585760405160e560020a62461bcd02815260040180806020018281038252838181518152602001915080519060200190808383600083811015610a83578181015183820152602001610a6b565b50600160009054906101000a9004600160a060020a0316600160a060020a031663fc0c546a6040518163ffffffff1660e060020a028152600401602060405180830381600087803b158015610ed657600080fd5b600354600160a060020a031681565b600054600160a060020a031681565b4390565b5490565b5490565b600080600160a060020a03831615156136f257600091506136fd565b823b90506000811191505b50919050565b60408051600160a060020a0383166024808301919091528251808303909101815260449091019091526020810180517bffffffffffffffffffffffffffffffffffffffffffffffffffffffff167f70a082310000000000000000000000000000000000000000000000000000000017905260009081806137838684613a2c565b60408051808201909152601c81527f534146455f4552435f32305f42414c414e43455f5245564552544544000000006020820152919350915082151561380e5760405160e560020a62461bcd02815260040180806020018281038252838181518152602001915080519060200190808383600083811015610a83578181015183820152602001610a6b565b5095945050505050565b60408051600160a060020a038416602482015260448082018490528251808303909101815260649091019091526020810180517bffffffffffffffffffffffffffffffffffffffffffffffffffffffff167fa9059cbb0000000000000000000000000000000000000000000000000000000017905260009061389a8582613a5d565b95945050505050565b8051602002815290565b60408051808201909152601281527f4d4154485f5355425f554e444552464c4f57000000000000000000000000000060208201526000908190848411156139395760405160e560020a62461bcd02815260040180806020018281038252838181518152602001915080519060200190808383600083811015610a83578181015183820152602001610a6b565b505050900390565b613949611d08565b60408051808201909152601881527f494e49545f414c52454144595f494e495449414c495a45440000000000000000602082015290156139ce5760405160e560020a62461bcd02815260040180806020018281038252838181518152602001915080519060200190808383600083811015610a83578181015183820152602001610a6b565b50613a076139da6136ca565b7febb05b386a8d34882b8711d156f463690983dc47815980fb82aeeff1aa43579e9063ffffffff613aab16565b565b6000613a14826136d6565b80613a265750600160a060020a038216155b92915050565b6000806000806040516020818751602089018a5afa92506000831115613a5157805191505b50909590945092505050565b6000806040516020818551602087016000895af16000811115613aa1573d8015613a8e5760208114613a9757613a9f565b60019350613a9f565b600183511493505b505b5090949350505050565b905556004150505f415554485f4641494c4544000000000000000000000000000000000046554e4452414953494e475f434f4e54524143545f49535f454f410000000000494e49545f4e4f545f494e495449414c495a4544000000000000000000000000a165627a7a723058201562dd7722a43ede5ea0f0b57ddead350229c86fd02d317fa499321da6ac1c320029ebb05b386a8d34882b8711d156f463690983dc47815980fb82aeeff1aa43579e",
  "devdoc": {
    "methods": {
      "addCollateralToken(address,uint256,uint256,uint32,uint256,uint256,uint256)": {
        "params": {
          "_collateral": "The address of the collateral token to be whitelisted",
          "_floor": "The floor above which the reserve [pool] balance for that token is to be kept [in wei]",
          "_rate": "The rate at which that token is to be tapped [in wei / block]",
          "_reserveRatio": "The reserve ratio to be used for that collateral token [in PPM]",
          "_slippage": "The price slippage below which each market making batch is to be kept for that collateral token [in PCT_BASE]",
          "_virtualBalance": "The virtual balance to be used for that collateral token [in wei]",
          "_virtualSupply": "The virtual supply to be used for that collateral token [in wei]"
        }
      },
      "addTokenTap(address,uint256,uint256)": {
        "params": {
          "_floor": "The floor above which the reserve [pool] balance for that token is to be kept [in wei]",
          "_rate": "The rate at which that token is to be tapped [in wei / block]",
          "_token": "The address of the token to be tapped"
        }
      },
      "allowRecoverability(address)": {
        "details": "By default deriving from AragonApp makes it recoverable",
        "params": {
          "token": "Token address that would be recovered"
        },
        "return": "bool whether the app allows the recovery"
      },
      "canPerform(address,bytes32,uint256[])": {
        "details": "Check whether an action can be performed by a sender for a particular role on this app",
        "params": {
          "_params": "Permission params for the role",
          "_role": "Role on this app",
          "_sender": "Sender of the call"
        },
        "return": "Boolean indicating whether the sender has the permissions to perform the action.        Always returns false if the app hasn't been initialized yet."
      },
      "claimBuyOrder(address,uint256,address)": {
        "params": {
          "_batchId": "The id of the batch in which buy orders are to be claimed",
          "_buyer": "The address of the user whose buy orders are to be claimed",
          "_collateral": "The address of the collateral token against which buy orders are to be claimed"
        }
      },
      "claimSellOrder(address,uint256,address)": {
        "params": {
          "_batchId": "The id of the batch in which sell orders are to be claimed",
          "_collateral": "The address of the collateral token against which sell orders are to be claimed",
          "_seller": "The address of the user whose sell orders are to be claimed"
        }
      },
      "contribute(uint256)": {
        "params": {
          "_value": "The amount of contribution token to be spent"
        }
      },
      "getInitializationBlock()": {
        "return": "Block number in which the contract was initialized"
      },
      "getRecoveryVault()": {
        "details": "Get the recovery vault for the app",
        "return": "Recovery vault address for the app"
      },
      "hasInitialized()": {
        "return": "Whether the contract has been initialized by the time of the current block"
      },
      "initialize(address,address,address,address,address[])": {
        "params": {
          "_marketMaker": "The address of the market maker contract",
          "_presale": "The address of the presale contract",
          "_reserve": "The address of the reserve [pool] contract",
          "_tap": "The address of the tap contract",
          "_toReset": "The addresses of the tokens whose tap timestamps are to be reset [when presale is closed and trading is open]"
        }
      },
      "openBuyOrder(address,uint256)": {
        "params": {
          "_collateral": "The address of the collateral token to be spent",
          "_value": "The amount of collateral token to be spent"
        }
      },
      "openSellOrder(address,uint256)": {
        "params": {
          "_amount": "The amount of bonded token to be spent",
          "_collateral": "The address of the collateral token to be returned"
        }
      },
      "reAddCollateralToken(address,uint256,uint256,uint32,uint256)": {
        "params": {
          "_collateral": "The address of the collateral token to be whitelisted",
          "_reserveRatio": "The reserve ratio to be used for that collateral token [in PPM]",
          "_slippage": "The price slippage below which each market making batch is to be kept for that collateral token [in PCT_BASE]",
          "_virtualBalance": "The virtual balance to be used for that collateral token [in wei]",
          "_virtualSupply": "The virtual supply to be used for that collateral token [in wei]"
        }
      },
      "refund(address,uint256)": {
        "params": {
          "_contributor": "The address of the contributor whose presale contribution is to be refunded",
          "_vestedPurchaseId": "The id of the contribution to be refunded"
        }
      },
      "removeCollateralToken(address)": {
        "params": {
          "_collateral": "The address of the collateral token to be un-whitelisted"
        }
      },
      "transferToVault(address)": {
        "params": {
          "_token": "Token balance to be sent to recovery vault."
        }
      },
      "updateBeneficiary(address)": {
        "params": {
          "_beneficiary": "The address of the new beneficiary"
        }
      },
      "updateCollateralToken(address,uint256,uint256,uint32,uint256)": {
        "params": {
          "_collateral": "The address of the collateral token whose collateralization settings are to be updated",
          "_reserveRatio": "The new reserve ratio to be used for that collateral token [in PPM]",
          "_slippage": "The new price slippage below which each market making batch is to be kept for that collateral token [in PCT_BASE]",
          "_virtualBalance": "The new virtual balance to be used for that collateral token [in wei]",
          "_virtualSupply": "The new virtual supply to be used for that collateral token [in wei]"
        }
      },
      "updateFees(uint256,uint256)": {
        "params": {
          "_buyFeePct": "The new fee to be deducted from buy orders [in PCT_BASE]",
          "_sellFeePct": "The new fee to be deducted from sell orders [in PCT_BASE]"
        }
      },
      "updateMaximumTapFloorDecreasePct(uint256)": {
        "params": {
          "_maximumTapFloorDecreasePct": "The new maximum tap floor decrease percentage to be allowed [in PCT_BASE]"
        }
      },
      "updateMaximumTapRateIncreasePct(uint256)": {
        "params": {
          "_maximumTapRateIncreasePct": "The new maximum tap rate increase percentage to be allowed [in PCT_BASE]"
        }
      },
      "updateTappedAmount(address)": {
        "params": {
          "_token": "The address of the token whose tapped amount is to be updated"
        }
      },
      "updateTokenTap(address,uint256,uint256)": {
        "params": {
          "_floor": "The new floor above which the reserve [pool] balance for that token is to be kept [in wei]",
          "_rate": "The new rate at which that token is to be tapped [in wei / block]",
          "_token": "The address of the token whose tap is to be updated"
        }
      },
      "withdraw(address)": {
        "params": {
          "_token": "The address of the token to be transfered from the reserve to the beneficiary"
        }
      }
    }
  },
  "userdoc": {
    "methods": {
      "addCollateralToken(address,uint256,uint256,uint32,uint256,uint256,uint256)": {
        "notice": "Add `_collateral.symbol(): string` as a whitelisted collateral token"
      },
      "addTokenTap(address,uint256,uint256)": {
        "notice": "Add tap for `_token.symbol(): string` with a rate of `@tokenAmount(_token, _rate)` per block and a floor of `@tokenAmount(_token, _floor)`"
      },
      "claimBuyOrder(address,uint256,address)": {
        "notice": "Claim the results of `_collateral.symbol(): string` buy orders from batch #`_batchId`"
      },
      "claimSellOrder(address,uint256,address)": {
        "notice": "Claim the results of `_collateral.symbol(): string` sell orders from batch #`_batchId`"
      },
      "closePresale()": {
        "notice": "Close presale and open trading"
      },
      "contribute(uint256)": {
        "notice": "Contribute to the presale up to `@tokenAmount(self.contributionToken(): address, _value)`"
      },
      "initialize(address,address,address,address,address[])": {
        "notice": "Initialize Aragon Fundraising controller"
      },
      "openBuyOrder(address,uint256)": {
        "notice": "Open a buy order worth `@tokenAmount(_collateral, _value)`"
      },
      "openPresale()": {
        "notice": "Open presale"
      },
      "openSellOrder(address,uint256)": {
        "notice": "Open a sell order worth `@tokenAmount(self.token(): address, _amount)` against `_collateral.symbol(): string`"
      },
      "openTrading()": {
        "notice": "Open trading [enabling users to open buy and sell orders]"
      },
      "reAddCollateralToken(address,uint256,uint256,uint32,uint256)": {
        "notice": "Re-add `_collateral.symbol(): string` as a whitelisted collateral token [if it has been un-whitelisted in the past]"
      },
      "refund(address,uint256)": {
        "notice": "Refund `_contributor`'s presale contribution #`_vestedPurchaseId`"
      },
      "removeCollateralToken(address)": {
        "notice": "Remove `_collateral.symbol(): string` as a whitelisted collateral token"
      },
      "token()": {
        "notice": "*** public view functions ****"
      },
      "transferToVault(address)": {
        "notice": "Send funds to recovery Vault. This contract should never receive funds,        but in case it does, this function allows one to recover them."
      },
      "updateBeneficiary(address)": {
        "notice": "Update beneficiary to `_beneficiary`"
      },
      "updateCollateralToken(address,uint256,uint256,uint32,uint256)": {
        "notice": "Update `_collateral.symbol(): string` collateralization settings"
      },
      "updateFees(uint256,uint256)": {
        "notice": "Update fees deducted from buy and sell orders to respectively `@formatPct(_buyFeePct)`% and `@formatPct(_sellFeePct)`%"
      },
      "updateMaximumTapFloorDecreasePct(uint256)": {
        "notice": "Update maximum tap floor decrease percentage to `@formatPct(_maximumTapFloorDecreasePct)`%"
      },
      "updateMaximumTapRateIncreasePct(uint256)": {
        "notice": "Update maximum tap rate increase percentage to `@formatPct(_maximumTapRateIncreasePct)`%"
      },
      "updateTappedAmount(address)": {
        "notice": "Update tapped amount for `_token.symbol(): string`"
      },
      "updateTokenTap(address,uint256,uint256)": {
        "notice": "Update tap for `_token.symbol(): string` with a rate of about `@tokenAmount(_token, 4 * 60 * 24 * 30 * _rate)` per month and a floor of `@tokenAmount(_token, _floor)`"
      },
      "withdraw(address)": {
        "notice": "Transfer about `@tokenAmount(_token, self.getMaximumWithdrawal(_token): uint256)` from the reserve to the beneficiary"
      }
    }
  }
}