{
  "address": "0xa743F3ed3524d788cA5D9b7c88b93d785c4eBFd1",
  "abi": [
    {
      "constant": true,
      "inputs": [],
      "name": "ADD_PROTECTED_TOKEN_ROLE",
      "outputs": [
        {
          "name": "",
          "type": "bytes32"
        }
      ],
      "payable": false,
      "stateMutability": "view",
      "type": "function"
    },
    {
      "constant": true,
      "inputs": [
        {
          "name": "_interfaceId",
          "type": "bytes4"
        }
      ],
      "name": "supportsInterface",
      "outputs": [
        {
          "name": "",
          "type": "bool"
        }
      ],
      "payable": false,
      "stateMutability": "pure",
      "type": "function"
    },
    {
      "constant": true,
      "inputs": [],
      "name": "hasInitialized",
      "outputs": [
        {
          "name": "",
          "type": "bool"
        }
      ],
      "payable": false,
      "stateMutability": "view",
      "type": "function"
    },
    {
      "constant": true,
      "inputs": [],
      "name": "ERC1271_INTERFACE_ID",
      "outputs": [
        {
          "name": "",
          "type": "bytes4"
        }
      ],
      "payable": false,
      "stateMutability": "view",
      "type": "function"
    },
    {
      "constant": false,
      "inputs": [
        {
          "name": "_operator",
          "type": "address"
        },
        {
          "name": "_from",
          "type": "address"
        },
        {
          "name": "_tokenId",
          "type": "uint256"
        },
        {
          "name": "_data",
          "type": "bytes"
        }
      ],
      "name": "onERC721Received",
      "outputs": [
        {
          "name": "",
          "type": "bytes4"
        }
      ],
      "payable": false,
      "stateMutability": "nonpayable",
      "type": "function"
    },
    {
      "constant": true,
      "inputs": [
        {
          "name": "_hash",
          "type": "bytes32"
        },
        {
          "name": "_signature",
          "type": "bytes"
        }
      ],
      "name": "isValidSignature",
      "outputs": [
        {
          "name": "",
          "type": "bytes4"
        }
      ],
      "payable": false,
      "stateMutability": "view",
      "type": "function"
    },
    {
      "constant": true,
      "inputs": [],
      "name": "ERC1271_RETURN_INVALID_SIGNATURE",
      "outputs": [
        {
          "name": "",
          "type": "bytes4"
        }
      ],
      "payable": false,
      "stateMutability": "view",
      "type": "function"
    },
    {
      "constant": true,
      "inputs": [],
      "name": "TRANSFER_ROLE",
      "outputs": [
        {
          "name": "",
          "type": "bytes32"
        }
      ],
      "payable": false,
      "stateMutability": "view",
      "type": "function"
    },
    {
      "constant": true,
      "inputs": [
        {
          "name": "_data",
          "type": "bytes"
        },
        {
          "name": "_signature",
          "type": "bytes"
        }
      ],
      "name": "isValidSignature",
      "outputs": [
        {
          "name": "",
          "type": "bytes4"
        }
      ],
      "payable": false,
      "stateMutability": "view",
      "type": "function"
    },
    {
      "constant": true,
      "inputs": [],
      "name": "getProtectedTokensLength",
      "outputs": [
        {
          "name": "",
          "type": "uint256"
        }
      ],
      "payable": false,
      "stateMutability": "view",
      "type": "function"
    },
    {
      "constant": true,
      "inputs": [
        {
          "name": "_script",
          "type": "bytes"
        }
      ],
      "name": "getEVMScriptExecutor",
      "outputs": [
        {
          "name": "",
          "type": "address"
        }
      ],
      "payable": false,
      "stateMutability": "view",
      "type": "function"
    },
    {
      "constant": true,
      "inputs": [],
      "name": "getRecoveryVault",
      "outputs": [
        {
          "name": "",
          "type": "address"
        }
      ],
      "payable": false,
      "stateMutability": "view",
      "type": "function"
    },
    {
      "constant": true,
      "inputs": [],
      "name": "RUN_SCRIPT_ROLE",
      "outputs": [
        {
          "name": "",
          "type": "bytes32"
        }
      ],
      "payable": false,
      "stateMutability": "view",
      "type": "function"
    },
    {
      "constant": true,
      "inputs": [],
      "name": "SAFE_EXECUTE_ROLE",
      "outputs": [
        {
          "name": "",
          "type": "bytes32"
        }
      ],
      "payable": false,
      "stateMutability": "view",
      "type": "function"
    },
    {
      "constant": true,
      "inputs": [],
      "name": "REMOVE_PROTECTED_TOKEN_ROLE",
      "outputs": [
        {
          "name": "",
          "type": "bytes32"
        }
      ],
      "payable": false,
      "stateMutability": "view",
      "type": "function"
    },
    {
      "constant": false,
      "inputs": [
        {
          "name": "_token",
          "type": "address"
        },
        {
          "name": "_value",
          "type": "uint256"
        }
      ],
      "name": "deposit",
      "outputs": [],
      "payable": true,
      "stateMutability": "payable",
      "type": "function"
    },
    {
      "constant": true,
      "inputs": [],
      "name": "isDepositable",
      "outputs": [
        {
          "name": "",
          "type": "bool"
        }
      ],
      "payable": false,
      "stateMutability": "view",
      "type": "function"
    },
    {
      "constant": false,
      "inputs": [
        {
          "name": "_hash",
          "type": "bytes32"
        }
      ],
      "name": "presignHash",
      "outputs": [],
      "payable": false,
      "stateMutability": "nonpayable",
      "type": "function"
    },
    {
      "constant": true,
      "inputs": [],
      "name": "DESIGNATE_SIGNER_ROLE",
      "outputs": [
        {
          "name": "",
          "type": "bytes32"
        }
      ],
      "payable": false,
      "stateMutability": "view",
      "type": "function"
    },
    {
      "constant": false,
      "inputs": [
        {
          "name": "_token",
          "type": "address"
        }
      ],
      "name": "removeProtectedToken",
      "outputs": [],
      "payable": false,
      "stateMutability": "nonpayable",
      "type": "function"
    },
    {
      "constant": true,
      "inputs": [],
      "name": "EXECUTE_ROLE",
      "outputs": [
        {
          "name": "",
          "type": "bytes32"
        }
      ],
      "payable": false,
      "stateMutability": "view",
      "type": "function"
    },
    {
      "constant": false,
      "inputs": [
        {
          "name": "_token",
          "type": "address"
        }
      ],
      "name": "addProtectedToken",
      "outputs": [],
      "payable": false,
      "stateMutability": "nonpayable",
      "type": "function"
    },
    {
      "constant": true,
      "inputs": [
        {
          "name": "",
          "type": "address"
        }
      ],
      "name": "allowRecoverability",
      "outputs": [
        {
          "name": "",
          "type": "bool"
        }
      ],
      "payable": false,
      "stateMutability": "view",
      "type": "function"
    },
    {
      "constant": true,
      "inputs": [],
      "name": "appId",
      "outputs": [
        {
          "name": "",
          "type": "bytes32"
        }
      ],
      "payable": false,
      "stateMutability": "view",
      "type": "function"
    },
    {
      "constant": true,
      "inputs": [
        {
          "name": "",
          "type": "uint256"
        }
      ],
      "name": "protectedTokens",
      "outputs": [
        {
          "name": "",
          "type": "address"
        }
      ],
      "payable": false,
      "stateMutability": "view",
      "type": "function"
    },
    {
      "constant": true,
      "inputs": [],
      "name": "getInitializationBlock",
      "outputs": [
        {
          "name": "",
          "type": "uint256"
        }
      ],
      "payable": false,
      "stateMutability": "view",
      "type": "function"
    },
    {
      "constant": true,
      "inputs": [],
      "name": "ERC1271_RETURN_VALID_SIGNATURE",
      "outputs": [
        {
          "name": "",
          "type": "bytes4"
        }
      ],
      "payable": false,
      "stateMutability": "view",
      "type": "function"
    },
    {
      "constant": false,
      "inputs": [
        {
          "name": "_token",
          "type": "address"
        }
      ],
      "name": "transferToVault",
      "outputs": [],
      "payable": false,
      "stateMutability": "nonpayable",
      "type": "function"
    },
    {
      "constant": true,
      "inputs": [
        {
          "name": "_sender",
          "type": "address"
        },
        {
          "name": "_role",
          "type": "bytes32"
        },
        {
          "name": "_params",
          "type": "uint256[]"
        }
      ],
      "name": "canPerform",
      "outputs": [
        {
          "name": "",
          "type": "bool"
        }
      ],
      "payable": false,
      "stateMutability": "view",
      "type": "function"
    },
    {
      "constant": true,
      "inputs": [],
      "name": "getEVMScriptRegistry",
      "outputs": [
        {
          "name": "",
          "type": "address"
        }
      ],
      "payable": false,
      "stateMutability": "view",
      "type": "function"
    },
    {
      "constant": false,
      "inputs": [
        {
          "name": "_designatedSigner",
          "type": "address"
        }
      ],
      "name": "setDesignatedSigner",
      "outputs": [],
      "payable": false,
      "stateMutability": "nonpayable",
      "type": "function"
    },
    {
      "constant": true,
      "inputs": [],
      "name": "designatedSigner",
      "outputs": [
        {
          "name": "",
          "type": "address"
        }
      ],
      "payable": false,
      "stateMutability": "view",
      "type": "function"
    },
    {
      "constant": false,
      "inputs": [
        {
          "name": "_target",
          "type": "address"
        },
        {
          "name": "_data",
          "type": "bytes"
        }
      ],
      "name": "safeExecute",
      "outputs": [],
      "payable": false,
      "stateMutability": "nonpayable",
      "type": "function"
    },
    {
      "constant": true,
      "inputs": [],
      "name": "PROTECTED_TOKENS_CAP",
      "outputs": [
        {
          "name": "",
          "type": "uint256"
        }
      ],
      "payable": false,
      "stateMutability": "view",
      "type": "function"
    },
    {
      "constant": true,
      "inputs": [],
      "name": "ADD_PRESIGNED_HASH_ROLE",
      "outputs": [
        {
          "name": "",
          "type": "bytes32"
        }
      ],
      "payable": false,
      "stateMutability": "view",
      "type": "function"
    },
    {
      "constant": true,
      "inputs": [
        {
          "name": "",
          "type": "bytes32"
        }
      ],
      "name": "isPresigned",
      "outputs": [
        {
          "name": "",
          "type": "bool"
        }
      ],
      "payable": false,
      "stateMutability": "view",
      "type": "function"
    },
    {
      "constant": false,
      "inputs": [
        {
          "name": "_target",
          "type": "address"
        },
        {
          "name": "_ethValue",
          "type": "uint256"
        },
        {
          "name": "_data",
          "type": "bytes"
        }
      ],
      "name": "execute",
      "outputs": [],
      "payable": false,
      "stateMutability": "nonpayable",
      "type": "function"
    },
    {
      "constant": false,
      "inputs": [
        {
          "name": "_token",
          "type": "address"
        },
        {
          "name": "_to",
          "type": "address"
        },
        {
          "name": "_value",
          "type": "uint256"
        }
      ],
      "name": "transfer",
      "outputs": [],
      "payable": false,
      "stateMutability": "nonpayable",
      "type": "function"
    },
    {
      "constant": true,
      "inputs": [
        {
          "name": "_sender",
          "type": "address"
        },
        {
          "name": "_evmScript",
          "type": "bytes"
        }
      ],
      "name": "canForward",
      "outputs": [
        {
          "name": "",
          "type": "bool"
        }
      ],
      "payable": false,
      "stateMutability": "view",
      "type": "function"
    },
    {
      "constant": false,
      "inputs": [
        {
          "name": "_kernel",
          "type": "address"
        }
      ],
      "name": "initialize",
      "outputs": [],
      "payable": false,
      "stateMutability": "nonpayable",
      "type": "function"
    },
    {
      "constant": true,
      "inputs": [],
      "name": "kernel",
      "outputs": [
        {
          "name": "",
          "type": "address"
        }
      ],
      "payable": false,
      "stateMutability": "view",
      "type": "function"
    },
    {
      "constant": false,
      "inputs": [
        {
          "name": "_evmScript",
          "type": "bytes"
        }
      ],
      "name": "forward",
      "outputs": [],
      "payable": false,
      "stateMutability": "nonpayable",
      "type": "function"
    },
    {
      "constant": true,
      "inputs": [],
      "name": "isPetrified",
      "outputs": [
        {
          "name": "",
          "type": "bool"
        }
      ],
      "payable": false,
      "stateMutability": "view",
      "type": "function"
    },
    {
      "constant": true,
      "inputs": [
        {
          "name": "_token",
          "type": "address"
        }
      ],
      "name": "balance",
      "outputs": [
        {
          "name": "",
          "type": "uint256"
        }
      ],
      "payable": false,
      "stateMutability": "view",
      "type": "function"
    },
    {
      "constant": true,
      "inputs": [],
      "name": "isForwarder",
      "outputs": [
        {
          "name": "",
          "type": "bool"
        }
      ],
      "payable": false,
      "stateMutability": "pure",
      "type": "function"
    },
    {
      "payable": true,
      "stateMutability": "payable",
      "type": "fallback"
    },
    {
      "anonymous": false,
      "inputs": [
        {
          "indexed": true,
          "name": "sender",
          "type": "address"
        },
        {
          "indexed": true,
          "name": "target",
          "type": "address"
        },
        {
          "indexed": false,
          "name": "data",
          "type": "bytes"
        }
      ],
      "name": "SafeExecute",
      "type": "event"
    },
    {
      "anonymous": false,
      "inputs": [
        {
          "indexed": true,
          "name": "sender",
          "type": "address"
        },
        {
          "indexed": true,
          "name": "target",
          "type": "address"
        },
        {
          "indexed": false,
          "name": "ethValue",
          "type": "uint256"
        },
        {
          "indexed": false,
          "name": "data",
          "type": "bytes"
        }
      ],
      "name": "Execute",
      "type": "event"
    },
    {
      "anonymous": false,
      "inputs": [
        {
          "indexed": true,
          "name": "token",
          "type": "address"
        }
      ],
      "name": "AddProtectedToken",
      "type": "event"
    },
    {
      "anonymous": false,
      "inputs": [
        {
          "indexed": true,
          "name": "token",
          "type": "address"
        }
      ],
      "name": "RemoveProtectedToken",
      "type": "event"
    },
    {
      "anonymous": false,
      "inputs": [
        {
          "indexed": true,
          "name": "sender",
          "type": "address"
        },
        {
          "indexed": true,
          "name": "hash",
          "type": "bytes32"
        }
      ],
      "name": "PresignHash",
      "type": "event"
    },
    {
      "anonymous": false,
      "inputs": [
        {
          "indexed": true,
          "name": "sender",
          "type": "address"
        },
        {
          "indexed": true,
          "name": "oldSigner",
          "type": "address"
        },
        {
          "indexed": true,
          "name": "newSigner",
          "type": "address"
        }
      ],
      "name": "SetDesignatedSigner",
      "type": "event"
    },
    {
      "anonymous": false,
      "inputs": [
        {
          "indexed": true,
          "name": "token",
          "type": "address"
        },
        {
          "indexed": true,
          "name": "operator",
          "type": "address"
        },
        {
          "indexed": true,
          "name": "from",
          "type": "address"
        },
        {
          "indexed": false,
          "name": "tokenId",
          "type": "uint256"
        },
        {
          "indexed": false,
          "name": "data",
          "type": "bytes"
        }
      ],
      "name": "ReceiveERC721",
      "type": "event"
    },
    {
      "anonymous": false,
      "inputs": [
        {
          "indexed": true,
          "name": "token",
          "type": "address"
        },
        {
          "indexed": true,
          "name": "to",
          "type": "address"
        },
        {
          "indexed": false,
          "name": "amount",
          "type": "uint256"
        }
      ],
      "name": "VaultTransfer",
      "type": "event"
    },
    {
      "anonymous": false,
      "inputs": [
        {
          "indexed": true,
          "name": "token",
          "type": "address"
        },
        {
          "indexed": true,
          "name": "sender",
          "type": "address"
        },
        {
          "indexed": false,
          "name": "amount",
          "type": "uint256"
        }
      ],
      "name": "VaultDeposit",
      "type": "event"
    },
    {
      "anonymous": false,
      "inputs": [
        {
          "indexed": true,
          "name": "executor",
          "type": "address"
        },
        {
          "indexed": false,
          "name": "script",
          "type": "bytes"
        },
        {
          "indexed": false,
          "name": "input",
          "type": "bytes"
        },
        {
          "indexed": false,
          "name": "returnData",
          "type": "bytes"
        }
      ],
      "name": "ScriptResult",
      "type": "event"
    },
    {
      "anonymous": false,
      "inputs": [
        {
          "indexed": true,
          "name": "vault",
          "type": "address"
        },
        {
          "indexed": true,
          "name": "token",
          "type": "address"
        },
        {
          "indexed": false,
          "name": "amount",
          "type": "uint256"
        }
      ],
      "name": "RecoverToVault",
      "type": "event"
    }
  ],
  "transactionHash": "0xec47b58324c9bcc9dab7a9141df1804350999921161ea8039be8bf49c49c929f",
  "args": [],
  "solcInputHash": "d4dcff748a670808cc2946b6e7371511",
  "bytecode": "0x60806040526200001764010000000062000047810204565b6200004160008051602062004270833981519152600064010000000062003e286200014f82021704565b62000265565b6200005a64010000000062000153810204565b60408051808201909152601881527f494e49545f414c52454144595f494e495449414c495a454400000000000000006020820152901562000136576040517f08c379a00000000000000000000000000000000000000000000000000000000081526004018080602001828103825283818151815260200191508051906020019080838360005b83811015620000fa578181015183820152602001620000e0565b50505050905090810190601f168015620001285780820380516001836020036101000a031916815260200191505b509250505060405180910390fd5b506200014d60001964010000000062000182810204565b565b9055565b60006200017d6000805160206200427083398151915264010000000062002d1b6200026182021704565b905090565b6200019564010000000062000153810204565b60408051808201909152601881527f494e49545f414c52454144595f494e495449414c495a454400000000000000006020820152901562000234576040517f08c379a000000000000000000000000000000000000000000000000000000000815260040180806020018281038252838181518152602001915080519060200190808383600083811015620000fa578181015183820152602001620000e0565b506200025e600080516020620042708339815191528264010000000062003e286200014f82021704565b50565b5490565b613ffb80620002756000396000f30060806040526004361061020a5763ffffffff60e060020a6000350416627bb003811461035657806301ffc9a71461037d5780630803fac0146103b357806311a5e409146103c8578063150b7a02146103fa5780631626ba7e146104335780631ce3018114610491578063206b60f9146104a657806320c13b0b146104bb57806326f06d24146105525780632914b9bd1461056757806332f0a3b5146105dc578063368c3c34146105f15780633e4eb7561461060657806342b2d0661461061b57806347e7ef241461063057806348a0c8dd146106475780634c7ec0b01461065c57806354842f1414610674578063578eb50b146106895780635fa5e4e6146106aa5780636298e902146106bf5780637e7db6e1146106e057806380afdea814610701578063851a3790146107165780638b3dd7491461072e5780639890cdca146107435780639d4941d814610758578063a1658fad14610779578063a479e508146107e0578063a83e52b4146107f5578063aae2505114610816578063ab23c3451461082b578063b03bdb0414610858578063b06c42441461086d578063b4fa653c14610882578063b61d27f61461089a578063beabacc8146108cb578063c0774df3146108f5578063c4d66de81461095c578063d4aae0c41461097d578063d948d46814610992578063de4796ed146109eb578063e3d670d714610a00578063fd64eccb14610a21575b610212610a36565b6040805180820190915260148152600080516020613fb083398151915260208201529015156102c25760405160e560020a62461bcd0281526004018080602001828103825283818151815260200191508051906020019080838360005b8381101561028757818101518382015260200161026f565b50505050905090810190601f1680156102b45780820380516001836020036101000a031916815260200191505b509250505060405180910390fd5b5060408051808201909152601381527f5641554c545f444154415f4e4f4e5f5a45524f00000000000000000000000000602082015236156103485760405160e560020a62461bcd0281526004018080602001828103825283818151815260200191508051906020019080838360008381101561028757818101518382015260200161026f565b50610354600034610a60565b005b34801561036257600080fd5b5061036b610cfc565b60408051918252519081900360200190f35b34801561038957600080fd5b5061039f600160e060020a031960043516610d20565b604080519115158252519081900360200190f35b3480156103bf57600080fd5b5061039f610a36565b3480156103d457600080fd5b506103dd610dbf565b60408051600160e060020a03199092168252519081900360200190f35b34801561040657600080fd5b506103dd600160a060020a0360048035821691602480359091169160443591606435908101910135610de3565b34801561043f57600080fd5b5060408051602060046024803582810135601f81018590048502860185019096528585526103dd958335953695604494919390910191908190840183828082843750949750610e869650505050505050565b34801561049d57600080fd5b506103dd610ef8565b3480156104b257600080fd5b5061036b610efd565b3480156104c757600080fd5b506040805160206004803580820135601f81018490048402850184019095528484526103dd94369492936024939284019190819084018382808284375050604080516020601f89358b018035918201839004830284018301909452808352979a999881019791965091820194509250829150840183828082843750949750610f329650505050505050565b34801561055e57600080fd5b5061036b610fa1565b34801561057357600080fd5b506040805160206004803580820135601f81018490048402850184019095528484526105c09436949293602493928401919081908401838280828437509497506110289650505050505050565b60408051600160a060020a039092168252519081900360200190f35b3480156105e857600080fd5b506105c061110e565b3480156105fd57600080fd5b5061036b611186565b34801561061257600080fd5b5061036b6111aa565b34801561062757600080fd5b5061036b6111ce565b610354600160a060020a03600435166024356111f2565b34801561065357600080fd5b5061039f61127d565b34801561066857600080fd5b506103546004356112ad565b34801561068057600080fd5b5061036b61139f565b34801561069557600080fd5b50610354600160a060020a03600435166113c3565b3480156106b657600080fd5b5061036b61150b565b3480156106cb57600080fd5b50610354600160a060020a036004351661152f565b3480156106ec57600080fd5b5061039f600160a060020a036004351661178c565b34801561070d57600080fd5b5061036b611792565b34801561072257600080fd5b506105c06004356117bd565b34801561073a57600080fd5b5061036b6117e5565b34801561074f57600080fd5b506103dd611810565b34801561076457600080fd5b50610354600160a060020a0360043516611834565b34801561078557600080fd5b50604080516020600460443581810135838102808601850190965280855261039f958335600160a060020a0316956024803596369695606495939492019291829185019084908082843750949750611ac39650505050505050565b3480156107ec57600080fd5b506105c0611c13565b34801561080157600080fd5b50610354600160a060020a0360043516611cc8565b34801561082257600080fd5b506105c0611e68565b34801561083757600080fd5b5061035460048035600160a060020a03169060248035908101910135611e77565b34801561086457600080fd5b5061036b6123d8565b34801561087957600080fd5b5061036b6123dd565b34801561088e57600080fd5b5061039f600435612401565b3480156108a657600080fd5b5061035460048035600160a060020a0316906024803591604435918201910135612416565b3480156108d757600080fd5b50610354600160a060020a03600435811690602435166044356125c3565b34801561090157600080fd5b5060408051602060046024803582810135601f810185900485028601850190965285855261039f958335600160a060020a03169536956044949193909101919081908401838280828437509497506128bf9650505050505050565b34801561096857600080fd5b50610354600160a060020a03600435166128fc565b34801561098957600080fd5b506105c06129a8565b34801561099e57600080fd5b506040805160206004803580820135601f81018490048402850184019095528484526103549436949293602493928401919081908401838280828437509497506129d39650505050505050565b3480156109f757600080fd5b5061039f612a96565b348015610a0c57600080fd5b5061036b600160a060020a0360043516612aa9565b348015610a2d57600080fd5b5061039f612ae3565b600080610a416117e5565b90508015801590610a59575080610a56612ae8565b10155b91505b5090565b610a6861127d565b60408051808201909152601581527f5641554c545f4e4f545f4445504f53495441424c4500000000000000000000006020820152901515610aee5760405160e560020a62461bcd0281526004018080602001828103825283818151815260200191508051906020019080838360008381101561028757818101518382015260200161026f565b5060408051808201909152601881527f5641554c545f4445504f5349545f56414c55455f5a45524f0000000000000000602082015260008211610b765760405160e560020a62461bcd0281526004018080602001828103825283818151815260200191508051906020019080838360008381101561028757818101518382015260200161026f565b50600160a060020a0382161515610c135760408051808201909152601481527f5641554c545f56414c55455f4d49534d415443480000000000000000000000006020820152348214610c0d5760405160e560020a62461bcd0281526004018080602001828103825283818151815260200191508051906020019080838360008381101561028757818101518382015260200161026f565b50610cb8565b610c2e600160a060020a03831633308463ffffffff612aec16565b6040805190810160405280602081526020017f5641554c545f544f4b454e5f5452414e534645525f46524f4d5f524556455254815250901515610cb65760405160e560020a62461bcd0281526004018080602001828103825283818151815260200191508051906020019080838360008381101561028757818101518382015260200161026f565b505b6040805182815290513391600160a060020a038516917f2790b90165fd3973ad7edde4eca71b4f8808dd4857a2a3a3e8ae5642a5cb196e9181900360200190a35050565b7f6eb2a499556bfa2872f5aa15812b956cc4a71b4d64eb3553f7073c7e41415aaa81565b6000600160e060020a031982167ffb855dc9000000000000000000000000000000000000000000000000000000001480610d835750600160e060020a031982167f150b7a0200000000000000000000000000000000000000000000000000000000145b80610db75750600160e060020a031982167f01ffc9a700000000000000000000000000000000000000000000000000000000145b90505b919050565b7ffb855dc90000000000000000000000000000000000000000000000000000000081565b600084600160a060020a031686600160a060020a031633600160a060020a03167fe0d2ab3bf6896c073bb33b920a9b60f3c8207b3cc3b7561c3101cb081a8f0883878787604051808481526020018060200182810382528484828181526020019250808284376040519201829003965090945050505050a4507f150b7a020000000000000000000000000000000000000000000000000000000095945050505050565b600082815260208190526040812054819060ff1615610eb057610ea96001612b6b565b9150610ef1565b600154600160a060020a03161515610eca57506000610ee5565b600154610ee2908590600160a060020a031685612ba0565b90505b610eee81612b6b565b91505b5092915050565b600081565b604080517f5452414e534645525f524f4c45000000000000000000000000000000000000008152905190819003600d01902081565b6000610f9a836040518082805190602001908083835b60208310610f675780518252601f199092019160209182019101610f48565b6001836020036101000a038019825116818451168082178552505050505050905001915050604051809103902083610e86565b9392505050565b6000610fab610a36565b6040805180820190915260148152600080516020613fb0833981519152602082015290151561101f5760405160e560020a62461bcd0281526004018080602001828103825283818151815260200191508051906020019080838360008381101561028757818101518382015260200161026f565b50506002545b90565b6000611032611c13565b600160a060020a03166304bf2a7f836040518263ffffffff1660e060020a0281526004018080602001828103825283818151815260200191508051906020019080838360005b83811015611090578181015183820152602001611078565b50505050905090810190601f1680156110bd5780820380516001836020036101000a031916815260200191505b5092505050602060405180830381600087803b1580156110dc57600080fd5b505af11580156110f0573d6000803e3d6000fd5b505050506040513d602081101561110657600080fd5b505192915050565b60006111186129a8565b600160a060020a03166332f0a3b56040518163ffffffff1660e060020a028152600401602060405180830381600087803b15801561115557600080fd5b505af1158015611169573d6000803e3d6000fd5b505050506040513d602081101561117f57600080fd5b5051905090565b7fb421f7ad7646747f3051c50c0b8e2377839296cd4973e27f63821d73e390338f81565b7f0a1ad7b87f5846153c6d5a1f761d71c7d0cfd122384f56066cd33239b793369481565b7f71eee93d500f6f065e38b27d242a756466a00a52a1dbcd6b4260f01a8640402a81565b6111fa610a36565b6040805180820190915260148152600080516020613fb0833981519152602082015290151561126e5760405160e560020a62461bcd0281526004018080602001828103825283818151815260200191508051906020019080838360008381101561028757818101518382015260200161026f565b506112798282610a60565b5050565b60006112a87f665fd576fbbe6f247aff98f5c94a561e3f71ec2d3c988d56f12d342396c50cea612d1b565b905090565b7f0b29780bb523a130b3b01f231ef49ed2fa2781645591a0b0a44ca98f15a5994c6112d782612d1f565b6112e2338383611ac3565b60408051808201909152600f8152600080516020613f9083398151915260208201529015156113565760405160e560020a62461bcd0281526004018080602001828103825283818151815260200191508051906020019080838360008381101561028757818101518382015260200161026f565b50600083815260208190526040808220805460ff1916600117905551849133917fb150212e573caa2a0216cf8f273ef996af143fd7b2d35abd92c8105536cac1609190a3505050565b7f23ce341656c3f14df6692eebd4757791e33662b7dcf9970c8308303da5472b7c81565b7f71eee93d500f6f065e38b27d242a756466a00a52a1dbcd6b4260f01a8640402a6113ed82612d2a565b6113f8338383611ac3565b60408051808201909152600f8152600080516020613f90833981519152602082015290151561146c5760405160e560020a62461bcd0281526004018080602001828103825283818151815260200191508051906020019080838360008381101561028757818101518382015260200161026f565b5061147683612d3e565b60408051808201909152601981527f4147454e545f544f4b454e5f4e4f545f50524f5445435445440000000000000060208201529015156114fc5760405160e560020a62461bcd0281526004018080602001828103825283818151815260200191508051906020019080838360008381101561028757818101518382015260200161026f565b5061150683612d9c565b505050565b7fcebf517aa4440d1d125e0355aae64401211d0848a23c02cc5d29a14822580ba481565b7f6eb2a499556bfa2872f5aa15812b956cc4a71b4d64eb3553f7073c7e41415aaa61155982612d2a565b611564338383611ac3565b60408051808201909152600f8152600080516020613f9083398151915260208201529015156115d85760405160e560020a62461bcd0281526004018080602001828103825283818151815260200191508051906020019080838360008381101561028757818101518382015260200161026f565b5060025460408051808201909152601881527f4147454e545f544f4b454e535f4341505f524541434845440000000000000000602082015290600a116116635760405160e560020a62461bcd0281526004018080602001828103825283818151815260200191508051906020019080838360008381101561028757818101518382015260200161026f565b5061166d83612e59565b60408051808201909152601581527f4147454e545f544f4b454e5f4e4f545f4552433230000000000000000000000060208201529015156116f35760405160e560020a62461bcd0281526004018080602001828103825283818151815260200191508051906020019080838360008381101561028757818101518382015260200161026f565b506116fd83612d3e565b60408051808201909152601d81527f4147454e545f544f4b454e5f414c52454144595f50524f544543544544000000602082015290156117825760405160e560020a62461bcd0281526004018080602001828103825283818151815260200191508051906020019080838360008381101561028757818101518382015260200161026f565b5061150683612e84565b50600090565b60006112a87fd625496217aa6a3453eecb9c3489dc5a53e6c67b444329ea2b2cbc9ff547639b612d1b565b60028054829081106117cb57fe5b600091825260209091200154600160a060020a0316905081565b60006112a87febb05b386a8d34882b8711d156f463690983dc47815980fb82aeeff1aa43579e612d1b565b7f20c13b0b0000000000000000000000000000000000000000000000000000000081565b60008060006118428461178c565b60408051808201909152601281527f5245434f5645525f444953414c4c4f574544000000000000000000000000000060208201529015156118c85760405160e560020a62461bcd0281526004018080602001828103825283818151815260200191508051906020019080838360008381101561028757818101518382015260200161026f565b506118d161110e565b92506118dc83612f0d565b60408051808201909152601a81527f5245434f5645525f5641554c545f4e4f545f434f4e545241435400000000000060208201529015156119625760405160e560020a62461bcd0281526004018080602001828103825283818151815260200191508051906020019080838360008381101561028757818101518382015260200161026f565b50600160a060020a03841615156119b35760405130319250600160a060020a0384169083156108fc029084906000818181858888f193505050501580156119ad573d6000803e3d6000fd5b50611a72565b50826119ce600160a060020a0382163063ffffffff612f3316565b91506119ea600160a060020a038216848463ffffffff61303316565b60408051808201909152601d81527f5245434f5645525f544f4b454e5f5452414e534645525f4641494c45440000006020820152901515611a705760405160e560020a62461bcd0281526004018080602001828103825283818151815260200191508051906020019080838360008381101561028757818101518382015260200161026f565b505b83600160a060020a031683600160a060020a03167f596caf56044b55fb8c4ca640089bbc2b63cae3e978b851f5745cbb7c5b288e02846040518082815260200191505060405180910390a350505050565b600080611ace610a36565b1515611add5760009150611c0b565b611ae56129a8565b9050600160a060020a0381161515611b005760009150611c0b565b80600160a060020a031663fdef9106863087611b1b886130a9565b60405160e060020a63ffffffff8716028152600160a060020a03808616600483019081529085166024830152604482018490526080606483019081528351608484015283519192909160a490910190602085019080838360005b83811015611b8d578181015183820152602001611b75565b50505050905090810190601f168015611bba5780820380516001836020036101000a031916815260200191505b5095505050505050602060405180830381600087803b158015611bdc57600080fd5b505af1158015611bf0573d6000803e3d6000fd5b505050506040513d6020811015611c0657600080fd5b505191505b509392505050565b600080611c1e6129a8565b604080517fbe00bbd80000000000000000000000000000000000000000000000000000000081527fd6f028ca0e8edb4a8c9757ca4fdccab25fa1e0317da1188108f7d2dee14902fb60048201527fddbcfd564f642ab5627cf68b9b7d374fb4f8a36e941a75d89c87998cef03bd6160248201529051600160a060020a03929092169163be00bbd8916044808201926020929091908290030181600087803b1580156110dc57600080fd5b60007f23ce341656c3f14df6692eebd4757791e33662b7dcf9970c8308303da5472b7c611cf483612d2a565b611cff338383611ac3565b60408051808201909152600f8152600080516020613f908339815191526020820152901515611d735760405160e560020a62461bcd0281526004018080602001828103825283818151815260200191508051906020019080838360008381101561028757818101518382015260200161026f565b5060408051808201909152601881527f4147454e545f44455349474e415445445f544f5f53454c4600000000000000006020820152600160a060020a038516301415611e045760405160e560020a62461bcd0281526004018080602001828103825283818151815260200191508051906020019080838360008381101561028757818101518382015260200161026f565b5060018054600160a060020a0386811673ffffffffffffffffffffffffffffffffffffffff198316811790935560405191169450849033907f3ecf54ed9acd859c5ee7f080794267b8f08b65d2446d816cef1efccd6d00d73590600090a450505050565b600154600160a060020a031681565b60006060806000806000806000807f0a1ad7b87f5846153c6d5a1f761d71c7d0cfd122384f56066cd33239b7933694600102611ef28d611ee68e8e8080601f016020809104026020016040519081016040528093929190818152602001838380828437506130b3945050505050565b60e060020a90046130cc565b611efd338383611ac3565b60408051808201909152600f8152600080516020613f908339815191526020820152901515611f715760405160e560020a62461bcd0281526004018080602001828103825283818151815260200191508051906020019080838360008381101561028757818101518382015260200161026f565b50600254604080518281526020808402820101909152909b508b8015611fa1578160200160208202803883390190505b5099508a604051908082528060200260200182016040528015611fce578160200160208202803883390190505b509850600097505b8a8810156120e3576002805489908110611fec57fe5b6000918252602091829020015460408051808201909152601681527f4147454e545f5441524745545f50524f5445435445440000000000000000000092810192909252600160a060020a0390811698508f168814156120905760405160e560020a62461bcd0281526004018080602001828103825283818151815260200191508051906020019080838360008381101561028757818101518382015260200161026f565b50868a898151811015156120a057fe5b600160a060020a039092166020928302909101909101526120c087612aa9565b89898151811015156120ce57fe5b60209081029091010152600190970196611fd6565b8d600160a060020a03168d8d604051808383808284378201915050925050506000604051808303816000865af191505095503d935060405194503d85016040523d6000863e85156123d45760025460408051808201909152601f81527f4147454e545f50524f5445435445445f544f4b454e535f4d4f444946494544006020820152908c146121b75760405160e560020a62461bcd0281526004018080602001828103825283818151815260200191508051906020019080838360008381101561028757818101518382015260200161026f565b50600092505b8a83101561236c5789838151811015156121d357fe5b90602001906020020151600160a060020a03166002848154811015156121f557fe5b6000918252602091829020015460408051808201909152601f81527f4147454e545f50524f5445435445445f544f4b454e535f4d4f44494649454400928101929092529091600160a060020a03909116146122955760405160e560020a62461bcd0281526004018080602001828103825283818151815260200191508051906020019080838360008381101561028757818101518382015260200161026f565b5088838151811015156122a457fe5b906020019060200201516122da6002858154811015156122c057fe5b600091825260209091200154600160a060020a0316612aa9565b60408051808201909152601f81527f4147454e545f50524f5445435445445f42414c414e43455f4c4f57455245440060208201529111156123605760405160e560020a62461bcd0281526004018080602001828103825283818151815260200191508051906020019080838360008381101561028757818101518382015260200161026f565b506001909201916121bd565b8d600160a060020a031633600160a060020a03167f47f4287d5285559a03d8affeadc53ef3fca238a63c256c08a22bfd30fd5d33ce8f8f6040518080602001828103825284848281815260200192508082843760405192018290039550909350505050a38385f35b8385fd5b600a81565b7f0b29780bb523a130b3b01f231ef49ed2fa2781645591a0b0a44ca98f15a5994c81565b60006020819052908152604090205460ff1681565b60007fcebf517aa4440d1d125e0355aae64401211d0848a23c02cc5d29a14822580ba4600102612486868661247a87878080601f016020809104026020016040519081016040528093929190818152602001838380828437506130b3945050505050565b60e060020a90046130e1565b612491338383611ac3565b60408051808201909152600f8152600080516020613f9083398151915260208201529015156125055760405160e560020a62461bcd0281526004018080602001828103825283818151815260200191508051906020019080838360008381101561028757818101518382015260200161026f565b5086600160a060020a03168686866040518083838082843782019150509250505060006040518083038185875af192505050925082156125ac5786600160a060020a031633600160a060020a03167fc25cfed0b22da6a56f0e5ff784979a0b8623eddf2aee4acd33c2adefb09cbab6888888604051808481526020018060200182810382528484828181526020019250808284376040519201829003965090945050505050a35b6040513d6000823e8380156125bf573d82f35b3d82fd5b604080517f5452414e534645525f524f4c45000000000000000000000000000000000000008152905190819003600d0190206126008484846130ff565b61260b338383611ac3565b60408051808201909152600f8152600080516020613f90833981519152602082015290151561267f5760405160e560020a62461bcd0281526004018080602001828103825283818151815260200191508051906020019080838360008381101561028757818101518382015260200161026f565b5060408051808201909152601981527f5641554c545f5452414e534645525f56414c55455f5a45524f000000000000006020820152600084116127075760405160e560020a62461bcd0281526004018080602001828103825283818151815260200191508051906020019080838360008381101561028757818101518382015260200161026f565b50600160a060020a03851615156127cb57604051600160a060020a0385169084156108fc029085906000818181858888f193505050506040805190810160405280601381526020017f5641554c545f53454e445f5245564552544544000000000000000000000000008152509015156127c55760405160e560020a62461bcd0281526004018080602001828103825283818151815260200191508051906020019080838360008381101561028757818101518382015260200161026f565b5061286d565b6127e5600160a060020a038616858563ffffffff61303316565b60408051808201909152601d81527f5641554c545f544f4b454e5f5452414e534645525f5245564552544544000000602082015290151561286b5760405160e560020a62461bcd0281526004018080602001828103825283818151815260200191508051906020019080838360008381101561028757818101518382015260200161026f565b505b83600160a060020a031685600160a060020a03167f239e7f6cdac8fb35a788a46b431b54da87de90b82448a2c294be5e92a6e579af856040518082815260200191505060405180910390a35050505050565b6000610f9a837fb421f7ad7646747f3051c50c0b8e2377839296cd4973e27f63821d73e390338f6128f76128f28661311e565b6131e8565b611ac3565b6129046117e5565b60408051808201909152601881527f494e49545f414c52454144595f494e495449414c495a45440000000000000000602082015290156129895760405160e560020a62461bcd0281526004018080602001828103825283818151815260200191508051906020019080838360008381101561028757818101518382015260200161026f565b50612992613229565b61299c60016132f1565b6129a581613321565b50565b60006112a87f4172f0f7d2289153072b0a6ca36959e0cbe2efc3afe50fc81636caa96338137b612d1b565b6060806129e033846128bf565b60408051808201909152601581527f4147454e545f43414e5f4e4f545f464f525741524400000000000000000000006020820152901515612a665760405160e560020a62461bcd0281526004018080602001828103825283818151815260200191508051906020019080838360008381101561028757818101518382015260200161026f565b50506040805160208082018352600080835283519081529081019092529150612a90838383613351565b50505050565b6000600019612aa36117e5565b14905090565b6000600160a060020a0382161515612ac357503031610dba565b612adc600160a060020a0383163063ffffffff612f3316565b9050610dba565b600190565b4390565b60408051600160a060020a038581166024830152841660448201526064808201849052825180830390910181526084909101909152602081018051600160e060020a03167f23b872dd00000000000000000000000000000000000000000000000000000000179052600090612b618682613944565b9695505050505050565b600081612b79576000610db7565b507f20c13b0b00000000000000000000000000000000000000000000000000000000919050565b6000806000835160001415612bb85760009250612d12565b836000815181101515612bc757fe5b016020015160f860020a908190048102049150600460ff831610612bee5760009250612d12565b8160ff166004811115612bfd57fe5b90506001816004811115612c0d57fe5b1415612c2557612c1e868686613992565b9250612d12565b6002816004811115612c3357fe5b1415612ce657604080517f19457468657265756d205369676e6564204d6573736167653a0a333200000000602080830191909152603c8083018a905283518084039091018152605c909201928390528151612c1e93918291908401908083835b60208310612cb25780518252601f199092019160209182019101612c93565b6001836020036101000a03801982511681845116808217855250505050505090500191505060405180910390208686613992565b6003816004811115612cf457fe5b1415612d0d57612c1e8587612d0887613a40565b613b35565b600092505b50509392505050565b5490565b6060610db7826131e8565b6060610db782600160a060020a03166131e8565b6000805b600254811015612d915782600160a060020a0316600282815481101515612d6557fe5b600091825260209091200154600160a060020a03161415612d895760019150612d96565b600101612d42565b600091505b50919050565b600280546000198101908110612dae57fe5b600091825260209091200154600160a060020a03166002612dce83613c54565b81548110612dd857fe5b6000918252602090912001805473ffffffffffffffffffffffffffffffffffffffff1916600160a060020a03929092169190911790556002805490612e21906000198301613f56565b50604051600160a060020a038216907f3da25279c93c5b22b359bebff8b5ddbfd9b0506be8344b93c9a7dc999459fe0490600090a250565b6000612e6482612f0d565b1515612e7257506000610dba565b612e7b82612aa9565b50600192915050565b6002805460018101825560009182527f405787fa12a823e0f2b7631cc41b3ba8828b3321ca811111fa75cd3aa3bb5ace01805473ffffffffffffffffffffffffffffffffffffffff1916600160a060020a03841690811790915560405190917ff70a5123a7f334e5dac1d9aa3a6aafbc316712bf2519ffe0d3aa4f7cba52767e91a250565b5490565b600080600160a060020a0383161515612f295760009150612d96565b50506000903b1190565b60408051600160a060020a038316602480830191909152825180830390910181526044909101909152602081018051600160e060020a03167f70a08231000000000000000000000000000000000000000000000000000000001790526000908180612f9e8684613d23565b60408051808201909152601c81527f534146455f4552435f32305f42414c414e43455f524556455254454400000000602082015291935091508215156130295760405160e560020a62461bcd0281526004018080602001828103825283818151815260200191508051906020019080838360008381101561028757818101518382015260200161026f565b5095945050505050565b60408051600160a060020a03841660248201526044808201849052825180830390910181526064909101909152602081018051600160e060020a03167fa9059cbb000000000000000000000000000000000000000000000000000000001790526000906130a08582613944565b95945050505050565b8051602002815290565b60006004825110156130c457610dba565b506020015190565b6060610f9a83600160a060020a031683613d54565b60606130f784600160a060020a03168484613daf565b949350505050565b60606130f784600160a060020a031684600160a060020a031684613daf565b6000816040516020018082805190602001908083835b602083106131535780518252601f199092019160209182019101613134565b6001836020036101000a0380198251168184511680821785525050505050509050019150506040516020818303038152906040526040518082805190602001908083835b602083106131b65780518252601f199092019160209182019101613197565b5181516020939093036101000a6000190180199091169216919091179052604051920182900390912095945050505050565b604080516001808252818301909252606091602080830190803883390190505090508181600081518110151561321a57fe5b60209081029091010152919050565b6132316117e5565b60408051808201909152601881527f494e49545f414c52454144595f494e495449414c495a45440000000000000000602082015290156132b65760405160e560020a62461bcd0281526004018080602001828103825283818151815260200191508051906020019080838360008381101561028757818101518382015260200161026f565b506132ef6132c2612ae8565b7febb05b386a8d34882b8711d156f463690983dc47815980fb82aeeff1aa43579e9063ffffffff613e2816565b565b6129a57f665fd576fbbe6f247aff98f5c94a561e3f71ec2d3c988d56f12d342396c50cea8263ffffffff613e2816565b6129a57f4172f0f7d2289153072b0a6ca36959e0cbe2efc3afe50fc81636caa96338137b8263ffffffff613e2816565b6060600080606080613361610a36565b6040805180820190915260148152600080516020613fb083398151915260208201529015156133d55760405160e560020a62461bcd0281526004018080602001828103825283818151815260200191508051906020019080838360008381101561028757818101518382015260200161026f565b506000806133e16129a8565b91506133eb611792565b90506133f68a611028565b60408051808201909152601b81527f45564d52554e5f4558454355544f525f554e415641494c41424c4500000000006020820152909650600160a060020a03871615156134885760405160e560020a62461bcd0281526004018080602001828103825283818151815260200191508051906020019080838360008381101561028757818101518382015260200161026f565b506040516060602482019081528b5160848301528b517f279cea3500000000000000000000000000000000000000000000000000000000975087928d928d928d9282916044820191606481019160a490910190602089019080838360005b838110156134fe5781810151838201526020016134e6565b50505050905090810190601f16801561352b5780820380516001836020036101000a031916815260200191505b50848103835286518152865160209182019188019080838360005b8381101561355e578181015183820152602001613546565b50505050905090810190601f16801561358b5780820380516001836020036101000a031916815260200191505b508481038252855181528551602091820191808801910280838360005b838110156135c05781810151838201526020016135a8565b50505050905001965050505050505060405160208183030381529060405290600160e060020a031916602082018051600160e060020a0383818316178352505050509350600080855160208701895af4604051935080801561368457603f3d1180156136395760203d03806020883e860160405261367e565b60e560020a62461bcd02865260206004870152601e60248701527f45564d52554e5f4558454355544f525f494e56414c49445f52455455524e00006044870152606486fd5b5061368d565b3d6000863e3d85fd5b505085600160a060020a03167f5229a5dba83a54ae8cb5b51bdd6de9474cacbe9dd332f5185f3a4f4f2e3f4ad98b8b8660405180806020018060200180602001848103845287818151815260200191508051906020019080838360005b838110156137025781810151838201526020016136ea565b50505050905090810190601f16801561372f5780820380516001836020036101000a031916815260200191505b50848103835286518152865160209182019188019080838360005b8381101561376257818101518382015260200161374a565b50505050905090810190601f16801561378f5780820380516001836020036101000a031916815260200191505b50848103825285518152855160209182019187019080838360005b838110156137c25781810151838201526020016137aa565b50505050905090810190601f1680156137ef5780820380516001836020036101000a031916815260200191505b50965050505050505060405180910390a282965081600160a060020a03166138156129a8565b600160a060020a0316146040805190810160405280601f81526020017f45564d52554e5f50524f5445435445445f53544154455f4d4f444946494544008152509015156138a75760405160e560020a62461bcd0281526004018080602001828103825283818151815260200191508051906020019080838360008381101561028757818101518382015260200161026f565b50806138b1611792565b60408051808201909152601f81527f45564d52554e5f50524f5445435445445f53544154455f4d4f44494649454400602082015291146139365760405160e560020a62461bcd0281526004018080602001828103825283818151815260200191508051906020019080838360008381101561028757818101518382015260200161026f565b505050505050509392505050565b6000806040516020818551602087016000895af16000811115613988573d8015613975576020811461397e57613986565b60019350613986565b600183511493505b505b5090949350505050565b60008060008060006139a386613e2c565b935093509350935083156139ba5760009450613a35565b60408051600080825260208083018085528c905260ff8516838501526060830187905260808301869052925160019360a0808501949193601f19840193928390039091019190865af1158015613a14573d6000803e3d6000fd5b50505060206040510351600160a060020a031687600160a060020a03161494505b505050509392505050565b805160408051808201909152601e81527f53494756414c5f494e56414c49445f4c454e4754485f504f505f4259544500006020820152606091906000908190818411613ad15760405160e560020a62461bcd0281526004018080602001828103825283818151815260200191508051906020019080838360008381101561028757818101518382015260200161026f565b50600183036040519080825280601f01601f191660200182016040528015613b03578160200160208202803883390190505b509350835160001415613b1557613b2d565b602185019150602084019050613b2d81838651613eb8565b505050919050565b60408051602481018481526044820192835283516064830152835160009360609385937f1626ba7e000000000000000000000000000000000000000000000000000000009389938993909160849091019060208501908083838b5b83811015613ba8578181015183820152602001613b90565b50505050905090810190601f168015613bd55780820380516001836020036101000a031916815260200191505b50935050505060405160208183030381529060405290600160e060020a031916602082018051600160e060020a0383818316178352505050509150613c1e86836203d090613efc565b600160e060020a0319167f20c13b0b00000000000000000000000000000000000000000000000000000000149695505050505050565b6000805b600254811015613ca65782600160a060020a0316600282815481101515613c7b57fe5b600091825260209091200154600160a060020a03161415613c9e57809150612d96565b600101613c58565b604080518082018252601981527f4147454e545f544f4b454e5f4e4f545f50524f544543544544000000000000006020808301918252925160e560020a62461bcd0281526004810193845282516024820152825192939283926044909201919080838360008381101561028757818101518382015260200161026f565b6000806000806040516020818751602089018a5afa92506000831115613d4857805191505b50909590945092505050565b604080516002808252606080830184529260208301908038833901905050905082816000815181101515613d8457fe5b602090810290910101528051829082906001908110613d9f57fe5b6020908102909101015292915050565b6040805160038082526080820190925260609160208201838038833901905050905083816000815181101515613de157fe5b602090810290910101528051839082906001908110613dfc57fe5b602090810290910101528051829082906002908110613e1757fe5b602090810290910101529392505050565b9055565b60008060008084516042141515613e465760019350613eb1565b846041815181101515613e5557fe5b90602001015160f860020a900460f860020a0260f860020a900490506021850151925060418501519150601b8160ff161015613e8f57601b015b8060ff16601b14158015613ea757508060ff16601c14155b15613eb157600193505b9193509193565b60005b60208210613edd578251845260209384019390920191601f1990910190613ebb565b50905182516020929092036101000a6000190180199091169116179052565b60008060008060005a9350858411613f145783613f16565b855b9250600080885160208a018b87fa9150811515613f3257613a35565b503d60208114613f4157613a35565b604051816000823e5198975050505050505050565b8154818355818111156115065760008381526020902061150691810190830161102591905b80821115610a5c5760008155600101613f7b56004150505f415554485f4641494c45440000000000000000000000000000000000494e49545f4e4f545f494e495449414c495a4544000000000000000000000000a165627a7a723058206592be561e8fe3e10577e487dc99be1e8f8c5f1ee8e8a38a93984e5438f8b6490029ebb05b386a8d34882b8711d156f463690983dc47815980fb82aeeff1aa43579e",
  "devdoc": {
    "methods": {
      "addProtectedToken(address)": {
        "params": {
          "_token": "Address of the token to be protected"
        }
      },
      "allowRecoverability(address)": {
        "details": "Disable recovery escape hatch, as it could be used     maliciously to transfer funds away from the vault"
      },
      "canForward(address,bytes)": {
        "details": "IForwarder interface conformance",
        "params": {
          "_sender": "Address of the account intending to forward an action"
        },
        "return": "True if the given address can run scripts, false otherwise"
      },
      "canPerform(address,bytes32,uint256[])": {
        "details": "Check whether an action can be performed by a sender for a particular role on this app",
        "params": {
          "_params": "Permission params for the role",
          "_role": "Role on this app",
          "_sender": "Sender of the call"
        },
        "return": "Boolean indicating whether the sender has the permissions to perform the action.        Always returns false if the app hasn't been initialized yet."
      },
      "deposit(address,uint256)": {
        "params": {
          "_token": "Address of the token being transferred",
          "_value": "Amount of tokens being transferred"
        }
      },
      "execute(address,uint256,bytes)": {
        "params": {
          "_data": "Calldata for the action",
          "_ethValue": "Amount of ETH from the contract that is sent with the action",
          "_target": "Address where the action is being executed"
        },
        "return": "Exits call frame forwarding the return data of the executed call (either error or success data)"
      },
      "forward(bytes)": {
        "details": "IForwarder interface conformance. Forwards any token holder action.",
        "params": {
          "_evmScript": "Script being executed"
        }
      },
      "getInitializationBlock()": {
        "return": "Block number in which the contract was initialized"
      },
      "getRecoveryVault()": {
        "details": "Get the recovery vault for the app",
        "return": "Recovery vault address for the app"
      },
      "hasInitialized()": {
        "return": "Whether the contract has been initialized by the time of the current block"
      },
      "initialize(address)": {
        "details": "As an AragonApp it needs to be initialized in order for roles (`auth` and `authP`) to work"
      },
      "isForwarder()": {
        "details": "IForwarder interface conformance",
        "return": "Always true"
      },
      "isValidSignature(bytes,bytes)": {
        "details": "Default behavior of `isValidSignature(bytes,bytes)`, can be overloaded for custom validation",
        "params": {
          "_data": "Arbitrary length data signed on the behalf of address(this)",
          "_signature": "Signature byte array associated with _data"
        },
        "return": "A bytes4 magic value 0x20c13b0b if the signature check passes, 0x00000000 if not    * MUST NOT modify state (using STATICCALL for solc < 0.5, view modifier for solc > 0.5) MUST allow external calls"
      },
      "isValidSignature(bytes32,bytes)": {
        "params": {
          "_hash": "Arbitrary length data signed on the behalf of address (this)",
          "_signature": "Signature byte array associated with _data"
        },
        "return": "The ERC-1271 magic value if the signature is valid"
      },
      "presignHash(bytes32)": {
        "params": {
          "_hash": "Hash that will be considered signed regardless of the signature checked with 'isValidSignature()'"
        }
      },
      "removeProtectedToken(address)": {
        "params": {
          "_token": "Address of the token to be unprotected"
        }
      },
      "safeExecute(address,bytes)": {
        "params": {
          "_data": "Calldata for the action",
          "_target": "Address where the action is being executed"
        },
        "return": "Exits call frame forwarding the return data of the executed call (either error or success data)"
      },
      "setDesignatedSigner(address)": {
        "params": {
          "_designatedSigner": "Address that will be able to sign messages on behalf of the app"
        }
      },
      "supportsInterface(bytes4)": {
        "details": "Implements conformance to ERC-165",
        "params": {
          "_interfaceId": "Interface bytes to check"
        },
        "return": "True if this contract supports the interface"
      },
      "transfer(address,address,uint256)": {
        "params": {
          "_to": "Address of the recipient of tokens",
          "_token": "Address of the token being transferred",
          "_value": "Amount of tokens being transferred"
        }
      },
      "transferToVault(address)": {
        "params": {
          "_token": "Token balance to be sent to recovery vault."
        }
      }
    }
  },
  "userdoc": {
    "methods": {
      "addProtectedToken(address)": {
        "notice": "Add `_token.symbol(): string` to the list of protected tokens"
      },
      "canForward(address,bytes)": {
        "notice": "Tells whether `_sender` can forward actions or not"
      },
      "deposit(address,uint256)": {
        "notice": "Deposit `_value` `_token` to the vault"
      },
      "execute(address,uint256,bytes)": {
        "notice": "Execute '`@radspec(_target, _data)`' on `_target``_ethValue == 0 ? '' : ' (Sending ' + @tokenAmount(0x0000000000000000000000000000000000000000, _ethValue) + ')'`"
      },
      "forward(bytes)": {
        "notice": "Execute the script as the Agent app"
      },
      "initialize(address)": {
        "notice": "Initialize Vault app"
      },
      "isForwarder()": {
        "notice": "Tells whether the Agent app is a forwarder or not"
      },
      "isValidSignature(bytes32,bytes)": {
        "notice": "Tells whether a signature is seen as valid by this contract through ERC-1271"
      },
      "presignHash(bytes32)": {
        "notice": "Pre-sign hash `_hash`"
      },
      "removeProtectedToken(address)": {
        "notice": "Remove `_token.symbol(): string` from the list of protected tokens"
      },
      "safeExecute(address,bytes)": {
        "notice": "Execute '`@radspec(_target, _data)`' on `_target`, ensuring that protected tokens can't be spent"
      },
      "setDesignatedSigner(address)": {
        "notice": "Set `_designatedSigner` as the designated signer of the app, which will be able to sign messages on behalf of the app"
      },
      "supportsInterface(bytes4)": {
        "notice": "Tells whether this contract supports a given ERC-165 interface"
      },
      "transfer(address,address,uint256)": {
        "notice": "Transfer `_value` `_token` from the Vault to `_to`"
      },
      "transferToVault(address)": {
        "notice": "Send funds to recovery Vault. This contract should never receive funds,        but in case it does, this function allows one to recover them."
      }
    }
  }
}