{
  "address": "0x1b25996DEa9fAAd22F361b503175C56847A41BAD",
  "abi": [
    {
      "constant": false,
      "inputs": [
        {
          "name": "",
          "type": "uint256"
        }
      ],
      "name": "updateMaximumTapRateIncreasePct",
      "outputs": [],
      "payable": false,
      "stateMutability": "nonpayable",
      "type": "function"
    },
    {
      "constant": false,
      "inputs": [
        {
          "name": "",
          "type": "address"
        }
      ],
      "name": "updateBeneficiary",
      "outputs": [],
      "payable": false,
      "stateMutability": "nonpayable",
      "type": "function"
    },
    {
      "constant": false,
      "inputs": [
        {
          "name": "",
          "type": "address"
        }
      ],
      "name": "withdraw",
      "outputs": [],
      "payable": false,
      "stateMutability": "nonpayable",
      "type": "function"
    },
    {
      "constant": false,
      "inputs": [
        {
          "name": "_token",
          "type": "address"
        }
      ],
      "name": "updateTappedAmount",
      "outputs": [],
      "payable": false,
      "stateMutability": "nonpayable",
      "type": "function"
    },
    {
      "constant": false,
      "inputs": [
        {
          "name": "",
          "type": "address"
        }
      ],
      "name": "resetTappedToken",
      "outputs": [],
      "payable": false,
      "stateMutability": "nonpayable",
      "type": "function"
    },
    {
      "constant": true,
      "inputs": [
        {
          "name": "_token",
          "type": "address"
        }
      ],
      "name": "rates",
      "outputs": [
        {
          "name": "",
          "type": "uint256"
        }
      ],
      "payable": false,
      "stateMutability": "view",
      "type": "function"
    },
    {
      "constant": false,
      "inputs": [
        {
          "name": "",
          "type": "address"
        },
        {
          "name": "",
          "type": "uint256"
        },
        {
          "name": "",
          "type": "uint256"
        }
      ],
      "name": "addTappedToken",
      "outputs": [],
      "payable": false,
      "stateMutability": "nonpayable",
      "type": "function"
    },
    {
      "constant": false,
      "inputs": [
        {
          "name": "",
          "type": "uint256"
        }
      ],
      "name": "updateMaximumTapFloorDecreasePct",
      "outputs": [],
      "payable": false,
      "stateMutability": "nonpayable",
      "type": "function"
    },
    {
      "constant": true,
      "inputs": [
        {
          "name": "",
          "type": "address"
        }
      ],
      "name": "getMaximumWithdrawal",
      "outputs": [
        {
          "name": "",
          "type": "uint256"
        }
      ],
      "payable": false,
      "stateMutability": "view",
      "type": "function"
    },
    {
      "constant": false,
      "inputs": [
        {
          "name": "",
          "type": "address"
        },
        {
          "name": "",
          "type": "uint256"
        },
        {
          "name": "",
          "type": "uint256"
        }
      ],
      "name": "updateTappedToken",
      "outputs": [],
      "payable": false,
      "stateMutability": "nonpayable",
      "type": "function"
    }
  ],
  "transactionHash": "0xed2719243b02ddc2e7b52cb8fce51dfc8e2295e6623ca354010a54c78e47ab05",
  "args": [],
  "solcInputHash": "73f0b14ba9b59a87bafad8cc1d104ba5",
  "bytecode": "0x608060405234801561001057600080fd5b5061019e806100206000396000f3006080604052600436106100a35763ffffffff7c010000000000000000000000000000000000000000000000000000000060003504166307e18bc881146100a85780630aaffd2a146100c257806351cff8d9146100c2578063846a0a89146100c25780639cbbba88146100c2578063a8734f0b146100f0578063b897b62814610130578063d21bd820146100a8578063e2a5aec5146100f0578063f30a00ce14610130575b600080fd5b3480156100b457600080fd5b506100c0600435610164565b005b3480156100ce57600080fd5b506100c073ffffffffffffffffffffffffffffffffffffffff60043516610164565b3480156100fc57600080fd5b5061011e73ffffffffffffffffffffffffffffffffffffffff60043516610167565b60408051918252519081900360200190f35b34801561013c57600080fd5b506100c073ffffffffffffffffffffffffffffffffffffffff6004351660243560443561016d565b50565b50600090565b5050505600a165627a7a72305820fa44d1b933c2e5624e2340d7617a3edda348be7f20e932bc49c4ee96885d99080029",
  "devdoc": {
    "methods": {}
  },
  "userdoc": {
    "methods": {
      "addTappedToken(address,uint256,uint256)": {
        "notice": "Do nothing, Tap is disabled"
      },
      "getMaximumWithdrawal(address)": {
        "notice": "*** public view functions ****"
      },
      "resetTappedToken(address)": {
        "notice": "Do nothing, Tap is disabled"
      },
      "updateBeneficiary(address)": {
        "notice": "Do nothing, Tap is disabled"
      },
      "updateMaximumTapFloorDecreasePct(uint256)": {
        "notice": "Do nothing, Tap is disabled"
      },
      "updateMaximumTapRateIncreasePct(uint256)": {
        "notice": "Do nothing, Tap is disabled"
      },
      "updateTappedAmount(address)": {
        "notice": "Do nothing, Tap is disabled"
      },
      "updateTappedToken(address,uint256,uint256)": {
        "notice": "Do nothing, Tap is disabled"
      },
      "withdraw(address)": {
        "notice": "Do nothing, Tap is disabled"
      }
    }
  }
}