{
  "address": "0x4C82D37226D961075433e274c571F235412a0f15",
  "abi": [
    {
      "constant": true,
      "inputs": [],
      "name": "hasInitialized",
      "outputs": [
        {
          "name": "",
          "type": "bool"
        }
      ],
      "payable": false,
      "stateMutability": "view",
      "type": "function"
    },
    {
      "constant": true,
      "inputs": [],
      "name": "MAX_VESTINGS_PER_ADDRESS",
      "outputs": [
        {
          "name": "",
          "type": "uint256"
        }
      ],
      "payable": false,
      "stateMutability": "view",
      "type": "function"
    },
    {
      "constant": true,
      "inputs": [
        {
          "name": "_holder",
          "type": "address"
        }
      ],
      "name": "spendableBalanceOf",
      "outputs": [
        {
          "name": "",
          "type": "uint256"
        }
      ],
      "payable": false,
      "stateMutability": "view",
      "type": "function"
    },
    {
      "constant": false,
      "inputs": [
        {
          "name": "_receiver",
          "type": "address"
        },
        {
          "name": "_amount",
          "type": "uint256"
        },
        {
          "name": "_start",
          "type": "uint64"
        },
        {
          "name": "_cliff",
          "type": "uint64"
        },
        {
          "name": "_vested",
          "type": "uint64"
        },
        {
          "name": "_revokable",
          "type": "bool"
        }
      ],
      "name": "assignVested",
      "outputs": [
        {
          "name": "",
          "type": "uint256"
        }
      ],
      "payable": false,
      "stateMutability": "nonpayable",
      "type": "function"
    },
    {
      "constant": true,
      "inputs": [
        {
          "name": "_script",
          "type": "bytes"
        }
      ],
      "name": "getEVMScriptExecutor",
      "outputs": [
        {
          "name": "",
          "type": "address"
        }
      ],
      "payable": false,
      "stateMutability": "view",
      "type": "function"
    },
    {
      "constant": true,
      "inputs": [],
      "name": "getRecoveryVault",
      "outputs": [
        {
          "name": "",
          "type": "address"
        }
      ],
      "payable": false,
      "stateMutability": "view",
      "type": "function"
    },
    {
      "constant": true,
      "inputs": [
        {
          "name": "_recipient",
          "type": "address"
        },
        {
          "name": "_vestingId",
          "type": "uint256"
        }
      ],
      "name": "getVesting",
      "outputs": [
        {
          "name": "amount",
          "type": "uint256"
        },
        {
          "name": "start",
          "type": "uint64"
        },
        {
          "name": "cliff",
          "type": "uint64"
        },
        {
          "name": "vesting",
          "type": "uint64"
        },
        {
          "name": "revokable",
          "type": "bool"
        }
      ],
      "payable": false,
      "stateMutability": "view",
      "type": "function"
    },
    {
      "constant": false,
      "inputs": [
        {
          "name": "_receiver",
          "type": "address"
        },
        {
          "name": "_amount",
          "type": "uint256"
        }
      ],
      "name": "mint",
      "outputs": [],
      "payable": false,
      "stateMutability": "nonpayable",
      "type": "function"
    },
    {
      "constant": false,
      "inputs": [
        {
          "name": "_from",
          "type": "address"
        },
        {
          "name": "_to",
          "type": "address"
        },
        {
          "name": "_amount",
          "type": "uint256"
        }
      ],
      "name": "onTransfer",
      "outputs": [
        {
          "name": "",
          "type": "bool"
        }
      ],
      "payable": false,
      "stateMutability": "nonpayable",
      "type": "function"
    },
    {
      "constant": true,
      "inputs": [
        {
          "name": "_holder",
          "type": "address"
        },
        {
          "name": "_time",
          "type": "uint256"
        }
      ],
      "name": "transferableBalance",
      "outputs": [
        {
          "name": "",
          "type": "uint256"
        }
      ],
      "payable": false,
      "stateMutability": "view",
      "type": "function"
    },
    {
      "constant": true,
      "inputs": [
        {
          "name": "_token",
          "type": "address"
        }
      ],
      "name": "allowRecoverability",
      "outputs": [
        {
          "name": "",
          "type": "bool"
        }
      ],
      "payable": false,
      "stateMutability": "view",
      "type": "function"
    },
    {
      "constant": true,
      "inputs": [],
      "name": "appId",
      "outputs": [
        {
          "name": "",
          "type": "bytes32"
        }
      ],
      "payable": false,
      "stateMutability": "view",
      "type": "function"
    },
    {
      "constant": true,
      "inputs": [],
      "name": "ISSUE_ROLE",
      "outputs": [
        {
          "name": "",
          "type": "bytes32"
        }
      ],
      "payable": false,
      "stateMutability": "view",
      "type": "function"
    },
    {
      "constant": true,
      "inputs": [],
      "name": "getInitializationBlock",
      "outputs": [
        {
          "name": "",
          "type": "uint256"
        }
      ],
      "payable": false,
      "stateMutability": "view",
      "type": "function"
    },
    {
      "constant": true,
      "inputs": [
        {
          "name": "",
          "type": "address"
        }
      ],
      "name": "vestingsLengths",
      "outputs": [
        {
          "name": "",
          "type": "uint256"
        }
      ],
      "payable": false,
      "stateMutability": "view",
      "type": "function"
    },
    {
      "constant": false,
      "inputs": [
        {
          "name": "_token",
          "type": "address"
        }
      ],
      "name": "transferToVault",
      "outputs": [],
      "payable": false,
      "stateMutability": "nonpayable",
      "type": "function"
    },
    {
      "constant": false,
      "inputs": [
        {
          "name": "_holder",
          "type": "address"
        },
        {
          "name": "_amount",
          "type": "uint256"
        }
      ],
      "name": "burn",
      "outputs": [],
      "payable": false,
      "stateMutability": "nonpayable",
      "type": "function"
    },
    {
      "constant": true,
      "inputs": [
        {
          "name": "_sender",
          "type": "address"
        },
        {
          "name": "_role",
          "type": "bytes32"
        },
        {
          "name": "_params",
          "type": "uint256[]"
        }
      ],
      "name": "canPerform",
      "outputs": [
        {
          "name": "",
          "type": "bool"
        }
      ],
      "payable": false,
      "stateMutability": "view",
      "type": "function"
    },
    {
      "constant": true,
      "inputs": [],
      "name": "getEVMScriptRegistry",
      "outputs": [
        {
          "name": "",
          "type": "address"
        }
      ],
      "payable": false,
      "stateMutability": "view",
      "type": "function"
    },
    {
      "constant": true,
      "inputs": [],
      "name": "ASSIGN_ROLE",
      "outputs": [
        {
          "name": "",
          "type": "bytes32"
        }
      ],
      "payable": false,
      "stateMutability": "view",
      "type": "function"
    },
    {
      "constant": true,
      "inputs": [],
      "name": "BURN_ROLE",
      "outputs": [
        {
          "name": "",
          "type": "bytes32"
        }
      ],
      "payable": false,
      "stateMutability": "view",
      "type": "function"
    },
    {
      "constant": false,
      "inputs": [
        {
          "name": "_receiver",
          "type": "address"
        },
        {
          "name": "_amount",
          "type": "uint256"
        }
      ],
      "name": "assign",
      "outputs": [],
      "payable": false,
      "stateMutability": "nonpayable",
      "type": "function"
    },
    {
      "constant": true,
      "inputs": [
        {
          "name": "_sender",
          "type": "address"
        },
        {
          "name": "",
          "type": "bytes"
        }
      ],
      "name": "canForward",
      "outputs": [
        {
          "name": "",
          "type": "bool"
        }
      ],
      "payable": false,
      "stateMutability": "view",
      "type": "function"
    },
    {
      "constant": false,
      "inputs": [
        {
          "name": "_amount",
          "type": "uint256"
        }
      ],
      "name": "issue",
      "outputs": [],
      "payable": false,
      "stateMutability": "nonpayable",
      "type": "function"
    },
    {
      "constant": true,
      "inputs": [],
      "name": "kernel",
      "outputs": [
        {
          "name": "",
          "type": "address"
        }
      ],
      "payable": false,
      "stateMutability": "view",
      "type": "function"
    },
    {
      "constant": false,
      "inputs": [
        {
          "name": "_evmScript",
          "type": "bytes"
        }
      ],
      "name": "forward",
      "outputs": [],
      "payable": false,
      "stateMutability": "nonpayable",
      "type": "function"
    },
    {
      "constant": false,
      "inputs": [
        {
          "name": "",
          "type": "address"
        },
        {
          "name": "",
          "type": "address"
        },
        {
          "name": "",
          "type": "uint256"
        }
      ],
      "name": "onApprove",
      "outputs": [
        {
          "name": "",
          "type": "bool"
        }
      ],
      "payable": false,
      "stateMutability": "nonpayable",
      "type": "function"
    },
    {
      "constant": true,
      "inputs": [],
      "name": "isPetrified",
      "outputs": [
        {
          "name": "",
          "type": "bool"
        }
      ],
      "payable": false,
      "stateMutability": "view",
      "type": "function"
    },
    {
      "constant": false,
      "inputs": [
        {
          "name": "_token",
          "type": "address"
        },
        {
          "name": "_transferable",
          "type": "bool"
        },
        {
          "name": "_maxAccountTokens",
          "type": "uint256"
        }
      ],
      "name": "initialize",
      "outputs": [],
      "payable": false,
      "stateMutability": "nonpayable",
      "type": "function"
    },
    {
      "constant": true,
      "inputs": [],
      "name": "MINT_ROLE",
      "outputs": [
        {
          "name": "",
          "type": "bytes32"
        }
      ],
      "payable": false,
      "stateMutability": "view",
      "type": "function"
    },
    {
      "constant": true,
      "inputs": [],
      "name": "maxAccountTokens",
      "outputs": [
        {
          "name": "",
          "type": "uint256"
        }
      ],
      "payable": false,
      "stateMutability": "view",
      "type": "function"
    },
    {
      "constant": true,
      "inputs": [],
      "name": "REVOKE_VESTINGS_ROLE",
      "outputs": [
        {
          "name": "",
          "type": "bytes32"
        }
      ],
      "payable": false,
      "stateMutability": "view",
      "type": "function"
    },
    {
      "constant": false,
      "inputs": [
        {
          "name": "",
          "type": "address"
        }
      ],
      "name": "proxyPayment",
      "outputs": [
        {
          "name": "",
          "type": "bool"
        }
      ],
      "payable": true,
      "stateMutability": "payable",
      "type": "function"
    },
    {
      "constant": false,
      "inputs": [
        {
          "name": "_holder",
          "type": "address"
        },
        {
          "name": "_vestingId",
          "type": "uint256"
        }
      ],
      "name": "revokeVesting",
      "outputs": [],
      "payable": false,
      "stateMutability": "nonpayable",
      "type": "function"
    },
    {
      "constant": true,
      "inputs": [],
      "name": "token",
      "outputs": [
        {
          "name": "",
          "type": "address"
        }
      ],
      "payable": false,
      "stateMutability": "view",
      "type": "function"
    },
    {
      "constant": true,
      "inputs": [],
      "name": "isForwarder",
      "outputs": [
        {
          "name": "",
          "type": "bool"
        }
      ],
      "payable": false,
      "stateMutability": "pure",
      "type": "function"
    },
    {
      "anonymous": false,
      "inputs": [
        {
          "indexed": true,
          "name": "receiver",
          "type": "address"
        },
        {
          "indexed": false,
          "name": "vestingId",
          "type": "uint256"
        },
        {
          "indexed": false,
          "name": "amount",
          "type": "uint256"
        }
      ],
      "name": "NewVesting",
      "type": "event"
    },
    {
      "anonymous": false,
      "inputs": [
        {
          "indexed": true,
          "name": "receiver",
          "type": "address"
        },
        {
          "indexed": false,
          "name": "vestingId",
          "type": "uint256"
        },
        {
          "indexed": false,
          "name": "nonVestedAmount",
          "type": "uint256"
        }
      ],
      "name": "RevokeVesting",
      "type": "event"
    },
    {
      "anonymous": false,
      "inputs": [
        {
          "indexed": true,
          "name": "executor",
          "type": "address"
        },
        {
          "indexed": false,
          "name": "script",
          "type": "bytes"
        },
        {
          "indexed": false,
          "name": "input",
          "type": "bytes"
        },
        {
          "indexed": false,
          "name": "returnData",
          "type": "bytes"
        }
      ],
      "name": "ScriptResult",
      "type": "event"
    },
    {
      "anonymous": false,
      "inputs": [
        {
          "indexed": true,
          "name": "vault",
          "type": "address"
        },
        {
          "indexed": true,
          "name": "token",
          "type": "address"
        },
        {
          "indexed": false,
          "name": "amount",
          "type": "uint256"
        }
      ],
      "name": "RecoverToVault",
      "type": "event"
    }
  ],
  "transactionHash": "0x3f340b1c91fdf8bb1e4757a26355922ae721d1d7faab99e8ae03c830ce2ce297",
  "args": [],
  "solcInputHash": "c17a3333357a708f6c9647a49776a9ab",
  "bytecode": "0x60806040526200001764010000000062000047810204565b62000041600080516020620039438339815191526000640100000000620035d36200014f82021704565b62000265565b6200005a64010000000062000153810204565b60408051808201909152601881527f494e49545f414c52454144595f494e495449414c495a454400000000000000006020820152901562000136576040517f08c379a00000000000000000000000000000000000000000000000000000000081526004018080602001828103825283818151815260200191508051906020019080838360005b83811015620000fa578181015183820152602001620000e0565b50505050905090810190601f168015620001285780820380516001836020036101000a031916815260200191505b509250505060405180910390fd5b506200014d60001964010000000062000182810204565b565b9055565b60006200017d6000805160206200394383398151915264010000000062002a956200026182021704565b905090565b6200019564010000000062000153810204565b60408051808201909152601881527f494e49545f414c52454144595f494e495449414c495a454400000000000000006020820152901562000234576040517f08c379a000000000000000000000000000000000000000000000000000000000815260040180806020018281038252838181518152602001915080519060200190808383600083811015620000fa578181015183820152602001620000e0565b506200025e6000805160206200394383398151915282640100000000620035d36200014f82021704565b50565b5490565b6136ce80620002756000396000f3006080604052600436106101a85763ffffffff60e060020a6000350416630803fac081146101ad5780630db3971b146101d65780630f8f8b83146101fd57806321cb18cd1461021e5780632914b9bd1461026057806332f0a3b5146102d55780633e05a36d146102ea57806340c10f19146103475780634a3931491461036d57806372f8393c146103975780637e7db6e1146103bb57806380afdea8146103dc578063856222f1146103f15780638b3dd7491461040657806397f2562a1461041b5780639d4941d81461043c5780639dc29fac1461045d578063a1658fad14610481578063a479e508146104e8578063a51d9a8e146104fd578063b930908f14610512578063be76048814610527578063c0774df31461054b578063cc872b66146105b2578063d4aae0c4146105ca578063d948d468146105df578063da682aeb14610638578063de4796ed14610662578063e37ff29f14610677578063e9a9c850146106a0578063ecfda432146106b5578063edc168f1146106ca578063f48c3054146106df578063fa6799f2146106f3578063fc0c546a14610717578063fd64eccb1461072c575b600080fd5b3480156101b957600080fd5b506101c2610741565b604080519115158252519081900360200190f35b3480156101e257600080fd5b506101eb61076a565b60408051918252519081900360200190f35b34801561020957600080fd5b506101eb600160a060020a036004351661076f565b34801561022a57600080fd5b506101eb600160a060020a036004351660243567ffffffffffffffff6044358116906064358116906084351660a4351515610853565b34801561026c57600080fd5b506040805160206004803580820135601f81018490048402850184019095528484526102b9943694929360249392840191908190840183828082843750949750610cd19650505050505050565b60408051600160a060020a039092168252519081900360200190f35b3480156102e157600080fd5b506102b9610db7565b3480156102f657600080fd5b5061030e600160a060020a0360043516602435610e2f565b6040805195865267ffffffffffffffff948516602087015292841685840152921660608401529015156080830152519081900360a00190f35b34801561035357600080fd5b5061036b600160a060020a0360043516602435610f7a565b005b34801561037957600080fd5b506101c2600160a060020a03600435811690602435166044356110d7565b3480156103a357600080fd5b506101eb600160a060020a0360043516602435611194565b3480156103c757600080fd5b506101c2600160a060020a0360043516611236565b3480156103e857600080fd5b506101eb61124b565b3480156103fd57600080fd5b506101eb61127b565b34801561041257600080fd5b506101eb6112b0565b34801561042757600080fd5b506101eb600160a060020a03600435166112db565b34801561044857600080fd5b5061036b600160a060020a03600435166112ed565b34801561046957600080fd5b5061036b600160a060020a036004351660243561157c565b34801561048d57600080fd5b5060408051602060046044358181013583810280860185019096528085526101c2958335600160a060020a03169560248035963696956064959394920192918291850190849080828437509497506116dc9650505050505050565b3480156104f457600080fd5b506102b961182c565b34801561050957600080fd5b506101eb6118e1565b34801561051e57600080fd5b506101eb611916565b34801561053357600080fd5b5061036b600160a060020a036004351660243561194b565b34801561055757600080fd5b5060408051602060046024803582810135601f81018590048502860185019096528585526101c2958335600160a060020a0316953695604494919390910191908190840183828082843750949750611a119650505050505050565b3480156105be57600080fd5b5061036b600435611aa8565b3480156105d657600080fd5b506102b9611b72565b3480156105eb57600080fd5b506040805160206004803580820135601f810184900484028501840190955284845261036b943694929360249392840191908190840183828082843750949750611b9d9650505050505050565b34801561064457600080fd5b506101c2600160a060020a0360043581169060243516604435611c9a565b34801561066e57600080fd5b506101c2611d38565b34801561068357600080fd5b5061036b600160a060020a03600435166024351515604435611d4b565b3480156106ac57600080fd5b506101eb61202b565b3480156106c157600080fd5b506101eb612060565b3480156106d657600080fd5b506101eb612066565b6101c2600160a060020a036004351661209b565b3480156106ff57600080fd5b5061036b600160a060020a0360043516602435612137565b34801561072357600080fd5b506102b961256c565b34801561073857600080fd5b506101c261257b565b60008061074c6112b0565b90508015801590610764575080610761612580565b10155b91505090565b603281565b6000610779610741565b60408051808201909152601481527f494e49545f4e4f545f494e495449414c495a4544000000000000000000000000602082015290151561083b5760405160e560020a62461bcd0281526004018080602001828103825283818151815260200191508051906020019080838360005b838110156108005781810151838201526020016107e8565b50505050905090810190601f16801561082d5780820380516001836020036101000a031916815260200191505b509250505060405180910390fd5b5061084d82610848612584565b612588565b92915050565b604080517f41535349474e5f524f4c450000000000000000000000000000000000000000008152905190819003600b019020600090819061089489896126de565b61089f3383836116dc565b60408051808201909152600f815260008051602061368383398151915260208201529015156109135760405160e560020a62461bcd028152600401808060200182810382528381815181526020019150805190602001908083836000838110156108005781810151838201526020016107e8565b5060408051808201909152601081527f544d5f56455354494e475f544f5f544d000000000000000000000000000000006020820152600160a060020a038b163014156109a45760405160e560020a62461bcd028152600401808060200182810382528381815181526020019150805190602001908083836000838110156108005781810151838201526020016107e8565b50600160a060020a038a16600090815260036020908152604091829020548251808401909352601483527f544d5f544f4f5f4d414e595f56455354494e475300000000000000000000000091830191909152603211610a485760405160e560020a62461bcd028152600401808060200182810382528381815181526020019150805190602001908083836000838110156108005781810151838201526020016107e8565b508667ffffffffffffffff168867ffffffffffffffff1611158015610a8157508567ffffffffffffffff168767ffffffffffffffff1611155b60408051808201909152601381527f544d5f57524f4e475f434c4946465f44415445000000000000000000000000006020820152901515610b075760405160e560020a62461bcd028152600401808060200182810382528381815181526020019150805190602001908083836000838110156108005781810151838201526020016107e8565b50600360008b600160a060020a0316600160a060020a03168152602001908152602001600020600081548092919060010191905055925060a0604051908101604052808a81526020018967ffffffffffffffff1681526020018867ffffffffffffffff1681526020018767ffffffffffffffff168152602001861515815250600260008c600160a060020a0316600160a060020a0316815260200190815260200160002060008581526020019081526020016000206000820151816000015560208201518160010160006101000a81548167ffffffffffffffff021916908367ffffffffffffffff16021790555060408201518160010160086101000a81548167ffffffffffffffff021916908367ffffffffffffffff16021790555060608201518160010160106101000a81548167ffffffffffffffff021916908367ffffffffffffffff16021790555060808201518160010160186101000a81548160ff021916908315150217905550905050610c808a8a6126f3565b60408051848152602081018b90528151600160a060020a038d16927f627ad26dcfe82ec79b33fda0ddd062f6fab9f4914acac8345f79090dfd86fb54928290030190a2509098975050505050505050565b6000610cdb61182c565b600160a060020a03166304bf2a7f836040518263ffffffff1660e060020a0281526004018080602001828103825283818151815260200191508051906020019080838360005b83811015610d39578181015183820152602001610d21565b50505050905090810190601f168015610d665780820380516001836020036101000a031916815260200191505b5092505050602060405180830381600087803b158015610d8557600080fd5b505af1158015610d99573d6000803e3d6000fd5b505050506040513d6020811015610daf57600080fd5b505192915050565b6000610dc1611b72565b600160a060020a03166332f0a3b56040518163ffffffff1660e060020a028152600401602060405180830381600087803b158015610dfe57600080fd5b505af1158015610e12573d6000803e3d6000fd5b505050506040513d6020811015610e2857600080fd5b5051905090565b60008060008060008087876003600083600160a060020a0316600160a060020a031681526020019081526020016000205481106040805190810160405280600d81526020017f544d5f4e4f5f56455354494e4700000000000000000000000000000000000000815250901515610eea5760405160e560020a62461bcd028152600401808060200182810382528381815181526020019150805190602001908083836000838110156108005781810151838201526020016107e8565b50505050600160a060020a03969096166000908152600260209081526040808320978352969052949094208054600190910154909667ffffffffffffffff8083169750680100000000000000008304811696507001000000000000000000000000000000008304169450780100000000000000000000000000000000000000000000000090910460ff1692509050565b604080517f4d494e545f524f4c45000000000000000000000000000000000000000000000081529051908190036009019020610fb683836126de565b610fc13383836116dc565b60408051808201909152600f815260008051602061368383398151915260208201529015156110355760405160e560020a62461bcd028152600401808060200182810382528381815181526020019150805190602001908083836000838110156108005781810151838201526020016107e8565b5060408051808201909152601681527f544d5f4d494e545f52454345495645525f49535f544d000000000000000000006020820152600160a060020a0385163014156110c65760405160e560020a62461bcd028152600401808060200182810382528381815181526020019150805190602001908083836000838110156108005781810151838201526020016107e8565b506110d184846128ae565b50505050565b6000805460408051808201909152601381527f544d5f43414c4c45525f4e4f545f544f4b454e00000000000000000000000000602082015290600160a060020a0316331461116a5760405160e560020a62461bcd028152600401808060200182810382528381815181526020019150805190602001908083836000838110156108005781810151838201526020016107e8565b5061117583836129db565b801561118c57508161118985610848612584565b10155b949350505050565b600061119e610741565b60408051808201909152601481527f494e49545f4e4f545f494e495449414c495a454400000000000000000000000060208201529015156112245760405160e560020a62461bcd028152600401808060200182810382528381815181526020019150805190602001908083836000838110156108005781810151838201526020016107e8565b5061122f8383612588565b9392505050565b600054600160a060020a039081169116141590565b60006112767fd625496217aa6a3453eecb9c3489dc5a53e6c67b444329ea2b2cbc9ff547639b612a95565b905090565b604080517f49535355455f524f4c45000000000000000000000000000000000000000000008152905190819003600a01902081565b60006112767febb05b386a8d34882b8711d156f463690983dc47815980fb82aeeff1aa43579e612a95565b60036020526000908152604090205481565b60008060006112fb84611236565b60408051808201909152601281527f5245434f5645525f444953414c4c4f574544000000000000000000000000000060208201529015156113815760405160e560020a62461bcd028152600401808060200182810382528381815181526020019150805190602001908083836000838110156108005781810151838201526020016107e8565b5061138a610db7565b925061139583612a9d565b60408051808201909152601a81527f5245434f5645525f5641554c545f4e4f545f434f4e5452414354000000000000602082015290151561141b5760405160e560020a62461bcd028152600401808060200182810382528381815181526020019150805190602001908083836000838110156108005781810151838201526020016107e8565b50600160a060020a038416151561146c5760405130319250600160a060020a0384169083156108fc029084906000818181858888f19350505050158015611466573d6000803e3d6000fd5b5061152b565b5082611487600160a060020a0382163063ffffffff612aca16565b91506114a3600160a060020a038216848463ffffffff612bb416565b60408051808201909152601d81527f5245434f5645525f544f4b454e5f5452414e534645525f4641494c454400000060208201529015156115295760405160e560020a62461bcd028152600401808060200182810382528381815181526020019150805190602001908083836000838110156108005781810151838201526020016107e8565b505b83600160a060020a031683600160a060020a03167f596caf56044b55fb8c4ca640089bbc2b63cae3e978b851f5745cbb7c5b288e02846040518082815260200191505060405180910390a350505050565b604080517f4255524e5f524f4c450000000000000000000000000000000000000000000000815290519081900360090190206115b883836126de565b6115c33383836116dc565b60408051808201909152600f815260008051602061368383398151915260208201529015156116375760405160e560020a62461bcd028152600401808060200182810382528381815181526020019150805190602001908083836000838110156108005781810151838201526020016107e8565b5060008054604080517fd3ce77fe000000000000000000000000000000000000000000000000000000008152600160a060020a038881166004830152602482018890529151919092169263d3ce77fe92604480820193602093909283900390910190829087803b1580156116aa57600080fd5b505af11580156116be573d6000803e3d6000fd5b505050506040513d60208110156116d457600080fd5b505050505050565b6000806116e7610741565b15156116f65760009150611824565b6116fe611b72565b9050600160a060020a03811615156117195760009150611824565b80600160a060020a031663fdef910686308761173488612c2a565b60405160e060020a63ffffffff8716028152600160a060020a03808616600483019081529085166024830152604482018490526080606483019081528351608484015283519192909160a490910190602085019080838360005b838110156117a657818101518382015260200161178e565b50505050905090810190601f1680156117d35780820380516001836020036101000a031916815260200191505b5095505050505050602060405180830381600087803b1580156117f557600080fd5b505af1158015611809573d6000803e3d6000fd5b505050506040513d602081101561181f57600080fd5b505191505b509392505050565b600080611837611b72565b604080517fbe00bbd80000000000000000000000000000000000000000000000000000000081527fd6f028ca0e8edb4a8c9757ca4fdccab25fa1e0317da1188108f7d2dee14902fb60048201527fddbcfd564f642ab5627cf68b9b7d374fb4f8a36e941a75d89c87998cef03bd6160248201529051600160a060020a03929092169163be00bbd8916044808201926020929091908290030181600087803b158015610d8557600080fd5b604080517f41535349474e5f524f4c450000000000000000000000000000000000000000008152905190819003600b01902081565b604080517f4255524e5f524f4c4500000000000000000000000000000000000000000000008152905190819003600901902081565b604080517f41535349474e5f524f4c450000000000000000000000000000000000000000008152905190819003600b01902061198783836126de565b6119923383836116dc565b60408051808201909152600f81526000805160206136838339815191526020820152901515611a065760405160e560020a62461bcd028152600401808060200182810382528381815181526020019150805190602001908083836000838110156108005781810151838201526020016107e8565b506110d184846126f3565b6000611a1b610741565b801561122f5750600080546040805160e060020a6370a08231028152600160a060020a038781166004830152915191909216916370a0823191602480830192602092919082900301818787803b158015611a7457600080fd5b505af1158015611a88573d6000803e3d6000fd5b505050506040513d6020811015611a9e57600080fd5b5051119392505050565b604080517f49535355455f524f4c45000000000000000000000000000000000000000000008152905190819003600a019020611ae382612c34565b611aee3383836116dc565b60408051808201909152600f81526000805160206136838339815191526020820152901515611b625760405160e560020a62461bcd028152600401808060200182810382528381815181526020019150805190602001908083836000838110156108005781810151838201526020016107e8565b50611b6d30846128ae565b505050565b60006112767f4172f0f7d2289153072b0a6ca36959e0cbe2efc3afe50fc81636caa96338137b612a95565b606080611baa3384611a11565b60408051808201909152601281527f544d5f43414e5f4e4f545f464f525741524400000000000000000000000000006020820152901515611c305760405160e560020a62461bcd028152600401808060200182810382528381815181526020019150805190602001908083836000838110156108005781810151838201526020016107e8565b506040805160008152600160208083018281526060840185529295509192909190850190803883395050600080548351939450600160a060020a0316928492508110611c7857fe5b600160a060020a039092166020928302909101909101526110d1838383612c75565b6000805460408051808201909152601381527f544d5f43414c4c45525f4e4f545f544f4b454e00000000000000000000000000602082015290600160a060020a03163314611d2d5760405160e560020a62461bcd028152600401808060200182810382528381815181526020019150805190602001908083836000838110156108005781810151838201526020016107e8565b506001949350505050565b6000600019611d456112b0565b14905090565b611d536112b0565b60408051808201909152601881527f494e49545f414c52454144595f494e495449414c495a4544000000000000000060208201529015611dd85760405160e560020a62461bcd028152600401808060200182810382528381815181526020019150805190602001908083836000838110156108005781810151838201526020016107e8565b50611de161327a565b30600160a060020a031683600160a060020a031663f77c47916040518163ffffffff1660e060020a028152600401602060405180830381600087803b158015611e2957600080fd5b505af1158015611e3d573d6000803e3d6000fd5b505050506040513d6020811015611e5357600080fd5b505160408051808201909152601381527f544d5f544f4b454e5f434f4e54524f4c4c455200000000000000000000000000602082015291600160a060020a0390911614611ee55760405160e560020a62461bcd028152600401808060200182810382528381815181526020019150805190602001908083836000838110156108005781810151838201526020016107e8565b506000805473ffffffffffffffffffffffffffffffffffffffff1916600160a060020a0385161790558015611f1a5780611f1e565b6000195b6001819055508115156000809054906101000a9004600160a060020a0316600160a060020a031663bef97c876040518163ffffffff1660e060020a028152600401602060405180830381600087803b158015611f7957600080fd5b505af1158015611f8d573d6000803e3d6000fd5b505050506040513d6020811015611fa357600080fd5b5051151514611b6d5760008054604080517ff41e60c500000000000000000000000000000000000000000000000000000000815285151560048201529051600160a060020a039092169263f41e60c59260248084019382900301818387803b15801561200e57600080fd5b505af1158015612022573d6000803e3d6000fd5b50505050505050565b604080517f4d494e545f524f4c4500000000000000000000000000000000000000000000008152905190819003600901902081565b60015481565b604080517f5245564f4b455f56455354494e47535f524f4c450000000000000000000000008152905190819003601401902081565b6000805460408051808201909152601381527f544d5f43414c4c45525f4e4f545f544f4b454e00000000000000000000000000602082015290600160a060020a0316331461212e5760405160e560020a62461bcd028152600401808060200182810382528381815181526020019150805190602001908083836000838110156108005781810151838201526020016107e8565b50600092915050565b604080517f5245564f4b455f56455354494e47535f524f4c4500000000000000000000000081529051908190036014019020600090819061217785613342565b6121823383836116dc565b60408051808201909152600f815260008051602061368383398151915260208201529015156121f65760405160e560020a62461bcd028152600401808060200182810382528381815181526020019150805190602001908083836000838110156108005781810151838201526020016107e8565b50600160a060020a038616600090815260036020908152604091829020548251808401909352600d83527f544d5f4e4f5f56455354494e47000000000000000000000000000000000000009183019190915287918791821061229d5760405160e560020a62461bcd028152600401808060200182810382528381815181526020019150805190602001908083836000838110156108005781810151838201526020016107e8565b50600160a060020a03881660009081526002602090815260408083208a845282529182902060018101548351808501909452601884527f544d5f56455354494e475f4e4f545f5245564f4b41424c4500000000000000009284019290925297507801000000000000000000000000000000000000000000000000900460ff16151561236d5760405160e560020a62461bcd028152600401808060200182810382528381815181526020019150805190602001908083836000838110156108005781810151838201526020016107e8565b5085546123b89061237c612584565b600189015467ffffffffffffffff8082169168010000000000000000810482169170010000000000000000000000000000000090910416613356565b600160a060020a03808a1660008181526002602090815260408083208d84528252808320838155600101805478ffffffffffffffffffffffffffffffffffffffffffffffffff19169055825481517f23b872dd0000000000000000000000000000000000000000000000000000000081526004810195909552306024860152604485018790529051959a50909316936323b872dd936064808501949193918390030190829087803b15801561246c57600080fd5b505af1158015612480573d6000803e3d6000fd5b505050506040513d602081101561249657600080fd5b50516040805180820190915260208082527f544d5f5245564f4b455f5452414e534645525f46524f4d5f52455645525445449082015290151561251e5760405160e560020a62461bcd028152600401808060200182810382528381815181526020019150805190602001908083836000838110156108005781810151838201526020016107e8565b5060408051888152602081018790528151600160a060020a038b16927fafc516b1509f836efdc27d64d966d14f82ef53f456f0de74c12ac8a651a084cc928290030190a25050505050505050565b600054600160a060020a031681565b600190565b4390565b4290565b600080546040805160e060020a6370a08231028152600160a060020a03868116600483015291518493849384938493849392909216916370a082319160248082019260209290919082900301818787803b1580156125e557600080fd5b505af11580156125f9573d6000803e3d6000fd5b505050506040513d602081101561260f57600080fd5b50519450600160a060020a03881630146126d257600160a060020a038816600090815260036020526040812054945092505b838310156126d257600160a060020a03881660009081526002602090815260408083208684529091529020805460018201549193506126b391899067ffffffffffffffff8082169168010000000000000000810482169170010000000000000000000000000000000090910416613356565b90506126c5858263ffffffff6133d016565b9450600190920191612641565b50929695505050505050565b606061122f83600160a060020a03168361346b565b6126fd82826129db565b60408051808201909152601a81527f544d5f42414c414e43455f494e435f4e4f545f414c4c4f57454400000000000060208201529015156127835760405160e560020a62461bcd028152600401808060200182810382528381815181526020019150805190602001908083836000838110156108005781810151838201526020016107e8565b5060008054604080517f23b872dd000000000000000000000000000000000000000000000000000000008152306004820152600160a060020a03868116602483015260448201869052915191909216926323b872dd92606480820193602093909283900390910190829087803b1580156127fc57600080fd5b505af1158015612810573d6000803e3d6000fd5b505050506040513d602081101561282657600080fd5b50516040805180820190915260208082527f544d5f41535349474e5f5452414e534645525f46524f4d5f524556455254454490820152901515611b6d5760405160e560020a62461bcd028152600401808060200182810382528381815181526020019150805190602001908083836000838110156108005781810151838201526020016107e8565b6128b882826129db565b60408051808201909152601a81527f544d5f42414c414e43455f494e435f4e4f545f414c4c4f574544000000000000602082015290151561293e5760405160e560020a62461bcd028152600401808060200182810382528381815181526020019150805190602001908083836000838110156108005781810151838201526020016107e8565b5060008054604080517f827f32c0000000000000000000000000000000000000000000000000000000008152600160a060020a038681166004830152602482018690529151919092169263827f32c092604480820193602093909283900390910190829087803b1580156129b157600080fd5b505af11580156129c5573d6000803e3d6000fd5b505050506040513d60208110156110d157600080fd5b6000600160a060020a0383163014156129f65750600161084d565b600154600080546040805160e060020a6370a08231028152600160a060020a0388811660048301529151612a8c94889493909316926370a0823192602480820193602093909283900390910190829087803b158015612a5457600080fd5b505af1158015612a68573d6000803e3d6000fd5b505050506040513d6020811015612a7e57600080fd5b50519063ffffffff6134c616565b11159392505050565b5490565b5490565b600080600160a060020a0383161515612ab95760009150612ac4565b823b90506000811191505b50919050565b60408051600160a060020a038316602480830191909152825180830390910181526044909101909152602081018051600160e060020a031660e060020a6370a08231021790526000908180612b1f8684613554565b60408051808201909152601c81527f534146455f4552435f32305f42414c414e43455f52455645525445440000000060208201529193509150821515612baa5760405160e560020a62461bcd028152600401808060200182810382528381815181526020019150805190602001908083836000838110156108005781810151838201526020016107e8565b5095945050505050565b60408051600160a060020a03841660248201526044808201849052825180830390910181526064909101909152602081018051600160e060020a03167fa9059cbb00000000000000000000000000000000000000000000000000000000179052600090612c218582613585565b95945050505050565b8051602002815290565b6040805160018082528183019092526060916020808301908038833901905050905081816000815181101515612c6657fe5b60209081029091010152919050565b6060600080606080612c85610741565b60408051808201909152601481527f494e49545f4e4f545f494e495449414c495a45440000000000000000000000006020820152901515612d0b5760405160e560020a62461bcd028152600401808060200182810382528381815181526020019150805190602001908083836000838110156108005781810151838201526020016107e8565b50600080612d17611b72565b9150612d2161124b565b9050612d2c8a610cd1565b60408051808201909152601b81527f45564d52554e5f4558454355544f525f554e415641494c41424c4500000000006020820152909650600160a060020a0387161515612dbe5760405160e560020a62461bcd028152600401808060200182810382528381815181526020019150805190602001908083836000838110156108005781810151838201526020016107e8565b506040516060602482019081528b5160848301528b517f279cea3500000000000000000000000000000000000000000000000000000000975087928d928d928d9282916044820191606481019160a490910190602089019080838360005b83811015612e34578181015183820152602001612e1c565b50505050905090810190601f168015612e615780820380516001836020036101000a031916815260200191505b50848103835286518152865160209182019188019080838360005b83811015612e94578181015183820152602001612e7c565b50505050905090810190601f168015612ec15780820380516001836020036101000a031916815260200191505b508481038252855181528551602091820191808801910280838360005b83811015612ef6578181015183820152602001612ede565b50505050905001965050505050505060405160208183030381529060405290600160e060020a031916602082018051600160e060020a0383818316178352505050509350600080855160208701895af46040519350808015612fba57603f3d118015612f6f5760203d03806020883e8601604052612fb4565b60e560020a62461bcd02865260206004870152601e60248701527f45564d52554e5f4558454355544f525f494e56414c49445f52455455524e00006044870152606486fd5b50612fc3565b3d6000863e3d85fd5b505085600160a060020a03167f5229a5dba83a54ae8cb5b51bdd6de9474cacbe9dd332f5185f3a4f4f2e3f4ad98b8b8660405180806020018060200180602001848103845287818151815260200191508051906020019080838360005b83811015613038578181015183820152602001613020565b50505050905090810190601f1680156130655780820380516001836020036101000a031916815260200191505b50848103835286518152865160209182019188019080838360005b83811015613098578181015183820152602001613080565b50505050905090810190601f1680156130c55780820380516001836020036101000a031916815260200191505b50848103825285518152855160209182019187019080838360005b838110156130f85781810151838201526020016130e0565b50505050905090810190601f1680156131255780820380516001836020036101000a031916815260200191505b50965050505050505060405180910390a282965081600160a060020a031661314b611b72565b600160a060020a0316146040805190810160405280601f81526020017f45564d52554e5f50524f5445435445445f53544154455f4d4f444946494544008152509015156131dd5760405160e560020a62461bcd028152600401808060200182810382528381815181526020019150805190602001908083836000838110156108005781810151838201526020016107e8565b50806131e761124b565b60408051808201909152601f81527f45564d52554e5f50524f5445435445445f53544154455f4d4f444946494544006020820152911461326c5760405160e560020a62461bcd028152600401808060200182810382528381815181526020019150805190602001908083836000838110156108005781810151838201526020016107e8565b505050505050509392505050565b6132826112b0565b60408051808201909152601881527f494e49545f414c52454144595f494e495449414c495a45440000000000000000602082015290156133075760405160e560020a62461bcd028152600401808060200182810382528381815181526020019150805190602001908083836000838110156108005781810151838201526020016107e8565b50613340613313612580565b7febb05b386a8d34882b8711d156f463690983dc47815980fb82aeeff1aa43579e9063ffffffff6135d316565b565b606061084d82600160a060020a0316612c34565b6000808286106133695760009150612baa565b8386101561337957869150612baa565b613389838663ffffffff6133d016565b6133a961339c888863ffffffff6133d016565b899063ffffffff6135d716565b8115156133b257fe5b0490506133c5878263ffffffff6133d016565b979650505050505050565b60408051808201909152601281527f4d4154485f5355425f554e444552464c4f570000000000000000000000000000602082015260009081908484111561345c5760405160e560020a62461bcd028152600401808060200182810382528381815181526020019150805190602001908083836000838110156108005781810151838201526020016107e8565b505050808203805b5092915050565b60408051600280825260608083018452926020830190803883390190505090508281600081518110151561349b57fe5b6020908102909101015280518290829060019081106134b657fe5b6020908102909101015292915050565b60408051808201909152601181527f4d4154485f4144445f4f564552464c4f57000000000000000000000000000000602082015260009083830190848210156118245760405160e560020a62461bcd028152600401808060200182810382528381815181526020019150805190602001908083836000838110156108005781810151838201526020016107e8565b6000806000806040516020818751602089018a5afa9250600083111561357957805191505b50909590945092505050565b6000806040516020818551602087016000895af160008111156135c9573d80156135b657602081146135bf576135c7565b600193506135c7565b600183511493505b505b5090949350505050565b9055565b6000808315156135ea5760009150613464565b508282028284828115156135fa57fe5b60408051808201909152601181527f4d4154485f4d554c5f4f564552464c4f57000000000000000000000000000000602082015292919004146118245760405160e560020a62461bcd028152600401808060200182810382528381815181526020019150805190602001908083836000838110156108005781810151838201526020016107e856004150505f415554485f4641494c45440000000000000000000000000000000000a165627a7a72305820a2d6feade5c270cafb2903fdae253b8678ee0b948e8a7cf2ece8fa20a38afc390029ebb05b386a8d34882b8711d156f463690983dc47815980fb82aeeff1aa43579e",
  "devdoc": {
    "methods": {
      "allowRecoverability(address)": {
        "details": "Disable recovery escape hatch for own token,     as the it has the concept of issuing tokens without assigning them"
      },
      "assign(address,uint256)": {
        "params": {
          "_amount": "Number of tokens transferred",
          "_receiver": "The address receiving the tokens"
        }
      },
      "assignVested(address,uint256,uint64,uint64,uint64,bool)": {
        "params": {
          "_amount": "Number of tokens vested",
          "_cliff": "Date when the initial portion of tokens are transferable",
          "_receiver": "The address receiving the tokens, cannot be Token Manager itself",
          "_revokable": "Whether the vesting can be revoked by the Token Manager",
          "_start": "Date the vesting calculations start",
          "_vested": "Date when all tokens are transferable"
        }
      },
      "burn(address,uint256)": {
        "params": {
          "_amount": "Number of tokens being burned",
          "_holder": "Holder of tokens being burned"
        }
      },
      "canPerform(address,bytes32,uint256[])": {
        "details": "Check whether an action can be performed by a sender for a particular role on this app",
        "params": {
          "_params": "Permission params for the role",
          "_role": "Role on this app",
          "_sender": "Sender of the call"
        },
        "return": "Boolean indicating whether the sender has the permissions to perform the action.        Always returns false if the app hasn't been initialized yet."
      },
      "forward(bytes)": {
        "details": "IForwarder interface conformance. Forwards any token holder action.",
        "params": {
          "_evmScript": "Script being executed"
        }
      },
      "getInitializationBlock()": {
        "return": "Block number in which the contract was initialized"
      },
      "getRecoveryVault()": {
        "details": "Get the recovery vault for the app",
        "return": "Recovery vault address for the app"
      },
      "hasInitialized()": {
        "return": "Whether the contract has been initialized by the time of the current block"
      },
      "initialize(address,bool,uint256)": {
        "params": {
          "_maxAccountTokens": "Maximum amount of tokens an account can have (0 for infinite tokens)",
          "_token": "MiniMeToken address for the managed token (Token Manager instance must be already set as the token controller)",
          "_transferable": "whether the token can be transferred by holders"
        }
      },
      "issue(uint256)": {
        "params": {
          "_amount": "Number of tokens minted"
        }
      },
      "mint(address,uint256)": {
        "params": {
          "_amount": "Number of tokens minted",
          "_receiver": "The address receiving the tokens, cannot be the Token Manager itself (use `issue()` instead)"
        }
      },
      "onApprove(address,address,uint256)": {
        "details": "Notifies the controller about an approval allowing the controller to react if desired     Initialization check is implicitly provided by `onlyToken()`.",
        "return": "False if the controller does not authorize the approval"
      },
      "proxyPayment(address)": {
        "details": "Called when ether is sent to the MiniMe Token contract     Initialization check is implicitly provided by `onlyToken()`.",
        "return": "True if the ether is accepted, false for it to throw"
      },
      "revokeVesting(address,uint256)": {
        "params": {
          "_holder": "Address whose vesting to revoke",
          "_vestingId": "Numeric id of the vesting"
        }
      },
      "transferToVault(address)": {
        "params": {
          "_token": "Token balance to be sent to recovery vault."
        }
      }
    }
  },
  "userdoc": {
    "methods": {
      "assign(address,uint256)": {
        "notice": "Assign `@tokenAmount(self.token(): address, _amount, false)` tokens to `_receiver` from the Token Manager's holdings"
      },
      "assignVested(address,uint256,uint64,uint64,uint64,bool)": {
        "notice": "Assign `@tokenAmount(self.token(): address, _amount, false)` tokens to `_receiver` from the Token Manager's holdings with a `_revokable : 'revokable' : ''` vesting starting at `@formatDate(_start)`, cliff at `@formatDate(_cliff)` (first portion of tokens transferable), and completed vesting at `@formatDate(_vested)` (all tokens transferable)"
      },
      "burn(address,uint256)": {
        "notice": "Burn `@tokenAmount(self.token(): address, _amount, false)` tokens from `_holder`"
      },
      "forward(bytes)": {
        "notice": "Execute desired action as a token holder"
      },
      "initialize(address,bool,uint256)": {
        "notice": "Initialize Token Manager for `_token.symbol(): string`, whose tokens are `transferable ? 'not' : ''` transferable`_maxAccountTokens > 0 ? ' and limited to a maximum of ' + @tokenAmount(_token, _maxAccountTokens, false) + ' per account' : ''`"
      },
      "issue(uint256)": {
        "notice": "Mint `@tokenAmount(self.token(): address, _amount, false)` tokens for the Token Manager"
      },
      "mint(address,uint256)": {
        "notice": "Mint `@tokenAmount(self.token(): address, _amount, false)` tokens for `_receiver`"
      },
      "revokeVesting(address,uint256)": {
        "notice": "Revoke vesting #`_vestingId` from `_holder`, returning unvested tokens to the Token Manager"
      },
      "transferToVault(address)": {
        "notice": "Send funds to recovery Vault. This contract should never receive funds,        but in case it does, this function allows one to recover them."
      }
    }
  }
}