{
  "address": "0xF775dEAe5d5425893c44B1e809B51022E7eb623e",
  "abi": [
    {
      "constant": false,
      "inputs": [
        {
          "name": "_maximumTapRateIncreasePct",
          "type": "uint256"
        }
      ],
      "name": "updateMaximumTapRateIncreasePct",
      "outputs": [],
      "payable": false,
      "stateMutability": "nonpayable",
      "type": "function"
    },
    {
      "constant": true,
      "inputs": [],
      "name": "hasInitialized",
      "outputs": [
        {
          "name": "",
          "type": "bool"
        }
      ],
      "payable": false,
      "stateMutability": "view",
      "type": "function"
    },
    {
      "constant": false,
      "inputs": [
        {
          "name": "_beneficiary",
          "type": "address"
        }
      ],
      "name": "updateBeneficiary",
      "outputs": [],
      "payable": false,
      "stateMutability": "nonpayable",
      "type": "function"
    },
    {
      "constant": true,
      "inputs": [],
      "name": "TO_RESET_CAP",
      "outputs": [
        {
          "name": "",
          "type": "uint256"
        }
      ],
      "payable": false,
      "stateMutability": "view",
      "type": "function"
    },
    {
      "constant": true,
      "inputs": [],
      "name": "OPEN_TRADING_ROLE",
      "outputs": [
        {
          "name": "",
          "type": "bytes32"
        }
      ],
      "payable": false,
      "stateMutability": "view",
      "type": "function"
    },
    {
      "constant": true,
      "inputs": [],
      "name": "OPEN_PRESALE_ROLE",
      "outputs": [
        {
          "name": "",
          "type": "bytes32"
        }
      ],
      "payable": false,
      "stateMutability": "view",
      "type": "function"
    },
    {
      "constant": true,
      "inputs": [],
      "name": "marketMaker",
      "outputs": [
        {
          "name": "",
          "type": "address"
        }
      ],
      "payable": false,
      "stateMutability": "view",
      "type": "function"
    },
    {
      "constant": true,
      "inputs": [
        {
          "name": "_script",
          "type": "bytes"
        }
      ],
      "name": "getEVMScriptExecutor",
      "outputs": [
        {
          "name": "",
          "type": "address"
        }
      ],
      "payable": false,
      "stateMutability": "view",
      "type": "function"
    },
    {
      "constant": true,
      "inputs": [],
      "name": "OPEN_BUY_ORDER_ROLE",
      "outputs": [
        {
          "name": "",
          "type": "bytes32"
        }
      ],
      "payable": false,
      "stateMutability": "view",
      "type": "function"
    },
    {
      "constant": true,
      "inputs": [],
      "name": "UPDATE_COLLATERAL_TOKEN_ROLE",
      "outputs": [
        {
          "name": "",
          "type": "bytes32"
        }
      ],
      "payable": false,
      "stateMutability": "view",
      "type": "function"
    },
    {
      "constant": true,
      "inputs": [],
      "name": "getRecoveryVault",
      "outputs": [
        {
          "name": "",
          "type": "address"
        }
      ],
      "payable": false,
      "stateMutability": "view",
      "type": "function"
    },
    {
      "constant": false,
      "inputs": [
        {
          "name": "_token",
          "type": "address"
        },
        {
          "name": "_rate",
          "type": "uint256"
        },
        {
          "name": "_floor",
          "type": "uint256"
        }
      ],
      "name": "addTokenTap",
      "outputs": [],
      "payable": false,
      "stateMutability": "nonpayable",
      "type": "function"
    },
    {
      "constant": false,
      "inputs": [
        {
          "name": "_contributor",
          "type": "address"
        },
        {
          "name": "_vestedPurchaseId",
          "type": "uint256"
        }
      ],
      "name": "refund",
      "outputs": [],
      "payable": false,
      "stateMutability": "nonpayable",
      "type": "function"
    },
    {
      "constant": true,
      "inputs": [],
      "name": "UPDATE_BENEFICIARY_ROLE",
      "outputs": [
        {
          "name": "",
          "type": "bytes32"
        }
      ],
      "payable": false,
      "stateMutability": "view",
      "type": "function"
    },
    {
      "constant": true,
      "inputs": [
        {
          "name": "_collateral",
          "type": "address"
        }
      ],
      "name": "collateralsToBeClaimed",
      "outputs": [
        {
          "name": "",
          "type": "uint256"
        }
      ],
      "payable": false,
      "stateMutability": "view",
      "type": "function"
    },
    {
      "constant": true,
      "inputs": [],
      "name": "contributionToken",
      "outputs": [
        {
          "name": "",
          "type": "address"
        }
      ],
      "payable": false,
      "stateMutability": "view",
      "type": "function"
    },
    {
      "constant": false,
      "inputs": [
        {
          "name": "_token",
          "type": "address"
        }
      ],
      "name": "withdraw",
      "outputs": [],
      "payable": false,
      "stateMutability": "nonpayable",
      "type": "function"
    },
    {
      "constant": false,
      "inputs": [
        {
          "name": "_seller",
          "type": "address"
        },
        {
          "name": "_batchId",
          "type": "uint256"
        },
        {
          "name": "_collateral",
          "type": "address"
        }
      ],
      "name": "claimSellOrder",
      "outputs": [],
      "payable": false,
      "stateMutability": "nonpayable",
      "type": "function"
    },
    {
      "constant": true,
      "inputs": [],
      "name": "ADD_COLLATERAL_TOKEN_ROLE",
      "outputs": [
        {
          "name": "",
          "type": "bytes32"
        }
      ],
      "payable": false,
      "stateMutability": "view",
      "type": "function"
    },
    {
      "constant": true,
      "inputs": [],
      "name": "UPDATE_FEES_ROLE",
      "outputs": [
        {
          "name": "",
          "type": "bytes32"
        }
      ],
      "payable": false,
      "stateMutability": "view",
      "type": "function"
    },
    {
      "constant": false,
      "inputs": [
        {
          "name": "_collateral",
          "type": "address"
        },
        {
          "name": "_virtualSupply",
          "type": "uint256"
        },
        {
          "name": "_virtualBalance",
          "type": "uint256"
        },
        {
          "name": "_reserveRatio",
          "type": "uint32"
        },
        {
          "name": "_slippage",
          "type": "uint256"
        }
      ],
      "name": "reAddCollateralToken",
      "outputs": [],
      "payable": false,
      "stateMutability": "nonpayable",
      "type": "function"
    },
    {
      "constant": false,
      "inputs": [],
      "name": "closePresale",
      "outputs": [],
      "payable": false,
      "stateMutability": "nonpayable",
      "type": "function"
    },
    {
      "constant": false,
      "inputs": [
        {
          "name": "_buyFeePct",
          "type": "uint256"
        },
        {
          "name": "_sellFeePct",
          "type": "uint256"
        }
      ],
      "name": "updateFees",
      "outputs": [],
      "payable": false,
      "stateMutability": "nonpayable",
      "type": "function"
    },
    {
      "constant": false,
      "inputs": [
        {
          "name": "_buyer",
          "type": "address"
        },
        {
          "name": "_batchId",
          "type": "uint256"
        },
        {
          "name": "_collateral",
          "type": "address"
        }
      ],
      "name": "claimBuyOrder",
      "outputs": [],
      "payable": false,
      "stateMutability": "nonpayable",
      "type": "function"
    },
    {
      "constant": false,
      "inputs": [
        {
          "name": "_collateral",
          "type": "address"
        },
        {
          "name": "_amount",
          "type": "uint256"
        }
      ],
      "name": "openSellOrder",
      "outputs": [],
      "payable": false,
      "stateMutability": "nonpayable",
      "type": "function"
    },
    {
      "constant": true,
      "inputs": [
        {
          "name": "token",
          "type": "address"
        }
      ],
      "name": "allowRecoverability",
      "outputs": [
        {
          "name": "",
          "type": "bool"
        }
      ],
      "payable": false,
      "stateMutability": "view",
      "type": "function"
    },
    {
      "constant": true,
      "inputs": [],
      "name": "appId",
      "outputs": [
        {
          "name": "",
          "type": "bytes32"
        }
      ],
      "payable": false,
      "stateMutability": "view",
      "type": "function"
    },
    {
      "constant": false,
      "inputs": [
        {
          "name": "_token",
          "type": "address"
        }
      ],
      "name": "updateTappedAmount",
      "outputs": [],
      "payable": false,
      "stateMutability": "nonpayable",
      "type": "function"
    },
    {
      "constant": false,
      "inputs": [
        {
          "name": "_collateral",
          "type": "address"
        },
        {
          "name": "_virtualSupply",
          "type": "uint256"
        },
        {
          "name": "_virtualBalance",
          "type": "uint256"
        },
        {
          "name": "_reserveRatio",
          "type": "uint32"
        },
        {
          "name": "_slippage",
          "type": "uint256"
        }
      ],
      "name": "updateCollateralToken",
      "outputs": [],
      "payable": false,
      "stateMutability": "nonpayable",
      "type": "function"
    },
    {
      "constant": true,
      "inputs": [],
      "name": "getInitializationBlock",
      "outputs": [
        {
          "name": "",
          "type": "uint256"
        }
      ],
      "payable": false,
      "stateMutability": "view",
      "type": "function"
    },
    {
      "constant": true,
      "inputs": [],
      "name": "ADD_TOKEN_TAP_ROLE",
      "outputs": [
        {
          "name": "",
          "type": "bytes32"
        }
      ],
      "payable": false,
      "stateMutability": "view",
      "type": "function"
    },
    {
      "constant": false,
      "inputs": [],
      "name": "openPresale",
      "outputs": [],
      "payable": false,
      "stateMutability": "nonpayable",
      "type": "function"
    },
    {
      "constant": false,
      "inputs": [
        {
          "name": "_collateral",
          "type": "address"
        }
      ],
      "name": "removeCollateralToken",
      "outputs": [],
      "payable": false,
      "stateMutability": "nonpayable",
      "type": "function"
    },
    {
      "constant": false,
      "inputs": [
        {
          "name": "_collateral",
          "type": "address"
        },
        {
          "name": "_virtualSupply",
          "type": "uint256"
        },
        {
          "name": "_virtualBalance",
          "type": "uint256"
        },
        {
          "name": "_reserveRatio",
          "type": "uint32"
        },
        {
          "name": "_slippage",
          "type": "uint256"
        },
        {
          "name": "_rate",
          "type": "uint256"
        },
        {
          "name": "_floor",
          "type": "uint256"
        }
      ],
      "name": "addCollateralToken",
      "outputs": [],
      "payable": false,
      "stateMutability": "nonpayable",
      "type": "function"
    },
    {
      "constant": false,
      "inputs": [
        {
          "name": "_token",
          "type": "address"
        }
      ],
      "name": "transferToVault",
      "outputs": [],
      "payable": false,
      "stateMutability": "nonpayable",
      "type": "function"
    },
    {
      "constant": true,
      "inputs": [
        {
          "name": "_sender",
          "type": "address"
        },
        {
          "name": "_role",
          "type": "bytes32"
        },
        {
          "name": "_params",
          "type": "uint256[]"
        }
      ],
      "name": "canPerform",
      "outputs": [
        {
          "name": "",
          "type": "bool"
        }
      ],
      "payable": false,
      "stateMutability": "view",
      "type": "function"
    },
    {
      "constant": true,
      "inputs": [],
      "name": "CONTRIBUTE_ROLE",
      "outputs": [
        {
          "name": "",
          "type": "bytes32"
        }
      ],
      "payable": false,
      "stateMutability": "view",
      "type": "function"
    },
    {
      "constant": true,
      "inputs": [],
      "name": "getEVMScriptRegistry",
      "outputs": [
        {
          "name": "",
          "type": "address"
        }
      ],
      "payable": false,
      "stateMutability": "view",
      "type": "function"
    },
    {
      "constant": true,
      "inputs": [],
      "name": "UPDATE_TOKEN_TAP_ROLE",
      "outputs": [
        {
          "name": "",
          "type": "bytes32"
        }
      ],
      "payable": false,
      "stateMutability": "view",
      "type": "function"
    },
    {
      "constant": false,
      "inputs": [
        {
          "name": "_kernel",
          "type": "address"
        },
        {
          "name": "_presale",
          "type": "address"
        },
        {
          "name": "_marketMaker",
          "type": "address"
        },
        {
          "name": "_reserve",
          "type": "address"
        },
        {
          "name": "_tap",
          "type": "address"
        },
        {
          "name": "_toReset",
          "type": "address[]"
        }
      ],
      "name": "initialize",
      "outputs": [],
      "payable": false,
      "stateMutability": "nonpayable",
      "type": "function"
    },
    {
      "constant": true,
      "inputs": [],
      "name": "REMOVE_COLLATERAL_TOKEN_ROLE",
      "outputs": [
        {
          "name": "",
          "type": "bytes32"
        }
      ],
      "payable": false,
      "stateMutability": "view",
      "type": "function"
    },
    {
      "constant": false,
      "inputs": [
        {
          "name": "_token",
          "type": "address"
        },
        {
          "name": "_rate",
          "type": "uint256"
        },
        {
          "name": "_floor",
          "type": "uint256"
        }
      ],
      "name": "updateTokenTap",
      "outputs": [],
      "payable": false,
      "stateMutability": "nonpayable",
      "type": "function"
    },
    {
      "constant": true,
      "inputs": [],
      "name": "UPDATE_MAXIMUM_TAP_RATE_INCREASE_PCT_ROLE",
      "outputs": [
        {
          "name": "",
          "type": "bytes32"
        }
      ],
      "payable": false,
      "stateMutability": "view",
      "type": "function"
    },
    {
      "constant": false,
      "inputs": [
        {
          "name": "_value",
          "type": "uint256"
        }
      ],
      "name": "contribute",
      "outputs": [],
      "payable": true,
      "stateMutability": "payable",
      "type": "function"
    },
    {
      "constant": false,
      "inputs": [],
      "name": "openTrading",
      "outputs": [],
      "payable": false,
      "stateMutability": "nonpayable",
      "type": "function"
    },
    {
      "constant": true,
      "inputs": [],
      "name": "UPDATE_MAXIMUM_TAP_FLOOR_DECREASE_PCT_ROLE",
      "outputs": [
        {
          "name": "",
          "type": "bytes32"
        }
      ],
      "payable": false,
      "stateMutability": "view",
      "type": "function"
    },
    {
      "constant": true,
      "inputs": [],
      "name": "reserve",
      "outputs": [
        {
          "name": "",
          "type": "address"
        }
      ],
      "payable": false,
      "stateMutability": "view",
      "type": "function"
    },
    {
      "constant": true,
      "inputs": [
        {
          "name": "",
          "type": "uint256"
        }
      ],
      "name": "toReset",
      "outputs": [
        {
          "name": "",
          "type": "address"
        }
      ],
      "payable": false,
      "stateMutability": "view",
      "type": "function"
    },
    {
      "constant": true,
      "inputs": [],
      "name": "OPEN_SELL_ORDER_ROLE",
      "outputs": [
        {
          "name": "",
          "type": "bytes32"
        }
      ],
      "payable": false,
      "stateMutability": "view",
      "type": "function"
    },
    {
      "constant": false,
      "inputs": [
        {
          "name": "_maximumTapFloorDecreasePct",
          "type": "uint256"
        }
      ],
      "name": "updateMaximumTapFloorDecreasePct",
      "outputs": [],
      "payable": false,
      "stateMutability": "nonpayable",
      "type": "function"
    },
    {
      "constant": false,
      "inputs": [
        {
          "name": "_collateral",
          "type": "address"
        },
        {
          "name": "_value",
          "type": "uint256"
        }
      ],
      "name": "openBuyOrder",
      "outputs": [],
      "payable": true,
      "stateMutability": "payable",
      "type": "function"
    },
    {
      "constant": true,
      "inputs": [],
      "name": "kernel",
      "outputs": [
        {
          "name": "",
          "type": "address"
        }
      ],
      "payable": false,
      "stateMutability": "view",
      "type": "function"
    },
    {
      "constant": true,
      "inputs": [],
      "name": "isPetrified",
      "outputs": [
        {
          "name": "",
          "type": "bool"
        }
      ],
      "payable": false,
      "stateMutability": "view",
      "type": "function"
    },
    {
      "constant": true,
      "inputs": [],
      "name": "WITHDRAW_ROLE",
      "outputs": [
        {
          "name": "",
          "type": "bytes32"
        }
      ],
      "payable": false,
      "stateMutability": "view",
      "type": "function"
    },
    {
      "constant": true,
      "inputs": [
        {
          "name": "_token",
          "type": "address"
        }
      ],
      "name": "getMaximumWithdrawal",
      "outputs": [
        {
          "name": "",
          "type": "uint256"
        }
      ],
      "payable": false,
      "stateMutability": "view",
      "type": "function"
    },
    {
      "constant": true,
      "inputs": [
        {
          "name": "_who",
          "type": "address"
        },
        {
          "name": "_token",
          "type": "address"
        }
      ],
      "name": "balanceOf",
      "outputs": [
        {
          "name": "",
          "type": "uint256"
        }
      ],
      "payable": false,
      "stateMutability": "view",
      "type": "function"
    },
    {
      "constant": true,
      "inputs": [],
      "name": "token",
      "outputs": [
        {
          "name": "",
          "type": "address"
        }
      ],
      "payable": false,
      "stateMutability": "view",
      "type": "function"
    },
    {
      "constant": true,
      "inputs": [],
      "name": "tap",
      "outputs": [
        {
          "name": "",
          "type": "address"
        }
      ],
      "payable": false,
      "stateMutability": "view",
      "type": "function"
    },
    {
      "constant": true,
      "inputs": [],
      "name": "presale",
      "outputs": [
        {
          "name": "",
          "type": "address"
        }
      ],
      "payable": false,
      "stateMutability": "view",
      "type": "function"
    },
    {
      "anonymous": false,
      "inputs": [
        {
          "indexed": true,
          "name": "executor",
          "type": "address"
        },
        {
          "indexed": false,
          "name": "script",
          "type": "bytes"
        },
        {
          "indexed": false,
          "name": "input",
          "type": "bytes"
        },
        {
          "indexed": false,
          "name": "returnData",
          "type": "bytes"
        }
      ],
      "name": "ScriptResult",
      "type": "event"
    },
    {
      "anonymous": false,
      "inputs": [
        {
          "indexed": true,
          "name": "vault",
          "type": "address"
        },
        {
          "indexed": true,
          "name": "token",
          "type": "address"
        },
        {
          "indexed": false,
          "name": "amount",
          "type": "uint256"
        }
      ],
      "name": "RecoverToVault",
      "type": "event"
    }
  ],
  "transactionHash": "0xf9a4f044d535f4151e6e2f6d555e3e32b020594022d559be2487ef2fe4b00af3",
  "args": [],
  "solcInputHash": "7ceb8d61941111021d25844114882b1a",
  "bytecode": "0x60806040526200001764010000000062000047810204565b6200004160008051602062003e72833981519152600064010000000062003b6d6200014f82021704565b62000265565b6200005a64010000000062000153810204565b60408051808201909152601881527f494e49545f414c52454144595f494e495449414c495a454400000000000000006020820152901562000136576040517f08c379a00000000000000000000000000000000000000000000000000000000081526004018080602001828103825283818151815260200191508051906020019080838360005b83811015620000fa578181015183820152602001620000e0565b50505050905090810190601f168015620001285780820380516001836020036101000a031916815260200191505b509250505060405180910390fd5b506200014d60001964010000000062000182810204565b565b9055565b60006200017d60008051602062003e728339815191526401000000006200375d6200026182021704565b905090565b6200019564010000000062000153810204565b60408051808201909152601881527f494e49545f414c52454144595f494e495449414c495a454400000000000000006020820152901562000234576040517f08c379a000000000000000000000000000000000000000000000000000000000815260040180806020018281038252838181518152602001915080519060200190808383600083811015620000fa578181015183820152602001620000e0565b506200025e60008051602062003e728339815191528264010000000062003b6d6200014f82021704565b50565b5490565b613bfd80620002756000396000f3006080604052600436106102a55763ffffffff60e060020a60003504166307e18bc881146102aa5780630803fac0146102c45780630aaffd2a146102ed5780630d3047911461030e5780630f97e2fe146103355780631c1966591461034a5780631f21f9af1461035f5780632914b9bd146103905780632cd4a270146103e95780633017dbed146103fe57806332f0a3b5146104135780633b3fadb614610428578063410085df1461044f57806341644f8c146104735780634afe6c47146104885780634bedf9a8146104a957806351cff8d9146104be5780635e6f6c77146104df578063608bac051461050a57806360e14b601461051f578063628b95b51461053457806363cea450146105675780636db794371461057c57806378ea6103146105975780637b0d772e146105c25780637e7db6e1146105e657806380afdea814610607578063846a0a891461061c5780638a9b1e2d1461063d5780638b3dd749146106705780638b488634146106855780638dd983121461069a57806394f9059f146106af57806397ff256a146106d05780639d4941d814610709578063a1658fad1461072a578063a2b96b6f14610791578063a479e508146107a6578063b0d88a40146107bb578063b5df06b4146107d0578063b6e9c82614610817578063b8fd61a81461082c578063c102b1b514610853578063c1cbbca714610868578063c9567bf914610873578063cc77491b14610888578063cd3293de1461089d578063cf6adb40146108b2578063cf9d82f2146108ca578063d21bd820146108df578063d441e2b7146108f7578063d4aae0c41461090e578063de4796ed14610923578063e02023a114610938578063e2a5aec51461094d578063f7888aec1461096e578063fc0c546a14610995578063fd221031146109aa578063fdea8e0b146109bf575b600080fd5b3480156102b657600080fd5b506102c26004356109d4565b005b3480156102d057600080fd5b506102d9610b49565b604080519115158252519081900360200190f35b3480156102f957600080fd5b506102c2600160a060020a0360043516610b72565b34801561031a57600080fd5b50610323610d0d565b60408051918252519081900360200190f35b34801561034157600080fd5b50610323610d12565b34801561035657600080fd5b50610323610d36565b34801561036b57600080fd5b50610374610d5a565b60408051600160a060020a039092168252519081900360200190f35b34801561039c57600080fd5b506040805160206004803580820135601f8101849004840285018401909552848452610374943694929360249392840191908190840183828082843750949750610d699650505050505050565b3480156103f557600080fd5b50610323610e4f565b34801561040a57600080fd5b50610323610e73565b34801561041f57600080fd5b50610374610e97565b34801561043457600080fd5b506102c2600160a060020a0360043516602435604435610f0f565b34801561045b57600080fd5b506102c2600160a060020a0360043516602435611057565b34801561047f57600080fd5b5061032361113f565b34801561049457600080fd5b50610323600160a060020a0360043516611163565b3480156104b557600080fd5b5061037461124a565b3480156104ca57600080fd5b506102c2600160a060020a036004351661131b565b3480156104eb57600080fd5b506102c2600160a060020a036004358116906024359060443516611437565b34801561051657600080fd5b50610323611547565b34801561052b57600080fd5b5061032361156b565b34801561054057600080fd5b506102c2600160a060020a036004351660243560443563ffffffff6064351660843561158f565b34801561057357600080fd5b506102c26116ec565b34801561058857600080fd5b506102c26004356024356117dd565b3480156105a357600080fd5b506102c2600160a060020a0360043581169060243590604435166118ff565b3480156105ce57600080fd5b506102c2600160a060020a03600435166024356119f2565b3480156105f257600080fd5b506102d9600160a060020a0360043516611b1b565b34801561061357600080fd5b50610323611b21565b34801561062857600080fd5b506102c2600160a060020a0360043516611b51565b34801561064957600080fd5b506102c2600160a060020a036004351660243560443563ffffffff60643516608435611bd3565b34801561067c57600080fd5b50610323611d10565b34801561069157600080fd5b50610323611d3b565b3480156106a657600080fd5b506102c2611d5f565b3480156106bb57600080fd5b506102c2600160a060020a0360043516611e6e565b3480156106dc57600080fd5b506102c2600160a060020a036004351660243560443563ffffffff6064351660843560a43560c435611f8a565b34801561071557600080fd5b506102c2600160a060020a036004351661220e565b34801561073657600080fd5b5060408051602060046044358181013583810280860185019096528085526102d9958335600160a060020a031695602480359636969560649593949201929182918501908490808284375094975061249d9650505050505050565b34801561079d57600080fd5b506103236125ed565b3480156107b257600080fd5b50610374612611565b3480156107c757600080fd5b506103236126c6565b3480156107dc57600080fd5b506102c2600160a060020a0360048035821691602480358216926044358316926064358116926084359091169160a4359182019101356126ea565b34801561082357600080fd5b50610323612bef565b34801561083857600080fd5b506102c2600160a060020a0360043516602435604435612c13565b34801561085f57600080fd5b50610323612d3d565b6102c2600435612d61565b34801561087f57600080fd5b506102c2612e81565b34801561089457600080fd5b506103236130d0565b3480156108a957600080fd5b506103746130f4565b3480156108be57600080fd5b50610374600435613103565b3480156108d657600080fd5b5061032361312b565b3480156108eb57600080fd5b506102c260043561314f565b6102c2600160a060020a036004351660243561326a565b34801561091a57600080fd5b50610374613396565b34801561092f57600080fd5b506102d96133c1565b34801561094457600080fd5b506103236133d4565b34801561095957600080fd5b50610323600160a060020a03600435166133f8565b34801561097a57600080fd5b50610323600160a060020a03600435811690602435166134df565b3480156109a157600080fd5b50610374613669565b3480156109b657600080fd5b5061037461373b565b3480156109cb57600080fd5b5061037461374a565b604080516000808252602082019092527f5d94de7e429250eee4ff97e30ab9f383bea3cd564d6780e0a9e965b1add1d20791610a169133918491905b5061249d565b60408051808201909152600f8152600080516020613b728339815191526020820152901515610ac65760405160e560020a62461bcd0281526004018080602001828103825283818151815260200191508051906020019080838360005b83811015610a8b578181015183820152602001610a73565b50505050905090810190601f168015610ab85780820380516001836020036101000a031916815260200191505b509250505060405180910390fd5b50600354604080517f07e18bc8000000000000000000000000000000000000000000000000000000008152600481018590529051600160a060020a03909216916307e18bc89160248082019260009290919082900301818387803b158015610b2d57600080fd5b505af1158015610b41573d6000803e3d6000fd5b505050505050565b600080610b54611d10565b90508015801590610b6c575080610b69613759565b10155b91505090565b604080516000808252602082019092527ff7ea2b80c7b6a2cab2c11d2290cb005c3748397358a25e17113658c83b73259391610bb2913391849190610a10565b60408051808201909152600f8152600080516020613b728339815191526020820152901515610c265760405160e560020a62461bcd02815260040180806020018281038252838181518152602001915080519060200190808383600083811015610a8b578181015183820152602001610a73565b50600154604080517f0aaffd2a000000000000000000000000000000000000000000000000000000008152600160a060020a03858116600483015291519190921691630aaffd2a91602480830192600092919082900301818387803b158015610c8e57600080fd5b505af1158015610ca2573d6000803e3d6000fd5b5050600354604080517f0aaffd2a000000000000000000000000000000000000000000000000000000008152600160a060020a0387811660048301529151919092169350630aaffd2a9250602480830192600092919082900301818387803b158015610b2d57600080fd5b600a81565b7f26ce034204208c0bbca4c8a793d17b99e546009b1dd31d3c1ef761f66372caf681565b7ff323aa41eef4850a8ae7ebd047d4c89f01ce49c781f3308be67303db9cdd48c281565b600154600160a060020a031681565b6000610d73612611565b600160a060020a03166304bf2a7f836040518263ffffffff1660e060020a0281526004018080602001828103825283818151815260200191508051906020019080838360005b83811015610dd1578181015183820152602001610db9565b50505050905090810190601f168015610dfe5780820380516001836020036101000a031916815260200191505b5092505050602060405180830381600087803b158015610e1d57600080fd5b505af1158015610e31573d6000803e3d6000fd5b505050506040513d6020811015610e4757600080fd5b505192915050565b7fa589c8f284b76fc8d510d9d553485c47dbef1b0745ae00e0f3fd4e28fcd77ea781565b7fe0565c2c43e0d841e206bb36a37f12f22584b4652ccee6f9e0c071b697a2e13d81565b6000610ea1613396565b600160a060020a03166332f0a3b56040518163ffffffff1660e060020a028152600401602060405180830381600087803b158015610ede57600080fd5b505af1158015610ef2573d6000803e3d6000fd5b505050506040513d6020811015610f0857600080fd5b5051905090565b604080516000808252602082019092527fbc9cb5e3f7ce81c4fd021d86a4bcb193dee9df315b540808c3ed59a81e59620791610f4f913391849190610a10565b60408051808201909152600f8152600080516020613b728339815191526020820152901515610fc35760405160e560020a62461bcd02815260040180806020018281038252838181518152602001915080519060200190808383600083811015610a8b578181015183820152602001610a73565b50600354604080517fb897b628000000000000000000000000000000000000000000000000000000008152600160a060020a03878116600483015260248201879052604482018690529151919092169163b897b62891606480830192600092919082900301818387803b15801561103957600080fd5b505af115801561104d573d6000803e3d6000fd5b5050505050505050565b61105f610b49565b6040805180820190915260148152600080516020613bb283398151915260208201529015156110d35760405160e560020a62461bcd02815260040180806020018281038252838181518152602001915080519060200190808383600083811015610a8b578181015183820152602001610a73565b5060008054604080517f410085df000000000000000000000000000000000000000000000000000000008152600160a060020a038681166004830152602482018690529151919092169263410085df926044808201939182900301818387803b158015610b2d57600080fd5b7ff7ea2b80c7b6a2cab2c11d2290cb005c3748397358a25e17113658c83b73259381565b600061116d610b49565b6040805180820190915260148152600080516020613bb283398151915260208201529015156111e15760405160e560020a62461bcd02815260040180806020018281038252838181518152602001915080519060200190808383600083811015610a8b578181015183820152602001610a73565b50600154604080517f4afe6c47000000000000000000000000000000000000000000000000000000008152600160a060020a03858116600483015291519190921691634afe6c479160248083019260209291908290030181600087803b158015610e1d57600080fd5b6000611254610b49565b6040805180820190915260148152600080516020613bb283398151915260208201529015156112c85760405160e560020a62461bcd02815260040180806020018281038252838181518152602001915080519060200190808383600083811015610a8b578181015183820152602001610a73565b506000809054906101000a9004600160a060020a0316600160a060020a0316634bedf9a86040518163ffffffff1660e060020a028152600401602060405180830381600087803b158015610ede57600080fd5b604080516000808252602082019092527f5d8e12c39142ff96d79d04d15d1ba1269e4fe57bb9d26f43523628b34ba108ec9161135b913391849190610a10565b60408051808201909152600f8152600080516020613b7283398151915260208201529015156113cf5760405160e560020a62461bcd02815260040180806020018281038252838181518152602001915080519060200190808383600083811015610a8b578181015183820152602001610a73565b50600354604080517f51cff8d9000000000000000000000000000000000000000000000000000000008152600160a060020a038581166004830152915191909216916351cff8d991602480830192600092919082900301818387803b158015610b2d57600080fd5b61143f610b49565b6040805180820190915260148152600080516020613bb283398151915260208201529015156114b35760405160e560020a62461bcd02815260040180806020018281038252838181518152602001915080519060200190808383600083811015610a8b578181015183820152602001610a73565b50600154604080517f5e6f6c77000000000000000000000000000000000000000000000000000000008152600160a060020a03868116600483015260248201869052848116604483015291519190921691635e6f6c7791606480830192600092919082900301818387803b15801561152a57600080fd5b505af115801561153e573d6000803e3d6000fd5b50505050505050565b7f217b79cb2bc7760defc88529853ef81ab33ae5bb315408ce9f5af09c8776662d81565b7f5f9be2932ed3a723f295a763be1804c7ebfd1a41c1348fb8bdf5be1c5cdca82281565b604080516000808252602082019092527f217b79cb2bc7760defc88529853ef81ab33ae5bb315408ce9f5af09c8776662d916115cf913391849190610a10565b60408051808201909152600f8152600080516020613b7283398151915260208201529015156116435760405160e560020a62461bcd02815260040180806020018281038252838181518152602001915080519060200190808383600083811015610a8b578181015183820152602001610a73565b50600154604080517ffd531e03000000000000000000000000000000000000000000000000000000008152600160a060020a038981166004830152602482018990526044820188905263ffffffff87166064830152608482018690529151919092169163fd531e039160a480830192600092919082900301818387803b1580156116cc57600080fd5b505af11580156116e0573d6000803e3d6000fd5b50505050505050505050565b6116f4610b49565b6040805180820190915260148152600080516020613bb283398151915260208201529015156117685760405160e560020a62461bcd02815260040180806020018281038252838181518152602001915080519060200190808383600083811015610a8b578181015183820152602001610a73565b5060008054604080517f43d726d60000000000000000000000000000000000000000000000000000000081529051600160a060020a03909216926343d726d69260048084019382900301818387803b1580156117c357600080fd5b505af11580156117d7573d6000803e3d6000fd5b50505050565b604080516000808252602082019092527f5f9be2932ed3a723f295a763be1804c7ebfd1a41c1348fb8bdf5be1c5cdca8229161181d913391849190610a10565b60408051808201909152600f8152600080516020613b7283398151915260208201529015156118915760405160e560020a62461bcd02815260040180806020018281038252838181518152602001915080519060200190808383600083811015610a8b578181015183820152602001610a73565b50600154604080517f6db7943700000000000000000000000000000000000000000000000000000000815260048101869052602481018590529051600160a060020a0390921691636db794379160448082019260009290919082900301818387803b15801561152a57600080fd5b611907610b49565b6040805180820190915260148152600080516020613bb2833981519152602082015290151561197b5760405160e560020a62461bcd02815260040180806020018281038252838181518152602001915080519060200190808383600083811015610a8b578181015183820152602001610a73565b50600154604080517f78ea6103000000000000000000000000000000000000000000000000000000008152600160a060020a038681166004830152602482018690528481166044830152915191909216916378ea610391606480830192600092919082900301818387803b15801561152a57600080fd5b604080516000808252602082019092527fd68ba2b769fa37a2a7bd4bed9241b448bc99eca41f519ef037406386a8f291c091611a32913391849190610a10565b60408051808201909152600f8152600080516020613b728339815191526020820152901515611aa65760405160e560020a62461bcd02815260040180806020018281038252838181518152602001915080519060200190808383600083811015610a8b578181015183820152602001610a73565b50600154604080517f0f1ff5ea000000000000000000000000000000000000000000000000000000008152336004820152600160a060020a0386811660248301526044820186905291519190921691630f1ff5ea91606480830192600092919082900301818387803b15801561152a57600080fd5b50600190565b6000611b4c7fd625496217aa6a3453eecb9c3489dc5a53e6c67b444329ea2b2cbc9ff547639b61375d565b905090565b600354604080517f846a0a89000000000000000000000000000000000000000000000000000000008152600160a060020a0384811660048301529151919092169163846a0a8991602480830192600092919082900301818387803b158015611bb857600080fd5b505af1158015611bcc573d6000803e3d6000fd5b5050505050565b604080516000808252602082019092527fe0565c2c43e0d841e206bb36a37f12f22584b4652ccee6f9e0c071b697a2e13d91611c13913391849190610a10565b60408051808201909152600f8152600080516020613b728339815191526020820152901515611c875760405160e560020a62461bcd02815260040180806020018281038252838181518152602001915080519060200190808383600083811015610a8b578181015183820152602001610a73565b50600154604080517f8a9b1e2d000000000000000000000000000000000000000000000000000000008152600160a060020a038981166004830152602482018990526044820188905263ffffffff871660648301526084820186905291519190921691638a9b1e2d9160a480830192600092919082900301818387803b1580156116cc57600080fd5b6000611b4c7febb05b386a8d34882b8711d156f463690983dc47815980fb82aeeff1aa43579e61375d565b7fbc9cb5e3f7ce81c4fd021d86a4bcb193dee9df315b540808c3ed59a81e59620781565b604080516000808252602082019092527ff323aa41eef4850a8ae7ebd047d4c89f01ce49c781f3308be67303db9cdd48c291611d9f913391849190610a10565b60408051808201909152600f8152600080516020613b728339815191526020820152901515611e135760405160e560020a62461bcd02815260040180806020018281038252838181518152602001915080519060200190808383600083811015610a8b578181015183820152602001610a73565b5060008054604080517ffcfff16f0000000000000000000000000000000000000000000000000000000081529051600160a060020a039092169263fcfff16f9260048084019382900301818387803b158015611bb857600080fd5b604080516000808252602082019092527f2044e56de223845e4be7d0a6f4e9a29b635547f16413a6d1327c58d9db438ee291611eae913391849190610a10565b60408051808201909152600f8152600080516020613b728339815191526020820152901515611f225760405160e560020a62461bcd02815260040180806020018281038252838181518152602001915080519060200190808383600083811015610a8b578181015183820152602001610a73565b50600154604080517f94f9059f000000000000000000000000000000000000000000000000000000008152600160a060020a038581166004830152915191909216916394f9059f91602480830192600092919082900301818387803b158015610b2d57600080fd5b604080516000808252602082019092527f217b79cb2bc7760defc88529853ef81ab33ae5bb315408ce9f5af09c8776662d91611fca913391849190610a10565b60408051808201909152600f8152600080516020613b72833981519152602082015290151561203e5760405160e560020a62461bcd02815260040180806020018281038252838181518152602001915080519060200190808383600083811015610a8b578181015183820152602001610a73565b50600154604080517ffd531e03000000000000000000000000000000000000000000000000000000008152600160a060020a038b81166004830152602482018b9052604482018a905263ffffffff89166064830152608482018890529151919092169163fd531e039160a480830192600092919082900301818387803b1580156120c757600080fd5b505af11580156120db573d6000803e3d6000fd5b50505050600160a060020a0388161561216e57600254604080517f6298e902000000000000000000000000000000000000000000000000000000008152600160a060020a038b8116600483015291519190921691636298e90291602480830192600092919082900301818387803b15801561215557600080fd5b505af1158015612169573d6000803e3d6000fd5b505050505b600083111561104d57600354604080517fb897b628000000000000000000000000000000000000000000000000000000008152600160a060020a038b8116600483015260248201879052604482018690529151919092169163b897b62891606480830192600092919082900301818387803b1580156121ec57600080fd5b505af1158015612200573d6000803e3d6000fd5b505050505050505050505050565b600080600061221c84611b1b565b60408051808201909152601281527f5245434f5645525f444953414c4c4f574544000000000000000000000000000060208201529015156122a25760405160e560020a62461bcd02815260040180806020018281038252838181518152602001915080519060200190808383600083811015610a8b578181015183820152602001610a73565b506122ab610e97565b92506122b683613765565b60408051808201909152601a81527f5245434f5645525f5641554c545f4e4f545f434f4e5452414354000000000000602082015290151561233c5760405160e560020a62461bcd02815260040180806020018281038252838181518152602001915080519060200190808383600083811015610a8b578181015183820152602001610a73565b50600160a060020a038416151561238d5760405130319250600160a060020a0384169083156108fc029084906000818181858888f19350505050158015612387573d6000803e3d6000fd5b5061244c565b50826123a8600160a060020a0382163063ffffffff61379216565b91506123c4600160a060020a038216848463ffffffff6138a716565b60408051808201909152601d81527f5245434f5645525f544f4b454e5f5452414e534645525f4641494c4544000000602082015290151561244a5760405160e560020a62461bcd02815260040180806020018281038252838181518152602001915080519060200190808383600083811015610a8b578181015183820152602001610a73565b505b83600160a060020a031683600160a060020a03167f596caf56044b55fb8c4ca640089bbc2b63cae3e978b851f5745cbb7c5b288e02846040518082815260200191505060405180910390a350505050565b6000806124a8610b49565b15156124b757600091506125e5565b6124bf613396565b9050600160a060020a03811615156124da57600091506125e5565b80600160a060020a031663fdef91068630876124f588613932565b60405160e060020a63ffffffff8716028152600160a060020a03808616600483019081529085166024830152604482018490526080606483019081528351608484015283519192909160a490910190602085019080838360005b8381101561256757818101518382015260200161254f565b50505050905090810190601f1680156125945780820380516001836020036101000a031916815260200191505b5095505050505050602060405180830381600087803b1580156125b657600080fd5b505af11580156125ca573d6000803e3d6000fd5b505050506040513d60208110156125e057600080fd5b505191505b509392505050565b7f9ccaca4edf2127f20c425fdd86af1ba178b9e5bee280cd70d88ac5f6874c4f0781565b60008061261c613396565b604080517fbe00bbd80000000000000000000000000000000000000000000000000000000081527fd6f028ca0e8edb4a8c9757ca4fdccab25fa1e0317da1188108f7d2dee14902fb60048201527fddbcfd564f642ab5627cf68b9b7d374fb4f8a36e941a75d89c87998cef03bd6160248201529051600160a060020a03929092169163be00bbd8916044808201926020929091908290030181600087803b158015610e1d57600080fd5b7fdb8c88bedbc61ea0f92e1ce46da0b7a915affbd46d1c76c4bbac9a209e4a841681565b60006126f4611d10565b60408051808201909152601881527f494e49545f414c52454144595f494e495449414c495a45440000000000000000602082015290156127795760405160e560020a62461bcd02815260040180806020018281038252838181518152602001915080519060200190808383600083811015610a8b578181015183820152602001610a73565b5061278388613765565b60408051808201909152601b8152600080516020613b9283398151915260208201529015156127f75760405160e560020a62461bcd02815260040180806020018281038252838181518152602001915080519060200190808383600083811015610a8b578181015183820152602001610a73565b5061280187613765565b60408051808201909152601b8152600080516020613b9283398151915260208201529015156128755760405160e560020a62461bcd02815260040180806020018281038252838181518152602001915080519060200190808383600083811015610a8b578181015183820152602001610a73565b5061287f86613765565b60408051808201909152601b8152600080516020613b9283398151915260208201529015156128f35760405160e560020a62461bcd02815260040180806020018281038252838181518152602001915080519060200190808383600083811015610a8b578181015183820152602001610a73565b506128fd85613765565b60408051808201909152601b8152600080516020613b9283398151915260208201529015156129715760405160e560020a62461bcd02815260040180806020018281038252838181518152602001915080519060200190808383600083811015610a8b578181015183820152602001610a73565b5061297b84613765565b60408051808201909152601b8152600080516020613b9283398151915260208201529015156129ef5760405160e560020a62461bcd02815260040180806020018281038252838181518152602001915080519060200190808383600083811015610a8b578181015183820152602001610a73565b5060408051808201909152601a81527f46554e4452414953494e475f494e56414c49445f544f4b454e530000000000006020820152600a8310612a775760405160e560020a62461bcd02815260040180806020018281038252838181518152602001915080519060200190808383600083811015610a8b578181015183820152602001610a73565b50612a8061393c565b5060008054600160a060020a0380891673ffffffffffffffffffffffffffffffffffffffff19928316178355600180548983169084161790556002805488831690841617905560038054918716919092161790555b81811015612be657612b01838383818110612aec57fe5b90506020020135600160a060020a0316613a04565b60408051808201909152601a81527f46554e4452414953494e475f494e56414c49445f544f4b454e530000000000006020820152901515612b875760405160e560020a62461bcd02815260040180806020018281038252838181518152602001915080519060200190808383600083811015610a8b578181015183820152602001610a73565b506004838383818110612b9657fe5b8354600181810186556000958652602095869020909101805473ffffffffffffffffffffffffffffffffffffffff1916600160a060020a0396909302949094013594909416179091555001612ad5565b61104d88613a27565b7f2044e56de223845e4be7d0a6f4e9a29b635547f16413a6d1327c58d9db438ee281565b604080516000808252602082019092527fdb8c88bedbc61ea0f92e1ce46da0b7a915affbd46d1c76c4bbac9a209e4a841691612c53913391849190610a10565b60408051808201909152600f8152600080516020613b728339815191526020820152901515612cc75760405160e560020a62461bcd02815260040180806020018281038252838181518152602001915080519060200190808383600083811015610a8b578181015183820152602001610a73565b50600354604080517ff30a00ce000000000000000000000000000000000000000000000000000000008152600160a060020a03878116600483015260248201879052604482018690529151919092169163f30a00ce91606480830192600092919082900301818387803b15801561103957600080fd5b7f5d94de7e429250eee4ff97e30ab9f383bea3cd564d6780e0a9e965b1add1d20781565b604080516000808252602082019092527f9ccaca4edf2127f20c425fdd86af1ba178b9e5bee280cd70d88ac5f6874c4f0791612da1913391849190610a10565b60408051808201909152600f8152600080516020613b728339815191526020820152901515612e155760405160e560020a62461bcd02815260040180806020018281038252838181518152602001915080519060200190808383600083811015610a8b578181015183820152602001610a73565b5060008054604080517f8418cd99000000000000000000000000000000000000000000000000000000008152336004820152602481018690529051600160a060020a0390921692638418cd99923492604480820193929182900301818588803b15801561152a57600080fd5b604080516000808252602082019092527f26ce034204208c0bbca4c8a793d17b99e546009b1dd31d3c1ef761f66372caf690612ec1903390839085610a10565b60408051808201909152600f8152600080516020613b728339815191526020820152901515612f355760405160e560020a62461bcd02815260040180806020018281038252838181518152602001915080519060200190808383600083811015610a8b578181015183820152602001610a73565b50600091505b60045482101561307d5760035460048054600092600160a060020a03169163a8734f0b9186908110612f6957fe5b60009182526020808320909101546040805160e060020a63ffffffff8716028152600160a060020a0390921660048301525160248083019491928390030190829087803b158015612fb957600080fd5b505af1158015612fcd573d6000803e3d6000fd5b505050506040513d6020811015612fe357600080fd5b5051146130725760035460048054600160a060020a0390921691639cbbba8891908590811061300e57fe5b60009182526020822001546040805160e060020a63ffffffff8616028152600160a060020a039092166004830152516024808301939282900301818387803b15801561305957600080fd5b505af115801561306d573d6000803e3d6000fd5b505050505b600190910190612f3b565b600160009054906101000a9004600160a060020a0316600160a060020a031663fcfff16f6040518163ffffffff1660e060020a028152600401600060405180830381600087803b158015610b2d57600080fd5b7f57c9c67896cf0a4ffe92cbea66c2f7c34380af06bf14215dabb078cf8a6d99e181565b600254600160a060020a031681565b600480548290811061311157fe5b600091825260209091200154600160a060020a0316905081565b7fd68ba2b769fa37a2a7bd4bed9241b448bc99eca41f519ef037406386a8f291c081565b604080516000808252602082019092527f57c9c67896cf0a4ffe92cbea66c2f7c34380af06bf14215dabb078cf8a6d99e19161318f913391849190610a10565b60408051808201909152600f8152600080516020613b7283398151915260208201529015156132035760405160e560020a62461bcd02815260040180806020018281038252838181518152602001915080519060200190808383600083811015610a8b578181015183820152602001610a73565b50600354604080517fd21bd820000000000000000000000000000000000000000000000000000000008152600481018590529051600160a060020a039092169163d21bd8209160248082019260009290919082900301818387803b158015610b2d57600080fd5b604080516000808252602082019092527fa589c8f284b76fc8d510d9d553485c47dbef1b0745ae00e0f3fd4e28fcd77ea7916132aa913391849190610a10565b60408051808201909152600f8152600080516020613b72833981519152602082015290151561331e5760405160e560020a62461bcd02815260040180806020018281038252838181518152602001915080519060200190808383600083811015610a8b578181015183820152602001610a73565b50600154604080517f3fae9bfb000000000000000000000000000000000000000000000000000000008152336004820152600160a060020a0386811660248301526044820186905291519190921691633fae9bfb91349160648082019260009290919082900301818588803b15801561103957600080fd5b6000611b4c7f4172f0f7d2289153072b0a6ca36959e0cbe2efc3afe50fc81636caa96338137b61375d565b60006000196133ce611d10565b14905090565b7f5d8e12c39142ff96d79d04d15d1ba1269e4fe57bb9d26f43523628b34ba108ec81565b6000613402610b49565b6040805180820190915260148152600080516020613bb283398151915260208201529015156134765760405160e560020a62461bcd02815260040180806020018281038252838181518152602001915080519060200190808383600083811015610a8b578181015183820152602001610a73565b50600354604080517fe2a5aec5000000000000000000000000000000000000000000000000000000008152600160a060020a0385811660048301529151919092169163e2a5aec59160248083019260209291908290030181600087803b158015610e1d57600080fd5b6000806134ea610b49565b6040805180820190915260148152600080516020613bb2833981519152602082015290151561355e5760405160e560020a62461bcd02815260040180806020018281038252838181518152602001915080519060200190808383600083811015610a8b578181015183820152602001610a73565b50600160a060020a0383161561358c57613587600160a060020a0384168563ffffffff61379216565b613598565b83600160a060020a0316315b600254909150600160a060020a038581169116141561365e57600354604080517fe2a5aec5000000000000000000000000000000000000000000000000000000008152600160a060020a038681166004830152915161365793929092169163e2a5aec5916024808201926020929091908290030181600087803b15801561361e57600080fd5b505af1158015613632573d6000803e3d6000fd5b505050506040513d602081101561364857600080fd5b5051829063ffffffff613a5a16565b9150613662565b8091505b5092915050565b6000613673610b49565b6040805180820190915260148152600080516020613bb283398151915260208201529015156136e75760405160e560020a62461bcd02815260040180806020018281038252838181518152602001915080519060200190808383600083811015610a8b578181015183820152602001610a73565b50600160009054906101000a9004600160a060020a0316600160a060020a031663e36a4ec76040518163ffffffff1660e060020a028152600401602060405180830381600087803b158015610ede57600080fd5b600354600160a060020a031681565b600054600160a060020a031681565b4390565b5490565b5490565b600080600160a060020a0383161515613781576000915061378c565b823b90506000811191505b50919050565b60408051600160a060020a0383166024808301919091528251808303909101815260449091019091526020810180517bffffffffffffffffffffffffffffffffffffffffffffffffffffffff167f70a082310000000000000000000000000000000000000000000000000000000017905260009081806138128684613aee565b60408051808201909152601c81527f534146455f4552435f32305f42414c414e43455f5245564552544544000000006020820152919350915082151561389d5760405160e560020a62461bcd02815260040180806020018281038252838181518152602001915080519060200190808383600083811015610a8b578181015183820152602001610a73565b5095945050505050565b60408051600160a060020a038416602482015260448082018490528251808303909101815260649091019091526020810180517bffffffffffffffffffffffffffffffffffffffffffffffffffffffff167fa9059cbb000000000000000000000000000000000000000000000000000000001790526000906139298582613b1f565b95945050505050565b8051602002815290565b613944611d10565b60408051808201909152601881527f494e49545f414c52454144595f494e495449414c495a45440000000000000000602082015290156139c95760405160e560020a62461bcd02815260040180806020018281038252838181518152602001915080519060200190808383600083811015610a8b578181015183820152602001610a73565b50613a026139d5613759565b7febb05b386a8d34882b8711d156f463690983dc47815980fb82aeeff1aa43579e9063ffffffff613b6d16565b565b6000613a0f82613765565b80613a215750600160a060020a038216155b92915050565b613a577f4172f0f7d2289153072b0a6ca36959e0cbe2efc3afe50fc81636caa96338137b8263ffffffff613b6d16565b50565b60408051808201909152601281527f4d4154485f5355425f554e444552464c4f5700000000000000000000000000006020820152600090819084841115613ae65760405160e560020a62461bcd02815260040180806020018281038252838181518152602001915080519060200190808383600083811015610a8b578181015183820152602001610a73565b505050900390565b6000806000806040516020818751602089018a5afa92506000831115613b1357805191505b50909590945092505050565b6000806040516020818551602087016000895af16000811115613b63573d8015613b505760208114613b5957613b61565b60019350613b61565b600183511493505b505b5090949350505050565b905556004150505f415554485f4641494c4544000000000000000000000000000000000046554e4452414953494e475f434f4e54524143545f49535f454f410000000000494e49545f4e4f545f494e495449414c495a4544000000000000000000000000a165627a7a72305820584dc2b4b9d73e159658d451bc86d7f0a768c1c17ef4bf2cb66bf77b77579e9f0029ebb05b386a8d34882b8711d156f463690983dc47815980fb82aeeff1aa43579e",
  "devdoc": {
    "methods": {
      "addCollateralToken(address,uint256,uint256,uint32,uint256,uint256,uint256)": {
        "params": {
          "_collateral": "The address of the collateral token to be whitelisted",
          "_floor": "The floor above which the reserve [pool] balance for that token is to be kept [in wei]",
          "_rate": "The rate at which that token is to be tapped [in wei / block]",
          "_reserveRatio": "The reserve ratio to be used for that collateral token [in PPM]",
          "_slippage": "The price slippage below which each market making batch is to be kept for that collateral token [in PCT_BASE]",
          "_virtualBalance": "The virtual balance to be used for that collateral token [in wei]",
          "_virtualSupply": "The virtual supply to be used for that collateral token [in wei]"
        }
      },
      "addTokenTap(address,uint256,uint256)": {
        "params": {
          "_floor": "The floor above which the reserve [pool] balance for that token is to be kept [in wei]",
          "_rate": "The rate at which that token is to be tapped [in wei / block]",
          "_token": "The address of the token to be tapped"
        }
      },
      "allowRecoverability(address)": {
        "details": "By default deriving from AragonApp makes it recoverable",
        "params": {
          "token": "Token address that would be recovered"
        },
        "return": "bool whether the app allows the recovery"
      },
      "canPerform(address,bytes32,uint256[])": {
        "details": "Check whether an action can be performed by a sender for a particular role on this app",
        "params": {
          "_params": "Permission params for the role",
          "_role": "Role on this app",
          "_sender": "Sender of the call"
        },
        "return": "Boolean indicating whether the sender has the permissions to perform the action.        Always returns false if the app hasn't been initialized yet."
      },
      "claimBuyOrder(address,uint256,address)": {
        "params": {
          "_batchId": "The id of the batch in which buy orders are to be claimed",
          "_buyer": "The address of the user whose buy orders are to be claimed",
          "_collateral": "The address of the collateral token against which buy orders are to be claimed"
        }
      },
      "claimSellOrder(address,uint256,address)": {
        "params": {
          "_batchId": "The id of the batch in which sell orders are to be claimed",
          "_collateral": "The address of the collateral token against which sell orders are to be claimed",
          "_seller": "The address of the user whose sell orders are to be claimed"
        }
      },
      "contribute(uint256)": {
        "params": {
          "_value": "The amount of contribution token to be spent"
        }
      },
      "getInitializationBlock()": {
        "return": "Block number in which the contract was initialized"
      },
      "getRecoveryVault()": {
        "details": "Get the recovery vault for the app",
        "return": "Recovery vault address for the app"
      },
      "hasInitialized()": {
        "return": "Whether the contract has been initialized by the time of the current block"
      },
      "initialize(address,address,address,address,address,address[])": {
        "params": {
          "_marketMaker": "The address of the market maker contract",
          "_presale": "The address of the presale contract",
          "_reserve": "The address of the reserve [pool] contract",
          "_tap": "The address of the tap contract",
          "_toReset": "The addresses of the tokens whose tap timestamps are to be reset [when presale is closed and trading is open]"
        }
      },
      "openBuyOrder(address,uint256)": {
        "params": {
          "_collateral": "The address of the collateral token to be spent",
          "_value": "The amount of collateral token to be spent"
        }
      },
      "openSellOrder(address,uint256)": {
        "params": {
          "_amount": "The amount of bonded token to be spent",
          "_collateral": "The address of the collateral token to be returned"
        }
      },
      "reAddCollateralToken(address,uint256,uint256,uint32,uint256)": {
        "params": {
          "_collateral": "The address of the collateral token to be whitelisted",
          "_reserveRatio": "The reserve ratio to be used for that collateral token [in PPM]",
          "_slippage": "The price slippage below which each market making batch is to be kept for that collateral token [in PCT_BASE]",
          "_virtualBalance": "The virtual balance to be used for that collateral token [in wei]",
          "_virtualSupply": "The virtual supply to be used for that collateral token [in wei]"
        }
      },
      "refund(address,uint256)": {
        "params": {
          "_contributor": "The address of the contributor whose presale contribution is to be refunded",
          "_vestedPurchaseId": "The id of the contribution to be refunded"
        }
      },
      "removeCollateralToken(address)": {
        "params": {
          "_collateral": "The address of the collateral token to be un-whitelisted"
        }
      },
      "transferToVault(address)": {
        "params": {
          "_token": "Token balance to be sent to recovery vault."
        }
      },
      "updateBeneficiary(address)": {
        "params": {
          "_beneficiary": "The address of the new beneficiary"
        }
      },
      "updateCollateralToken(address,uint256,uint256,uint32,uint256)": {
        "params": {
          "_collateral": "The address of the collateral token whose collateralization settings are to be updated",
          "_reserveRatio": "The new reserve ratio to be used for that collateral token [in PPM]",
          "_slippage": "The new price slippage below which each market making batch is to be kept for that collateral token [in PCT_BASE]",
          "_virtualBalance": "The new virtual balance to be used for that collateral token [in wei]",
          "_virtualSupply": "The new virtual supply to be used for that collateral token [in wei]"
        }
      },
      "updateFees(uint256,uint256)": {
        "params": {
          "_buyFeePct": "The new fee to be deducted from buy orders [in PCT_BASE]",
          "_sellFeePct": "The new fee to be deducted from sell orders [in PCT_BASE]"
        }
      },
      "updateMaximumTapFloorDecreasePct(uint256)": {
        "params": {
          "_maximumTapFloorDecreasePct": "The new maximum tap floor decrease percentage to be allowed [in PCT_BASE]"
        }
      },
      "updateMaximumTapRateIncreasePct(uint256)": {
        "params": {
          "_maximumTapRateIncreasePct": "The new maximum tap rate increase percentage to be allowed [in PCT_BASE]"
        }
      },
      "updateTappedAmount(address)": {
        "params": {
          "_token": "The address of the token whose tapped amount is to be updated"
        }
      },
      "updateTokenTap(address,uint256,uint256)": {
        "params": {
          "_floor": "The new floor above which the reserve [pool] balance for that token is to be kept [in wei]",
          "_rate": "The new rate at which that token is to be tapped [in wei / block]",
          "_token": "The address of the token whose tap is to be updated"
        }
      },
      "withdraw(address)": {
        "params": {
          "_token": "The address of the token to be transfered from the reserve to the beneficiary"
        }
      }
    }
  },
  "userdoc": {
    "methods": {
      "addCollateralToken(address,uint256,uint256,uint32,uint256,uint256,uint256)": {
        "notice": "Add `_collateral.symbol(): string` as a whitelisted collateral token"
      },
      "addTokenTap(address,uint256,uint256)": {
        "notice": "Add tap for `_token.symbol(): string` with a rate of `@tokenAmount(_token, _rate)` per block and a floor of `@tokenAmount(_token, _floor)`"
      },
      "claimBuyOrder(address,uint256,address)": {
        "notice": "Claim the results of `_collateral.symbol(): string` buy orders from batch #`_batchId`"
      },
      "claimSellOrder(address,uint256,address)": {
        "notice": "Claim the results of `_collateral.symbol(): string` sell orders from batch #`_batchId`"
      },
      "closePresale()": {
        "notice": "Close presale and open trading"
      },
      "contribute(uint256)": {
        "notice": "Contribute to the presale up to `@tokenAmount(self.contributionToken(): address, _value)`"
      },
      "initialize(address,address,address,address,address,address[])": {
        "notice": "Initialize Aragon Fundraising controller"
      },
      "openBuyOrder(address,uint256)": {
        "notice": "Open a buy order worth `@tokenAmount(_collateral, _value)`"
      },
      "openPresale()": {
        "notice": "Open presale"
      },
      "openSellOrder(address,uint256)": {
        "notice": "Open a sell order worth `@tokenAmount(self.token(): address, _amount)` against `_collateral.symbol(): string`"
      },
      "openTrading()": {
        "notice": "Open trading [enabling users to open buy and sell orders]"
      },
      "reAddCollateralToken(address,uint256,uint256,uint32,uint256)": {
        "notice": "Re-add `_collateral.symbol(): string` as a whitelisted collateral token [if it has been un-whitelisted in the past]"
      },
      "refund(address,uint256)": {
        "notice": "Refund `_contributor`'s presale contribution #`_vestedPurchaseId`"
      },
      "removeCollateralToken(address)": {
        "notice": "Remove `_collateral.symbol(): string` as a whitelisted collateral token"
      },
      "token()": {
        "notice": "*** public view functions ****"
      },
      "transferToVault(address)": {
        "notice": "Send funds to recovery Vault. This contract should never receive funds,        but in case it does, this function allows one to recover them."
      },
      "updateBeneficiary(address)": {
        "notice": "Update beneficiary to `_beneficiary`"
      },
      "updateCollateralToken(address,uint256,uint256,uint32,uint256)": {
        "notice": "Update `_collateral.symbol(): string` collateralization settings"
      },
      "updateFees(uint256,uint256)": {
        "notice": "Update fees deducted from buy and sell orders to respectively `@formatPct(_buyFeePct)`% and `@formatPct(_sellFeePct)`%"
      },
      "updateMaximumTapFloorDecreasePct(uint256)": {
        "notice": "Update maximum tap floor decrease percentage to `@formatPct(_maximumTapFloorDecreasePct)`%"
      },
      "updateMaximumTapRateIncreasePct(uint256)": {
        "notice": "Update maximum tap rate increase percentage to `@formatPct(_maximumTapRateIncreasePct)`%"
      },
      "updateTappedAmount(address)": {
        "notice": "Update tapped amount for `_token.symbol(): string`"
      },
      "updateTokenTap(address,uint256,uint256)": {
        "notice": "Update tap for `_token.symbol(): string` with a rate of about `@tokenAmount(_token, 4 * 60 * 24 * 30 * _rate)` per month and a floor of `@tokenAmount(_token, _floor)`"
      },
      "withdraw(address)": {
        "notice": "Transfer about `@tokenAmount(_token, self.getMaximumWithdrawal(_token): uint256)` from the reserve to the beneficiary"
      }
    }
  }
}