{
  "address": "0x769b98d0D3a046F7B15c325cbb46a82b5d919F4E",
  "abi": [
    {
      "constant": true,
      "inputs": [],
      "name": "hasInitialized",
      "outputs": [
        {
          "name": "",
          "type": "bool"
        }
      ],
      "payable": false,
      "stateMutability": "view",
      "type": "function"
    },
    {
      "constant": true,
      "inputs": [],
      "name": "KERNEL_APP_ID",
      "outputs": [
        {
          "name": "",
          "type": "bytes32"
        }
      ],
      "payable": false,
      "stateMutability": "pure",
      "type": "function"
    },
    {
      "constant": true,
      "inputs": [],
      "name": "APP_ADDR_NAMESPACE",
      "outputs": [
        {
          "name": "",
          "type": "bytes32"
        }
      ],
      "payable": false,
      "stateMutability": "pure",
      "type": "function"
    },
    {
      "constant": true,
      "inputs": [],
      "name": "getRecoveryVault",
      "outputs": [
        {
          "name": "",
          "type": "address"
        }
      ],
      "payable": false,
      "stateMutability": "view",
      "type": "function"
    },
    {
      "constant": false,
      "inputs": [
        {
          "name": "_appId",
          "type": "bytes32"
        },
        {
          "name": "_appBase",
          "type": "address"
        },
        {
          "name": "_initializePayload",
          "type": "bytes"
        },
        {
          "name": "_setDefault",
          "type": "bool"
        }
      ],
      "name": "newAppInstance",
      "outputs": [
        {
          "name": "appProxy",
          "type": "address"
        }
      ],
      "payable": false,
      "stateMutability": "nonpayable",
      "type": "function"
    },
    {
      "constant": true,
      "inputs": [
        {
          "name": "",
          "type": "bytes32"
        },
        {
          "name": "",
          "type": "bytes32"
        }
      ],
      "name": "apps",
      "outputs": [
        {
          "name": "",
          "type": "address"
        }
      ],
      "payable": false,
      "stateMutability": "view",
      "type": "function"
    },
    {
      "constant": false,
      "inputs": [
        {
          "name": "_baseAcl",
          "type": "address"
        },
        {
          "name": "_permissionsCreator",
          "type": "address"
        }
      ],
      "name": "initialize",
      "outputs": [],
      "payable": false,
      "stateMutability": "nonpayable",
      "type": "function"
    },
    {
      "constant": true,
      "inputs": [],
      "name": "CORE_NAMESPACE",
      "outputs": [
        {
          "name": "",
          "type": "bytes32"
        }
      ],
      "payable": false,
      "stateMutability": "pure",
      "type": "function"
    },
    {
      "constant": true,
      "inputs": [
        {
          "name": "token",
          "type": "address"
        }
      ],
      "name": "allowRecoverability",
      "outputs": [
        {
          "name": "",
          "type": "bool"
        }
      ],
      "payable": false,
      "stateMutability": "view",
      "type": "function"
    },
    {
      "constant": false,
      "inputs": [
        {
          "name": "_appId",
          "type": "bytes32"
        },
        {
          "name": "_appBase",
          "type": "address"
        }
      ],
      "name": "newAppInstance",
      "outputs": [
        {
          "name": "appProxy",
          "type": "address"
        }
      ],
      "payable": false,
      "stateMutability": "nonpayable",
      "type": "function"
    },
    {
      "constant": true,
      "inputs": [],
      "name": "recoveryVaultAppId",
      "outputs": [
        {
          "name": "",
          "type": "bytes32"
        }
      ],
      "payable": false,
      "stateMutability": "view",
      "type": "function"
    },
    {
      "constant": true,
      "inputs": [],
      "name": "getInitializationBlock",
      "outputs": [
        {
          "name": "",
          "type": "uint256"
        }
      ],
      "payable": false,
      "stateMutability": "view",
      "type": "function"
    },
    {
      "constant": false,
      "inputs": [
        {
          "name": "_recoveryVaultAppId",
          "type": "bytes32"
        }
      ],
      "name": "setRecoveryVaultAppId",
      "outputs": [],
      "payable": false,
      "stateMutability": "nonpayable",
      "type": "function"
    },
    {
      "constant": true,
      "inputs": [],
      "name": "APP_MANAGER_ROLE",
      "outputs": [
        {
          "name": "",
          "type": "bytes32"
        }
      ],
      "payable": false,
      "stateMutability": "view",
      "type": "function"
    },
    {
      "constant": false,
      "inputs": [
        {
          "name": "_appId",
          "type": "bytes32"
        },
        {
          "name": "_appBase",
          "type": "address"
        }
      ],
      "name": "newPinnedAppInstance",
      "outputs": [
        {
          "name": "appProxy",
          "type": "address"
        }
      ],
      "payable": false,
      "stateMutability": "nonpayable",
      "type": "function"
    },
    {
      "constant": false,
      "inputs": [
        {
          "name": "_token",
          "type": "address"
        }
      ],
      "name": "transferToVault",
      "outputs": [],
      "payable": false,
      "stateMutability": "nonpayable",
      "type": "function"
    },
    {
      "constant": false,
      "inputs": [
        {
          "name": "_namespace",
          "type": "bytes32"
        },
        {
          "name": "_appId",
          "type": "bytes32"
        },
        {
          "name": "_app",
          "type": "address"
        }
      ],
      "name": "setApp",
      "outputs": [],
      "payable": false,
      "stateMutability": "nonpayable",
      "type": "function"
    },
    {
      "constant": true,
      "inputs": [
        {
          "name": "_namespace",
          "type": "bytes32"
        },
        {
          "name": "_appId",
          "type": "bytes32"
        }
      ],
      "name": "getApp",
      "outputs": [
        {
          "name": "",
          "type": "address"
        }
      ],
      "payable": false,
      "stateMutability": "view",
      "type": "function"
    },
    {
      "constant": false,
      "inputs": [
        {
          "name": "_appId",
          "type": "bytes32"
        },
        {
          "name": "_appBase",
          "type": "address"
        },
        {
          "name": "_initializePayload",
          "type": "bytes"
        },
        {
          "name": "_setDefault",
          "type": "bool"
        }
      ],
      "name": "newPinnedAppInstance",
      "outputs": [
        {
          "name": "appProxy",
          "type": "address"
        }
      ],
      "payable": false,
      "stateMutability": "nonpayable",
      "type": "function"
    },
    {
      "constant": false,
      "inputs": [
        {
          "name": "_kernel",
          "type": "address"
        },
        {
          "name": "_appId",
          "type": "bytes32"
        },
        {
          "name": "_initializePayload",
          "type": "bytes"
        }
      ],
      "name": "newAppProxyPinned",
      "outputs": [
        {
          "name": "",
          "type": "address"
        }
      ],
      "payable": false,
      "stateMutability": "nonpayable",
      "type": "function"
    },
    {
      "constant": true,
      "inputs": [],
      "name": "APP_BASES_NAMESPACE",
      "outputs": [
        {
          "name": "",
          "type": "bytes32"
        }
      ],
      "payable": false,
      "stateMutability": "pure",
      "type": "function"
    },
    {
      "constant": true,
      "inputs": [],
      "name": "acl",
      "outputs": [
        {
          "name": "",
          "type": "address"
        }
      ],
      "payable": false,
      "stateMutability": "view",
      "type": "function"
    },
    {
      "constant": true,
      "inputs": [],
      "name": "isPetrified",
      "outputs": [
        {
          "name": "",
          "type": "bool"
        }
      ],
      "payable": false,
      "stateMutability": "view",
      "type": "function"
    },
    {
      "constant": false,
      "inputs": [
        {
          "name": "_kernel",
          "type": "address"
        },
        {
          "name": "_appId",
          "type": "bytes32"
        }
      ],
      "name": "newAppProxy",
      "outputs": [
        {
          "name": "",
          "type": "address"
        }
      ],
      "payable": false,
      "stateMutability": "nonpayable",
      "type": "function"
    },
    {
      "constant": true,
      "inputs": [],
      "name": "DEFAULT_ACL_APP_ID",
      "outputs": [
        {
          "name": "",
          "type": "bytes32"
        }
      ],
      "payable": false,
      "stateMutability": "pure",
      "type": "function"
    },
    {
      "constant": false,
      "inputs": [
        {
          "name": "_kernel",
          "type": "address"
        },
        {
          "name": "_appId",
          "type": "bytes32"
        },
        {
          "name": "_initializePayload",
          "type": "bytes"
        }
      ],
      "name": "newAppProxy",
      "outputs": [
        {
          "name": "",
          "type": "address"
        }
      ],
      "payable": false,
      "stateMutability": "nonpayable",
      "type": "function"
    },
    {
      "constant": true,
      "inputs": [
        {
          "name": "_who",
          "type": "address"
        },
        {
          "name": "_where",
          "type": "address"
        },
        {
          "name": "_what",
          "type": "bytes32"
        },
        {
          "name": "_how",
          "type": "bytes"
        }
      ],
      "name": "hasPermission",
      "outputs": [
        {
          "name": "",
          "type": "bool"
        }
      ],
      "payable": false,
      "stateMutability": "view",
      "type": "function"
    },
    {
      "constant": false,
      "inputs": [
        {
          "name": "_kernel",
          "type": "address"
        },
        {
          "name": "_appId",
          "type": "bytes32"
        }
      ],
      "name": "newAppProxyPinned",
      "outputs": [
        {
          "name": "",
          "type": "address"
        }
      ],
      "payable": false,
      "stateMutability": "nonpayable",
      "type": "function"
    },
    {
      "inputs": [
        {
          "name": "_shouldPetrify",
          "type": "bool"
        }
      ],
      "payable": false,
      "stateMutability": "nonpayable",
      "type": "constructor"
    },
    {
      "anonymous": false,
      "inputs": [
        {
          "indexed": false,
          "name": "proxy",
          "type": "address"
        },
        {
          "indexed": false,
          "name": "isUpgradeable",
          "type": "bool"
        },
        {
          "indexed": false,
          "name": "appId",
          "type": "bytes32"
        }
      ],
      "name": "NewAppProxy",
      "type": "event"
    },
    {
      "anonymous": false,
      "inputs": [
        {
          "indexed": true,
          "name": "vault",
          "type": "address"
        },
        {
          "indexed": true,
          "name": "token",
          "type": "address"
        },
        {
          "indexed": false,
          "name": "amount",
          "type": "uint256"
        }
      ],
      "name": "RecoverToVault",
      "type": "event"
    },
    {
      "anonymous": false,
      "inputs": [
        {
          "indexed": true,
          "name": "namespace",
          "type": "bytes32"
        },
        {
          "indexed": true,
          "name": "appId",
          "type": "bytes32"
        },
        {
          "indexed": false,
          "name": "app",
          "type": "address"
        }
      ],
      "name": "SetApp",
      "type": "event"
    }
  ],
  "transactionHash": "0x0128acc4ca6174ec225099d0d309d590435187afd704707c12d1c29749db6ac0",
  "args": [
    false
  ],
  "solcInputHash": "7ceb8d61941111021d25844114882b1a",
  "bytecode": "0x60806040523480156200001157600080fd5b5060405160208062002cbf833981016040525180156200003e576200003e64010000000062000045810204565b5062000263565b620000586401000000006200014d810204565b60408051808201909152601881527f494e49545f414c52454144595f494e495449414c495a454400000000000000006020820152901562000134576040517f08c379a00000000000000000000000000000000000000000000000000000000081526004018080602001828103825283818151815260200191508051906020019080838360005b83811015620000f8578181015183820152602001620000de565b50505050905090810190601f168015620001265780820380516001836020036101000a031916815260200191505b509250505060405180910390fd5b506200014b6000196401000000006200017c810204565b565b60006200017760008051602062002c9f833981519152640100000000620018a56200025b82021704565b905090565b6200018f6401000000006200014d810204565b60408051808201909152601881527f494e49545f414c52454144595f494e495449414c495a45440000000000000000602082015290156200022e576040517f08c379a000000000000000000000000000000000000000000000000000000000815260040180806020018281038252838181518152602001915080519060200190808383600083811015620000f8578181015183820152602001620000de565b506200025860008051602062002c9f8339815191528264010000000062001ad36200025f82021704565b50565b5490565b9055565b612a2c80620002736000396000f300608060405260043610620001865763ffffffff7c01000000000000000000000000000000000000000000000000000000006000350416630803fac081146200018b5780631113ed0d14620001b7578063178e607914620001e157806332f0a3b514620001f9578063397edd41146200022d5780634558850c146200029d578063485cc95514620002bb578063756f604914620002e75780637e7db6e114620002ff57806380cd5ac3146200032357806386070cfe146200034a5780638b3dd74914620003625780638c61757d146200037a5780638ea8dc9d1462000395578063958fde8214620003ad5780639d4941d814620003d4578063ae5b254014620003f8578063be00bbd81462000422578063c050a7a61462000440578063d162f8b014620004b0578063db8a61d4146200051c578063de2873591462000534578063de4796ed146200054c578063e156a8f31462000564578063e8187ff0146200058b578063ede658b014620005a3578063fdef9106146200060f578063ff289fc51462000681575b600080fd5b3480156200019857600080fd5b50620001a3620006a8565b604080519115158252519081900360200190f35b348015620001c457600080fd5b50620001cf620006d6565b60408051918252519081900360200190f35b348015620001ee57600080fd5b50620001cf620006fa565b3480156200020657600080fd5b50620002116200070d565b60408051600160a060020a039092168252519081900360200190f35b3480156200023a57600080fd5b50604080516020600460443581810135601f8101849004840285018401909552848452620002119482359460248035600160a060020a0316953695946064949201919081908401838280828437509497505050509135151592506200074a915050565b348015620002aa57600080fd5b50620002116004356024356200089d565b348015620002c857600080fd5b50620002e5600160a060020a0360043581169060243516620008c0565b005b348015620002f457600080fd5b50620001cf62000a8c565b3480156200030c57600080fd5b50620001a3600160a060020a036004351662000ab0565b3480156200033057600080fd5b5062000211600435600160a060020a036024351662000ab6565b3480156200035757600080fd5b50620001cf62000b96565b3480156200036f57600080fd5b50620001cf62000b9c565b3480156200038757600080fd5b50620002e560043562000bce565b348015620003a257600080fd5b50620001cf62000c8b565b348015620003ba57600080fd5b5062000211600435600160a060020a036024351662000c9e565b348015620003e157600080fd5b50620002e5600160a060020a036004351662000d75565b3480156200040557600080fd5b50620002e5600435602435600160a060020a03604435166200101a565b3480156200042f57600080fd5b5062000211600435602435620010d5565b3480156200044d57600080fd5b50604080516020600460443581810135601f8101849004840285018401909552848452620002119482359460248035600160a060020a031695369594606494920191908190840183828082843750949750505050913515159250620010f9915050565b348015620004bd57600080fd5b50604080516020600460443581810135601f810184900484028501840190955284845262000211948235600160a060020a0316946024803595369594606494920191908190840183828082843750949750620011d59650505050505050565b3480156200052957600080fd5b50620001cf620012e0565b3480156200054157600080fd5b5062000211620012f3565b3480156200055957600080fd5b50620001a36200131f565b3480156200057157600080fd5b5062000211600160a060020a036004351660243562001334565b3480156200059857600080fd5b50620001cf6200135a565b348015620005b057600080fd5b50604080516020600460443581810135601f810184900484028501840190955284845262000211948235600160a060020a03169460248035953695946064949201919081908401838280828437509497506200136d9650505050505050565b3480156200061c57600080fd5b50604080516020601f606435600481810135928301849004840285018401909552818452620001a394600160a060020a038135811695602480359092169560443595369560849401918190840183828082843750949750620014789650505050505050565b3480156200068e57600080fd5b5062000211600160a060020a0360043516602435620015bb565b600080620006b562000b9c565b90508015801590620006d0575080620006cd620015da565b10155b91505090565b7f3b4bf6bf3ad5000ecf0f989d5befde585c6860fea3e574a4fab4c49d1c177d9c90565b600080516020620029e183398151915290565b60015460009081527f9e3eae70920eeef6013879bf9155b985893698c145361c31365929723678b2576020526040902054600160a060020a031690565b600060008051602062002961833981519152620007776000805160206200298183398151915287620015de565b6200078f3330846200078985620015ec565b62001478565b6040805180820190915260128152600080516020620029c18339815191526020820152901515620008445760405160e560020a62461bcd0281526004018080602001828103825283818151815260200191508051906020019080838360005b8381101562000808578181015183820152602001620007ee565b50505050905090810190601f168015620008365780820380516001836020036101000a031916815260200191505b509250505060405180910390fd5b5062000861600080516020620029818339815191528888620015f6565b6200086e3088876200136d565b92508315620008935762000893600080516020620029e183398151915288856200101a565b5050949350505050565b6000602081815292815260408082209093529081522054600160a060020a031681565b6000620008cc62000b9c565b60408051808201909152601881527f494e49545f414c52454144595f494e495449414c495a4544000000000000000060208201529015620009545760405160e560020a62461bcd0281526004018080602001828103825283818151815260200191508051906020019080838360008381101562000808578181015183820152602001620007ee565b506200095f620016c5565b6200098a60008051602062002981833981519152600080516020620029a18339815191528562001796565b620009a530600080516020620029a183398151915262001334565b905080600160a060020a031663c4d66de8836040518263ffffffff167c01000000000000000000000000000000000000000000000000000000000281526004018082600160a060020a0316600160a060020a03168152602001915050600060405180830381600087803b15801562000a1c57600080fd5b505af115801562000a31573d6000803e3d6000fd5b5062000a639250600080516020620029e18339815191529150600080516020620029a183398151915290508362001796565b50507f7e852e0fcfce6551c13800f1e7476f982525c2b5277ba14b24339c68416336d160015550565b7fc681a85306374a5ab27f0bbc385296a54bcd314a1948b6cf61c4ea1bc44bb9f890565b50600190565b60006000805160206200296183398151915262000ae36000805160206200298183398151915285620015de565b62000af53330846200078985620015ec565b6040805180820190915260128152600080516020620029c1833981519152602082015290151562000b6d5760405160e560020a62461bcd0281526004018080602001828103825283818151815260200191508051906020019080838360008381101562000808578181015183820152602001620007ee565b506040805160008082526020820190925262000b8d91879187916200074a565b95945050505050565b60015481565b600062000bc97febb05b386a8d34882b8711d156f463690983dc47815980fb82aeeff1aa43579e620018a5565b905090565b6000805160206200296183398151915262000bf9600080516020620029e183398151915283620015de565b62000c0b3330846200078985620015ec565b6040805180820190915260128152600080516020620029c1833981519152602082015290151562000c835760405160e560020a62461bcd0281526004018080602001828103825283818151815260200191508051906020019080838360008381101562000808578181015183820152602001620007ee565b505050600155565b6000805160206200296183398151915281565b60006000805160206200296183398151915262000ccb6000805160206200298183398151915285620015de565b62000cdd3330846200078985620015ec565b6040805180820190915260128152600080516020620029c1833981519152602082015290151562000d555760405160e560020a62461bcd0281526004018080602001828103825283818151815260200191508051906020019080838360008381101562000808578181015183820152602001620007ee565b506040805160008082526020820190925262000b8d9187918791620010f9565b600080600062000d858462000ab0565b60408051808201909152601281527f5245434f5645525f444953414c4c4f5745440000000000000000000000000000602082015290151562000e0e5760405160e560020a62461bcd0281526004018080602001828103825283818151815260200191508051906020019080838360008381101562000808578181015183820152602001620007ee565b5062000e196200070d565b925062000e2683620018a9565b60408051808201909152601a81527f5245434f5645525f5641554c545f4e4f545f434f4e5452414354000000000000602082015290151562000eaf5760405160e560020a62461bcd0281526004018080602001828103825283818151815260200191508051906020019080838360008381101562000808578181015183820152602001620007ee565b50600160a060020a038416151562000f035760405130319250600160a060020a0384169083156108fc029084906000818181858888f1935050505015801562000efc573d6000803e3d6000fd5b5062000fc9565b508262000f20600160a060020a0382163063ffffffff620018d816565b915062000f3e600160a060020a038216848463ffffffff620019f216565b60408051808201909152601d81527f5245434f5645525f544f4b454e5f5452414e534645525f4641494c4544000000602082015290151562000fc75760405160e560020a62461bcd0281526004018080602001828103825283818151815260200191508051906020019080838360008381101562000808578181015183820152602001620007ee565b505b83600160a060020a031683600160a060020a03167f596caf56044b55fb8c4ca640089bbc2b63cae3e978b851f5745cbb7c5b288e02846040518082815260200191505060405180910390a350505050565b60008051602062002961833981519152620010368484620015de565b620010483330846200078985620015ec565b6040805180820190915260128152600080516020620029c18339815191526020820152901515620010c05760405160e560020a62461bcd0281526004018080602001828103825283818151815260200191508051906020019080838360008381101562000808578181015183820152602001620007ee565b50620010ce85858562001796565b5050505050565b600091825260208281526040808420928452919052902054600160a060020a031690565b600060008051602062002961833981519152620011266000805160206200298183398151915287620015de565b620011383330846200078985620015ec565b6040805180820190915260128152600080516020620029c18339815191526020820152901515620011b05760405160e560020a62461bcd0281526004018080602001828103825283818151815260200191508051906020019080838360008381101562000808578181015183820152602001620007ee565b50620011cd600080516020620029818339815191528888620015f6565b6200086e3088875b600080848484620011e562001b5c565b600160a060020a038416815260208082018490526060604083018181528451918401919091528351909160808401919085019080838360005b83811015620012385781810151838201526020016200121e565b50505050905090810190601f168015620012665780820380516001836020036101000a031916815260200191505b50945050505050604051809103906000f0801580156200128a573d6000803e3d6000fd5b5060408051600160a060020a03831681526000602082015280820187905290519192507fd880e726dced8808d727f02dd0e6fdd3a945b24bfee77e13367bcbe61ddbaf47919081900360600190a1949350505050565b6000805160206200298183398151915290565b600062000bc9600080516020620029e1833981519152600080516020620029a1833981519152620010d5565b60006000196200132e62000b9c565b14905090565b604080516000808252602082019092526200135390849084906200136d565b9392505050565b600080516020620029a183398151915290565b6000808484846200137d62001b6d565b600160a060020a038416815260208082018490526060604083018181528451918401919091528351909160808401919085019080838360005b83811015620013d0578181015183820152602001620013b6565b50505050905090810190601f168015620013fe5780820380516001836020036101000a031916815260200191505b50945050505050604051809103906000f08015801562001422573d6000803e3d6000fd5b5060408051600160a060020a03831681526001602082015280820187905290519192507fd880e726dced8808d727f02dd0e6fdd3a945b24bfee77e13367bcbe61ddbaf47919081900360600190a1949350505050565b60008062001485620012f3565b9050600160a060020a03811615801590620015b157506040517ffdef9106000000000000000000000000000000000000000000000000000000008152600160a060020a03878116600483019081528782166024840152604483018790526080606484019081528651608485015286519285169363fdef9106938b938b938b938b9360a490910190602085019080838360005b838110156200153157818101518382015260200162001517565b50505050905090810190601f1680156200155f5780820380516001836020036101000a031916815260200191505b5095505050505050602060405180830381600087803b1580156200158257600080fd5b505af115801562001597573d6000803e3d6000fd5b505050506040513d6020811015620015ae57600080fd5b50515b9695505050505050565b60408051600080825260208201909252620013539084908490620011d5565b4390565b606062001353838362001a76565b8051602002815290565b6000620016048484620010d5565b9050600160a060020a03811615620016b25760408051808201909152601981527f4b45524e454c5f494e56414c49445f4150505f4348414e4745000000000000006020820152600160a060020a0382811690841614620016ab5760405160e560020a62461bcd0281526004018080602001828103825283818151815260200191508051906020019080838360008381101562000808578181015183820152602001620007ee565b50620016bf565b620016bf84848462001796565b50505050565b620016cf62000b9c565b60408051808201909152601881527f494e49545f414c52454144595f494e495449414c495a4544000000000000000060208201529015620017575760405160e560020a62461bcd0281526004018080602001828103825283818151815260200191508051906020019080838360008381101562000808578181015183820152602001620007ee565b506200179462001766620015da565b7febb05b386a8d34882b8711d156f463690983dc47815980fb82aeeff1aa43579e9063ffffffff62001ad316565b565b620017a181620018a9565b60408051808201909152601781527f4b45524e454c5f4150505f4e4f545f434f4e545241435400000000000000000060208201529015156200182a5760405160e560020a62461bcd0281526004018080602001828103825283818151815260200191508051906020019080838360008381101562000808578181015183820152602001620007ee565b50600083815260208181526040808320858452825291829020805473ffffffffffffffffffffffffffffffffffffffff1916600160a060020a03851690811790915582519081529151849286927f2ec1ae0a449b7ae354b9dacfb3ade6b6332ba26b7fcbb935835fa39dd7263b2392918290030190a3505050565b5490565b600080600160a060020a0383161515620018c75760009150620018d2565b823b90506000811191505b50919050565b60408051600160a060020a0383166024808301919091528251808303909101815260449091019091526020810180517bffffffffffffffffffffffffffffffffffffffffffffffffffffffff167f70a082310000000000000000000000000000000000000000000000000000000017905260009081806200195a868462001ad7565b60408051808201909152601c81527f534146455f4552435f32305f42414c414e43455f52455645525445440000000060208201529193509150821515620019e85760405160e560020a62461bcd0281526004018080602001828103825283818151815260200191508051906020019080838360008381101562000808578181015183820152602001620007ee565b5095945050505050565b60408051600160a060020a038416602482015260448082018490528251808303909101815260649091019091526020810180517bffffffffffffffffffffffffffffffffffffffffffffffffffffffff167fa9059cbb0000000000000000000000000000000000000000000000000000000017905260009062000b8d858262001b09565b60408051600280825260608083018452926020830190803883390190505090508281600081518110151562001aa757fe5b60209081029091010152805182908290600190811062001ac357fe5b6020908102909101015292915050565b9055565b6000806000806040516020818751602089018a5afa9250600083111562001afd57805191505b50909590945092505050565b6000806040516020818551602087016000895af1600081111562001b52573d801562001b3e576020811462001b485762001b50565b6001935062001b50565b600183511493505b505b5090949350505050565b6040516106f98062001b7f83390190565b6040516106e98062002278833901905600608060405234801561001057600080fd5b506040516106f93803806106f98339810160409081528151602083015191830151909201828282600061004b8464010000000061017a810204565b61005d836401000000006101a2810204565b61006f836401000000006101d9810204565b90506000825111156101185761008d816401000000006102a9810204565b151561009857600080fd5b80600160a060020a03168260405180828051906020019080838360005b838110156100cd5781810151838201526020016100b5565b50505050905090810190601f1680156100fa5780820380516001836020036101000a031916815260200191505b50915050600060405180830381855af4915050151561011857600080fd5b50505050610145610137836101d9640100000000026401000000009004565b6401000000006102d6810204565b6101676101596401000000006102fb810204565b6401000000006102a9810204565b151561017257600080fd5b505050610354565b61019f6000805160206106b98339815191528264010000000061032261032682021704565b50565b61019f7fd625496217aa6a3453eecb9c3489dc5a53e6c67b444329ea2b2cbc9ff547639b8264010000000061032261032682021704565b60006101ec64010000000061032a810204565b604080517fbe00bbd80000000000000000000000000000000000000000000000000000000081527ff1f3eb40f5bc1ad1344716ced8b8a0431d840b5783aea1fd01786bc26f35ac0f6004820152602481018590529051600160a060020a03929092169163be00bbd8916044808201926020929091908290030181600087803b15801561027757600080fd5b505af115801561028b573d6000803e3d6000fd5b505050506040513d60208110156102a157600080fd5b505192915050565b600080600160a060020a03831615156102c557600091506102d0565b823b90506000811191505b50919050565b61019f6000805160206106d98339815191528264010000000061032261032682021704565b60006103216000805160206106d98339815191526401000000006102b561035082021704565b905090565b9055565b60006103216000805160206106b98339815191526401000000006102b561035082021704565b5490565b610356806103636000396000f30060806040526004361061006c5763ffffffff7c01000000000000000000000000000000000000000000000000000000006000350416634555d5c9811461012b57806348a0c8dd146101525780635c60da1b1461017b57806380afdea8146101b9578063d4aae0c4146101ce575b60006127105a10156100e357600034118015610086575036155b151561009157600080fd5b6100996101e3565b15156100a457600080fd5b6040805133815234602082015281517f15eeaa57c7bd188c1388020bcadc2c436ec60d647d36ef5b9eb3c742217ddee1929181900390910190a1610128565b6100eb610213565b9050610128816000368080601f0160208091040260200160405190810160405280939291908181526020018383808284375061021d945050505050565b50005b34801561013757600080fd5b5061014061025e565b60408051918252519081900360200190f35b34801561015e57600080fd5b506101676101e3565b604080519115158252519081900360200190f35b34801561018757600080fd5b50610190610213565b6040805173ffffffffffffffffffffffffffffffffffffffff9092168252519081900360200190f35b3480156101c557600080fd5b50610140610263565b3480156101da57600080fd5b5061019061028e565b600061020e7f665fd576fbbe6f247aff98f5c94a561e3f71ec2d3c988d56f12d342396c50cea6102b5565b905090565b600061020e6102b9565b6000610228836102e4565b151561023357600080fd5b612710905060008083516020850186855a03f43d604051816000823e82801561025a578282f35b8282fd5b600190565b600061020e7fd625496217aa6a3453eecb9c3489dc5a53e6c67b444329ea2b2cbc9ff547639b6102b5565b600061020e7f4172f0f7d2289153072b0a6ca36959e0cbe2efc3afe50fc81636caa96338137b5b5490565b600061020e7fdee64df20d65e53d7f51cb6ab6d921a0a6a638a91e942e1d8d02df28e31c038e6102b5565b60008073ffffffffffffffffffffffffffffffffffffffff8316151561030d5760009150610318565b823b90506000811191505b50919050565b5490565b9055565b90555600a165627a7a7230582035d6dca93bca05ec5d4a25d8a58bd012d65eeca1751114daa5465099e819eeab00294172f0f7d2289153072b0a6ca36959e0cbe2efc3afe50fc81636caa96338137bdee64df20d65e53d7f51cb6ab6d921a0a6a638a91e942e1d8d02df28e31c038e608060405234801561001057600080fd5b506040516106e93803806106e98339810160409081528151602083015191830151909201828282600061004b84640100000000610124810204565b61005d8364010000000061014c810204565b61006f83640100000000610183810204565b90506000825111156101185761008d81640100000000610253810204565b151561009857600080fd5b80600160a060020a03168260405180828051906020019080838360005b838110156100cd5781810151838201526020016100b5565b50505050905090810190601f1680156100fa5780820380516001836020036101000a031916815260200191505b50915050600060405180830381855af4915050151561011857600080fd5b505050505050506102b3565b6101496000805160206106c9833981519152826401000000006103d361028082021704565b50565b6101497fd625496217aa6a3453eecb9c3489dc5a53e6c67b444329ea2b2cbc9ff547639b826401000000006103d361028082021704565b6000610196640100000000610284810204565b604080517fbe00bbd80000000000000000000000000000000000000000000000000000000081527ff1f3eb40f5bc1ad1344716ced8b8a0431d840b5783aea1fd01786bc26f35ac0f6004820152602481018590529051600160a060020a03929092169163be00bbd8916044808201926020929091908290030181600087803b15801561022157600080fd5b505af1158015610235573d6000803e3d6000fd5b505050506040513d602081101561024b57600080fd5b505192915050565b600080600160a060020a038316151561026f576000915061027a565b823b90506000811191505b50919050565b9055565b60006102aa6000805160206106c98339815191526401000000006102bd6102af82021704565b905090565b5490565b610407806102c26000396000f30060806040526004361061006c5763ffffffff7c01000000000000000000000000000000000000000000000000000000006000350416634555d5c9811461012b57806348a0c8dd146101525780635c60da1b1461017b57806380afdea8146101b9578063d4aae0c4146101ce575b60006127105a10156100e357600034118015610086575036155b151561009157600080fd5b6100996101e3565b15156100a457600080fd5b6040805133815234602082015281517f15eeaa57c7bd188c1388020bcadc2c436ec60d647d36ef5b9eb3c742217ddee1929181900390910190a1610128565b6100eb610213565b9050610128816000368080601f01602080910402602001604051908101604052809392919081815260200183838082843750610225945050505050565b50005b34801561013757600080fd5b50610140610266565b60408051918252519081900360200190f35b34801561015e57600080fd5b506101676101e3565b604080519115158252519081900360200190f35b34801561018757600080fd5b50610190610213565b6040805173ffffffffffffffffffffffffffffffffffffffff9092168252519081900360200190f35b3480156101c557600080fd5b5061014061026b565b3480156101da57600080fd5b50610190610296565b600061020e7f665fd576fbbe6f247aff98f5c94a561e3f71ec2d3c988d56f12d342396c50cea6102bd565b905090565b600061020e61022061026b565b6102c1565b600061023083610395565b151561023b57600080fd5b612710905060008083516020850186855a03f43d604051816000823e828015610262578282f35b8282fd5b600290565b600061020e7fd625496217aa6a3453eecb9c3489dc5a53e6c67b444329ea2b2cbc9ff547639b6102bd565b600061020e7f4172f0f7d2289153072b0a6ca36959e0cbe2efc3afe50fc81636caa96338137b5b5490565b60006102cb610296565b604080517fbe00bbd80000000000000000000000000000000000000000000000000000000081527ff1f3eb40f5bc1ad1344716ced8b8a0431d840b5783aea1fd01786bc26f35ac0f600482015260248101859052905173ffffffffffffffffffffffffffffffffffffffff929092169163be00bbd8916044808201926020929091908290030181600087803b15801561036357600080fd5b505af1158015610377573d6000803e3d6000fd5b505050506040513d602081101561038d57600080fd5b505192915050565b60008073ffffffffffffffffffffffffffffffffffffffff831615156103be57600091506103c9565b823b90506000811191505b50919050565b5490565b9055565b90555600a165627a7a7230582053e9baafcfd038273770a5d9db9f5cb5f293aaec316b123575f23ca37661fbdd00294172f0f7d2289153072b0a6ca36959e0cbe2efc3afe50fc81636caa96338137bb6d92708f3d4817afc106147d969e229ced5c46e65e0a5002a0d391287762bd0f1f3eb40f5bc1ad1344716ced8b8a0431d840b5783aea1fd01786bc26f35ac0fe3262375f45a6e2026b7e7b18c2b807434f2508fe1a2a3dfb493c7df8f4aad6a4b45524e454c5f415554485f4641494c45440000000000000000000000000000d6f028ca0e8edb4a8c9757ca4fdccab25fa1e0317da1188108f7d2dee14902fba165627a7a7230582055f6c20fcfe49725771ebd23c81caa9e0c58dd57240926cf77b701e525930e0e0029ebb05b386a8d34882b8711d156f463690983dc47815980fb82aeeff1aa43579e",
  "devdoc": {
    "methods": {
      "acl()": {
        "details": "Get the installed ACL app",
        "return": "ACL app"
      },
      "allowRecoverability(address)": {
        "details": "By default deriving from AragonApp makes it recoverable",
        "params": {
          "token": "Token address that would be recovered"
        },
        "return": "bool whether the app allows the recovery"
      },
      "getApp(bytes32,bytes32)": {
        "details": "Get the address of an app instance or base implementation",
        "params": {
          "_appId": "Identifier for app",
          "_namespace": "App namespace to use"
        },
        "return": "Address of the app"
      },
      "getInitializationBlock()": {
        "return": "Block number in which the contract was initialized"
      },
      "getRecoveryVault()": {
        "details": "Get the address of the recovery Vault instance (to recover funds)",
        "return": "Address of the Vault"
      },
      "hasInitialized()": {
        "return": "Whether the contract has been initialized by the time of the current block"
      },
      "hasPermission(address,address,bytes32,bytes)": {
        "details": "Function called by apps to check ACL on kernel or to check permission status",
        "params": {
          "_how": "Extra data for ACL auth",
          "_what": "Identifier for a group of actions in app",
          "_where": "Address of the app",
          "_who": "Sender of the original call"
        },
        "return": "Boolean indicating whether the ACL allows the role or not.        Always returns false if the kernel hasn't been initialized yet."
      },
      "initialize(address,address)": {
        "details": "Initialize can only be called once. It saves the block number in which it was initialized.",
        "params": {
          "_baseAcl": "Address of base ACL app",
          "_permissionsCreator": "Entity that will be given permission over createPermission"
        }
      },
      "newAppInstance(bytes32,address)": {
        "details": "Create a new instance of an app linked to this kernel",
        "params": {
          "_appBase": "Address of the app's base implementation",
          "_appId": "Identifier for app"
        },
        "return": "AppProxy instance"
      },
      "newAppInstance(bytes32,address,bytes,bool)": {
        "details": "Create a new instance of an app linked to this kernel and set its base     implementation if it was not already set",
        "params": {
          "_appBase": "Address of the app's base implementation",
          "_appId": "Identifier for app",
          "_initializePayload": "Payload for call made by the proxy during its construction to initialize",
          "_setDefault": "Whether the app proxy app is the default one.       Useful when the Kernel needs to know of an instance of a particular app,       like Vault for escape hatch mechanism."
        },
        "return": "AppProxy instance"
      },
      "newAppProxy(address,bytes32)": {
        "params": {
          "_appId": "Identifier for app",
          "_kernel": "App's Kernel reference"
        },
        "return": "AppProxyUpgradeable"
      },
      "newAppProxy(address,bytes32,bytes)": {
        "params": {
          "_appId": "Identifier for app",
          "_kernel": "App's Kernel reference"
        },
        "return": "AppProxyUpgradeable"
      },
      "newAppProxyPinned(address,bytes32)": {
        "params": {
          "_appId": "Identifier for app",
          "_kernel": "App's Kernel reference"
        },
        "return": "AppProxyPinned"
      },
      "newAppProxyPinned(address,bytes32,bytes)": {
        "params": {
          "_appId": "Identifier for app",
          "_initializePayload": "Proxy initialization payload",
          "_kernel": "App's Kernel reference"
        },
        "return": "AppProxyPinned"
      },
      "newPinnedAppInstance(bytes32,address)": {
        "details": "Create a new pinned instance of an app linked to this kernel",
        "params": {
          "_appBase": "Address of the app's base implementation",
          "_appId": "Identifier for app"
        },
        "return": "AppProxy instance"
      },
      "newPinnedAppInstance(bytes32,address,bytes,bool)": {
        "details": "Create a new pinned instance of an app linked to this kernel and set     its base implementation if it was not already set",
        "params": {
          "_appBase": "Address of the app's base implementation",
          "_appId": "Identifier for app",
          "_initializePayload": "Payload for call made by the proxy during its construction to initialize",
          "_setDefault": "Whether the app proxy app is the default one.       Useful when the Kernel needs to know of an instance of a particular app,       like Vault for escape hatch mechanism."
        },
        "return": "AppProxy instance"
      },
      "setApp(bytes32,bytes32,address)": {
        "details": "Set the resolving address of an app instance or base implementation",
        "params": {
          "_app": "Address of the app instance or base implementation",
          "_appId": "Identifier for app",
          "_namespace": "App namespace to use"
        },
        "return": "ID of app"
      },
      "setRecoveryVaultAppId(bytes32)": {
        "details": "Set the default vault id for the escape hatch mechanism",
        "params": {
          "_recoveryVaultAppId": "Identifier of the recovery vault app"
        }
      },
      "transferToVault(address)": {
        "params": {
          "_token": "Token balance to be sent to recovery vault."
        }
      }
    }
  },
  "userdoc": {
    "methods": {
      "initialize(address,address)": {
        "notice": "Initialize this kernel instance along with its ACL and set `_permissionsCreator` as the entity that can create other permissions"
      },
      "newAppInstance(bytes32,address)": {
        "notice": "Create a new upgradeable instance of `_appId` app linked to the Kernel, setting its code to `_appBase`"
      },
      "newAppInstance(bytes32,address,bytes,bool)": {
        "notice": "Create a new upgradeable instance of `_appId` app linked to the Kernel, setting its code to `_appBase`. `_setDefault ? 'Also sets it as the default app instance.':''`"
      },
      "newAppProxy(address,bytes32)": {
        "notice": "Create a new upgradeable app instance on `_kernel` with identifier `_appId`"
      },
      "newAppProxy(address,bytes32,bytes)": {
        "notice": "Create a new upgradeable app instance on `_kernel` with identifier `_appId` and initialization payload `_initializePayload`"
      },
      "newAppProxyPinned(address,bytes32)": {
        "notice": "Create a new pinned app instance on `_kernel` with identifier `_appId`"
      },
      "newAppProxyPinned(address,bytes32,bytes)": {
        "notice": "Create a new pinned app instance on `_kernel` with identifier `_appId` and initialization payload `_initializePayload`"
      },
      "newPinnedAppInstance(bytes32,address)": {
        "notice": "Create a new non-upgradeable instance of `_appId` app linked to the Kernel, setting its code to `_appBase`."
      },
      "newPinnedAppInstance(bytes32,address,bytes,bool)": {
        "notice": "Create a new non-upgradeable instance of `_appId` app linked to the Kernel, setting its code to `_appBase`. `_setDefault ? 'Also sets it as the default app instance.':''`"
      },
      "setApp(bytes32,bytes32,address)": {
        "notice": "Set the resolving address of `_appId` in namespace `_namespace` to `_app`"
      },
      "transferToVault(address)": {
        "notice": "Send funds to recovery Vault. This contract should never receive funds,        but in case it does, this function allows one to recover them."
      }
    }
  }
}