{
  "address": "0x77fF0840a6035F7fd4CC98705835213Fe482Cf36",
  "abi": [
    {
      "constant": true,
      "inputs": [],
      "name": "hasInitialized",
      "outputs": [
        {
          "name": "",
          "type": "bool"
        }
      ],
      "payable": false,
      "stateMutability": "view",
      "type": "function"
    },
    {
      "constant": false,
      "inputs": [
        {
          "name": "_beneficiary",
          "type": "address"
        }
      ],
      "name": "updateBeneficiary",
      "outputs": [],
      "payable": false,
      "stateMutability": "nonpayable",
      "type": "function"
    },
    {
      "constant": true,
      "inputs": [],
      "name": "PPM",
      "outputs": [
        {
          "name": "",
          "type": "uint32"
        }
      ],
      "payable": false,
      "stateMutability": "view",
      "type": "function"
    },
    {
      "constant": true,
      "inputs": [],
      "name": "UPDATE_FORMULA_ROLE",
      "outputs": [
        {
          "name": "",
          "type": "bytes32"
        }
      ],
      "payable": false,
      "stateMutability": "view",
      "type": "function"
    },
    {
      "constant": false,
      "inputs": [
        {
          "name": "_seller",
          "type": "address"
        },
        {
          "name": "_collateral",
          "type": "address"
        },
        {
          "name": "_amount",
          "type": "uint256"
        }
      ],
      "name": "openSellOrder",
      "outputs": [],
      "payable": false,
      "stateMutability": "nonpayable",
      "type": "function"
    },
    {
      "constant": true,
      "inputs": [
        {
          "name": "",
          "type": "uint256"
        }
      ],
      "name": "metaBatches",
      "outputs": [
        {
          "name": "initialized",
          "type": "bool"
        },
        {
          "name": "realSupply",
          "type": "uint256"
        },
        {
          "name": "buyFeePct",
          "type": "uint256"
        },
        {
          "name": "sellFeePct",
          "type": "uint256"
        },
        {
          "name": "formula",
          "type": "address"
        }
      ],
      "payable": false,
      "stateMutability": "view",
      "type": "function"
    },
    {
      "constant": true,
      "inputs": [
        {
          "name": "_script",
          "type": "bytes"
        }
      ],
      "name": "getEVMScriptExecutor",
      "outputs": [
        {
          "name": "",
          "type": "address"
        }
      ],
      "payable": false,
      "stateMutability": "view",
      "type": "function"
    },
    {
      "constant": true,
      "inputs": [],
      "name": "tokenManager",
      "outputs": [
        {
          "name": "",
          "type": "address"
        }
      ],
      "payable": false,
      "stateMutability": "view",
      "type": "function"
    },
    {
      "constant": true,
      "inputs": [],
      "name": "OPEN_BUY_ORDER_ROLE",
      "outputs": [
        {
          "name": "",
          "type": "bytes32"
        }
      ],
      "payable": false,
      "stateMutability": "view",
      "type": "function"
    },
    {
      "constant": true,
      "inputs": [],
      "name": "UPDATE_COLLATERAL_TOKEN_ROLE",
      "outputs": [
        {
          "name": "",
          "type": "bytes32"
        }
      ],
      "payable": false,
      "stateMutability": "view",
      "type": "function"
    },
    {
      "constant": true,
      "inputs": [],
      "name": "getRecoveryVault",
      "outputs": [
        {
          "name": "",
          "type": "address"
        }
      ],
      "payable": false,
      "stateMutability": "view",
      "type": "function"
    },
    {
      "constant": true,
      "inputs": [],
      "name": "beneficiary",
      "outputs": [
        {
          "name": "",
          "type": "address"
        }
      ],
      "payable": false,
      "stateMutability": "view",
      "type": "function"
    },
    {
      "constant": false,
      "inputs": [
        {
          "name": "_buyer",
          "type": "address"
        },
        {
          "name": "_collateral",
          "type": "address"
        },
        {
          "name": "_value",
          "type": "uint256"
        }
      ],
      "name": "openBuyOrder",
      "outputs": [],
      "payable": true,
      "stateMutability": "payable",
      "type": "function"
    },
    {
      "constant": true,
      "inputs": [],
      "name": "UPDATE_BENEFICIARY_ROLE",
      "outputs": [
        {
          "name": "",
          "type": "bytes32"
        }
      ],
      "payable": false,
      "stateMutability": "view",
      "type": "function"
    },
    {
      "constant": true,
      "inputs": [],
      "name": "isOpen",
      "outputs": [
        {
          "name": "",
          "type": "bool"
        }
      ],
      "payable": false,
      "stateMutability": "view",
      "type": "function"
    },
    {
      "constant": true,
      "inputs": [
        {
          "name": "",
          "type": "address"
        }
      ],
      "name": "collateralsToBeClaimed",
      "outputs": [
        {
          "name": "",
          "type": "uint256"
        }
      ],
      "payable": false,
      "stateMutability": "view",
      "type": "function"
    },
    {
      "constant": true,
      "inputs": [],
      "name": "formula",
      "outputs": [
        {
          "name": "",
          "type": "address"
        }
      ],
      "payable": false,
      "stateMutability": "view",
      "type": "function"
    },
    {
      "constant": false,
      "inputs": [
        {
          "name": "_seller",
          "type": "address"
        },
        {
          "name": "_batchId",
          "type": "uint256"
        },
        {
          "name": "_collateral",
          "type": "address"
        }
      ],
      "name": "claimSellOrder",
      "outputs": [],
      "payable": false,
      "stateMutability": "nonpayable",
      "type": "function"
    },
    {
      "constant": true,
      "inputs": [],
      "name": "ADD_COLLATERAL_TOKEN_ROLE",
      "outputs": [
        {
          "name": "",
          "type": "bytes32"
        }
      ],
      "payable": false,
      "stateMutability": "view",
      "type": "function"
    },
    {
      "constant": true,
      "inputs": [],
      "name": "UPDATE_FEES_ROLE",
      "outputs": [
        {
          "name": "",
          "type": "bytes32"
        }
      ],
      "payable": false,
      "stateMutability": "view",
      "type": "function"
    },
    {
      "constant": true,
      "inputs": [
        {
          "name": "_batchId",
          "type": "uint256"
        },
        {
          "name": "_collateral",
          "type": "address"
        }
      ],
      "name": "getBatch",
      "outputs": [
        {
          "name": "",
          "type": "bool"
        },
        {
          "name": "",
          "type": "bool"
        },
        {
          "name": "",
          "type": "uint256"
        },
        {
          "name": "",
          "type": "uint256"
        },
        {
          "name": "",
          "type": "uint32"
        },
        {
          "name": "",
          "type": "uint256"
        },
        {
          "name": "",
          "type": "uint256"
        },
        {
          "name": "",
          "type": "uint256"
        },
        {
          "name": "",
          "type": "uint256"
        },
        {
          "name": "",
          "type": "uint256"
        }
      ],
      "payable": false,
      "stateMutability": "view",
      "type": "function"
    },
    {
      "constant": true,
      "inputs": [],
      "name": "OPEN_ROLE",
      "outputs": [
        {
          "name": "",
          "type": "bytes32"
        }
      ],
      "payable": false,
      "stateMutability": "view",
      "type": "function"
    },
    {
      "constant": false,
      "inputs": [
        {
          "name": "_buyFeePct",
          "type": "uint256"
        },
        {
          "name": "_sellFeePct",
          "type": "uint256"
        }
      ],
      "name": "updateFees",
      "outputs": [],
      "payable": false,
      "stateMutability": "nonpayable",
      "type": "function"
    },
    {
      "constant": false,
      "inputs": [
        {
          "name": "_buyer",
          "type": "address"
        },
        {
          "name": "_batchId",
          "type": "uint256"
        },
        {
          "name": "_collateral",
          "type": "address"
        }
      ],
      "name": "claimBuyOrder",
      "outputs": [],
      "payable": false,
      "stateMutability": "nonpayable",
      "type": "function"
    },
    {
      "constant": true,
      "inputs": [],
      "name": "sellFeePct",
      "outputs": [
        {
          "name": "",
          "type": "uint256"
        }
      ],
      "payable": false,
      "stateMutability": "view",
      "type": "function"
    },
    {
      "constant": true,
      "inputs": [
        {
          "name": "_supply",
          "type": "uint256"
        },
        {
          "name": "_balance",
          "type": "uint256"
        },
        {
          "name": "_reserveRatio",
          "type": "uint32"
        }
      ],
      "name": "getStaticPricePPM",
      "outputs": [
        {
          "name": "",
          "type": "uint256"
        }
      ],
      "payable": false,
      "stateMutability": "view",
      "type": "function"
    },
    {
      "constant": true,
      "inputs": [
        {
          "name": "token",
          "type": "address"
        }
      ],
      "name": "allowRecoverability",
      "outputs": [
        {
          "name": "",
          "type": "bool"
        }
      ],
      "payable": false,
      "stateMutability": "view",
      "type": "function"
    },
    {
      "constant": true,
      "inputs": [],
      "name": "appId",
      "outputs": [
        {
          "name": "",
          "type": "bytes32"
        }
      ],
      "payable": false,
      "stateMutability": "view",
      "type": "function"
    },
    {
      "constant": false,
      "inputs": [
        {
          "name": "_collateral",
          "type": "address"
        },
        {
          "name": "_virtualSupply",
          "type": "uint256"
        },
        {
          "name": "_virtualBalance",
          "type": "uint256"
        },
        {
          "name": "_reserveRatio",
          "type": "uint32"
        },
        {
          "name": "_slippage",
          "type": "uint256"
        }
      ],
      "name": "updateCollateralToken",
      "outputs": [],
      "payable": false,
      "stateMutability": "nonpayable",
      "type": "function"
    },
    {
      "constant": true,
      "inputs": [],
      "name": "getInitializationBlock",
      "outputs": [
        {
          "name": "",
          "type": "uint256"
        }
      ],
      "payable": false,
      "stateMutability": "view",
      "type": "function"
    },
    {
      "constant": false,
      "inputs": [
        {
          "name": "_buyer",
          "type": "address"
        },
        {
          "name": "_batchId",
          "type": "uint256"
        },
        {
          "name": "_collateral",
          "type": "address"
        }
      ],
      "name": "claimCancelledBuyOrder",
      "outputs": [],
      "payable": false,
      "stateMutability": "nonpayable",
      "type": "function"
    },
    {
      "constant": false,
      "inputs": [
        {
          "name": "_collateral",
          "type": "address"
        }
      ],
      "name": "removeCollateralToken",
      "outputs": [],
      "payable": false,
      "stateMutability": "nonpayable",
      "type": "function"
    },
    {
      "constant": true,
      "inputs": [],
      "name": "tokensToBeMinted",
      "outputs": [
        {
          "name": "",
          "type": "uint256"
        }
      ],
      "payable": false,
      "stateMutability": "view",
      "type": "function"
    },
    {
      "constant": false,
      "inputs": [
        {
          "name": "_token",
          "type": "address"
        }
      ],
      "name": "transferToVault",
      "outputs": [],
      "payable": false,
      "stateMutability": "nonpayable",
      "type": "function"
    },
    {
      "constant": true,
      "inputs": [
        {
          "name": "_sender",
          "type": "address"
        },
        {
          "name": "_role",
          "type": "bytes32"
        },
        {
          "name": "_params",
          "type": "uint256[]"
        }
      ],
      "name": "canPerform",
      "outputs": [
        {
          "name": "",
          "type": "bool"
        }
      ],
      "payable": false,
      "stateMutability": "view",
      "type": "function"
    },
    {
      "constant": true,
      "inputs": [],
      "name": "getEVMScriptRegistry",
      "outputs": [
        {
          "name": "",
          "type": "address"
        }
      ],
      "payable": false,
      "stateMutability": "view",
      "type": "function"
    },
    {
      "constant": true,
      "inputs": [],
      "name": "REMOVE_COLLATERAL_TOKEN_ROLE",
      "outputs": [
        {
          "name": "",
          "type": "bytes32"
        }
      ],
      "payable": false,
      "stateMutability": "view",
      "type": "function"
    },
    {
      "constant": true,
      "inputs": [],
      "name": "batchBlocks",
      "outputs": [
        {
          "name": "",
          "type": "uint256"
        }
      ],
      "payable": false,
      "stateMutability": "view",
      "type": "function"
    },
    {
      "constant": true,
      "inputs": [],
      "name": "reserve",
      "outputs": [
        {
          "name": "",
          "type": "address"
        }
      ],
      "payable": false,
      "stateMutability": "view",
      "type": "function"
    },
    {
      "constant": true,
      "inputs": [],
      "name": "OPEN_SELL_ORDER_ROLE",
      "outputs": [
        {
          "name": "",
          "type": "bytes32"
        }
      ],
      "payable": false,
      "stateMutability": "view",
      "type": "function"
    },
    {
      "constant": true,
      "inputs": [],
      "name": "kernel",
      "outputs": [
        {
          "name": "",
          "type": "address"
        }
      ],
      "payable": false,
      "stateMutability": "view",
      "type": "function"
    },
    {
      "constant": false,
      "inputs": [
        {
          "name": "_formula",
          "type": "address"
        }
      ],
      "name": "updateFormula",
      "outputs": [],
      "payable": false,
      "stateMutability": "nonpayable",
      "type": "function"
    },
    {
      "constant": false,
      "inputs": [
        {
          "name": "_seller",
          "type": "address"
        },
        {
          "name": "_batchId",
          "type": "uint256"
        },
        {
          "name": "_collateral",
          "type": "address"
        }
      ],
      "name": "claimCancelledSellOrder",
      "outputs": [],
      "payable": false,
      "stateMutability": "nonpayable",
      "type": "function"
    },
    {
      "constant": true,
      "inputs": [],
      "name": "isPetrified",
      "outputs": [
        {
          "name": "",
          "type": "bool"
        }
      ],
      "payable": false,
      "stateMutability": "view",
      "type": "function"
    },
    {
      "constant": false,
      "inputs": [
        {
          "name": "_kernel",
          "type": "address"
        },
        {
          "name": "_controller",
          "type": "address"
        },
        {
          "name": "_tokenManager",
          "type": "address"
        },
        {
          "name": "_formula",
          "type": "address"
        },
        {
          "name": "_reserve",
          "type": "address"
        },
        {
          "name": "_beneficiary",
          "type": "address"
        },
        {
          "name": "_batchBlocks",
          "type": "uint256"
        },
        {
          "name": "_buyFeePct",
          "type": "uint256"
        },
        {
          "name": "_sellFeePct",
          "type": "uint256"
        }
      ],
      "name": "initialize",
      "outputs": [],
      "payable": false,
      "stateMutability": "nonpayable",
      "type": "function"
    },
    {
      "constant": true,
      "inputs": [],
      "name": "getCurrentBatchId",
      "outputs": [
        {
          "name": "",
          "type": "uint256"
        }
      ],
      "payable": false,
      "stateMutability": "view",
      "type": "function"
    },
    {
      "constant": true,
      "inputs": [
        {
          "name": "",
          "type": "address"
        }
      ],
      "name": "collaterals",
      "outputs": [
        {
          "name": "whitelisted",
          "type": "bool"
        },
        {
          "name": "virtualSupply",
          "type": "uint256"
        },
        {
          "name": "virtualBalance",
          "type": "uint256"
        },
        {
          "name": "reserveRatio",
          "type": "uint32"
        },
        {
          "name": "slippage",
          "type": "uint256"
        }
      ],
      "payable": false,
      "stateMutability": "view",
      "type": "function"
    },
    {
      "constant": true,
      "inputs": [
        {
          "name": "_collateral",
          "type": "address"
        }
      ],
      "name": "getCollateralToken",
      "outputs": [
        {
          "name": "",
          "type": "bool"
        },
        {
          "name": "",
          "type": "uint256"
        },
        {
          "name": "",
          "type": "uint256"
        },
        {
          "name": "",
          "type": "uint32"
        },
        {
          "name": "",
          "type": "uint256"
        }
      ],
      "payable": false,
      "stateMutability": "view",
      "type": "function"
    },
    {
      "constant": true,
      "inputs": [],
      "name": "controller",
      "outputs": [
        {
          "name": "",
          "type": "address"
        }
      ],
      "payable": false,
      "stateMutability": "view",
      "type": "function"
    },
    {
      "constant": true,
      "inputs": [],
      "name": "buyFeePct",
      "outputs": [
        {
          "name": "",
          "type": "uint256"
        }
      ],
      "payable": false,
      "stateMutability": "view",
      "type": "function"
    },
    {
      "constant": true,
      "inputs": [],
      "name": "token",
      "outputs": [
        {
          "name": "",
          "type": "address"
        }
      ],
      "payable": false,
      "stateMutability": "view",
      "type": "function"
    },
    {
      "constant": true,
      "inputs": [],
      "name": "PCT_BASE",
      "outputs": [
        {
          "name": "",
          "type": "uint256"
        }
      ],
      "payable": false,
      "stateMutability": "view",
      "type": "function"
    },
    {
      "constant": false,
      "inputs": [],
      "name": "open",
      "outputs": [],
      "payable": false,
      "stateMutability": "nonpayable",
      "type": "function"
    },
    {
      "constant": false,
      "inputs": [
        {
          "name": "_collateral",
          "type": "address"
        },
        {
          "name": "_virtualSupply",
          "type": "uint256"
        },
        {
          "name": "_virtualBalance",
          "type": "uint256"
        },
        {
          "name": "_reserveRatio",
          "type": "uint32"
        },
        {
          "name": "_slippage",
          "type": "uint256"
        }
      ],
      "name": "addCollateralToken",
      "outputs": [],
      "payable": false,
      "stateMutability": "nonpayable",
      "type": "function"
    },
    {
      "anonymous": false,
      "inputs": [
        {
          "indexed": true,
          "name": "beneficiary",
          "type": "address"
        }
      ],
      "name": "UpdateBeneficiary",
      "type": "event"
    },
    {
      "anonymous": false,
      "inputs": [
        {
          "indexed": true,
          "name": "formula",
          "type": "address"
        }
      ],
      "name": "UpdateFormula",
      "type": "event"
    },
    {
      "anonymous": false,
      "inputs": [
        {
          "indexed": false,
          "name": "buyFeePct",
          "type": "uint256"
        },
        {
          "indexed": false,
          "name": "sellFeePct",
          "type": "uint256"
        }
      ],
      "name": "UpdateFees",
      "type": "event"
    },
    {
      "anonymous": false,
      "inputs": [
        {
          "indexed": true,
          "name": "id",
          "type": "uint256"
        },
        {
          "indexed": false,
          "name": "supply",
          "type": "uint256"
        },
        {
          "indexed": false,
          "name": "buyFeePct",
          "type": "uint256"
        },
        {
          "indexed": false,
          "name": "sellFeePct",
          "type": "uint256"
        },
        {
          "indexed": false,
          "name": "formula",
          "type": "address"
        }
      ],
      "name": "NewMetaBatch",
      "type": "event"
    },
    {
      "anonymous": false,
      "inputs": [
        {
          "indexed": true,
          "name": "id",
          "type": "uint256"
        },
        {
          "indexed": true,
          "name": "collateral",
          "type": "address"
        },
        {
          "indexed": false,
          "name": "supply",
          "type": "uint256"
        },
        {
          "indexed": false,
          "name": "balance",
          "type": "uint256"
        },
        {
          "indexed": false,
          "name": "reserveRatio",
          "type": "uint32"
        },
        {
          "indexed": false,
          "name": "slippage",
          "type": "uint256"
        }
      ],
      "name": "NewBatch",
      "type": "event"
    },
    {
      "anonymous": false,
      "inputs": [
        {
          "indexed": true,
          "name": "id",
          "type": "uint256"
        },
        {
          "indexed": true,
          "name": "collateral",
          "type": "address"
        }
      ],
      "name": "CancelBatch",
      "type": "event"
    },
    {
      "anonymous": false,
      "inputs": [
        {
          "indexed": true,
          "name": "collateral",
          "type": "address"
        },
        {
          "indexed": false,
          "name": "virtualSupply",
          "type": "uint256"
        },
        {
          "indexed": false,
          "name": "virtualBalance",
          "type": "uint256"
        },
        {
          "indexed": false,
          "name": "reserveRatio",
          "type": "uint32"
        },
        {
          "indexed": false,
          "name": "slippage",
          "type": "uint256"
        }
      ],
      "name": "AddCollateralToken",
      "type": "event"
    },
    {
      "anonymous": false,
      "inputs": [
        {
          "indexed": true,
          "name": "collateral",
          "type": "address"
        }
      ],
      "name": "RemoveCollateralToken",
      "type": "event"
    },
    {
      "anonymous": false,
      "inputs": [
        {
          "indexed": true,
          "name": "collateral",
          "type": "address"
        },
        {
          "indexed": false,
          "name": "virtualSupply",
          "type": "uint256"
        },
        {
          "indexed": false,
          "name": "virtualBalance",
          "type": "uint256"
        },
        {
          "indexed": false,
          "name": "reserveRatio",
          "type": "uint32"
        },
        {
          "indexed": false,
          "name": "slippage",
          "type": "uint256"
        }
      ],
      "name": "UpdateCollateralToken",
      "type": "event"
    },
    {
      "anonymous": false,
      "inputs": [],
      "name": "Open",
      "type": "event"
    },
    {
      "anonymous": false,
      "inputs": [
        {
          "indexed": true,
          "name": "buyer",
          "type": "address"
        },
        {
          "indexed": true,
          "name": "batchId",
          "type": "uint256"
        },
        {
          "indexed": true,
          "name": "collateral",
          "type": "address"
        },
        {
          "indexed": false,
          "name": "fee",
          "type": "uint256"
        },
        {
          "indexed": false,
          "name": "value",
          "type": "uint256"
        }
      ],
      "name": "OpenBuyOrder",
      "type": "event"
    },
    {
      "anonymous": false,
      "inputs": [
        {
          "indexed": true,
          "name": "seller",
          "type": "address"
        },
        {
          "indexed": true,
          "name": "batchId",
          "type": "uint256"
        },
        {
          "indexed": true,
          "name": "collateral",
          "type": "address"
        },
        {
          "indexed": false,
          "name": "amount",
          "type": "uint256"
        }
      ],
      "name": "OpenSellOrder",
      "type": "event"
    },
    {
      "anonymous": false,
      "inputs": [
        {
          "indexed": true,
          "name": "buyer",
          "type": "address"
        },
        {
          "indexed": true,
          "name": "batchId",
          "type": "uint256"
        },
        {
          "indexed": true,
          "name": "collateral",
          "type": "address"
        },
        {
          "indexed": false,
          "name": "amount",
          "type": "uint256"
        }
      ],
      "name": "ClaimBuyOrder",
      "type": "event"
    },
    {
      "anonymous": false,
      "inputs": [
        {
          "indexed": true,
          "name": "seller",
          "type": "address"
        },
        {
          "indexed": true,
          "name": "batchId",
          "type": "uint256"
        },
        {
          "indexed": true,
          "name": "collateral",
          "type": "address"
        },
        {
          "indexed": false,
          "name": "fee",
          "type": "uint256"
        },
        {
          "indexed": false,
          "name": "value",
          "type": "uint256"
        }
      ],
      "name": "ClaimSellOrder",
      "type": "event"
    },
    {
      "anonymous": false,
      "inputs": [
        {
          "indexed": true,
          "name": "buyer",
          "type": "address"
        },
        {
          "indexed": true,
          "name": "batchId",
          "type": "uint256"
        },
        {
          "indexed": true,
          "name": "collateral",
          "type": "address"
        },
        {
          "indexed": false,
          "name": "value",
          "type": "uint256"
        }
      ],
      "name": "ClaimCancelledBuyOrder",
      "type": "event"
    },
    {
      "anonymous": false,
      "inputs": [
        {
          "indexed": true,
          "name": "seller",
          "type": "address"
        },
        {
          "indexed": true,
          "name": "batchId",
          "type": "uint256"
        },
        {
          "indexed": true,
          "name": "collateral",
          "type": "address"
        },
        {
          "indexed": false,
          "name": "amount",
          "type": "uint256"
        }
      ],
      "name": "ClaimCancelledSellOrder",
      "type": "event"
    },
    {
      "anonymous": false,
      "inputs": [
        {
          "indexed": true,
          "name": "batchId",
          "type": "uint256"
        },
        {
          "indexed": true,
          "name": "collateral",
          "type": "address"
        },
        {
          "indexed": false,
          "name": "totalBuySpend",
          "type": "uint256"
        },
        {
          "indexed": false,
          "name": "totalBuyReturn",
          "type": "uint256"
        },
        {
          "indexed": false,
          "name": "totalSellSpend",
          "type": "uint256"
        },
        {
          "indexed": false,
          "name": "totalSellReturn",
          "type": "uint256"
        }
      ],
      "name": "UpdatePricing",
      "type": "event"
    },
    {
      "anonymous": false,
      "inputs": [
        {
          "indexed": true,
          "name": "executor",
          "type": "address"
        },
        {
          "indexed": false,
          "name": "script",
          "type": "bytes"
        },
        {
          "indexed": false,
          "name": "input",
          "type": "bytes"
        },
        {
          "indexed": false,
          "name": "returnData",
          "type": "bytes"
        }
      ],
      "name": "ScriptResult",
      "type": "event"
    },
    {
      "anonymous": false,
      "inputs": [
        {
          "indexed": true,
          "name": "vault",
          "type": "address"
        },
        {
          "indexed": true,
          "name": "token",
          "type": "address"
        },
        {
          "indexed": false,
          "name": "amount",
          "type": "uint256"
        }
      ],
      "name": "RecoverToVault",
      "type": "event"
    }
  ],
  "transactionHash": "0x0bb0c00f67e93390d099b60c1d5867bc5e75d19a72714a0154d252fe41e0840a",
  "args": [],
  "solcInputHash": "8d18a2dc3fd6f33aa0599504f8a819f6",
  "bytecode": "0x60806040526200001764010000000062000047810204565b620000416000805160206200605e83398151915260006401000000006200417d6200014f82021704565b62000265565b6200005a64010000000062000153810204565b60408051808201909152601881527f494e49545f414c52454144595f494e495449414c495a454400000000000000006020820152901562000136576040517f08c379a00000000000000000000000000000000000000000000000000000000081526004018080602001828103825283818151815260200191508051906020019080838360005b83811015620000fa578181015183820152602001620000e0565b50505050905090810190601f168015620001285780820380516001836020036101000a031916815260200191505b509250505060405180910390fd5b506200014d60001964010000000062000182810204565b565b9055565b60006200017d6000805160206200605e833981519152640100000000620041796200026182021704565b905090565b6200019564010000000062000153810204565b60408051808201909152601881527f494e49545f414c52454144595f494e495449414c495a454400000000000000006020820152901562000234576040517f08c379a000000000000000000000000000000000000000000000000000000000815260040180806020018281038252838181518152602001915080519060200190808383600083811015620000fa578181015183820152602001620000e0565b506200025e6000805160206200605e833981519152826401000000006200417d6200014f82021704565b50565b5490565b615de980620002756000396000f30060806040526004361061026e5763ffffffff60e060020a6000350416630803fac081146102735780630aaffd2a1461029c5780630d720bbc146102bf5780630e85d277146102ed5780630f1ff5ea14610314578063177c14991461033e5780632914b9bd1461038c5780632a709b14146104015780632cd4a270146104165780633017dbed1461042b57806332f0a3b51461044057806338af3eed146104555780633fae9bfb1461046a57806341644f8c1461048757806347535d7b1461049c5780634afe6c47146104b15780634b75f54f146104d25780635e6f6c77146104e7578063608bac051461051257806360e14b6014610527578063683dee471461053c5780636a928e8f146105b75780636db79437146105cc57806378ea6103146105e75780637b9e86bf146106125780637cfab0cb146106275780637e7db6e11461064b57806380afdea81461066c5780638a9b1e2d146106815780638b3dd749146106b45780639249be28146106c957806394f9059f146106f45780639ba9dada146107155780639d4941d81461072a578063a1658fad1461074b578063a479e508146107b2578063b6e9c826146107c7578063c56f0f6c146107dc578063cd3293de146107f1578063cf9d82f214610806578063d4aae0c41461081b578063d5b49a7114610830578063dbbdf2fe14610851578063de4796ed1461087c578063df5377fe14610891578063e720ac8e146108da578063eeb97d3b146108ef578063f190e42714610943578063f77c479114610964578063f79c5c7c14610979578063fc0c546a1461098e578063fc157cb4146109a3578063fcfff16f146109b8578063fd531e03146109cd575b600080fd5b34801561027f57600080fd5b50610288610a00565b604080519115158252519081900360200190f35b3480156102a857600080fd5b506102bd600160a060020a0360043516610a29565b005b3480156102cb57600080fd5b506102d4610bb9565b6040805163ffffffff9092168252519081900360200190f35b3480156102f957600080fd5b50610302610bc0565b60408051918252519081900360200190f35b34801561032057600080fd5b506102bd600160a060020a0360043581169060243516604435610be4565b34801561034a57600080fd5b50610356600435610ecb565b6040805195151586526020860194909452848401929092526060840152600160a060020a03166080830152519081900360a00190f35b34801561039857600080fd5b506040805160206004803580820135601f81018490048402850184019095528484526103e5943694929360249392840191908190840183828082843750949750610f079650505050505050565b60408051600160a060020a039092168252519081900360200190f35b34801561040d57600080fd5b506103e5610fed565b34801561042257600080fd5b50610302610ffc565b34801561043757600080fd5b50610302611020565b34801561044c57600080fd5b506103e5611044565b34801561046157600080fd5b506103e56110bc565b6102bd600160a060020a03600435811690602435166044356110cb565b34801561049357600080fd5b506103026113a8565b3480156104a857600080fd5b506102886113cc565b3480156104bd57600080fd5b50610302600160a060020a03600435166113d5565b3480156104de57600080fd5b506103e56113e7565b3480156104f357600080fd5b506102bd600160a060020a0360043581169060243590604435166113f6565b34801561051e57600080fd5b50610302611758565b34801561053357600080fd5b5061030261177c565b34801561054857600080fd5b50610560600435600160a060020a03602435166117a0565b604080519a15158b5298151560208b015289890197909752606089019590955263ffffffff909316608088015260a087019190915260c086015260e085015261010084015261012083015251908190036101400190f35b3480156105c357600080fd5b506103026118e9565b3480156105d857600080fd5b506102bd60043560243561190d565b3480156105f357600080fd5b506102bd600160a060020a036004358116906024359060443516611a6c565b34801561061e57600080fd5b50610302611daa565b34801561063357600080fd5b5061030260043560243563ffffffff60443516611db0565b34801561065757600080fd5b50610288600160a060020a0360043516611e44565b34801561067857600080fd5b50610302611e4a565b34801561068d57600080fd5b506102bd600160a060020a036004351660243560443563ffffffff60643516608435611e7a565b3480156106c057600080fd5b50610302612052565b3480156106d557600080fd5b506102bd600160a060020a03600435811690602435906044351661207d565b34801561070057600080fd5b506102bd600160a060020a03600435166122c0565b34801561072157600080fd5b506103026123fc565b34801561073657600080fd5b506102bd600160a060020a0360043516612402565b34801561075757600080fd5b506040805160206004604435818101358381028086018501909652808552610288958335600160a060020a03169560248035963696956064959394920192918291850190849080828437509497506126919650505050505050565b3480156107be57600080fd5b506103e56127e1565b3480156107d357600080fd5b50610302612896565b3480156107e857600080fd5b506103026128ba565b3480156107fd57600080fd5b506103e56128c0565b34801561081257600080fd5b506103026128cf565b34801561082757600080fd5b506103e56128f3565b34801561083c57600080fd5b506102bd600160a060020a036004351661291e565b34801561085d57600080fd5b506102bd600160a060020a036004358116906024359060443516612a5a565b34801561088857600080fd5b50610288612c9d565b34801561089d57600080fd5b506102bd600160a060020a0360043581169060243581169060443581169060643581169060843581169060a4351660c43560e43561010435612cb0565b3480156108e657600080fd5b50610302613339565b3480156108fb57600080fd5b50610910600160a060020a03600435166133c0565b60408051951515865260208601949094528484019290925263ffffffff1660608401526080830152519081900360a00190f35b34801561094f57600080fd5b50610910600160a060020a03600435166133f9565b34801561097057600080fd5b506103e56134cb565b34801561098557600080fd5b506103026134da565b34801561099a57600080fd5b506103e56134e0565b3480156109af57600080fd5b506103026134ef565b3480156109c457600080fd5b506102bd6134fb565b3480156109d957600080fd5b506102bd600160a060020a036004351660243560443563ffffffff60643516608435613647565b600080610a0b612052565b90508015801590610a23575080610a206138f2565b10155b91505090565b604080516000808252602082019092527ff7ea2b80c7b6a2cab2c11d2290cb005c3748397358a25e17113658c83b73259391610a6b9133918491905b50612691565b60408051808201909152600f8152600080516020615cbe8339815191526020820152901515610b1b5760405160e560020a62461bcd0281526004018080602001828103825283818151815260200191508051906020019080838360005b83811015610ae0578181015183820152602001610ac8565b50505050905090810190601f168015610b0d5780820380516001836020036101000a031916815260200191505b509250505060405180910390fd5b50610b25826138f6565b60408051808201909152601681527f4d4d5f494e56414c49445f42454e4546494349415259000000000000000000006020820152901515610bab5760405160e560020a62461bcd02815260040180806020018281038252838181518152602001915080519060200190808383600083811015610ae0578181015183820152602001610ac8565b50610bb582613904565b5050565b620f424081565b7fbfb76d8d43f55efe58544ea32af187792a7bdb983850d8fed33478266eec3cbb81565b604080516000808252602082019092527fd68ba2b769fa37a2a7bd4bed9241b448bc99eca41f519ef037406386a8f291c091610c24913391849190610a65565b60408051808201909152600f8152600080516020615cbe8339815191526020820152901515610c985760405160e560020a62461bcd02815260040180806020018281038252838181518152602001915080519060200190808383600083811015610ae0578181015183820152602001610ac8565b5060095460408051808201909152600b81527f4d4d5f4e4f545f4f50454e00000000000000000000000000000000000000000060208201529060ff161515610d255760405160e560020a62461bcd02815260040180806020018281038252838181518152602001915080519060200190808383600083811015610ae0578181015183820152602001610ac8565b50610d2f8361395b565b60408051808201909152601d8152600080516020615d3e8339815191526020820152901515610da35760405160e560020a62461bcd02815260040180806020018281038252838181518152602001915080519060200190808383600083811015610ae0578181015183820152602001610ac8565b50610db5610daf613979565b8461399f565b6040805180820190915260128152600080516020615cde83398151915260208201529015610e285760405160e560020a62461bcd02815260040180806020018281038252838181518152602001915080519060200190808383600083811015610ae0578181015183820152602001610ac8565b50610e3384836139d3565b60408051808201909152601681527f4d4d5f494e56414c49445f424f4e445f414d4f554e54000000000000000000006020820152901515610eb95760405160e560020a62461bcd02815260040180806020018281038252838181518152602001915080519060200190808383600083811015610ae0578181015183820152602001610ac8565b50610ec5848484613a7f565b50505050565b600d602052600090815260409020805460018201546002830154600384015460049094015460ff909316939192909190600160a060020a031685565b6000610f116127e1565b600160a060020a03166304bf2a7f836040518263ffffffff1660e060020a0281526004018080602001828103825283818151815260200191508051906020019080838360005b83811015610f6f578181015183820152602001610f57565b50505050905090810190601f168015610f9c5780820380516001836020036101000a031916815260200191505b5092505050602060405180830381600087803b158015610fbb57600080fd5b505af1158015610fcf573d6000803e3d6000fd5b505050506040513d6020811015610fe557600080fd5b505192915050565b600154600160a060020a031681565b7fa589c8f284b76fc8d510d9d553485c47dbef1b0745ae00e0f3fd4e28fcd77ea781565b7fe0565c2c43e0d841e206bb36a37f12f22584b4652ccee6f9e0c071b697a2e13d81565b600061104e6128f3565b600160a060020a03166332f0a3b56040518163ffffffff1660e060020a028152600401602060405180830381600087803b15801561108b57600080fd5b505af115801561109f573d6000803e3d6000fd5b505050506040513d60208110156110b557600080fd5b5051905090565b600454600160a060020a031681565b604080516000808252602082019092527fa589c8f284b76fc8d510d9d553485c47dbef1b0745ae00e0f3fd4e28fcd77ea79161110b913391849190610a65565b60408051808201909152600f8152600080516020615cbe833981519152602082015290151561117f5760405160e560020a62461bcd02815260040180806020018281038252838181518152602001915080519060200190808383600083811015610ae0578181015183820152602001610ac8565b5060095460408051808201909152600b81527f4d4d5f4e4f545f4f50454e00000000000000000000000000000000000000000060208201529060ff16151561120c5760405160e560020a62461bcd02815260040180806020018281038252838181518152602001915080519060200190808383600083811015610ae0578181015183820152602001610ac8565b506112168361395b565b60408051808201909152601d8152600080516020615d3e833981519152602082015290151561128a5760405160e560020a62461bcd02815260040180806020018281038252838181518152602001915080519060200190808383600083811015610ae0578181015183820152602001610ac8565b50611296610daf613979565b6040805180820190915260128152600080516020615cde833981519152602082015290156113095760405160e560020a62461bcd02815260040180806020018281038252838181518152602001915080519060200190808383600083811015610ae0578181015183820152602001610ac8565b5061131684848434613d80565b60408051808201909152601b81527f4d4d5f494e56414c49445f434f4c4c41544552414c5f56414c55450000000000602082015290151561139c5760405160e560020a62461bcd02815260040180806020018281038252838181518152602001915080519060200190808383600083811015610ae0578181015183820152602001610ac8565b50610ec5848484613f03565b7ff7ea2b80c7b6a2cab2c11d2290cb005c3748397358a25e17113658c83b73259381565b60095460ff1681565b600b6020526000908152604090205481565b600554600160a060020a031681565b61140d600080516020615d5e833981519152614179565b6040805180820190915260198152600080516020615cfe833981519152602082015290156114805760405160e560020a62461bcd02815260040180806020018281038252838181518152602001915080519060200190808383600083811015610ae0578181015183820152602001610ac8565b506114a0600080516020615d5e833981519152600163ffffffff61417d16565b6114a8610a00565b6040805180820190915260148152600080516020615d9e833981519152602082015290151561151c5760405160e560020a62461bcd02815260040180806020018281038252838181518152602001915080519060200190808383600083811015610ae0578181015183820152602001610ac8565b506115268161395b565b60408051808201909152601d8152600080516020615d3e833981519152602082015290151561159a5760405160e560020a62461bcd02815260040180806020018281038252838181518152602001915080519060200190808383600083811015610ae0578181015183820152602001610ac8565b506115a482614181565b60408051808201909152601181527f4d4d5f42415443485f4e4f545f4f564552000000000000000000000000000000602082015290151561162a5760405160e560020a62461bcd02815260040180806020018281038252838181518152602001915080519060200190808383600083811015610ae0578181015183820152602001610ac8565b50611635828261399f565b6040805180820190915260128152600080516020615cde833981519152602082015290156116a85760405160e560020a62461bcd02815260040180806020018281038252838181518152602001915080519060200190808383600083811015610ae0578181015183820152602001610ac8565b506116b4828285614193565b6040805180820190915260138152600080516020615d7e83398151915260208201529015156117285760405160e560020a62461bcd02815260040180806020018281038252838181518152602001915080519060200190808383600083811015610ae0578181015183820152602001610ac8565b506117348383836141cd565b611753600080516020615d5e833981519152600063ffffffff61417d16565b505050565b7f217b79cb2bc7760defc88529853ef81ab33ae5bb315408ce9f5af09c8776662d81565b7f5f9be2932ed3a723f295a763be1804c7ebfd1a41c1348fb8bdf5be1c5cdca82281565b60008060008060008060008060008060006117b9610a00565b6040805180820190915260148152600080516020615d9e833981519152602082015290151561182d5760405160e560020a62461bcd02815260040180806020018281038252838181518152602001915080519060200190808383600083811015610ae0578181015183820152602001610ac8565b50600d60008e815260200190815260200160002060050160008d600160a060020a0316600160a060020a0316815260200190815260200160002090508060000160009054906101000a900460ff168160000160019054906101000a900460ff16826001015483600201548460030160009054906101000a900463ffffffff16856004015486600501548760060154886007015489600801549a509a509a509a509a509a509a509a509a509a50509295989b9194979a5092959850565b7fefa06053e2ca99a43c97c4a4f3d8a394ee3323a8ff237e625fba09fe30ceb0a481565b604080516000808252602082019092527f5f9be2932ed3a723f295a763be1804c7ebfd1a41c1348fb8bdf5be1c5cdca8229161194d913391849190610a65565b60408051808201909152600f8152600080516020615cbe83398151915260208201529015156119c15760405160e560020a62461bcd02815260040180806020018281038252838181518152602001915080519060200190808383600083811015610ae0578181015183820152602001610ac8565b506119cb8361445b565b80156119db57506119db8261445b565b60408051808201909152601581527f4d4d5f494e56414c49445f50455243454e5441474500000000000000000000006020820152901515611a615760405160e560020a62461bcd02815260040180806020018281038252838181518152602001915080519060200190808383600083811015610ae0578181015183820152602001610ac8565b506117538383614468565b611a83600080516020615d5e833981519152614179565b6040805180820190915260198152600080516020615cfe83398151915260208201529015611af65760405160e560020a62461bcd02815260040180806020018281038252838181518152602001915080519060200190808383600083811015610ae0578181015183820152602001610ac8565b50611b16600080516020615d5e833981519152600163ffffffff61417d16565b611b1e610a00565b6040805180820190915260148152600080516020615d9e8339815191526020820152901515611b925760405160e560020a62461bcd02815260040180806020018281038252838181518152602001915080519060200190808383600083811015610ae0578181015183820152602001610ac8565b50611b9c8161395b565b60408051808201909152601d8152600080516020615d3e8339815191526020820152901515611c105760405160e560020a62461bcd02815260040180806020018281038252838181518152602001915080519060200190808383600083811015610ae0578181015183820152602001610ac8565b50611c1a82614181565b60408051808201909152601181527f4d4d5f42415443485f4e4f545f4f5645520000000000000000000000000000006020820152901515611ca05760405160e560020a62461bcd02815260040180806020018281038252838181518152602001915080519060200190808383600083811015610ae0578181015183820152602001610ac8565b50611cab828261399f565b6040805180820190915260128152600080516020615cde83398151915260208201529015611d1e5760405160e560020a62461bcd02815260040180806020018281038252838181518152602001915080519060200190808383600083811015610ae0578181015183820152602001610ac8565b50611d2a8282856144b1565b6040805180820190915260138152600080516020615d7e8339815191526020820152901515611d9e5760405160e560020a62461bcd02815260040180806020018281038252838181518152602001915080519060200190808383600083811015610ae0578181015183820152602001610ac8565b506117348383836144eb565b60085481565b6000611dba610a00565b6040805180820190915260148152600080516020615d9e8339815191526020820152901515611e2e5760405160e560020a62461bcd02815260040180806020018281038252838181518152602001915080519060200190808383600083811015610ae0578181015183820152602001610ac8565b50611e3a84848461465b565b90505b9392505050565b50600190565b6000611e757fd625496217aa6a3453eecb9c3489dc5a53e6c67b444329ea2b2cbc9ff547639b614179565b905090565b604080516000808252602082019092527fe0565c2c43e0d841e206bb36a37f12f22584b4652ccee6f9e0c071b697a2e13d91611eba913391849190610a65565b60408051808201909152600f8152600080516020615cbe8339815191526020820152901515611f2e5760405160e560020a62461bcd02815260040180806020018281038252838181518152602001915080519060200190808383600083811015610ae0578181015183820152602001610ac8565b50611f388661395b565b60408051808201909152601d8152600080516020615d3e8339815191526020820152901515611fac5760405160e560020a62461bcd02815260040180806020018281038252838181518152602001915080519060200190808383600083811015610ae0578181015183820152602001610ac8565b50611fb683614684565b60408051808201909152601881527f4d4d5f494e56414c49445f524553455256455f524154494f0000000000000000602082015290151561203c5760405160e560020a62461bcd02815260040180806020018281038252838181518152602001915080519060200190808383600083811015610ae0578181015183820152602001610ac8565b5061204a8686868686614696565b505050505050565b6000611e757febb05b386a8d34882b8711d156f463690983dc47815980fb82aeeff1aa43579e614179565b612094600080516020615d5e833981519152614179565b6040805180820190915260198152600080516020615cfe833981519152602082015290156121075760405160e560020a62461bcd02815260040180806020018281038252838181518152602001915080519060200190808383600083811015610ae0578181015183820152602001610ac8565b50612127600080516020615d5e833981519152600163ffffffff61417d16565b61212f610a00565b6040805180820190915260148152600080516020615d9e83398151915260208201529015156121a35760405160e560020a62461bcd02815260040180806020018281038252838181518152602001915080519060200190808383600083811015610ae0578181015183820152602001610ac8565b506121ae828261399f565b60408051808201909152601681527f4d4d5f42415443485f4e4f545f43414e43454c4c45440000000000000000000060208201529015156122345760405160e560020a62461bcd02815260040180806020018281038252838181518152602001915080519060200190808383600083811015610ae0578181015183820152602001610ac8565b506122408282856144b1565b6040805180820190915260138152600080516020615d7e83398151915260208201529015156122b45760405160e560020a62461bcd02815260040180806020018281038252838181518152602001915080519060200190808383600083811015610ae0578181015183820152602001610ac8565b50611734838383614730565b604080516000808252602082019092527f2044e56de223845e4be7d0a6f4e9a29b635547f16413a6d1327c58d9db438ee291612300913391849190610a65565b60408051808201909152600f8152600080516020615cbe83398151915260208201529015156123745760405160e560020a62461bcd02815260040180806020018281038252838181518152602001915080519060200190808383600083811015610ae0578181015183820152602001610ac8565b5061237e8261395b565b60408051808201909152601d8152600080516020615d3e83398151915260208201529015156123f25760405160e560020a62461bcd02815260040180806020018281038252838181518152602001915080519060200190808383600083811015610ae0578181015183820152602001610ac8565b50610bb582614892565b600a5481565b600080600061241084611e44565b60408051808201909152601281527f5245434f5645525f444953414c4c4f574544000000000000000000000000000060208201529015156124965760405160e560020a62461bcd02815260040180806020018281038252838181518152602001915080519060200190808383600083811015610ae0578181015183820152602001610ac8565b5061249f611044565b92506124aa8361490f565b60408051808201909152601a81527f5245434f5645525f5641554c545f4e4f545f434f4e545241435400000000000060208201529015156125305760405160e560020a62461bcd02815260040180806020018281038252838181518152602001915080519060200190808383600083811015610ae0578181015183820152602001610ac8565b50600160a060020a03841615156125815760405130319250600160a060020a0384169083156108fc029084906000818181858888f1935050505015801561257b573d6000803e3d6000fd5b50612640565b508261259c600160a060020a0382163063ffffffff61493c16565b91506125b8600160a060020a038216848463ffffffff614a5116565b60408051808201909152601d81527f5245434f5645525f544f4b454e5f5452414e534645525f4641494c4544000000602082015290151561263e5760405160e560020a62461bcd02815260040180806020018281038252838181518152602001915080519060200190808383600083811015610ae0578181015183820152602001610ac8565b505b83600160a060020a031683600160a060020a03167f596caf56044b55fb8c4ca640089bbc2b63cae3e978b851f5745cbb7c5b288e02846040518082815260200191505060405180910390a350505050565b60008061269c610a00565b15156126ab57600091506127d9565b6126b36128f3565b9050600160a060020a03811615156126ce57600091506127d9565b80600160a060020a031663fdef91068630876126e988614adc565b60405160e060020a63ffffffff8716028152600160a060020a03808616600483019081529085166024830152604482018490526080606483019081528351608484015283519192909160a490910190602085019080838360005b8381101561275b578181015183820152602001612743565b50505050905090810190601f1680156127885780820380516001836020036101000a031916815260200191505b5095505050505050602060405180830381600087803b1580156127aa57600080fd5b505af11580156127be573d6000803e3d6000fd5b505050506040513d60208110156127d457600080fd5b505191505b509392505050565b6000806127ec6128f3565b604080517fbe00bbd80000000000000000000000000000000000000000000000000000000081527fd6f028ca0e8edb4a8c9757ca4fdccab25fa1e0317da1188108f7d2dee14902fb60048201527fddbcfd564f642ab5627cf68b9b7d374fb4f8a36e941a75d89c87998cef03bd6160248201529051600160a060020a03929092169163be00bbd8916044808201926020929091908290030181600087803b158015610fbb57600080fd5b7f2044e56de223845e4be7d0a6f4e9a29b635547f16413a6d1327c58d9db438ee281565b60065481565b600354600160a060020a031681565b7fd68ba2b769fa37a2a7bd4bed9241b448bc99eca41f519ef037406386a8f291c081565b6000611e757f4172f0f7d2289153072b0a6ca36959e0cbe2efc3afe50fc81636caa96338137b614179565b604080516000808252602082019092527fbfb76d8d43f55efe58544ea32af187792a7bdb983850d8fed33478266eec3cbb9161295e913391849190610a65565b60408051808201909152600f8152600080516020615cbe83398151915260208201529015156129d25760405160e560020a62461bcd02815260040180806020018281038252838181518152602001915080519060200190808383600083811015610ae0578181015183820152602001610ac8565b506129dc8261490f565b6040805180820190915260128152600080516020615d1e8339815191526020820152901515612a505760405160e560020a62461bcd02815260040180806020018281038252838181518152602001915080519060200190808383600083811015610ae0578181015183820152602001610ac8565b50610bb582614ae6565b612a71600080516020615d5e833981519152614179565b6040805180820190915260198152600080516020615cfe83398151915260208201529015612ae45760405160e560020a62461bcd02815260040180806020018281038252838181518152602001915080519060200190808383600083811015610ae0578181015183820152602001610ac8565b50612b04600080516020615d5e833981519152600163ffffffff61417d16565b612b0c610a00565b6040805180820190915260148152600080516020615d9e8339815191526020820152901515612b805760405160e560020a62461bcd02815260040180806020018281038252838181518152602001915080519060200190808383600083811015610ae0578181015183820152602001610ac8565b50612b8b828261399f565b60408051808201909152601681527f4d4d5f42415443485f4e4f545f43414e43454c4c4544000000000000000000006020820152901515612c115760405160e560020a62461bcd02815260040180806020018281038252838181518152602001915080519060200190808383600083811015610ae0578181015183820152602001610ac8565b50612c1d828285614193565b6040805180820190915260138152600080516020615d7e8339815191526020820152901515612c915760405160e560020a62461bcd02815260040180806020018281038252838181518152602001915080519060200190808383600083811015610ae0578181015183820152602001610ac8565b50611734838383614b3d565b6000600019612caa612052565b14905090565b612cb8612052565b60408051808201909152601881527f494e49545f414c52454144595f494e495449414c495a4544000000000000000060208201529015612d3d5760405160e560020a62461bcd02815260040180806020018281038252838181518152602001915080519060200190808383600083811015610ae0578181015183820152602001610ac8565b50612d46614c72565b612d4f8961490f565b6040805180820190915260128152600080516020615d1e8339815191526020820152901515612dc35760405160e560020a62461bcd02815260040180806020018281038252838181518152602001915080519060200190808383600083811015610ae0578181015183820152602001610ac8565b50612dcd8861490f565b6040805180820190915260128152600080516020615d1e8339815191526020820152901515612e415760405160e560020a62461bcd02815260040180806020018281038252838181518152602001915080519060200190808383600083811015610ae0578181015183820152602001610ac8565b50612e4b8761490f565b6040805180820190915260128152600080516020615d1e8339815191526020820152901515612ebf5760405160e560020a62461bcd02815260040180806020018281038252838181518152602001915080519060200190808383600083811015610ae0578181015183820152602001610ac8565b50612ec98661490f565b6040805180820190915260128152600080516020615d1e8339815191526020820152901515612f3d5760405160e560020a62461bcd02815260040180806020018281038252838181518152602001915080519060200190808383600083811015610ae0578181015183820152602001610ac8565b50612f478561490f565b6040805180820190915260128152600080516020615d1e8339815191526020820152901515612fbb5760405160e560020a62461bcd02815260040180806020018281038252838181518152602001915080519060200190808383600083811015610ae0578181015183820152602001610ac8565b50612fc5846138f6565b60408051808201909152601681527f4d4d5f494e56414c49445f42454e454649434941525900000000000000000000602082015290151561304b5760405160e560020a62461bcd02815260040180806020018281038252838181518152602001915080519060200190808383600083811015610ae0578181015183820152602001610ac8565b5060408051808201909152601781527f4d4d5f494e56414c49445f42415443485f424c4f434b530000000000000000006020820152600084116130d35760405160e560020a62461bcd02815260040180806020018281038252838181518152602001915080519060200190808383600083811015610ae0578181015183820152602001610ac8565b506130dd8261445b565b80156130ed57506130ed8161445b565b60408051808201909152601581527f4d4d5f494e56414c49445f50455243454e54414745000000000000000000000060208201529015156131735760405160e560020a62461bcd02815260040180806020018281038252838181518152602001915080519060200190808383600083811015610ae0578181015183820152602001610ac8565b5061317d87614d3a565b60408051808201909152601581527f4d4d5f494e56414c49445f544d5f53455454494e47000000000000000000000060208201529015156132035760405160e560020a62461bcd02815260040180806020018281038252838181518152602001915080519060200190808383600083811015610ae0578181015183820152602001610ac8565b5060008054600160a060020a03808b1673ffffffffffffffffffffffffffffffffffffffff19928316178355600180548b831693169290921791829055604080517ffc0c546a0000000000000000000000000000000000000000000000000000000081529051929091169263fc0c546a926004808401936020939083900390910190829087803b15801561329657600080fd5b505af11580156132aa573d6000803e3d6000fd5b505050506040513d60208110156132c057600080fd5b50516002805473ffffffffffffffffffffffffffffffffffffffff19908116600160a060020a03938416179091556005805482168984161790556003805482168884161790556004805490911691861691909117905560068390556007829055600881905561332e89614db0565b505050505050505050565b6000613343610a00565b6040805180820190915260148152600080516020615d9e83398151915260208201529015156133b75760405160e560020a62461bcd02815260040180806020018281038252838181518152602001915080519060200190808383600083811015610ae0578181015183820152602001610ac8565b50611e75613979565b600c602052600090815260409020805460018201546002830154600384015460049094015460ff909316939192909163ffffffff169085565b60008060008060008061340a610a00565b6040805180820190915260148152600080516020615d9e833981519152602082015290151561347e5760405160e560020a62461bcd02815260040180806020018281038252838181518152602001915080519060200190808383600083811015610ae0578181015183820152602001610ac8565b50505050600160a060020a03939093166000908152600c60205260409020805460018201546002830154600384015460049094015460ff90931697919650945063ffffffff909216925090565b600054600160a060020a031681565b60075481565b600254600160a060020a031681565b670de0b6b3a764000081565b604080516000808252602082019092527fefa06053e2ca99a43c97c4a4f3d8a394ee3323a8ff237e625fba09fe30ceb0a49161353b913391849190610a65565b60408051808201909152600f8152600080516020615cbe83398151915260208201529015156135af5760405160e560020a62461bcd02815260040180806020018281038252838181518152602001915080519060200190808383600083811015610ae0578181015183820152602001610ac8565b5060095460408051808201909152600f81527f4d4d5f414c52454144595f4f50454e000000000000000000000000000000000060208201529060ff161561363b5760405160e560020a62461bcd02815260040180806020018281038252838181518152602001915080519060200190808383600083811015610ae0578181015183820152602001610ac8565b50613644614de0565b50565b604080516000808252602082019092527f217b79cb2bc7760defc88529853ef81ab33ae5bb315408ce9f5af09c8776662d91613687913391849190610a65565b60408051808201909152600f8152600080516020615cbe83398151915260208201529015156136fb5760405160e560020a62461bcd02815260040180806020018281038252838181518152602001915080519060200190808383600083811015610ae0578181015183820152602001610ac8565b506137058661490f565b806137175750600160a060020a038616155b60408051808201909152601581527f4d4d5f494e56414c49445f434f4c4c41544552414c0000000000000000000000602082015290151561379d5760405160e560020a62461bcd02815260040180806020018281038252838181518152602001915080519060200190808383600083811015610ae0578181015183820152602001610ac8565b506137a78661395b565b60408051606081018252602181527f4d4d5f434f4c4c41544552414c5f414c52454144595f57484954454c4953544560208201527f44000000000000000000000000000000000000000000000000000000000000009181019190915290156138545760405160e560020a62461bcd02815260040180806020018281038252838181518152602001915080519060200190808383600083811015610ae0578181015183820152602001610ac8565b5061385e83614684565b60408051808201909152601881527f4d4d5f494e56414c49445f524553455256455f524154494f000000000000000060208201529015156138e45760405160e560020a62461bcd02815260040180806020018281038252838181518152602001915080519060200190808383600083811015610ae0578181015183820152602001610ac8565b5061204a8686868686614e18565b4390565b600160a060020a0316151590565b6004805473ffffffffffffffffffffffffffffffffffffffff1916600160a060020a0383169081179091556040517fe6131a64e93e9aa4ff38892c34d563c06dcc1e03b3d6897cc65f0903e2ad684890600090a250565b600160a060020a03166000908152600c602052604090205460ff1690565b600654600090611e7590613993438263ffffffff614eb916565b9063ffffffff614f5e16565b6000918252600d60209081526040808420600160a060020a0393909316845260059092019052902054610100900460ff1690565b60008115801590611e3d5750600154604080517f0f8f8b83000000000000000000000000000000000000000000000000000000008152600160a060020a038681166004830152915185939290921691630f8f8b83916024808201926020929091908290030181600087803b158015613a4a57600080fd5b505af1158015613a5e573d6000803e3d6000fd5b505050506040513d6020811015613a7457600080fd5b505110159392505050565b600080600080613a8e86615009565b600154604080517f9dc29fac000000000000000000000000000000000000000000000000000000008152600160a060020a038c81166004830152602482018b905291519498509296501691639dc29fac9160448082019260009290919082900301818387803b158015613b0057600080fd5b505af1158015613b14573d6000803e3d6000fd5b5050506006840154600885015460078601549194509250613b3c91508663ffffffff6153a916565b6007840155600160a060020a0387166000908152600a84016020526040902054613b6c908663ffffffff6153a916565b600160a060020a0388166000908152600a85016020526040902055613b92838588615437565b613bbb8360060154613baf84600a5461575190919063ffffffff16565b9063ffffffff6153a916565b600a556008830154600160a060020a0387166000908152600b6020526040902054613bf19190613baf908463ffffffff61575116565b600160a060020a0387166000908152600b6020526040902055613c1483876157e5565b60408051808201909152601981527f4d4d5f534c4950504147455f455843454544535f4c494d4954000000000000006020820152901515613c9a5760405160e560020a62461bcd02815260040180806020018281038252838181518152602001915080519060200190808383600083811015610ae0578181015183820152602001610ac8565b50613ca48661584f565b60408051808201909152601c81527f4d4d5f494e53554646494349454e545f504f4f4c5f42414c414e4345000000006020820152901515613d2a5760405160e560020a62461bcd02815260040180806020018281038252838181518152602001915080519060200190808383600083811015610ae0578181015183820152602001610ac8565b5085600160a060020a03168488600160a060020a03167f8c103b7b044048ad0382ad31454a2ca34da952258d6526af3a57a9e799cbb7ec886040518082815260200191505060405180910390a450505050505050565b6000821515613d9157506000613efb565b600160a060020a0384161515613daa5750808214613efb565b81158015613e57575060008054604080517ff7888aec000000000000000000000000000000000000000000000000000000008152600160a060020a038981166004830152888116602483015291518794929093169263f7888aec92604480840193602093929083900390910190829087803b158015613e2857600080fd5b505af1158015613e3c573d6000803e3d6000fd5b505050506040513d6020811015613e5257600080fd5b505110155b8015613ef85750604080517fdd62ed3e000000000000000000000000000000000000000000000000000000008152600160a060020a0387811660048301523060248301529151859287169163dd62ed3e9160448083019260209291908290030181600087803b158015613ec957600080fd5b505af1158015613edd573d6000803e3d6000fd5b505050506040513d6020811015613ef357600080fd5b505110155b90505b949350505050565b600080600080600080613f1588615009565b6000828152600d60205260409020600201549197509550613f5790670de0b6b3a764000090613f4b908a9063ffffffff614f5e16565b9063ffffffff614eb916565b9350613f69878563ffffffff61575116565b92506000841115613f8d57600454613f8d908a90600160a060020a03168a87615907565b600354613fa6908a90600160a060020a03168a86615907565b5050600683015460088401546005850154613fc7908463ffffffff6153a916565b6005860155600160a060020a0389166000908152600986016020526040902054613ff7908463ffffffff6153a916565b600160a060020a038a16600090815260098701602052604090205561401d85878a615437565b61403a8560060154613baf84600a5461575190919063ffffffff16565b600a556008850154600160a060020a0389166000908152600b60205260409020546140709190613baf908463ffffffff61575116565b600160a060020a0389166000908152600b602052604090205561409385896157e5565b60408051808201909152601981527f4d4d5f534c4950504147455f455843454544535f4c494d49540000000000000060208201529015156141195760405160e560020a62461bcd02815260040180806020018281038252838181518152602001915080519060200190808383600083811015610ae0578181015183820152602001610ac8565b5087600160a060020a0316868a600160a060020a03167fecab89c21a18231f17bff6027decbe0682bc9916e969562a87781927b18b2e4d8787604051808381526020018281526020019250505060405180910390a4505050505050505050565b5490565b9055565b600061418b613979565b909110919050565b6000928352600d60209081526040808520600160a060020a0394851686526005018252808520929093168452600a90910190528120541190565b6000828152600d60209081526040808320600160a060020a03808616855260059091018352818420600781015460088201549289168652600a8201909452918420549193928392839261422a9291613f4b9163ffffffff614f5e16565b6000878152600d602052604090206003015490935061425e90670de0b6b3a764000090613f4b90869063ffffffff614f5e16565b9150614270838363ffffffff61575116565b600160a060020a0388166000908152600a86016020526040812081905590915081111561436157600160a060020a0385166000908152600b60205260409020546142c0908463ffffffff61575116565b600160a060020a038087166000818152600b60205260408082209490945560035484517fbeabacc800000000000000000000000000000000000000000000000000000000815260048101939093528b84166024840152604483018690529351939092169263beabacc89260648084019391929182900301818387803b15801561434857600080fd5b505af115801561435c573d6000803e3d6000fd5b505050505b60008211156143fe5760035460048054604080517fbeabacc8000000000000000000000000000000000000000000000000000000008152600160a060020a038a81169482019490945291831660248301526044820186905251919092169163beabacc891606480830192600092919082900301818387803b1580156143e557600080fd5b505af11580156143f9573d6000803e3d6000fd5b505050505b84600160a060020a03168688600160a060020a03167f0eca047a22717e04fff16b883e2490c1490c953ec49bf7af9270fffddd8b53028585604051808381526020018281526020019250505060405180910390a450505050505050565b670de0b6b3a76400001190565b60078290556008819055604080518381526020810183905281517f53482196ef67ac615caab1c3eca2c270acbfdcd75e57c5f24c1b98b10c8e6e04929181900390910190a15050565b6000928352600d60209081526040808520600160a060020a0394851686526005018252808520929093168452600990910190528120541190565b6000828152600d60209081526040808320600160a060020a0380861685526005918201845282852091820154600683015491891686526009830190945291842054909392614544929091613f4b9163ffffffff614f5e16565b600160a060020a0386166000908152600984016020526040812081905590915081111561460857600a5461457e908263ffffffff61575116565b600a55600154604080517f40c10f19000000000000000000000000000000000000000000000000000000008152600160a060020a03888116600483015260248201859052915191909216916340c10f1991604480830192600092919082900301818387803b1580156145ef57600080fd5b505af1158015614603573d6000803e3d6000fd5b505050505b82600160a060020a03168486600160a060020a03167f1d3062ef0b6bc8ec6a09d7a72a4f2f8c332a0a1055605166c7ae24592c33a50b846040518082815260200191505060405180910390a45050505050565b6000611e3a6146738563ffffffff80861690614f5e16565b613f4b85613993620f424080614f5e565b620f424063ffffffff82161115919050565b600160a060020a0385166000818152600c6020908152604091829020600181018890556002810187905560038101805463ffffffff881663ffffffff19909116811790915560049091018590558251888152918201879052818301526060810184905290517f1b8a18e7f392180ec571af2dd1c185cbc26951042ba1f62e87db979ee7643a2c9181900360800190a25050505050565b5490565b6000828152600d60209081526040808320600160a060020a038086168552600590910183528184209087168452600981019092528220805490839055909181111561483f57600160a060020a0383166000908152600b602052604090205461479e908263ffffffff61575116565b600160a060020a038085166000818152600b60205260408082209490945560035484517fbeabacc800000000000000000000000000000000000000000000000000000000815260048101939093528984166024840152604483018690529351939092169263beabacc89260648084019391929182900301818387803b15801561482657600080fd5b505af115801561483a573d6000803e3d6000fd5b505050505b82600160a060020a03168486600160a060020a03167feb3996b71a45309a78196a4ec37faf4860dccc26536b7f6232e078b47baf2cb8846040518082815260200191505060405180910390a45050505050565b600061489d826159fb565b50600160a060020a0381166000818152600c6020526040808220805460ff19168155600181018390556002810183905560038101805463ffffffff191690556004810183905590519092917fef578b3b1649eb50cb7766e79f596caa69b7de7e3fef0c0f4e678976a5d51e1591a25050565b600080600160a060020a038316151561492b5760009150614936565b823b90506000811191505b50919050565b60408051600160a060020a0383166024808301919091528251808303909101815260449091019091526020810180517bffffffffffffffffffffffffffffffffffffffffffffffffffffffff167f70a082310000000000000000000000000000000000000000000000000000000017905260009081806149bc8684615ad2565b60408051808201909152601c81527f534146455f4552435f32305f42414c414e43455f52455645525445440000000060208201529193509150821515614a475760405160e560020a62461bcd02815260040180806020018281038252838181518152602001915080519060200190808383600083811015610ae0578181015183820152602001610ac8565b5095945050505050565b60408051600160a060020a038416602482015260448082018490528251808303909101815260649091019091526020810180517bffffffffffffffffffffffffffffffffffffffffffffffffffffffff167fa9059cbb00000000000000000000000000000000000000000000000000000000179052600090614ad38582615b03565b95945050505050565b8051602002815290565b6005805473ffffffffffffffffffffffffffffffffffffffff1916600160a060020a0383169081179091556040517f050a79a49cc1dc3aeeccd8636685ad0469db41a9bd51254a34fc1cf616693d4190600090a250565b6000828152600d60209081526040808320600160a060020a038086168552600590910183528184209087168452600a810190925282208054908390559091811115614c1f57600a54614b95908263ffffffff61575116565b600a55600154604080517f40c10f19000000000000000000000000000000000000000000000000000000008152600160a060020a03888116600483015260248201859052915191909216916340c10f1991604480830192600092919082900301818387803b158015614c0657600080fd5b505af1158015614c1a573d6000803e3d6000fd5b505050505b82600160a060020a03168486600160a060020a03167f27335af9c3970a20380b78bda3af53f3ff8ad00e68ec511285c933afe4d42dd7846040518082815260200191505060405180910390a45050505050565b614c7a612052565b60408051808201909152601881527f494e49545f414c52454144595f494e495449414c495a4544000000000000000060208201529015614cff5760405160e560020a62461bcd02815260040180806020018281038252838181518152602001915080519060200190808383600083811015610ae0578181015183820152602001610ac8565b50614d38614d0b6138f2565b7febb05b386a8d34882b8711d156f463690983dc47815980fb82aeeff1aa43579e9063ffffffff61417d16565b565b600060001982600160a060020a031663ecfda4326040518163ffffffff1660e060020a028152600401602060405180830381600087803b158015614d7d57600080fd5b505af1158015614d91573d6000803e3d6000fd5b505050506040513d6020811015614da757600080fd5b50511492915050565b6136447f4172f0f7d2289153072b0a6ca36959e0cbe2efc3afe50fc81636caa96338137b8263ffffffff61417d16565b6009805460ff191660011790556040517f59ebeb90bc63057b6515673c3ecf9438e5058bca0f92585014eced636878c9a590600090a1565b600160a060020a0385166000818152600c6020908152604091829020805460ff19166001908117825581018890556002810187905560038101805463ffffffff881663ffffffff19909116811790915560049091018590558251888152918201879052818301526060810184905290517f769df79ace8fd94960b301fa390e66bcd330b25e4a6001f7107540a6d5e55eed9181900360800190a25050505050565b60408051808201909152600d81527f4d4154485f4449565f5a45524f0000000000000000000000000000000000000060208201526000908190818411614f445760405160e560020a62461bcd02815260040180806020018281038252838181518152602001915080519060200190808383600083811015610ae0578181015183820152602001610ac8565b508284811515614f5057fe5b0490508091505b5092915050565b600080831515614f715760009150614f57565b50828202828482811515614f8157fe5b60408051808201909152601181527f4d4154485f4d554c5f4f564552464c4f57000000000000000000000000000000602082015292919004146127d95760405160e560020a62461bcd02815260040180806020018281038252838181518152602001915080519060200190808383600083811015610ae0578181015183820152602001610ac8565b6000806000806000615019613979565b6000818152600d60209081526040808320600160a060020a038b168452600581019092529091208154929550909350915060ff16151561519557600a54600254604080517f18160ddd00000000000000000000000000000000000000000000000000000000815290516150f09392600160a060020a0316916318160ddd9160048083019260209291908290030181600087803b1580156150b857600080fd5b505af11580156150cc573d6000803e3d6000fd5b505050506040513d60208110156150e257600080fd5b50519063ffffffff6153a916565b6001808401829055600754600285018190556008546003860181905560055460048701805473ffffffffffffffffffffffffffffffffffffffff1916600160a060020a039283161790819055875460ff19169094178755604080519586526020860193909352848301919091529190911660608301525184917f78ac2fc513d7c0ec8ae43a339f0da247ef78f9db22b6d6769163943f05c1a7fe919081900360800190a25b805460ff16151561539d5760008054604080517f846a0a89000000000000000000000000000000000000000000000000000000008152600160a060020a038a811660048301529151919092169263846a0a89926024808201939182900301818387803b15801561520457600080fd5b505af1158015615218573d6000803e3d6000fd5b50505050600160a060020a0386166000908152600c6020526040902060019081015490830154615247916153a9565b6001820155600160a060020a038087166000818152600b6020908152604080832054600c835281842060020154845460035484517ff7888aec0000000000000000000000000000000000000000000000000000000081529089166004820152602481019790975292516152f39792966152e7969295949093169363f7888aec93604480820194929392918390030190829087803b1580156150b857600080fd5b9063ffffffff61575116565b60028201819055600160a060020a0387166000818152600c6020908152604091829020600380820154908701805463ffffffff191663ffffffff9283161790819055600492830154928801839055875460ff1916600190811789558801548551908152938401969096529490941681830152606081019390935251909185917f4bdd04ed9d5392ce48b8fc80abc6fdc0916ce12072be2d571c2d482416349a389181900360800190a35b91959194509092505050565b60408051808201909152601181527f4d4154485f4144445f4f564552464c4f57000000000000000000000000000000602082015260009083830190848210156127d95760405160e560020a62461bcd02815260040180806020018281038252838181518152602001915080519060200190808383600083811015610ae0578181015183820152602001610ac8565b60008060008060008061546789600101548a600201548b60030160009054906101000a900463ffffffff1661465b565b60078a015490965061548290620f424090613f4b9089614f5e565b945088600501548511156155c55760058901546154a8908790613f4b90620f4240614f5e565b60068a0181905560078a01546154c39163ffffffff61575116565b9350600d600089815260200190815260200160002060040160009054906101000a9004600160a060020a0316600160a060020a03166349f9b0f78a600101548b600201548c60030160009054906101000a900463ffffffff16886040518563ffffffff1660e060020a028152600401808581526020018481526020018363ffffffff1663ffffffff168152602001828152602001945050505050602060405180830381600087803b15801561557757600080fd5b505af115801561558b573d6000803e3d6000fd5b505050506040513d60208110156155a157600080fd5b505160058a01549093506155bb908463ffffffff6153a916565b60088a01556156df565b6008890185905560058901546155e1908663ffffffff61575116565b9150600d600089815260200190815260200160002060040160009054906101000a9004600160a060020a0316600160a060020a03166329a00e7c8a600101548b600201548c60030160009054906101000a900463ffffffff16866040518563ffffffff1660e060020a028152600401808581526020018481526020018363ffffffff1663ffffffff168152602001828152602001945050505050602060405180830381600087803b15801561569557600080fd5b505af11580156156a9573d6000803e3d6000fd5b505050506040513d60208110156156bf57600080fd5b505160078a01549091506156d9908263ffffffff6153a916565b60068a01555b600589015460068a015460078b015460088c015460408051948552602085019390935283830191909152606083015251600160a060020a038916918a917f365713522b06a53828592398186ff46abd75365ace3b70c1fad31872ae5da2229181900360800190a3505050505050505050565b60408051808201909152601281527f4d4154485f5355425f554e444552464c4f57000000000000000000000000000060208201526000908190848411156157dd5760405160e560020a62461bcd02815260040180806020018281038252838181518152602001915080519060200190808383600083811015610ae0578181015183820152602001610ac8565b505050900390565b6001820154600283015460038401546000928392839261580c92919063ffffffff1661465b565b91508460040154905081600014156158275760019250615847565b615832858383615b55565b80156158445750615844858383615bbf565b92505b505092915050565b600160a060020a038082166000818152600b6020908152604080832054835460035483517ff7888aec0000000000000000000000000000000000000000000000000000000081529088166004820152602481019690965291519395909491169263f7888aec9260448084019391929182900301818887803b1580156158d357600080fd5b505af11580156158e7573d6000803e3d6000fd5b505050506040513d60208110156158fd57600080fd5b5051101592915050565b600160a060020a038216151561595357604051600160a060020a0384169082156108fc029083906000818181858888f1935050505015801561594d573d6000803e3d6000fd5b50610ec5565b61596e600160a060020a03831685858463ffffffff615c2916565b60408051808201909152601781527f4d4d5f5452414e534645525f46524f4d5f4641494c454400000000000000000060208201529015156159f45760405160e560020a62461bcd02815260040180806020018281038252838181518152602001915080519060200190808383600083811015610ae0578181015183820152602001610ac8565b5050505050565b600080615a0783615009565b80549193509150610100900460ff16151561175357805461ff00191661010017815560078101546006820154600a54615a4b9291613baf919063ffffffff61575116565b600a5560088101546005820154600160a060020a0385166000908152600b6020526040902054615a8692916152e7919063ffffffff6153a916565b600160a060020a0384166000818152600b6020526040808220939093559151909184917f75fe92dc34008d900951376546f4b5a99223fe53a5241a96516002ad912029e19190a3505050565b6000806000806040516020818751602089018a5afa92506000831115615af757805191505b50909590945092505050565b6000806040516020818551602087016000895af16000811115615b47573d8015615b345760208114615b3d57615b45565b60019350615b45565b600183511493505b505b5090949350505050565b9055565b6005830154600090615b7890620f42409061399390670de0b6b3a7640000614f5e565b615ba8615b93670de0b6b3a76400008563ffffffff6153a916565b6006870154613993908763ffffffff614f5e16565b10615bb557506001611e3d565b5060009392505050565b6000670de0b6b3a76400008210615bd857506001611e3d565b6007840154615c0990613993615bfc670de0b6b3a76400008663ffffffff61575116565b869063ffffffff614f5e16565b6008850154615ba890620f42409061399390670de0b6b3a7640000614f5e565b60408051600160a060020a0385811660248301528416604482015260648082018490528251808303909101815260849091019091526020810180517bffffffffffffffffffffffffffffffffffffffffffffffffffffffff167f23b872dd00000000000000000000000000000000000000000000000000000000179052600090615cb38682615b03565b969550505050505056004150505f415554485f4641494c454400000000000000000000000000000000004d4d5f42415443485f43414e43454c4c454400000000000000000000000000005245454e5452414e43595f5245454e5452414e545f43414c4c000000000000004d4d5f434f4e54524143545f49535f454f4100000000000000000000000000004d4d5f434f4c4c41544552414c5f4e4f545f57484954454c4953544544000000e855346402235fdd185c890e68d2c4ecad599b88587635ee285bce2fda58dacb4d4d5f4e4f5448494e475f544f5f434c41494d00000000000000000000000000494e49545f4e4f545f494e495449414c495a4544000000000000000000000000a165627a7a723058200b2660878501cbbf1ef8740b044cbd7ab3f944a355f9ac47c88ba31caa2bf0570029ebb05b386a8d34882b8711d156f463690983dc47815980fb82aeeff1aa43579e",
  "devdoc": {
    "methods": {
      "addCollateralToken(address,uint256,uint256,uint32,uint256)": {
        "params": {
          "_collateral": "The address of the collateral token to be whitelisted",
          "_reserveRatio": "The reserve ratio to be used for that collateral token [in PPM]",
          "_slippage": "The price slippage below which each batch is to be kept for that collateral token [in PCT_BASE]",
          "_virtualBalance": "The virtual balance to be used for that collateral token [in wei]",
          "_virtualSupply": "The virtual supply to be used for that collateral token [in wei]"
        }
      },
      "allowRecoverability(address)": {
        "details": "By default deriving from AragonApp makes it recoverable",
        "params": {
          "token": "Token address that would be recovered"
        },
        "return": "bool whether the app allows the recovery"
      },
      "canPerform(address,bytes32,uint256[])": {
        "details": "Check whether an action can be performed by a sender for a particular role on this app",
        "params": {
          "_params": "Permission params for the role",
          "_role": "Role on this app",
          "_sender": "Sender of the call"
        },
        "return": "Boolean indicating whether the sender has the permissions to perform the action.        Always returns false if the app hasn't been initialized yet."
      },
      "claimBuyOrder(address,uint256,address)": {
        "params": {
          "_batchId": "The id of the batch in which buy orders are to be claimed",
          "_buyer": "The address of the user whose buy orders are to be claimed",
          "_collateral": "The address of the collateral token against which buy orders are to be claimed"
        }
      },
      "claimCancelledBuyOrder(address,uint256,address)": {
        "params": {
          "_batchId": "The id of the batch in which cancelled buy orders are to be claimed",
          "_buyer": "The address of the user whose cancelled buy orders are to be claimed",
          "_collateral": "The address of the collateral token against which cancelled buy orders are to be claimed"
        }
      },
      "claimCancelledSellOrder(address,uint256,address)": {
        "params": {
          "_batchId": "The id of the batch in which cancelled sell orders are to be claimed",
          "_collateral": "The address of the collateral token against which cancelled sell orders are to be claimed",
          "_seller": "The address of the user whose cancelled sell orders are to be claimed"
        }
      },
      "claimSellOrder(address,uint256,address)": {
        "params": {
          "_batchId": "The id of the batch in which sell orders are to be claimed",
          "_collateral": "The address of the collateral token against which sell orders are to be claimed",
          "_seller": "The address of the user whose sell orders are to be claimed"
        }
      },
      "getInitializationBlock()": {
        "return": "Block number in which the contract was initialized"
      },
      "getRecoveryVault()": {
        "details": "Get the recovery vault for the app",
        "return": "Recovery vault address for the app"
      },
      "hasInitialized()": {
        "return": "Whether the contract has been initialized by the time of the current block"
      },
      "initialize(address,address,address,address,address,address,uint256,uint256,uint256)": {
        "params": {
          "_batchBlocks": "The number of blocks batches are to last",
          "_beneficiary": "The address of the beneficiary [to whom fees are to be sent]",
          "_buyFeePct": "The fee to be deducted from buy orders [in PCT_BASE]",
          "_controller": "The address of the controller contract",
          "_formula": "The address of the BancorFormula [computation] contract",
          "_reserve": "The address of the reserve [pool] contract",
          "_sellFeePct": "The fee to be deducted from sell orders [in PCT_BASE]",
          "_tokenManager": "The address of the [bonded token] token manager contract"
        }
      },
      "openBuyOrder(address,address,uint256)": {
        "params": {
          "_buyer": "The address of the buyer",
          "_collateral": "The address of the collateral token to be spent",
          "_value": "The amount of collateral token to be spent"
        }
      },
      "openSellOrder(address,address,uint256)": {
        "params": {
          "_amount": "The amount of bonded token to be spent",
          "_collateral": "The address of the collateral token to be returned",
          "_seller": "The address of the seller"
        }
      },
      "removeCollateralToken(address)": {
        "params": {
          "_collateral": "The address of the collateral token to be un-whitelisted"
        }
      },
      "transferToVault(address)": {
        "params": {
          "_token": "Token balance to be sent to recovery vault."
        }
      },
      "updateBeneficiary(address)": {
        "params": {
          "_beneficiary": "The address of the new beneficiary [to whom fees are to be sent]"
        }
      },
      "updateCollateralToken(address,uint256,uint256,uint32,uint256)": {
        "params": {
          "_collateral": "The address of the collateral token whose collateralization settings are to be updated",
          "_reserveRatio": "The new reserve ratio to be used for that collateral token [in PPM]",
          "_slippage": "The new price slippage below which each batch is to be kept for that collateral token [in PCT_BASE]",
          "_virtualBalance": "The new virtual balance to be used for that collateral token [in wei]",
          "_virtualSupply": "The new virtual supply to be used for that collateral token [in wei]"
        }
      },
      "updateFees(uint256,uint256)": {
        "params": {
          "_buyFeePct": "The new fee to be deducted from buy orders [in PCT_BASE]",
          "_sellFeePct": "The new fee to be deducted from sell orders [in PCT_BASE]"
        }
      },
      "updateFormula(address)": {
        "params": {
          "_formula": "The address of the new BancorFormula [computation] contract"
        }
      }
    }
  },
  "userdoc": {
    "methods": {
      "addCollateralToken(address,uint256,uint256,uint32,uint256)": {
        "notice": "Add `_collateral.symbol(): string` as a whitelisted collateral token"
      },
      "claimBuyOrder(address,uint256,address)": {
        "notice": "Claim the results of `_buyer`'s `_collateral.symbol(): string` buy orders from batch #`_batchId`"
      },
      "claimCancelledBuyOrder(address,uint256,address)": {
        "notice": "Claim the investments of `_buyer`'s `_collateral.symbol(): string` buy orders from cancelled batch #`_batchId`"
      },
      "claimCancelledSellOrder(address,uint256,address)": {
        "notice": "Claim the investments of `_seller`'s `_collateral.symbol(): string` sell orders from cancelled batch #`_batchId`"
      },
      "claimSellOrder(address,uint256,address)": {
        "notice": "Claim the results of `_seller`'s `_collateral.symbol(): string` sell orders from batch #`_batchId`"
      },
      "getCurrentBatchId()": {
        "notice": "*** public view functions ****"
      },
      "initialize(address,address,address,address,address,address,uint256,uint256,uint256)": {
        "notice": "Initialize market maker"
      },
      "open()": {
        "notice": "Open market making [enabling users to open buy and sell orders]"
      },
      "openBuyOrder(address,address,uint256)": {
        "notice": "Open a buy order worth `@tokenAmount(_collateral, _value)`"
      },
      "openSellOrder(address,address,uint256)": {
        "notice": "Open a sell order worth `@tokenAmount(self.token(): address, _amount)` against `_collateral.symbol(): string`"
      },
      "removeCollateralToken(address)": {
        "notice": "Remove `_collateral.symbol(): string` as a whitelisted collateral token"
      },
      "transferToVault(address)": {
        "notice": "Send funds to recovery Vault. This contract should never receive funds,        but in case it does, this function allows one to recover them."
      },
      "updateBeneficiary(address)": {
        "notice": "Update beneficiary to `_beneficiary`"
      },
      "updateCollateralToken(address,uint256,uint256,uint32,uint256)": {
        "notice": "Update `_collateral.symbol(): string` collateralization settings"
      },
      "updateFees(uint256,uint256)": {
        "notice": "Update fees deducted from buy and sell orders to respectively `@formatPct(_buyFeePct)`% and `@formatPct(_sellFeePct)`%"
      },
      "updateFormula(address)": {
        "notice": "Update formula to `_formula`"
      }
    }
  }
}