{
  "address": "0xfA1fCaa199b02235dE2Be7Bf17fd174cc72f1D60",
  "abi": [
    {
      "constant": true,
      "inputs": [],
      "name": "hasInitialized",
      "outputs": [
        {
          "name": "",
          "type": "bool"
        }
      ],
      "payable": false,
      "stateMutability": "view",
      "type": "function"
    },
    {
      "constant": true,
      "inputs": [],
      "name": "PPM",
      "outputs": [
        {
          "name": "",
          "type": "uint256"
        }
      ],
      "payable": false,
      "stateMutability": "view",
      "type": "function"
    },
    {
      "constant": false,
      "inputs": [
        {
          "name": "_kernel",
          "type": "address"
        },
        {
          "name": "_controller",
          "type": "address"
        },
        {
          "name": "_marketMaker",
          "type": "address"
        },
        {
          "name": "_bondedToken",
          "type": "address"
        },
        {
          "name": "_reserve",
          "type": "address"
        },
        {
          "name": "_beneficiary",
          "type": "address"
        },
        {
          "name": "_erc20ContribToken",
          "type": "address"
        },
        {
          "name": "_period",
          "type": "uint64"
        },
        {
          "name": "_exchangeRate",
          "type": "uint256"
        },
        {
          "name": "_mintingForBeneficiaryPct",
          "type": "uint256"
        },
        {
          "name": "_openDate",
          "type": "uint64"
        }
      ],
      "name": "initialize",
      "outputs": [],
      "payable": false,
      "stateMutability": "nonpayable",
      "type": "function"
    },
    {
      "constant": true,
      "inputs": [],
      "name": "marketMaker",
      "outputs": [
        {
          "name": "",
          "type": "address"
        }
      ],
      "payable": false,
      "stateMutability": "view",
      "type": "function"
    },
    {
      "constant": true,
      "inputs": [
        {
          "name": "_script",
          "type": "bytes"
        }
      ],
      "name": "getEVMScriptExecutor",
      "outputs": [
        {
          "name": "",
          "type": "address"
        }
      ],
      "payable": false,
      "stateMutability": "view",
      "type": "function"
    },
    {
      "constant": false,
      "inputs": [
        {
          "name": "_period",
          "type": "uint64"
        }
      ],
      "name": "setPeriod",
      "outputs": [],
      "payable": false,
      "stateMutability": "nonpayable",
      "type": "function"
    },
    {
      "constant": true,
      "inputs": [],
      "name": "getRecoveryVault",
      "outputs": [
        {
          "name": "",
          "type": "address"
        }
      ],
      "payable": false,
      "stateMutability": "view",
      "type": "function"
    },
    {
      "constant": true,
      "inputs": [],
      "name": "beneficiary",
      "outputs": [
        {
          "name": "",
          "type": "address"
        }
      ],
      "payable": false,
      "stateMutability": "view",
      "type": "function"
    },
    {
      "constant": true,
      "inputs": [],
      "name": "exchangeRate",
      "outputs": [
        {
          "name": "",
          "type": "uint256"
        }
      ],
      "payable": false,
      "stateMutability": "view",
      "type": "function"
    },
    {
      "constant": false,
      "inputs": [
        {
          "name": "",
          "type": "address"
        },
        {
          "name": "",
          "type": "uint256"
        }
      ],
      "name": "refund",
      "outputs": [],
      "payable": false,
      "stateMutability": "nonpayable",
      "type": "function"
    },
    {
      "constant": false,
      "inputs": [],
      "name": "close",
      "outputs": [],
      "payable": false,
      "stateMutability": "nonpayable",
      "type": "function"
    },
    {
      "constant": false,
      "inputs": [
        {
          "name": "_date",
          "type": "uint64"
        }
      ],
      "name": "setOpenDate",
      "outputs": [],
      "payable": false,
      "stateMutability": "nonpayable",
      "type": "function"
    },
    {
      "constant": true,
      "inputs": [],
      "name": "contributionToken",
      "outputs": [
        {
          "name": "",
          "type": "address"
        }
      ],
      "payable": false,
      "stateMutability": "view",
      "type": "function"
    },
    {
      "constant": true,
      "inputs": [],
      "name": "mintingForBeneficiaryPct",
      "outputs": [
        {
          "name": "",
          "type": "uint256"
        }
      ],
      "payable": false,
      "stateMutability": "view",
      "type": "function"
    },
    {
      "constant": true,
      "inputs": [],
      "name": "OPEN_ROLE",
      "outputs": [
        {
          "name": "",
          "type": "bytes32"
        }
      ],
      "payable": false,
      "stateMutability": "view",
      "type": "function"
    },
    {
      "constant": true,
      "inputs": [],
      "name": "REDUCE_BENEFICIARY_PCT_ROLE",
      "outputs": [
        {
          "name": "",
          "type": "bytes32"
        }
      ],
      "payable": false,
      "stateMutability": "view",
      "type": "function"
    },
    {
      "constant": true,
      "inputs": [
        {
          "name": "token",
          "type": "address"
        }
      ],
      "name": "allowRecoverability",
      "outputs": [
        {
          "name": "",
          "type": "bool"
        }
      ],
      "payable": false,
      "stateMutability": "view",
      "type": "function"
    },
    {
      "constant": true,
      "inputs": [],
      "name": "appId",
      "outputs": [
        {
          "name": "",
          "type": "bytes32"
        }
      ],
      "payable": false,
      "stateMutability": "view",
      "type": "function"
    },
    {
      "constant": false,
      "inputs": [
        {
          "name": "_contributor",
          "type": "address"
        },
        {
          "name": "_value",
          "type": "uint256"
        }
      ],
      "name": "contribute",
      "outputs": [],
      "payable": true,
      "stateMutability": "payable",
      "type": "function"
    },
    {
      "constant": true,
      "inputs": [],
      "name": "getInitializationBlock",
      "outputs": [
        {
          "name": "",
          "type": "uint256"
        }
      ],
      "payable": false,
      "stateMutability": "view",
      "type": "function"
    },
    {
      "constant": true,
      "inputs": [],
      "name": "totalSold",
      "outputs": [
        {
          "name": "",
          "type": "uint256"
        }
      ],
      "payable": false,
      "stateMutability": "view",
      "type": "function"
    },
    {
      "constant": false,
      "inputs": [
        {
          "name": "_timestamp",
          "type": "uint64"
        }
      ],
      "name": "setTimestamp",
      "outputs": [],
      "payable": false,
      "stateMutability": "nonpayable",
      "type": "function"
    },
    {
      "constant": true,
      "inputs": [
        {
          "name": "_value",
          "type": "uint256"
        }
      ],
      "name": "contributionToTokens",
      "outputs": [
        {
          "name": "",
          "type": "uint256"
        }
      ],
      "payable": false,
      "stateMutability": "view",
      "type": "function"
    },
    {
      "constant": false,
      "inputs": [
        {
          "name": "_token",
          "type": "address"
        }
      ],
      "name": "transferToVault",
      "outputs": [],
      "payable": false,
      "stateMutability": "nonpayable",
      "type": "function"
    },
    {
      "constant": true,
      "inputs": [
        {
          "name": "_sender",
          "type": "address"
        },
        {
          "name": "_role",
          "type": "bytes32"
        },
        {
          "name": "_params",
          "type": "uint256[]"
        }
      ],
      "name": "canPerform",
      "outputs": [
        {
          "name": "",
          "type": "bool"
        }
      ],
      "payable": false,
      "stateMutability": "view",
      "type": "function"
    },
    {
      "constant": true,
      "inputs": [],
      "name": "CONTRIBUTE_ROLE",
      "outputs": [
        {
          "name": "",
          "type": "bytes32"
        }
      ],
      "payable": false,
      "stateMutability": "view",
      "type": "function"
    },
    {
      "constant": true,
      "inputs": [],
      "name": "getEVMScriptRegistry",
      "outputs": [
        {
          "name": "",
          "type": "address"
        }
      ],
      "payable": false,
      "stateMutability": "view",
      "type": "function"
    },
    {
      "constant": false,
      "inputs": [
        {
          "name": "_pct",
          "type": "uint64"
        }
      ],
      "name": "reduceBeneficiaryPct",
      "outputs": [],
      "payable": false,
      "stateMutability": "nonpayable",
      "type": "function"
    },
    {
      "constant": true,
      "inputs": [],
      "name": "timestamp",
      "outputs": [
        {
          "name": "",
          "type": "uint64"
        }
      ],
      "payable": false,
      "stateMutability": "view",
      "type": "function"
    },
    {
      "constant": true,
      "inputs": [],
      "name": "state",
      "outputs": [
        {
          "name": "",
          "type": "uint8"
        }
      ],
      "payable": false,
      "stateMutability": "view",
      "type": "function"
    },
    {
      "constant": true,
      "inputs": [],
      "name": "isClosed",
      "outputs": [
        {
          "name": "",
          "type": "bool"
        }
      ],
      "payable": false,
      "stateMutability": "view",
      "type": "function"
    },
    {
      "constant": true,
      "inputs": [],
      "name": "totalRaised",
      "outputs": [
        {
          "name": "",
          "type": "uint256"
        }
      ],
      "payable": false,
      "stateMutability": "view",
      "type": "function"
    },
    {
      "constant": true,
      "inputs": [],
      "name": "reserve",
      "outputs": [
        {
          "name": "",
          "type": "address"
        }
      ],
      "payable": false,
      "stateMutability": "view",
      "type": "function"
    },
    {
      "constant": true,
      "inputs": [],
      "name": "kernel",
      "outputs": [
        {
          "name": "",
          "type": "address"
        }
      ],
      "payable": false,
      "stateMutability": "view",
      "type": "function"
    },
    {
      "constant": true,
      "inputs": [],
      "name": "isPetrified",
      "outputs": [
        {
          "name": "",
          "type": "bool"
        }
      ],
      "payable": false,
      "stateMutability": "view",
      "type": "function"
    },
    {
      "constant": true,
      "inputs": [],
      "name": "bondedToken",
      "outputs": [
        {
          "name": "",
          "type": "address"
        }
      ],
      "payable": false,
      "stateMutability": "view",
      "type": "function"
    },
    {
      "constant": true,
      "inputs": [],
      "name": "openDate",
      "outputs": [
        {
          "name": "",
          "type": "uint64"
        }
      ],
      "payable": false,
      "stateMutability": "view",
      "type": "function"
    },
    {
      "constant": true,
      "inputs": [],
      "name": "period",
      "outputs": [
        {
          "name": "",
          "type": "uint64"
        }
      ],
      "payable": false,
      "stateMutability": "view",
      "type": "function"
    },
    {
      "constant": true,
      "inputs": [],
      "name": "controller",
      "outputs": [
        {
          "name": "",
          "type": "address"
        }
      ],
      "payable": false,
      "stateMutability": "view",
      "type": "function"
    },
    {
      "constant": false,
      "inputs": [],
      "name": "open",
      "outputs": [],
      "payable": false,
      "stateMutability": "nonpayable",
      "type": "function"
    },
    {
      "anonymous": false,
      "inputs": [
        {
          "indexed": false,
          "name": "date",
          "type": "uint64"
        }
      ],
      "name": "SetOpenDate",
      "type": "event"
    },
    {
      "anonymous": false,
      "inputs": [
        {
          "indexed": false,
          "name": "pct",
          "type": "uint256"
        }
      ],
      "name": "ReduceBeneficiatyPct",
      "type": "event"
    },
    {
      "anonymous": false,
      "inputs": [],
      "name": "Close",
      "type": "event"
    },
    {
      "anonymous": false,
      "inputs": [
        {
          "indexed": true,
          "name": "contributor",
          "type": "address"
        },
        {
          "indexed": false,
          "name": "value",
          "type": "uint256"
        },
        {
          "indexed": false,
          "name": "amount",
          "type": "uint256"
        }
      ],
      "name": "Contribute",
      "type": "event"
    },
    {
      "anonymous": false,
      "inputs": [
        {
          "indexed": true,
          "name": "executor",
          "type": "address"
        },
        {
          "indexed": false,
          "name": "script",
          "type": "bytes"
        },
        {
          "indexed": false,
          "name": "input",
          "type": "bytes"
        },
        {
          "indexed": false,
          "name": "returnData",
          "type": "bytes"
        }
      ],
      "name": "ScriptResult",
      "type": "event"
    },
    {
      "anonymous": false,
      "inputs": [
        {
          "indexed": true,
          "name": "vault",
          "type": "address"
        },
        {
          "indexed": true,
          "name": "token",
          "type": "address"
        },
        {
          "indexed": false,
          "name": "amount",
          "type": "uint256"
        }
      ],
      "name": "RecoverToVault",
      "type": "event"
    }
  ],
  "transactionHash": "0xd4e795bfcd7badc30de54aaa1c60fbf7568d34b487590e48cbc3d0e647c03c93",
  "args": [],
  "solcInputHash": "7ceb8d61941111021d25844114882b1a",
  "bytecode": "0x60806040526200001764010000000062000047810204565b620000416000805160206200371d833981519152600064010000000062002b616200014f82021704565b62000265565b6200005a64010000000062000153810204565b60408051808201909152601881527f494e49545f414c52454144595f494e495449414c495a454400000000000000006020820152901562000136576040517f08c379a00000000000000000000000000000000000000000000000000000000081526004018080602001828103825283818151815260200191508051906020019080838360005b83811015620000fa578181015183820152602001620000e0565b50505050905090810190601f168015620001285780820380516001836020036101000a031916815260200191505b509250505060405180910390fd5b506200014d60001964010000000062000182810204565b565b9055565b60006200017d6000805160206200371d83398151915264010000000062002b5d6200026182021704565b905090565b6200019564010000000062000153810204565b60408051808201909152601881527f494e49545f414c52454144595f494e495449414c495a454400000000000000006020820152901562000234576040517f08c379a000000000000000000000000000000000000000000000000000000000815260040180806020018281038252838181518152602001915080519060200190808383600083811015620000fa578181015183820152602001620000e0565b506200025e6000805160206200371d8339815191528264010000000062002b616200014f82021704565b50565b5490565b6134a880620002756000396000f3006080604052600436106101d45763ffffffff60e060020a6000350416630803fac081146101d95780630d720bbc1461020257806315168fc3146102295780631f21f9af1461028e5780632914b9bd146102bf578063309cb5ea1461031857806332f0a3b51461033a57806338af3eed1461034f5780633ba0b9a914610364578063410085df1461037957806343d726d61461039d5780634a15fd93146103b25780634bedf9a8146103d4578063542ba298146103e95780636a928e8f146103fe5780637af2b8a0146104135780637e7db6e11461042857806380afdea8146104495780638418cd991461045e5780638b3dd749146104755780639106d7ba1461048a578063920746671461049f57806396330f46146104c15780639d4941d8146104d9578063a1658fad146104fa578063a2b96b6f14610561578063a479e50814610576578063b086d7401461058b578063b80777ea146105ad578063c19d93fb146105df578063c2b6b58c14610618578063c5c4744c1461062d578063cd3293de14610642578063d4aae0c414610657578063de4796ed1461066c578063e36a4ec714610681578063ec8cb28114610696578063ef78d4fd146106ab578063f77c4791146106c0578063fcfff16f146106d5575b600080fd5b3480156101e557600080fd5b506101ee6106ea565b604080519115158252519081900360200190f35b34801561020e57600080fd5b50610217610713565b60408051918252519081900360200190f35b34801561023557600080fd5b5061028c600160a060020a0360043581169060243581169060443581169060643581169060843581169060a43581169060c4351667ffffffffffffffff60e43581169061010435906101243590610144351661071a565b005b34801561029a57600080fd5b506102a3610cc9565b60408051600160a060020a039092168252519081900360200190f35b3480156102cb57600080fd5b506040805160206004803580820135601f81018490048402850184019095528484526102a3943694929360249392840191908190840183828082843750949750610cd89650505050505050565b34801561032457600080fd5b5061028c67ffffffffffffffff60043516610dbe565b34801561034657600080fd5b506102a3610e70565b34801561035b57600080fd5b506102a3610ee9565b34801561037057600080fd5b50610217610ef8565b34801561038557600080fd5b5061028c600160a060020a0360043516602435610efe565b3480156103a957600080fd5b5061028c610ff8565b3480156103be57600080fd5b5061028c67ffffffffffffffff60043516611539565b3480156103e057600080fd5b506102a36115e5565b3480156103f557600080fd5b506102176115f4565b34801561040a57600080fd5b506102176115fa565b34801561041f57600080fd5b5061021761160c565b34801561043457600080fd5b506101ee600160a060020a0360043516611630565b34801561045557600080fd5b50610217611636565b61028c600160a060020a0360043516602435611666565b34801561048157600080fd5b50610217611d05565b34801561049657600080fd5b50610217611d30565b3480156104ab57600080fd5b5061028c67ffffffffffffffff60043516611d36565b3480156104cd57600080fd5b50610217600435611d5a565b3480156104e557600080fd5b5061028c600160a060020a0360043516611e07565b34801561050657600080fd5b5060408051602060046044358181013583810280860185019096528085526101ee958335600160a060020a03169560248035963696956064959394920192918291850190849080828437509497506120969650505050505050565b34801561056d57600080fd5b506102176121e6565b34801561058257600080fd5b506102a361220a565b34801561059757600080fd5b5061028c67ffffffffffffffff600435166122bf565b3480156105b957600080fd5b506105c261244e565b6040805167ffffffffffffffff9092168252519081900360200190f35b3480156105eb57600080fd5b506105f461245e565b6040518082600381111561060457fe5b60ff16815260200191505060405180910390f35b34801561062457600080fd5b506101ee61257c565b34801561063957600080fd5b50610217612591565b34801561064e57600080fd5b506102a3612597565b34801561066357600080fd5b506102a36125a6565b34801561067857600080fd5b506101ee6125d1565b34801561068d57600080fd5b506102a36125e4565b3480156106a257600080fd5b506105c26125f3565b3480156106b757600080fd5b506105c2612603565b3480156106cc57600080fd5b506102a361262b565b3480156106e157600080fd5b5061028c61263a565b6000806106f5611d05565b9050801580159061070d57508061070a6126f0565b10155b91505090565b620f424081565b610722611d05565b60408051808201909152601881527f494e49545f414c52454144595f494e495449414c495a45440000000000000000602082015290156107e35760405160e560020a62461bcd0281526004018080602001828103825283818151815260200191508051906020019080838360005b838110156107a8578181015183820152602001610790565b50505050905090810190601f1680156107d55780820380516001836020036101000a031916815260200191505b509250505060405180910390fd5b506107ed8a6126f4565b60408051808201909152601781526000805160206133fd83398151915260208201529015156108615760405160e560020a62461bcd028152600401808060200182810382528381815181526020019150805190602001908083836000838110156107a8578181015183820152602001610790565b5061086b896126f4565b60408051808201909152601781526000805160206133fd83398151915260208201529015156108df5760405160e560020a62461bcd028152600401808060200182810382528381815181526020019150805190602001908083836000838110156107a8578181015183820152602001610790565b506108e9886126f4565b60408051808201909152601781526000805160206133fd833981519152602082015290151561095d5760405160e560020a62461bcd028152600401808060200182810382528381815181526020019150805190602001908083836000838110156107a8578181015183820152602001610790565b50610967876126f4565b60408051808201909152601781526000805160206133fd83398151915260208201529015156109db5760405160e560020a62461bcd028152600401808060200182810382528381815181526020019150805190602001908083836000838110156107a8578181015183820152602001610790565b5060408051808201909152601b81527f50524553414c455f494e56414c49445f42454e454649434941525900000000006020820152600160a060020a0387161515610a6b5760405160e560020a62461bcd028152600401808060200182810382528381815181526020019150805190602001908083836000838110156107a8578181015183820152602001610790565b50610a75856126f4565b6040805190810160405280602081526020017f50524553414c455f494e56414c49445f434f4e545249425554455f544f4b454e815250901515610afd5760405160e560020a62461bcd028152600401808060200182810382528381815181526020019150805190602001908083836000838110156107a8578181015183820152602001610790565b5060408051808201909152601d81527f50524553414c455f494e56414c49445f45584348414e47455f52415445000000602082015260008411610b855760405160e560020a62461bcd028152600401808060200182810382528381815181526020019150805190602001908083836000838110156107a8578181015183820152602001610790565b5060408051808201909152601381527f50524553414c455f494e56414c49445f504354000000000000000000000000006020820152620f42408310610c0f5760405160e560020a62461bcd028152600401808060200182810382528381815181526020019150805190602001908083836000838110156107a8578181015183820152602001610790565b50610c18612721565b6000805473ffffffffffffffffffffffffffffffffffffffff19908116600160a060020a038d8116919091179092556001805482168c84161790556002805482168b84161790556003805482168a84161790556004805482168984161790556005805490911691871691909117905560068390556007829055610c9a8b6127e9565b610ca384612819565b67ffffffffffffffff811615610cbc57610cbc816129ce565b5050505050505050505050565b600154600160a060020a031681565b6000610ce261220a565b600160a060020a03166304bf2a7f836040518263ffffffff1660e060020a0281526004018080602001828103825283818151815260200191508051906020019080838360005b83811015610d40578181015183820152602001610d28565b50505050905090810190601f168015610d6d5780820380516001836020036101000a031916815260200191505b5092505050602060405180830381600087803b158015610d8c57600080fd5b505af1158015610da0573d6000803e3d6000fd5b505050506040513d6020811015610db657600080fd5b505192915050565b6040805160008082526020820190925260008051602061341d83398151915291610dee9133918491905b50612096565b60408051808201909152600f81526000805160206133dd8339815191526020820152901515610e625760405160e560020a62461bcd028152600401808060200182810382528381815181526020019150805190602001908083836000838110156107a8578181015183820152602001610790565b50610e6c82612819565b5050565b6000610e7a6125a6565b600160a060020a03166332f0a3b56040518163ffffffff1660e060020a028152600401602060405180830381600087803b158015610eb757600080fd5b505af1158015610ecb573d6000803e3d6000fd5b505050506040513d6020811015610ee157600080fd5b505190505b90565b600454600160a060020a031681565b60065481565b610f066106ea565b604080518082019091526014815260008051602061345d8339815191526020820152901515610f7a5760405160e560020a62461bcd028152600401808060200182810382528381815181526020019150805190602001908083836000838110156107a8578181015183820152602001610790565b50604080518082018252601281527f50524553414c455f4e4f5f524546554e445300000000000000000000000000006020808301918252925160e560020a62461bcd028152600481019384528251602482015282519293928392604490920191908083836000838110156107a8578181015183820152602001610790565b600080808061101460008051602061343d833981519152612b5d565b60408051808201909152601981527f5245454e5452414e43595f5245454e5452414e545f43414c4c00000000000000602082015290156110995760405160e560020a62461bcd028152600401808060200182810382528381815181526020019150805190602001908083836000838110156107a8578181015183820152602001610790565b506110b960008051602061343d833981519152600163ffffffff612b6116565b6110c16106ea565b604080518082019091526014815260008051602061345d83398151915260208201529015156111355760405160e560020a62461bcd028152600401808060200182810382528381815181526020019150805190602001908083836000838110156107a8578181015183820152602001610790565b50600261114061245e565b600381111561114b57fe5b60408051808201909152601581527f50524553414c455f494e56414c49445f53544154450000000000000000000000602082015291146111d05760405160e560020a62461bcd028152600401808060200182810382528381815181526020019150805190602001908083836000838110156107a8578181015183820152602001610790565b506008805468ff0000000000000000191668010000000000000000179055600754600010156112b457600754620f424003611218600754600a54612b6590919063ffffffff16565b81151561122157fe5b60025460048054604080517f40c10f19000000000000000000000000000000000000000000000000000000008152600160a060020a0392831693810193909352949093046024820181905293519397509116916340c10f199160448082019260009290919082900301818387803b15801561129b57600080fd5b505af11580156112af573d6000803e3d6000fd5b505050505b600154600554604080517ff190e427000000000000000000000000000000000000000000000000000000008152600160a060020a0392831660048201529051919092169163f190e4279160248083019260a09291908290030181600087803b15801561131f57600080fd5b505af1158015611333573d6000803e3d6000fd5b505050506040513d60a081101561134957600080fd5b5060600151600754600954919450620f42409161138f9163ffffffff8088169291850391611379918690612b6516565b81151561138257fe5b049063ffffffff612b6516565b81151561139857fe5b6005546003549290910493506113bd91600160a060020a039182169130911685612c1c565b600554604080517f70a082310000000000000000000000000000000000000000000000000000000081523060048201529051600160a060020a03909216916370a08231916024808201926020929091908290030181600087803b15801561142357600080fd5b505af1158015611437573d6000803e3d6000fd5b505050506040513d602081101561144d57600080fd5b5051905060008111156114795760055460045461147991600160a060020a039081169130911684612c1c565b60008054604080517fc9567bf90000000000000000000000000000000000000000000000000000000081529051600160a060020a039092169263c9567bf99260048084019382900301818387803b1580156114d357600080fd5b505af11580156114e7573d6000803e3d6000fd5b50506040517fc35789ccff76271dc0efa6bfde2f4d4a32cd48dd86278f75f8648cb068c86e3b925060009150a161153360008051602061343d833981519152600063ffffffff612b6116565b50505050565b6040805160008082526020820190925260008051602061341d83398151915291611567913391849190610de8565b60408051808201909152600f81526000805160206133dd83398151915260208201529015156115db5760405160e560020a62461bcd028152600401808060200182810382528381815181526020019150805190602001908083836000838110156107a8578181015183820152602001610790565b50610e6c826129ce565b600554600160a060020a031690565b60075481565b60008051602061341d83398151915281565b7f2738f3f227143b7fbb9720e93e2e5b36d7a15966e130b49f1582c6432d949aa981565b50600190565b60006116617fd625496217aa6a3453eecb9c3489dc5a53e6c67b444329ea2b2cbc9ff547639b612b5d565b905090565b600061167f60008051602061343d833981519152612b5d565b60408051808201909152601981527f5245454e5452414e43595f5245454e5452414e545f43414c4c00000000000000602082015290156117045760405160e560020a62461bcd028152600401808060200182810382528381815181526020019150805190602001908083836000838110156107a8578181015183820152602001610790565b5061172460008051602061343d833981519152600163ffffffff612b6116565b604080516000808252602082019092527f9ccaca4edf2127f20c425fdd86af1ba178b9e5bee280cd70d88ac5f6874c4f0791611764913391849190610de8565b60408051808201909152600f81526000805160206133dd83398151915260208201529015156117d85760405160e560020a62461bcd028152600401808060200182810382528381815181526020019150805190602001908083836000838110156107a8578181015183820152602001610790565b5060016117e361245e565b60038111156117ee57fe5b60408051808201909152601581527f50524553414c455f494e56414c49445f53544154450000000000000000000000602082015291146118735760405160e560020a62461bcd028152600401808060200182810382528381815181526020019150805190602001908083836000838110156107a8578181015183820152602001610790565b506040805180820190915260208082527f50524553414c455f494e56414c49445f434f4e545249425554455f56414c55459082015234156118f95760405160e560020a62461bcd028152600401808060200182810382528381815181526020019150805190602001908083836000838110156107a8578181015183820152602001610790565b506040805180820190915260208082527f50524553414c455f494e56414c49445f434f4e545249425554455f56414c554590820152600084116119815760405160e560020a62461bcd028152600401808060200182810382528381815181526020019150805190602001908083836000838110156107a8578181015183820152602001610790565b50600554604080517f70a08231000000000000000000000000000000000000000000000000000000008152600160a060020a0387811660048301529151869392909216916370a08231916024808201926020929091908290030181600087803b1580156119ed57600080fd5b505af1158015611a01573d6000803e3d6000fd5b505050506040513d6020811015611a1757600080fd5b505160408051808201909152601c81527f50524553414c455f494e53554646494349454e545f42414c414e4345000000006020820152911115611a9f5760405160e560020a62461bcd028152600401808060200182810382528381815181526020019150805190602001908083836000838110156107a8578181015183820152602001610790565b50600554604080517fdd62ed3e000000000000000000000000000000000000000000000000000000008152600160a060020a03878116600483015230602483015291518693929092169163dd62ed3e916044808201926020929091908290030181600087803b158015611b1157600080fd5b505af1158015611b25573d6000803e3d6000fd5b505050506040513d6020811015611b3b57600080fd5b505160408051808201909152601e81527f50524553414c455f494e53554646494349454e545f414c4c4f57414e434500006020820152911115611bc35760405160e560020a62461bcd028152600401808060200182810382528381815181526020019150805190602001908083836000838110156107a8578181015183820152602001610790565b50600554611bdc90600160a060020a0316853086612c1c565b611be583611d5a565b600954909250611bfb908463ffffffff612d7b16565b600955600a54611c11908363ffffffff612d7b16565b600a55600254604080517f40c10f19000000000000000000000000000000000000000000000000000000008152600160a060020a03878116600483015260248201869052915191909216916340c10f1991604480830192600092919082900301818387803b158015611c8257600080fd5b505af1158015611c96573d6000803e3d6000fd5b505060408051868152602081018690528151600160a060020a03891694507fc9ec9df36a160cd05ae36393dca23c0128234fc68a48baec833a6d8b5967d6da93509081900390910190a250611d0060008051602061343d833981519152600063ffffffff612b6116565b505050565b60006116617febb05b386a8d34882b8711d156f463690983dc47815980fb82aeeff1aa43579e612b5d565b600a5481565b600b805467ffffffffffffffff191667ffffffffffffffff92909216919091179055565b6000611d646106ea565b604080518082019091526014815260008051602061345d8339815191526020820152901515611dd85760405160e560020a62461bcd028152600401808060200182810382528381815181526020019150805190602001908083836000838110156107a8578181015183820152602001610790565b50611e01620f4240611df560065485612b6590919063ffffffff16565b9063ffffffff612e0d16565b92915050565b6000806000611e1584611630565b60408051808201909152601281527f5245434f5645525f444953414c4c4f57454400000000000000000000000000006020820152901515611e9b5760405160e560020a62461bcd028152600401808060200182810382528381815181526020019150805190602001908083836000838110156107a8578181015183820152602001610790565b50611ea4610e70565b9250611eaf836126f4565b60408051808201909152601a81527f5245434f5645525f5641554c545f4e4f545f434f4e54524143540000000000006020820152901515611f355760405160e560020a62461bcd028152600401808060200182810382528381815181526020019150805190602001908083836000838110156107a8578181015183820152602001610790565b50600160a060020a0384161515611f865760405130319250600160a060020a0384169083156108fc029084906000818181858888f19350505050158015611f80573d6000803e3d6000fd5b50612045565b5082611fa1600160a060020a0382163063ffffffff612ead16565b9150611fbd600160a060020a038216848463ffffffff612fc216565b60408051808201909152601d81527f5245434f5645525f544f4b454e5f5452414e534645525f4641494c454400000060208201529015156120435760405160e560020a62461bcd028152600401808060200182810382528381815181526020019150805190602001908083836000838110156107a8578181015183820152602001610790565b505b83600160a060020a031683600160a060020a03167f596caf56044b55fb8c4ca640089bbc2b63cae3e978b851f5745cbb7c5b288e02846040518082815260200191505060405180910390a350505050565b6000806120a16106ea565b15156120b057600091506121de565b6120b86125a6565b9050600160a060020a03811615156120d357600091506121de565b80600160a060020a031663fdef91068630876120ee8861304d565b60405160e060020a63ffffffff8716028152600160a060020a03808616600483019081529085166024830152604482018490526080606483019081528351608484015283519192909160a490910190602085019080838360005b83811015612160578181015183820152602001612148565b50505050905090810190601f16801561218d5780820380516001836020036101000a031916815260200191505b5095505050505050602060405180830381600087803b1580156121af57600080fd5b505af11580156121c3573d6000803e3d6000fd5b505050506040513d60208110156121d957600080fd5b505191505b509392505050565b7f9ccaca4edf2127f20c425fdd86af1ba178b9e5bee280cd70d88ac5f6874c4f0781565b6000806122156125a6565b604080517fbe00bbd80000000000000000000000000000000000000000000000000000000081527fd6f028ca0e8edb4a8c9757ca4fdccab25fa1e0317da1188108f7d2dee14902fb60048201527fddbcfd564f642ab5627cf68b9b7d374fb4f8a36e941a75d89c87998cef03bd6160248201529051600160a060020a03929092169163be00bbd8916044808201926020929091908290030181600087803b158015610d8c57600080fd5b604080516000808252602082019092527f2738f3f227143b7fbb9720e93e2e5b36d7a15966e130b49f1582c6432d949aa9916122ff913391849190610de8565b60408051808201909152600f81526000805160206133dd83398151915260208201529015156123735760405160e560020a62461bcd028152600401808060200182810382528381815181526020019150805190602001908083836000838110156107a8578181015183820152602001610790565b5060075460408051808201909152601381527f50524553414c455f494e56414c49445f5043540000000000000000000000000060208201529067ffffffffffffffff8416106124075760405160e560020a62461bcd028152600401808060200182810382528381815181526020019150805190602001908083836000838110156107a8578181015183820152602001610790565b5067ffffffffffffffff8216600781905560408051918252517fa50304e35b9add7e0d49e0d23f05a2a2935cfa28fdc3abe3636318af4bed22459181900360200190a15050565b600b5467ffffffffffffffff1681565b60006124686106ea565b604080518082019091526014815260008051602061345d83398151915260208201529015156124dc5760405160e560020a62461bcd028152600401808060200182810382528381815181526020019150805190602001908083836000838110156107a8578181015183820152602001610790565b5060085467ffffffffffffffff16158061250c57506124f9613057565b60085467ffffffffffffffff9182169116115b1561251957506000610ee6565b60085468010000000000000000900460ff161561253857506003610ee6565b60055474010000000000000000000000000000000000000000900467ffffffffffffffff16612565613086565b67ffffffffffffffff161061163057506002610ee6565b60085468010000000000000000900460ff1681565b60095481565b600354600160a060020a031681565b60006116617f4172f0f7d2289153072b0a6ca36959e0cbe2efc3afe50fc81636caa96338137b612b5d565b60006000196125de611d05565b14905090565b600254600160a060020a031681565b60085467ffffffffffffffff1681565b60055474010000000000000000000000000000000000000000900467ffffffffffffffff1681565b600054600160a060020a031681565b6040805160008082526020820190925260008051602061341d83398151915291612668913391849190610de8565b60408051808201909152600f81526000805160206133dd83398151915260208201529015156126dc5760405160e560020a62461bcd028152600401808060200182810382528381815181526020019150805190602001908083836000838110156107a8578181015183820152602001610790565b506126ed6126e8613057565b6129ce565b50565b4390565b600080600160a060020a0383161515612710576000915061271b565b823b90506000811191505b50919050565b612729611d05565b60408051808201909152601881527f494e49545f414c52454144595f494e495449414c495a45440000000000000000602082015290156127ae5760405160e560020a62461bcd028152600401808060200182810382528381815181526020019150805190602001908083836000838110156107a8578181015183820152602001610790565b506127e76127ba6126f0565b7febb05b386a8d34882b8711d156f463690983dc47815980fb82aeeff1aa43579e9063ffffffff612b6116565b565b6126ed7f4172f0f7d2289153072b0a6ca36959e0cbe2efc3afe50fc81636caa96338137b8263ffffffff612b6116565b60408051808201909152601881527f50524553414c455f54494d455f504552494f445f5a45524f00000000000000006020820152600067ffffffffffffffff8316116128aa5760405160e560020a62461bcd028152600401808060200182810382528381815181526020019150805190602001908083836000838110156107a8578181015183820152602001610790565b5060085467ffffffffffffffff1615806128f457506128c7613057565b60085467ffffffffffffffff918216916128e891168363ffffffff6130de16565b67ffffffffffffffff16115b60408051808201909152601b81527f50524553414c455f494e56414c49445f54494d455f504552494f440000000000602082015290151561297a5760405160e560020a62461bcd028152600401808060200182810382528381815181526020019150805190602001908083836000838110156107a8578181015183820152602001610790565b506005805467ffffffffffffffff90921674010000000000000000000000000000000000000000027fffffffff0000000000000000ffffffffffffffffffffffffffffffffffffffff909216919091179055565b60006129d861245e565b60038111156129e357fe5b60408051808201909152601581527f50524553414c455f494e56414c49445f5354415445000000000000000000000060208201529114612a685760405160e560020a62461bcd028152600401808060200182810382528381815181526020019150805190602001908083836000838110156107a8578181015183820152602001610790565b50612a71613057565b60408051808201909152601981527f50524553414c455f494e56414c49445f4f50454e5f444154450000000000000060208201529067ffffffffffffffff9081169083161015612b065760405160e560020a62461bcd028152600401808060200182810382528381815181526020019150805190602001908083836000838110156107a8578181015183820152602001610790565b506008805467ffffffffffffffff831667ffffffffffffffff19909116811790915560408051918252517fab2aeaceefdbd207caa02bf58306335f7c37fd3b434a6cc547733be5e33a86779181900360200190a150565b5490565b9055565b600080831515612b785760009150612c15565b50828202828482811515612b8857fe5b60408051808201909152601181527f4d4154485f4d554c5f4f564552464c4f5700000000000000000000000000000060208201529291900414612c105760405160e560020a62461bcd028152600401808060200182810382528381815181526020019150805190602001908083836000838110156107a8578181015183820152602001610790565b508091505b5092915050565b600160a060020a038316301415612cd357612c47600160a060020a038516838363ffffffff612fc216565b60408051808201909152601f81527f50524553414c455f544f4b454e5f5452414e534645525f5245564552544544006020820152901515612ccd5760405160e560020a62461bcd028152600401808060200182810382528381815181526020019150805190602001908083836000838110156107a8578181015183820152602001610790565b50611533565b612cee600160a060020a03851684848463ffffffff61317916565b60408051808201909152601f81527f50524553414c455f544f4b454e5f5452414e534645525f5245564552544544006020820152901515612d745760405160e560020a62461bcd028152600401808060200182810382528381815181526020019150805190602001908083836000838110156107a8578181015183820152602001610790565b5050505050565b60408051808201909152601181527f4d4154485f4144445f4f564552464c4f5700000000000000000000000000000060208201526000908383019084821015612c105760405160e560020a62461bcd028152600401808060200182810382528381815181526020019150805190602001908083836000838110156107a8578181015183820152602001610790565b5490565b60408051808201909152600d81527f4d4154485f4449565f5a45524f0000000000000000000000000000000000000060208201526000908190818411612e985760405160e560020a62461bcd028152600401808060200182810382528381815181526020019150805190602001908083836000838110156107a8578181015183820152602001610790565b508284811515612ea457fe5b04949350505050565b60408051600160a060020a0383166024808301919091528251808303909101815260449091019091526020810180517bffffffffffffffffffffffffffffffffffffffffffffffffffffffff167f70a08231000000000000000000000000000000000000000000000000000000001790526000908180612f2d868461320d565b60408051808201909152601c81527f534146455f4552435f32305f42414c414e43455f52455645525445440000000060208201529193509150821515612fb85760405160e560020a62461bcd028152600401808060200182810382528381815181526020019150805190602001908083836000838110156107a8578181015183820152602001610790565b5095945050505050565b60408051600160a060020a038416602482015260448082018490528251808303909101815260649091019091526020810180517bffffffffffffffffffffffffffffffffffffffffffffffffffffffff167fa9059cbb00000000000000000000000000000000000000000000000000000000179052600090613044858261323e565b95945050505050565b8051602002815290565b600b5460009067ffffffffffffffff161561307e57600b5467ffffffffffffffff16611661565b61166161328c565b60085460009067ffffffffffffffff1615156130a457506000610ee6565b6008546130d39067ffffffffffffffff166130bd613057565b67ffffffffffffffff169063ffffffff61329e16565b9050610ee6565b9055565b60408051808201909152601381527f4d41544836345f4144445f4f564552464c4f570000000000000000000000000060208201526000908383019067ffffffffffffffff8086169083161015612c105760405160e560020a62461bcd028152600401808060200182810382528381815181526020019150805190602001908083836000838110156107a8578181015183820152602001610790565b60408051600160a060020a0385811660248301528416604482015260648082018490528251808303909101815260849091019091526020810180517bffffffffffffffffffffffffffffffffffffffffffffffffffffffff167f23b872dd00000000000000000000000000000000000000000000000000000000179052600090613203868261323e565b9695505050505050565b6000806000806040516020818751602089018a5afa9250600083111561323257805191505b50909590945092505050565b6000806040516020818551602087016000895af16000811115613282573d801561326f576020811461327857613280565b60019350613280565b600183511493505b505b5090949350505050565b600061166161329961333f565b613343565b60408051808201909152601481527f4d41544836345f5355425f554e444552464c4f570000000000000000000000006020820152600090819067ffffffffffffffff80861690851611156133375760405160e560020a62461bcd028152600401808060200182810382528381815181526020019150805190602001908083836000838110156107a8578181015183820152602001610790565b505050900390565b4290565b60408051808201909152601581527f55494e5436345f4e554d4245525f544f4f5f4249470000000000000000000000602082015260009067ffffffffffffffff8311156133d55760405160e560020a62461bcd028152600401808060200182810382528381815181526020019150805190602001908083836000838110156107a8578181015183820152602001610790565b509091905056004150505f415554485f4641494c4544000000000000000000000000000000000050524553414c455f434f4e54524143545f49535f454f41000000000000000000efa06053e2ca99a43c97c4a4f3d8a394ee3323a8ff237e625fba09fe30ceb0a4e855346402235fdd185c890e68d2c4ecad599b88587635ee285bce2fda58dacb494e49545f4e4f545f494e495449414c495a4544000000000000000000000000a165627a7a72305820a8fc1e553cdfb369a9323ddbdf9c118aefd8166bae49e34b817de338bdf25c870029ebb05b386a8d34882b8711d156f463690983dc47815980fb82aeeff1aa43579e",
  "devdoc": {
    "methods": {
      "allowRecoverability(address)": {
        "details": "By default deriving from AragonApp makes it recoverable",
        "params": {
          "token": "Token address that would be recovered"
        },
        "return": "bool whether the app allows the recovery"
      },
      "canPerform(address,bytes32,uint256[])": {
        "details": "Check whether an action can be performed by a sender for a particular role on this app",
        "params": {
          "_params": "Permission params for the role",
          "_role": "Role on this app",
          "_sender": "Sender of the call"
        },
        "return": "Boolean indicating whether the sender has the permissions to perform the action.        Always returns false if the app hasn't been initialized yet."
      },
      "contribute(address,uint256)": {
        "params": {
          "_contributor": "The address of the contributor",
          "_value": "The amount of contribution token to be spent"
        }
      },
      "contributionToTokens(uint256)": {
        "params": {
          "_value": "The amount of contribution tokens to be used in that computation"
        }
      },
      "getInitializationBlock()": {
        "return": "Block number in which the contract was initialized"
      },
      "getRecoveryVault()": {
        "details": "Get the recovery vault for the app",
        "return": "Recovery vault address for the app"
      },
      "hasInitialized()": {
        "return": "Whether the contract has been initialized by the time of the current block"
      },
      "initialize(address,address,address,address,address,address,address,uint64,uint256,uint256,uint64)": {
        "params": {
          "_beneficiary": "The address of the beneficiary [to whom a percentage of the raised funds is be to be sent]",
          "_bondedToken": "The address of the bonded token",
          "_controller": "The address of the controller contract",
          "_erc20ContribToken": "The address of the token to be used to contribute",
          "_exchangeRate": "The exchangeRate [= 1/price] at which [bonded] tokens are to be purchased for that presale [in PPM]",
          "_marketMaker": "The address of the market maker contract",
          "_openDate": "The date upon which that presale is to be open [ignored if 0]",
          "_period": "The period within which to accept contribution for that presale",
          "_reserve": "The address of the reserve [pool] contract"
        }
      },
      "reduceBeneficiaryPct(uint64)": {
        "params": {
          "_pct": "New percentage to be set"
        }
      },
      "setOpenDate(uint64)": {
        "params": {
          "_date": "New date to be set"
        }
      },
      "setPeriod(uint64)": {
        "params": {
          "_period": "New duration to be set"
        }
      },
      "transferToVault(address)": {
        "params": {
          "_token": "Token balance to be sent to recovery vault."
        }
      }
    }
  },
  "userdoc": {
    "methods": {
      "close()": {
        "notice": "Close presale and open trading"
      },
      "contribute(address,uint256)": {
        "notice": "Contribute to the presale up to `@tokenAmount(self.erc20ContribToken(): address, _value)`"
      },
      "contributionToTokens(uint256)": {
        "notice": "Computes the amount of [bonded] tokens that would be purchased for `@tokenAmount(self.contributionToken(): address, _value)`"
      },
      "initialize(address,address,address,address,address,address,address,uint64,uint256,uint256,uint64)": {
        "notice": "Initialize presale"
      },
      "open()": {
        "notice": "Open presale [enabling users to contribute]"
      },
      "reduceBeneficiaryPct(uint64)": {
        "notice": "Reduce pre-minting for beneficiary percentage to `_pct`"
      },
      "refund(address,uint256)": {
        "notice": "Does nothing. Interface compliance."
      },
      "setOpenDate(uint64)": {
        "notice": "Set presale open date"
      },
      "setPeriod(uint64)": {
        "notice": "Set presale duration"
      },
      "state()": {
        "notice": "Returns the current state of that presale"
      },
      "transferToVault(address)": {
        "notice": "Send funds to recovery Vault. This contract should never receive funds,        but in case it does, this function allows one to recover them."
      }
    }
  }
}