{
  "address": "0x260Ebea4790Fa3eBC8532dCCC3fA998ECC294cbF",
  "abi": [
    {
      "constant": true,
      "inputs": [],
      "name": "baseReg",
      "outputs": [
        {
          "name": "",
          "type": "address"
        }
      ],
      "payable": false,
      "stateMutability": "view",
      "type": "function"
    },
    {
      "constant": false,
      "inputs": [
        {
          "name": "_dao",
          "type": "address"
        }
      ],
      "name": "newEVMScriptRegistry",
      "outputs": [
        {
          "name": "reg",
          "type": "address"
        }
      ],
      "payable": false,
      "stateMutability": "nonpayable",
      "type": "function"
    },
    {
      "constant": true,
      "inputs": [],
      "name": "baseCallScript",
      "outputs": [
        {
          "name": "",
          "type": "address"
        }
      ],
      "payable": false,
      "stateMutability": "view",
      "type": "function"
    },
    {
      "inputs": [],
      "payable": false,
      "stateMutability": "nonpayable",
      "type": "constructor"
    }
  ],
  "transactionHash": "0x29ef909878a3568ae6c544df93ae2c300253ee2984161ce5c573f60379a47676",
  "args": [],
  "solcInputHash": "c0610d08bb5b39d5a913143ed6b9b91b",
  "bytecode": "0x608060405234801561001057600080fd5b506100196100a0565b604051809103906000f080158015610035573d6000803e3d6000fd5b5060008054600160a060020a031916600160a060020a039290921691909117905561005e6100b0565b604051809103906000f08015801561007a573d6000803e3d6000fd5b5060018054600160a060020a031916600160a060020a03929092169190911790556100c0565b6040516118c78061075a83390190565b6040516109f68061202183390190565b61068b806100cf6000396000f30060806040526004361061003d5763ffffffff60e060020a600035041663127d679c811461004257806333404143146100735780634de50a3a14610094575b600080fd5b34801561004e57600080fd5b506100576100a9565b60408051600160a060020a039092168252519081900360200190f35b34801561007f57600080fd5b50610057600160a060020a03600435166100b8565b3480156100a057600080fd5b50610057610650565b600054600160a060020a031681565b604080516004808252602480830184526020830180517bffffffffffffffffffffffffffffffffffffffffffffffffffffffff167f8129fc1c000000000000000000000000000000000000000000000000000000001781526000805495517fc050a7a60000000000000000000000000000000000000000000000000000000081527fddbcfd564f642ab5627cf68b9b7d374fb4f8a36e941a75d89c87998cef03bd61948101858152600160a060020a0397881694820185905260016064830181905260806044840190815288516084850152885194998a98908c169763c050a7a697919690958b95939260a4909101918083838e5b838110156101c55781810151838201526020016101ad565b50505050905090810190601f1680156101f25780820380516001836020036101000a031916815260200191505b5095505050505050602060405180830381600087803b15801561021457600080fd5b505af1158015610228573d6000803e3d6000fd5b505050506040513d602081101561023e57600080fd5b5051604080517fde2873590000000000000000000000000000000000000000000000000000000081529051919450600160a060020a0386169163de287359916004808201926020929091908290030181600087803b15801561029f57600080fd5b505af11580156102b3573d6000803e3d6000fd5b505050506040513d60208110156102c957600080fd5b5051604080517f19f3d10f0000000000000000000000000000000000000000000000000000000081529051919250600160a060020a038084169263be0384789230928892908316916319f3d10f9160048083019260209291908290030181600087803b15801561033857600080fd5b505af115801561034c573d6000803e3d6000fd5b505050506040513d602081101561036257600080fd5b50516040805160e060020a63ffffffff8716028152600160a060020a03948516600482015292909316602483015260448201523060648201529051608480830192600092919082900301818387803b1580156103bd57600080fd5b505af11580156103d1573d6000803e3d6000fd5b5050600154604080517f87a16f12000000000000000000000000000000000000000000000000000000008152600160a060020a039283166004820152905191871693506387a16f1292506024808201926020929091908290030181600087803b15801561043d57600080fd5b505af1158015610451573d6000803e3d6000fd5b505050506040513d602081101561046757600080fd5b5050604080517f19f3d10f0000000000000000000000000000000000000000000000000000000081529051600160a060020a0380841692639d0effdb9230928892908316916319f3d10f916004808201926020929091908290030181600087803b1580156104d457600080fd5b505af11580156104e8573d6000803e3d6000fd5b505050506040513d60208110156104fe57600080fd5b50516040805160e060020a63ffffffff8716028152600160a060020a03948516600482015292909316602483015260448201529051606480830192600092919082900301818387803b15801561055357600080fd5b505af1158015610567573d6000803e3d6000fd5b5050505080600160a060020a031663a885508a8485600160a060020a03166319f3d10f6040518163ffffffff1660e060020a028152600401602060405180830381600087803b1580156105b957600080fd5b505af11580156105cd573d6000803e3d6000fd5b505050506040513d60208110156105e357600080fd5b50516040805160e060020a63ffffffff8616028152600160a060020a039093166004840152602483019190915251604480830192600092919082900301818387803b15801561063157600080fd5b505af1158015610645573d6000803e3d6000fd5b505050505050919050565b600154600160a060020a0316815600a165627a7a7230582017ff472ca95b64941b8031665f54a50a42ee26f097863548e6f26dd8b321390100296080604052620000176401000000006200001d810204565b6200023b565b6200003064010000000062000125810204565b60408051808201909152601881527f494e49545f414c52454144595f494e495449414c495a45440000000000000000602082015290156200010c576040517f08c379a00000000000000000000000000000000000000000000000000000000081526004018080602001828103825283818151815260200191508051906020019080838360005b83811015620000d0578181015183820152602001620000b6565b50505050905090810190601f168015620000fe5780820380516001836020036101000a031916815260200191505b509250505060405180910390fd5b506200012360001964010000000062000154810204565b565b60006200014f600080516020620018a7833981519152640100000000620012bf6200023382021704565b905090565b6200016764010000000062000125810204565b60408051808201909152601881527f494e49545f414c52454144595f494e495449414c495a454400000000000000006020820152901562000206576040517f08c379a000000000000000000000000000000000000000000000000000000000815260040180806020018281038252838181518152602001915080519060200190808383600083811015620000d0578181015183820152602001620000b6565b5062000230600080516020620018a783398151915282640100000000620015a56200023782021704565b50565b5490565b9055565b61165c806200024b6000396000f3006080604052600436106100ed5763ffffffff60e060020a60003504166304bf2a7f81146100f25780630803fac01461016757806319f3d10f146101905780632914b9bd146101b757806332f0a3b5146102105780635ca4d4bb146102255780637e7db6e11461023f57806380afdea8146102605780638129fc1c1461027557806387a16f121461028a5780638b3dd749146102ab5780639d4941d8146102c0578063a1658fad146102e1578063a479e50814610348578063bd8fde1c1461035d578063cff606a014610372578063d4aae0c41461038a578063de4796ed1461039f578063f97a05df146103b4575b600080fd5b3480156100fe57600080fd5b506040805160206004803580820135601f810184900484028501840190955284845261014b9436949293602493928401919081908401838280828437509497506103ef9650505050505050565b60408051600160a060020a039092168252519081900360200190f35b34801561017357600080fd5b5061017c61050c565b604080519115158252519081900360200190f35b34801561019c57600080fd5b506101a5610535565b60408051918252519081900360200190f35b3480156101c357600080fd5b506040805160206004803580820135601f810184900484028501840190955284845261014b9436949293602493928401919081908401838280828437509497506105599650505050505050565b34801561021c57600080fd5b5061014b61063f565b34801561023157600080fd5b5061023d6004356106b7565b005b34801561024b57600080fd5b5061017c600160a060020a0360043516610875565b34801561026c57600080fd5b506101a561087b565b34801561028157600080fd5b5061023d6108ab565b34801561029657600080fd5b506101a5600160a060020a0360043516610948565b3480156102b757600080fd5b506101a5610ac2565b3480156102cc57600080fd5b5061023d600160a060020a0360043516610aed565b3480156102ed57600080fd5b50604080516020600460443581810135838102808601850190965280855261017c958335600160a060020a0316956024803596369695606495939492019291829185019084908082843750949750610d7c9650505050505050565b34801561035457600080fd5b5061014b610ecc565b34801561036957600080fd5b506101a5610f81565b34801561037e57600080fd5b5061023d600435610fa5565b34801561039657600080fd5b5061014b611202565b3480156103ab57600080fd5b5061017c61122d565b3480156103c057600080fd5b506103cc600435611240565b60408051600160a060020a03909316835290151560208301528051918290030190f35b60008060006004845110156040805190810160405280601e81526020017f45564d5245475f5343524950545f4c454e4754485f544f4f5f53484f525400008152509015156104be5760405160e560020a62461bcd0281526004018080602001828103825283818151815260200191508051906020019080838360005b8381101561048357818101518382015260200161046b565b50505050905090810190601f1680156104b05780820380516001836020036101000a031916815260200191505b509250505060405180910390fd5b506104c884611267565b63ffffffff1660008181526001602052604090208054919350915060a060020a900460ff166104f8576000610504565b8054600160a060020a03165b949350505050565b600080610517610ac2565b9050801580159061052f57508061052c61127a565b10155b91505090565b7fc4e90f38eea8c4212a009ca7b8947943ba4d4a58d19b683417f65291d1cd9ed281565b6000610563610ecc565b600160a060020a03166304bf2a7f836040518263ffffffff1660e060020a0281526004018080602001828103825283818151815260200191508051906020019080838360005b838110156105c15781810151838201526020016105a9565b50505050905090810190601f1680156105ee5780820380516001836020036101000a031916815260200191505b5092505050602060405180830381600087803b15801561060d57600080fd5b505af1158015610621573d6000803e3d6000fd5b505050506040513d602081101561063757600080fd5b505192915050565b6000610649611202565b600160a060020a03166332f0a3b56040518163ffffffff1660e060020a028152600401602060405180830381600087803b15801561068657600080fd5b505af115801561069a573d6000803e3d6000fd5b505050506040513d60208110156106b057600080fd5b5051905090565b60007ff7a450ef335e1892cb42c8ca72e7242359d7711924b75db5717410da3f614aa36106e38361127e565b6106ee338383610d7c565b60408051808201909152600f81527f4150505f415554485f4641494c4544000000000000000000000000000000000060208201529015156107745760405160e560020a62461bcd0281526004018080602001828103825283818151815260200191508051906020019080838360008381101561048357818101518382015260200161046b565b5060008481526001602090815260409182902080548351808501909452601884527f45564d5245475f4558454355544f525f44495341424c4544000000000000000092840192909252945060a060020a900460ff16151561081a5760405160e560020a62461bcd0281526004018080602001828103825283818151815260200191508051906020019080838360008381101561048357818101518382015260200161046b565b50825474ff00000000000000000000000000000000000000001981168455604051600160a060020a039091169085907fc13cd9238f8ab1e5ab1f95cde77e89288fe5c328d04739adffd57b144b408fd190600090a350505050565b50600190565b60006108a67fd625496217aa6a3453eecb9c3489dc5a53e6c67b444329ea2b2cbc9ff547639b6112bf565b905090565b6108b3610ac2565b60408051808201909152601881527f494e49545f414c52454144595f494e495449414c495a45440000000000000000602082015290156109385760405160e560020a62461bcd0281526004018080602001828103825283818151815260200191508051906020019080838360008381101561048357818101518382015260200161046b565b506109416112c3565b6001600055565b6040805160008082526020820190925281907fc4e90f38eea8c4212a009ca7b8947943ba4d4a58d19b683417f65291d1cd9ed2906109899033908390610d7c565b60408051808201909152600f81527f4150505f415554485f4641494c454400000000000000000000000000000000006020820152901515610a0f5760405160e560020a62461bcd0281526004018080602001828103825283818151815260200191508051906020019080838360008381101561048357818101518382015260200161046b565b506000805460018082018355604080518082018252600160a060020a03808a168083526020808401868152878952959052838720925183549551151560a060020a0274ff0000000000000000000000000000000000000000199190931673ffffffffffffffffffffffffffffffffffffffff199096169590951794909416179055519194509184917f7697fa3288629310075a63816e294207c84f3cfc18ccf8e18eb917ec0bb566999190a35092915050565b60006108a67febb05b386a8d34882b8711d156f463690983dc47815980fb82aeeff1aa43579e6112bf565b6000806000610afb84610875565b60408051808201909152601281527f5245434f5645525f444953414c4c4f57454400000000000000000000000000006020820152901515610b815760405160e560020a62461bcd0281526004018080602001828103825283818151815260200191508051906020019080838360008381101561048357818101518382015260200161046b565b50610b8a61063f565b9250610b958361138f565b60408051808201909152601a81527f5245434f5645525f5641554c545f4e4f545f434f4e54524143540000000000006020820152901515610c1b5760405160e560020a62461bcd0281526004018080602001828103825283818151815260200191508051906020019080838360008381101561048357818101518382015260200161046b565b50600160a060020a0384161515610c6c5760405130319250600160a060020a0384169083156108fc029084906000818181858888f19350505050158015610c66573d6000803e3d6000fd5b50610d2b565b5082610c87600160a060020a0382163063ffffffff6113bc16565b9150610ca3600160a060020a038216848463ffffffff6114d116565b60408051808201909152601d81527f5245434f5645525f544f4b454e5f5452414e534645525f4641494c45440000006020820152901515610d295760405160e560020a62461bcd0281526004018080602001828103825283818151815260200191508051906020019080838360008381101561048357818101518382015260200161046b565b505b83600160a060020a031683600160a060020a03167f596caf56044b55fb8c4ca640089bbc2b63cae3e978b851f5745cbb7c5b288e02846040518082815260200191505060405180910390a350505050565b600080610d8761050c565b1515610d965760009150610ec4565b610d9e611202565b9050600160a060020a0381161515610db95760009150610ec4565b80600160a060020a031663fdef9106863087610dd48861155c565b60405160e060020a63ffffffff8716028152600160a060020a03808616600483019081529085166024830152604482018490526080606483019081528351608484015283519192909160a490910190602085019080838360005b83811015610e46578181015183820152602001610e2e565b50505050905090810190601f168015610e735780820380516001836020036101000a031916815260200191505b5095505050505050602060405180830381600087803b158015610e9557600080fd5b505af1158015610ea9573d6000803e3d6000fd5b505050506040513d6020811015610ebf57600080fd5b505191505b509392505050565b600080610ed7611202565b604080517fbe00bbd80000000000000000000000000000000000000000000000000000000081527fd6f028ca0e8edb4a8c9757ca4fdccab25fa1e0317da1188108f7d2dee14902fb60048201527fddbcfd564f642ab5627cf68b9b7d374fb4f8a36e941a75d89c87998cef03bd6160248201529051600160a060020a03929092169163be00bbd8916044808201926020929091908290030181600087803b15801561060d57600080fd5b7ff7a450ef335e1892cb42c8ca72e7242359d7711924b75db5717410da3f614aa381565b60007ff7a450ef335e1892cb42c8ca72e7242359d7711924b75db5717410da3f614aa3610fd18361127e565b610fdc338383610d7c565b60408051808201909152600f81527f4150505f415554485f4641494c4544000000000000000000000000000000000060208201529015156110625760405160e560020a62461bcd0281526004018080602001828103825283818151815260200191508051906020019080838360008381101561048357818101518382015260200161046b565b5083600081118015611075575060005481105b60408051808201909152601a81527f45564d5245475f494e4558495354454e545f4558454355544f5200000000000060208201529015156110fb5760405160e560020a62461bcd0281526004018080602001828103825283818151815260200191508051906020019080838360008381101561048357818101518382015260200161046b565b5060008581526001602090815260409182902080548351808501909452601784527f45564d5245475f4558454355544f525f454e41424c454400000000000000000092840192909252955060a060020a900460ff16156111a05760405160e560020a62461bcd0281526004018080602001828103825283818151815260200191508051906020019080838360008381101561048357818101518382015260200161046b565b50835474ff0000000000000000000000000000000000000000191660a060020a17808555604051600160a060020a039091169086907f7697fa3288629310075a63816e294207c84f3cfc18ccf8e18eb917ec0bb5669990600090a35050505050565b60006108a67f4172f0f7d2289153072b0a6ca36959e0cbe2efc3afe50fc81636caa96338137b6112bf565b600060001961123a610ac2565b14905090565b600160205260009081526040902054600160a060020a0381169060a060020a900460ff1682565b6000611274826000611566565b92915050565b4390565b60408051600180825281830190925260609160208083019080388339019050509050818160008151811015156112b057fe5b60209081029091010152919050565b5490565b6112cb610ac2565b60408051808201909152601881527f494e49545f414c52454144595f494e495449414c495a45440000000000000000602082015290156113505760405160e560020a62461bcd0281526004018080602001828103825283818151815260200191508051906020019080838360008381101561048357818101518382015260200161046b565b5061138961135c61127a565b7febb05b386a8d34882b8711d156f463690983dc47815980fb82aeeff1aa43579e9063ffffffff6115a516565b565b5490565b600080600160a060020a03831615156113ab57600091506113b6565b823b90506000811191505b50919050565b60408051600160a060020a0383166024808301919091528251808303909101815260449091019091526020810180517bffffffffffffffffffffffffffffffffffffffffffffffffffffffff167f70a0823100000000000000000000000000000000000000000000000000000000179052600090818061143c86846115a9565b60408051808201909152601c81527f534146455f4552435f32305f42414c414e43455f524556455254454400000000602082015291935091508215156114c75760405160e560020a62461bcd0281526004018080602001828103825283818151815260200191508051906020019080838360008381101561048357818101518382015260200161046b565b5095945050505050565b60408051600160a060020a038416602482015260448082018490528251808303909101815260649091019091526020810180517bffffffffffffffffffffffffffffffffffffffffffffffffffffffff167fa9059cbb0000000000000000000000000000000000000000000000000000000017905260009061155385826115da565b95945050505050565b8051602002815290565b6000806115738484611628565b60e060020a7fffffffff0000000000000000000000000000000000000000000000000000000090911604949350505050565b9055565b6000806000806040516020818751602089018a5afa925060008311156115ce57805191505b50909590945092505050565b6000806040516020818551602087016000895af1600081111561161e573d801561160b57602081146116145761161c565b6001935061161c565b600183511493505b505b5090949350505050565b0160200151905600a165627a7a723058203069999ff4cd29a11b2d7c451eba62dc28800f47a8b063bcf7fa7a91c63ea90d0029ebb05b386a8d34882b8711d156f463690983dc47815980fb82aeeff1aa43579e608060405261001564010000000061001a810204565b610223565b61002b64010000000061011a810204565b60408051808201909152601881527f494e49545f414c52454144595f494e495449414c495a4544000000000000000060208201529015610103576040517f08c379a00000000000000000000000000000000000000000000000000000000081526004018080602001828103825283818151815260200191508051906020019080838360005b838110156100c85781810151838201526020016100b0565b50505050905090810190601f1680156100f55780820380516001836020036101000a031916815260200191505b509250505060405180910390fd5b50610118600019640100000000610145810204565b565b60006101406000805160206109d683398151915264010000000061076861021b82021704565b905090565b61015664010000000061011a810204565b60408051808201909152601881527f494e49545f414c52454144595f494e495449414c495a45440000000000000000602082015290156101f2576040517f08c379a0000000000000000000000000000000000000000000000000000000008152600401808060200182810382528381815181526020019150805190602001908083836000838110156100c85781810151838201526020016100b0565b506102186000805160206109d68339815191528264010000000061077461021f82021704565b50565b5490565b9055565b6107a4806102326000396000f30060806040526004361061006c5763ffffffff7c01000000000000000000000000000000000000000000000000000000006000350416630803fac08114610071578063279cea351461009a5780638333d9b2146101475780638b3dd7491461016e578063de4796ed14610183575b600080fd5b34801561007d57600080fd5b50610086610198565b604080519115158252519081900360200190f35b3480156100a657600080fd5b506100d260246004803582810192908201359181358083019290820135916044359182019101356101c1565b6040805160208082528351818301528351919283929083019185019080838360005b8381101561010c5781810151838201526020016100f4565b50505050905090810190601f1680156101395780820380516001836020036101000a031916815260200191505b509250505060405180910390f35b34801561015357600080fd5b5061015c610669565b60408051918252519081900360200190f35b34801561017a57600080fd5b5061015c61068d565b34801561018f57600080fd5b506100866106bd565b6000806101a361068d565b905080158015906101bb5750806101b86106d0565b10155b91505090565b606060008060008060008060006101d6610198565b60408051808201909152601481527f494e49545f4e4f545f494e495449414c495a454400000000000000000000000060208201529015156102985760405160e560020a62461bcd0281526004018080602001828103825283818151815260200191508051906020019080838360005b8381101561025d578181015183820152602001610245565b50505050905090810190601f16801561028a5780820380516001836020036101000a031916815260200191505b509250505060405180910390fd5b50600496505b8c8710156106585760408051808201909152601781527f45564d43414c4c535f494e56414c49445f4c454e47544800000000000000000060208201526018888f0310156103305760405160e560020a62461bcd0281526004018080602001828103825283818151815260200191508051906020019080838360008381101561025d578181015183820152602001610245565b50610374878f8f8080601f01602080910402602001604051908101604052809392919081815260200183838082843750949594505063ffffffff6106d41692505050565b9550600094505b8885101561046f5789898681811061038f57fe5b9050602002013573ffffffffffffffffffffffffffffffffffffffff1673ffffffffffffffffffffffffffffffffffffffff168673ffffffffffffffffffffffffffffffffffffffff1614156040805190810160405280601981526020017f45564d43414c4c535f424c41434b4c49535445445f43414c4c000000000000008152509015156104635760405160e560020a62461bcd0281526004018080602001828103825283818151815260200191508051906020019080838360008381101561025d578181015183820152602001610245565b5060019094019361037b565b60405173ffffffffffffffffffffffffffffffffffffffff871690309033907f9dcff9d94fbfdb4622d11edb383005f95e78efb446c72d92f8e615c6025c470390600090a46104fa876014018f8f8080601f01602080910402602001604051908101604052809392919081815260200183838082843750949594505063ffffffff6107091692505050565b63ffffffff16935086601401600401925061054e838f8f8080601f01602080910402602001604051908101604052809392919081815260200183838082843750949594505063ffffffff6107611692505050565b60408051808201909152601781527f45564d43414c4c535f494e56414c49445f4c454e475448000000000000000000602082015284860198509092508d8811156105dd5760405160e560020a62461bcd0281526004018080602001828103825283818151815260200191508051906020019080838360008381101561025d578181015183820152602001610245565b50600080858460008a6113885a03f190508080156105fa57610652565b6040513d801561060d573d6000833e3d82fd5b60e560020a62461bcd02825260206004830152601660248301527f45564d43414c4c535f43414c4c5f5245564552544544000000000000000000006044830152606482fd5b5061029e565b505050505050509695505050505050565b7f2dc858a00f3e417be1394b87c07158e989ec681ce8cc68a9093680ac1a87030290565b60006106b87febb05b386a8d34882b8711d156f463690983dc47815980fb82aeeff1aa43579e610768565b905090565b60006000196106ca61068d565b14905090565b4390565b6000806106e1848461076c565b6c010000000000000000000000006bffffffffffffffffffffffff1990911604949350505050565b600080610716848461076c565b7c01000000000000000000000000000000000000000000000000000000007fffffffff0000000000000000000000000000000000000000000000000000000090911604949350505050565b0160200190565b5490565b016020015190565b90555600a165627a7a72305820fb4cdbff76db33eb56a6710463b8fd337e33a37603a1f48b5ef9fedea9d6ad2d0029ebb05b386a8d34882b8711d156f463690983dc47815980fb82aeeff1aa43579e",
  "devdoc": {
    "methods": {
      "newEVMScriptRegistry(address)": {
        "params": {
          "_dao": "Kernel"
        },
        "return": "Installed EVMScriptRegistry"
      }
    }
  },
  "userdoc": {
    "methods": {
      "newEVMScriptRegistry(address)": {
        "notice": "Install a new pinned instance of EVMScriptRegistry on `_dao`."
      }
    }
  }
}