{
  "address": "0xC2AAEcaB496F2cA3b6054862F829Ac7517168B72",
  "abi": [
    {
      "constant": true,
      "inputs": [],
      "name": "hasInitialized",
      "outputs": [
        {
          "name": "",
          "type": "bool"
        }
      ],
      "payable": false,
      "stateMutability": "view",
      "type": "function"
    },
    {
      "constant": true,
      "inputs": [],
      "name": "PPM",
      "outputs": [
        {
          "name": "",
          "type": "uint256"
        }
      ],
      "payable": false,
      "stateMutability": "view",
      "type": "function"
    },
    {
      "constant": false,
      "inputs": [
        {
          "name": "_kernel",
          "type": "address"
        },
        {
          "name": "_controller",
          "type": "address"
        },
        {
          "name": "_marketMaker",
          "type": "address"
        },
        {
          "name": "_bondedToken",
          "type": "address"
        },
        {
          "name": "_reserve",
          "type": "address"
        },
        {
          "name": "_beneficiary",
          "type": "address"
        },
        {
          "name": "_erc20ContribToken",
          "type": "address"
        },
        {
          "name": "_period",
          "type": "uint64"
        },
        {
          "name": "_exchangeRate",
          "type": "uint256"
        },
        {
          "name": "_mintingForBeneficiaryPct",
          "type": "uint256"
        },
        {
          "name": "_openDate",
          "type": "uint64"
        }
      ],
      "name": "initialize",
      "outputs": [],
      "payable": false,
      "stateMutability": "nonpayable",
      "type": "function"
    },
    {
      "constant": true,
      "inputs": [],
      "name": "marketMaker",
      "outputs": [
        {
          "name": "",
          "type": "address"
        }
      ],
      "payable": false,
      "stateMutability": "view",
      "type": "function"
    },
    {
      "constant": true,
      "inputs": [
        {
          "name": "",
          "type": "address"
        }
      ],
      "name": "contributors",
      "outputs": [
        {
          "name": "",
          "type": "uint256"
        }
      ],
      "payable": false,
      "stateMutability": "view",
      "type": "function"
    },
    {
      "constant": true,
      "inputs": [
        {
          "name": "_script",
          "type": "bytes"
        }
      ],
      "name": "getEVMScriptExecutor",
      "outputs": [
        {
          "name": "",
          "type": "address"
        }
      ],
      "payable": false,
      "stateMutability": "view",
      "type": "function"
    },
    {
      "constant": false,
      "inputs": [
        {
          "name": "_period",
          "type": "uint64"
        }
      ],
      "name": "setPeriod",
      "outputs": [],
      "payable": false,
      "stateMutability": "nonpayable",
      "type": "function"
    },
    {
      "constant": true,
      "inputs": [],
      "name": "getRecoveryVault",
      "outputs": [
        {
          "name": "",
          "type": "address"
        }
      ],
      "payable": false,
      "stateMutability": "view",
      "type": "function"
    },
    {
      "constant": true,
      "inputs": [],
      "name": "beneficiary",
      "outputs": [
        {
          "name": "",
          "type": "address"
        }
      ],
      "payable": false,
      "stateMutability": "view",
      "type": "function"
    },
    {
      "constant": true,
      "inputs": [],
      "name": "exchangeRate",
      "outputs": [
        {
          "name": "",
          "type": "uint256"
        }
      ],
      "payable": false,
      "stateMutability": "view",
      "type": "function"
    },
    {
      "constant": false,
      "inputs": [
        {
          "name": "",
          "type": "address"
        },
        {
          "name": "",
          "type": "uint256"
        }
      ],
      "name": "refund",
      "outputs": [],
      "payable": false,
      "stateMutability": "nonpayable",
      "type": "function"
    },
    {
      "constant": false,
      "inputs": [],
      "name": "close",
      "outputs": [],
      "payable": false,
      "stateMutability": "nonpayable",
      "type": "function"
    },
    {
      "constant": false,
      "inputs": [
        {
          "name": "_date",
          "type": "uint64"
        }
      ],
      "name": "setOpenDate",
      "outputs": [],
      "payable": false,
      "stateMutability": "nonpayable",
      "type": "function"
    },
    {
      "constant": true,
      "inputs": [],
      "name": "contributionToken",
      "outputs": [
        {
          "name": "",
          "type": "address"
        }
      ],
      "payable": false,
      "stateMutability": "view",
      "type": "function"
    },
    {
      "constant": true,
      "inputs": [],
      "name": "mintingForBeneficiaryPct",
      "outputs": [
        {
          "name": "",
          "type": "uint256"
        }
      ],
      "payable": false,
      "stateMutability": "view",
      "type": "function"
    },
    {
      "constant": true,
      "inputs": [],
      "name": "OPEN_ROLE",
      "outputs": [
        {
          "name": "",
          "type": "bytes32"
        }
      ],
      "payable": false,
      "stateMutability": "view",
      "type": "function"
    },
    {
      "constant": true,
      "inputs": [],
      "name": "contributorsCounter",
      "outputs": [
        {
          "name": "",
          "type": "uint256"
        }
      ],
      "payable": false,
      "stateMutability": "view",
      "type": "function"
    },
    {
      "constant": true,
      "inputs": [],
      "name": "REDUCE_BENEFICIARY_PCT_ROLE",
      "outputs": [
        {
          "name": "",
          "type": "bytes32"
        }
      ],
      "payable": false,
      "stateMutability": "view",
      "type": "function"
    },
    {
      "constant": true,
      "inputs": [
        {
          "name": "token",
          "type": "address"
        }
      ],
      "name": "allowRecoverability",
      "outputs": [
        {
          "name": "",
          "type": "bool"
        }
      ],
      "payable": false,
      "stateMutability": "view",
      "type": "function"
    },
    {
      "constant": true,
      "inputs": [],
      "name": "appId",
      "outputs": [
        {
          "name": "",
          "type": "bytes32"
        }
      ],
      "payable": false,
      "stateMutability": "view",
      "type": "function"
    },
    {
      "constant": false,
      "inputs": [
        {
          "name": "_contributor",
          "type": "address"
        },
        {
          "name": "_value",
          "type": "uint256"
        }
      ],
      "name": "contribute",
      "outputs": [],
      "payable": true,
      "stateMutability": "payable",
      "type": "function"
    },
    {
      "constant": true,
      "inputs": [],
      "name": "getInitializationBlock",
      "outputs": [
        {
          "name": "",
          "type": "uint256"
        }
      ],
      "payable": false,
      "stateMutability": "view",
      "type": "function"
    },
    {
      "constant": true,
      "inputs": [],
      "name": "totalSold",
      "outputs": [
        {
          "name": "",
          "type": "uint256"
        }
      ],
      "payable": false,
      "stateMutability": "view",
      "type": "function"
    },
    {
      "constant": false,
      "inputs": [
        {
          "name": "_timestamp",
          "type": "uint64"
        }
      ],
      "name": "setTimestamp",
      "outputs": [],
      "payable": false,
      "stateMutability": "nonpayable",
      "type": "function"
    },
    {
      "constant": true,
      "inputs": [
        {
          "name": "_value",
          "type": "uint256"
        }
      ],
      "name": "contributionToTokens",
      "outputs": [
        {
          "name": "",
          "type": "uint256"
        }
      ],
      "payable": false,
      "stateMutability": "view",
      "type": "function"
    },
    {
      "constant": false,
      "inputs": [
        {
          "name": "_token",
          "type": "address"
        }
      ],
      "name": "transferToVault",
      "outputs": [],
      "payable": false,
      "stateMutability": "nonpayable",
      "type": "function"
    },
    {
      "constant": true,
      "inputs": [
        {
          "name": "_sender",
          "type": "address"
        },
        {
          "name": "_role",
          "type": "bytes32"
        },
        {
          "name": "_params",
          "type": "uint256[]"
        }
      ],
      "name": "canPerform",
      "outputs": [
        {
          "name": "",
          "type": "bool"
        }
      ],
      "payable": false,
      "stateMutability": "view",
      "type": "function"
    },
    {
      "constant": true,
      "inputs": [],
      "name": "CONTRIBUTE_ROLE",
      "outputs": [
        {
          "name": "",
          "type": "bytes32"
        }
      ],
      "payable": false,
      "stateMutability": "view",
      "type": "function"
    },
    {
      "constant": true,
      "inputs": [],
      "name": "getEVMScriptRegistry",
      "outputs": [
        {
          "name": "",
          "type": "address"
        }
      ],
      "payable": false,
      "stateMutability": "view",
      "type": "function"
    },
    {
      "constant": false,
      "inputs": [
        {
          "name": "_pct",
          "type": "uint64"
        }
      ],
      "name": "reduceBeneficiaryPct",
      "outputs": [],
      "payable": false,
      "stateMutability": "nonpayable",
      "type": "function"
    },
    {
      "constant": true,
      "inputs": [],
      "name": "timestamp",
      "outputs": [
        {
          "name": "",
          "type": "uint64"
        }
      ],
      "payable": false,
      "stateMutability": "view",
      "type": "function"
    },
    {
      "constant": true,
      "inputs": [],
      "name": "state",
      "outputs": [
        {
          "name": "",
          "type": "uint8"
        }
      ],
      "payable": false,
      "stateMutability": "view",
      "type": "function"
    },
    {
      "constant": true,
      "inputs": [],
      "name": "isClosed",
      "outputs": [
        {
          "name": "",
          "type": "bool"
        }
      ],
      "payable": false,
      "stateMutability": "view",
      "type": "function"
    },
    {
      "constant": true,
      "inputs": [],
      "name": "totalRaised",
      "outputs": [
        {
          "name": "",
          "type": "uint256"
        }
      ],
      "payable": false,
      "stateMutability": "view",
      "type": "function"
    },
    {
      "constant": true,
      "inputs": [],
      "name": "reserve",
      "outputs": [
        {
          "name": "",
          "type": "address"
        }
      ],
      "payable": false,
      "stateMutability": "view",
      "type": "function"
    },
    {
      "constant": true,
      "inputs": [],
      "name": "kernel",
      "outputs": [
        {
          "name": "",
          "type": "address"
        }
      ],
      "payable": false,
      "stateMutability": "view",
      "type": "function"
    },
    {
      "constant": true,
      "inputs": [],
      "name": "isPetrified",
      "outputs": [
        {
          "name": "",
          "type": "bool"
        }
      ],
      "payable": false,
      "stateMutability": "view",
      "type": "function"
    },
    {
      "constant": true,
      "inputs": [],
      "name": "bondedToken",
      "outputs": [
        {
          "name": "",
          "type": "address"
        }
      ],
      "payable": false,
      "stateMutability": "view",
      "type": "function"
    },
    {
      "constant": true,
      "inputs": [],
      "name": "openDate",
      "outputs": [
        {
          "name": "",
          "type": "uint64"
        }
      ],
      "payable": false,
      "stateMutability": "view",
      "type": "function"
    },
    {
      "constant": true,
      "inputs": [],
      "name": "period",
      "outputs": [
        {
          "name": "",
          "type": "uint64"
        }
      ],
      "payable": false,
      "stateMutability": "view",
      "type": "function"
    },
    {
      "constant": true,
      "inputs": [],
      "name": "controller",
      "outputs": [
        {
          "name": "",
          "type": "address"
        }
      ],
      "payable": false,
      "stateMutability": "view",
      "type": "function"
    },
    {
      "constant": false,
      "inputs": [],
      "name": "open",
      "outputs": [],
      "payable": false,
      "stateMutability": "nonpayable",
      "type": "function"
    },
    {
      "anonymous": false,
      "inputs": [
        {
          "indexed": false,
          "name": "date",
          "type": "uint64"
        }
      ],
      "name": "SetOpenDate",
      "type": "event"
    },
    {
      "anonymous": false,
      "inputs": [
        {
          "indexed": false,
          "name": "pct",
          "type": "uint256"
        }
      ],
      "name": "ReduceBeneficiatyPct",
      "type": "event"
    },
    {
      "anonymous": false,
      "inputs": [],
      "name": "Close",
      "type": "event"
    },
    {
      "anonymous": false,
      "inputs": [
        {
          "indexed": true,
          "name": "contributor",
          "type": "address"
        },
        {
          "indexed": false,
          "name": "value",
          "type": "uint256"
        },
        {
          "indexed": false,
          "name": "amount",
          "type": "uint256"
        }
      ],
      "name": "Contribute",
      "type": "event"
    },
    {
      "anonymous": false,
      "inputs": [
        {
          "indexed": true,
          "name": "executor",
          "type": "address"
        },
        {
          "indexed": false,
          "name": "script",
          "type": "bytes"
        },
        {
          "indexed": false,
          "name": "input",
          "type": "bytes"
        },
        {
          "indexed": false,
          "name": "returnData",
          "type": "bytes"
        }
      ],
      "name": "ScriptResult",
      "type": "event"
    },
    {
      "anonymous": false,
      "inputs": [
        {
          "indexed": true,
          "name": "vault",
          "type": "address"
        },
        {
          "indexed": true,
          "name": "token",
          "type": "address"
        },
        {
          "indexed": false,
          "name": "amount",
          "type": "uint256"
        }
      ],
      "name": "RecoverToVault",
      "type": "event"
    }
  ],
  "transactionHash": "0x0f524304f839db30083b5a983a37f9e1be8dc560f021a7b4ba1a90d03d47819e",
  "args": [],
  "solcInputHash": "c0610d08bb5b39d5a913143ed6b9b91b",
  "bytecode": "0x60806040526200001764010000000062000047810204565b62000041600080516020620037f5833981519152600064010000000062002c396200014f82021704565b62000265565b6200005a64010000000062000153810204565b60408051808201909152601881527f494e49545f414c52454144595f494e495449414c495a454400000000000000006020820152901562000136576040517f08c379a00000000000000000000000000000000000000000000000000000000081526004018080602001828103825283818151815260200191508051906020019080838360005b83811015620000fa578181015183820152602001620000e0565b50505050905090810190601f168015620001285780820380516001836020036101000a031916815260200191505b509250505060405180910390fd5b506200014d60001964010000000062000182810204565b565b9055565b60006200017d600080516020620037f583398151915264010000000062002c356200026182021704565b905090565b6200019564010000000062000153810204565b60408051808201909152601881527f494e49545f414c52454144595f494e495449414c495a454400000000000000006020820152901562000234576040517f08c379a000000000000000000000000000000000000000000000000000000000815260040180806020018281038252838181518152602001915080519060200190808383600083811015620000fa578181015183820152602001620000e0565b506200025e600080516020620037f58339815191528264010000000062002c396200014f82021704565b50565b5490565b61358080620002756000396000f3006080604052600436106101ea5763ffffffff60e060020a6000350416630803fac081146101ef5780630d720bbc1461021857806315168fc31461023f5780631f21f9af146102a45780631f6d4942146102d55780632914b9bd146102f6578063309cb5ea1461034f57806332f0a3b51461037157806338af3eed146103865780633ba0b9a91461039b578063410085df146103b057806343d726d6146103d45780634a15fd93146103e95780634bedf9a81461040b578063542ba298146104205780636a928e8f1461043557806372f93cc21461044a5780637af2b8a01461045f5780637e7db6e11461047457806380afdea8146104955780638418cd99146104aa5780638b3dd749146104c15780639106d7ba146104d657806392074667146104eb57806396330f461461050d5780639d4941d814610525578063a1658fad14610546578063a2b96b6f146105ad578063a479e508146105c2578063b086d740146105d7578063b80777ea146105f9578063c19d93fb1461062b578063c2b6b58c14610664578063c5c4744c14610679578063cd3293de1461068e578063d4aae0c4146106a3578063de4796ed146106b8578063e36a4ec7146106cd578063ec8cb281146106e2578063ef78d4fd146106f7578063f77c47911461070c578063fcfff16f14610721575b600080fd5b3480156101fb57600080fd5b50610204610736565b604080519115158252519081900360200190f35b34801561022457600080fd5b5061022d61075f565b60408051918252519081900360200190f35b34801561024b57600080fd5b506102a2600160a060020a0360043581169060243581169060443581169060643581169060843581169060a43581169060c4351667ffffffffffffffff60e435811690610104359061012435906101443516610766565b005b3480156102b057600080fd5b506102b9610d15565b60408051600160a060020a039092168252519081900360200190f35b3480156102e157600080fd5b5061022d600160a060020a0360043516610d24565b34801561030257600080fd5b506040805160206004803580820135601f81018490048402850184019095528484526102b9943694929360249392840191908190840183828082843750949750610d369650505050505050565b34801561035b57600080fd5b506102a267ffffffffffffffff60043516610e1c565b34801561037d57600080fd5b506102b9610ece565b34801561039257600080fd5b506102b9610f47565b3480156103a757600080fd5b5061022d610f56565b3480156103bc57600080fd5b506102a2600160a060020a0360043516602435610f5c565b3480156103e057600080fd5b506102a2611056565b3480156103f557600080fd5b506102a267ffffffffffffffff60043516611597565b34801561041757600080fd5b506102b9611643565b34801561042c57600080fd5b5061022d611652565b34801561044157600080fd5b5061022d611658565b34801561045657600080fd5b5061022d61166a565b34801561046b57600080fd5b5061022d611670565b34801561048057600080fd5b50610204600160a060020a0360043516611694565b3480156104a157600080fd5b5061022d61169a565b6102a2600160a060020a03600435166024356116ca565b3480156104cd57600080fd5b5061022d611ddd565b3480156104e257600080fd5b5061022d611e08565b3480156104f757600080fd5b506102a267ffffffffffffffff60043516611e0e565b34801561051957600080fd5b5061022d600435611e32565b34801561053157600080fd5b506102a2600160a060020a0360043516611edf565b34801561055257600080fd5b506040805160206004604435818101358381028086018501909652808552610204958335600160a060020a031695602480359636969560649593949201929182918501908490808284375094975061216e9650505050505050565b3480156105b957600080fd5b5061022d6122be565b3480156105ce57600080fd5b506102b96122e2565b3480156105e357600080fd5b506102a267ffffffffffffffff60043516612397565b34801561060557600080fd5b5061060e612526565b6040805167ffffffffffffffff9092168252519081900360200190f35b34801561063757600080fd5b50610640612536565b6040518082600381111561065057fe5b60ff16815260200191505060405180910390f35b34801561067057600080fd5b50610204612654565b34801561068557600080fd5b5061022d612669565b34801561069a57600080fd5b506102b961266f565b3480156106af57600080fd5b506102b961267e565b3480156106c457600080fd5b506102046126a9565b3480156106d957600080fd5b506102b96126bc565b3480156106ee57600080fd5b5061060e6126cb565b34801561070357600080fd5b5061060e6126db565b34801561071857600080fd5b506102b9612703565b34801561072d57600080fd5b506102a2612712565b600080610741611ddd565b905080158015906107595750806107566127c8565b10155b91505090565b620f424081565b61076e611ddd565b60408051808201909152601881527f494e49545f414c52454144595f494e495449414c495a454400000000000000006020820152901561082f5760405160e560020a62461bcd0281526004018080602001828103825283818151815260200191508051906020019080838360005b838110156107f45781810151838201526020016107dc565b50505050905090810190601f1680156108215780820380516001836020036101000a031916815260200191505b509250505060405180910390fd5b506108398a6127cc565b60408051808201909152601781526000805160206134d583398151915260208201529015156108ad5760405160e560020a62461bcd028152600401808060200182810382528381815181526020019150805190602001908083836000838110156107f45781810151838201526020016107dc565b506108b7896127cc565b60408051808201909152601781526000805160206134d5833981519152602082015290151561092b5760405160e560020a62461bcd028152600401808060200182810382528381815181526020019150805190602001908083836000838110156107f45781810151838201526020016107dc565b50610935886127cc565b60408051808201909152601781526000805160206134d583398151915260208201529015156109a95760405160e560020a62461bcd028152600401808060200182810382528381815181526020019150805190602001908083836000838110156107f45781810151838201526020016107dc565b506109b3876127cc565b60408051808201909152601781526000805160206134d58339815191526020820152901515610a275760405160e560020a62461bcd028152600401808060200182810382528381815181526020019150805190602001908083836000838110156107f45781810151838201526020016107dc565b5060408051808201909152601b81527f50524553414c455f494e56414c49445f42454e454649434941525900000000006020820152600160a060020a0387161515610ab75760405160e560020a62461bcd028152600401808060200182810382528381815181526020019150805190602001908083836000838110156107f45781810151838201526020016107dc565b50610ac1856127cc565b6040805190810160405280602081526020017f50524553414c455f494e56414c49445f434f4e545249425554455f544f4b454e815250901515610b495760405160e560020a62461bcd028152600401808060200182810382528381815181526020019150805190602001908083836000838110156107f45781810151838201526020016107dc565b5060408051808201909152601d81527f50524553414c455f494e56414c49445f45584348414e47455f52415445000000602082015260008411610bd15760405160e560020a62461bcd028152600401808060200182810382528381815181526020019150805190602001908083836000838110156107f45781810151838201526020016107dc565b5060408051808201909152601381527f50524553414c455f494e56414c49445f504354000000000000000000000000006020820152620f42408310610c5b5760405160e560020a62461bcd028152600401808060200182810382528381815181526020019150805190602001908083836000838110156107f45781810151838201526020016107dc565b50610c646127f9565b6000805473ffffffffffffffffffffffffffffffffffffffff19908116600160a060020a038d8116919091179092556001805482168c84161790556002805482168b84161790556003805482168a84161790556004805482168984161790556005805490911691871691909117905560068390556007829055610ce68b6128c1565b610cef846128f1565b67ffffffffffffffff811615610d0857610d0881612aa6565b5050505050505050505050565b600154600160a060020a031681565b600c6020526000908152604090205481565b6000610d406122e2565b600160a060020a03166304bf2a7f836040518263ffffffff1660e060020a0281526004018080602001828103825283818151815260200191508051906020019080838360005b83811015610d9e578181015183820152602001610d86565b50505050905090810190601f168015610dcb5780820380516001836020036101000a031916815260200191505b5092505050602060405180830381600087803b158015610dea57600080fd5b505af1158015610dfe573d6000803e3d6000fd5b505050506040513d6020811015610e1457600080fd5b505192915050565b604080516000808252602082019092526000805160206134f583398151915291610e4c9133918491905b5061216e565b60408051808201909152600f81526000805160206134b58339815191526020820152901515610ec05760405160e560020a62461bcd028152600401808060200182810382528381815181526020019150805190602001908083836000838110156107f45781810151838201526020016107dc565b50610eca826128f1565b5050565b6000610ed861267e565b600160a060020a03166332f0a3b56040518163ffffffff1660e060020a028152600401602060405180830381600087803b158015610f1557600080fd5b505af1158015610f29573d6000803e3d6000fd5b505050506040513d6020811015610f3f57600080fd5b505190505b90565b600454600160a060020a031681565b60065481565b610f64610736565b60408051808201909152601481526000805160206135358339815191526020820152901515610fd85760405160e560020a62461bcd028152600401808060200182810382528381815181526020019150805190602001908083836000838110156107f45781810151838201526020016107dc565b50604080518082018252601281527f50524553414c455f4e4f5f524546554e445300000000000000000000000000006020808301918252925160e560020a62461bcd028152600481019384528251602482015282519293928392604490920191908083836000838110156107f45781810151838201526020016107dc565b6000808080611072600080516020613515833981519152612c35565b60408051808201909152601981527f5245454e5452414e43595f5245454e5452414e545f43414c4c00000000000000602082015290156110f75760405160e560020a62461bcd028152600401808060200182810382528381815181526020019150805190602001908083836000838110156107f45781810151838201526020016107dc565b50611117600080516020613515833981519152600163ffffffff612c3916565b61111f610736565b604080518082019091526014815260008051602061353583398151915260208201529015156111935760405160e560020a62461bcd028152600401808060200182810382528381815181526020019150805190602001908083836000838110156107f45781810151838201526020016107dc565b50600261119e612536565b60038111156111a957fe5b60408051808201909152601581527f50524553414c455f494e56414c49445f535441544500000000000000000000006020820152911461122e5760405160e560020a62461bcd028152600401808060200182810382528381815181526020019150805190602001908083836000838110156107f45781810151838201526020016107dc565b506008805468ff00000000000000001916680100000000000000001790556007546000101561131257600754620f424003611276600754600a54612c3d90919063ffffffff16565b81151561127f57fe5b60025460048054604080517f40c10f19000000000000000000000000000000000000000000000000000000008152600160a060020a0392831693810193909352949093046024820181905293519397509116916340c10f199160448082019260009290919082900301818387803b1580156112f957600080fd5b505af115801561130d573d6000803e3d6000fd5b505050505b600154600554604080517ff190e427000000000000000000000000000000000000000000000000000000008152600160a060020a0392831660048201529051919092169163f190e4279160248083019260a09291908290030181600087803b15801561137d57600080fd5b505af1158015611391573d6000803e3d6000fd5b505050506040513d60a08110156113a757600080fd5b5060600151600754600954919450620f4240916113ed9163ffffffff80881692918503916113d7918690612c3d16565b8115156113e057fe5b049063ffffffff612c3d16565b8115156113f657fe5b60055460035492909104935061141b91600160a060020a039182169130911685612cf4565b600554604080517f70a082310000000000000000000000000000000000000000000000000000000081523060048201529051600160a060020a03909216916370a08231916024808201926020929091908290030181600087803b15801561148157600080fd5b505af1158015611495573d6000803e3d6000fd5b505050506040513d60208110156114ab57600080fd5b5051905060008111156114d7576005546004546114d791600160a060020a039081169130911684612cf4565b60008054604080517fc9567bf90000000000000000000000000000000000000000000000000000000081529051600160a060020a039092169263c9567bf99260048084019382900301818387803b15801561153157600080fd5b505af1158015611545573d6000803e3d6000fd5b50506040517fc35789ccff76271dc0efa6bfde2f4d4a32cd48dd86278f75f8648cb068c86e3b925060009150a1611591600080516020613515833981519152600063ffffffff612c3916565b50505050565b604080516000808252602082019092526000805160206134f5833981519152916115c5913391849190610e46565b60408051808201909152600f81526000805160206134b583398151915260208201529015156116395760405160e560020a62461bcd028152600401808060200182810382528381815181526020019150805190602001908083836000838110156107f45781810151838201526020016107dc565b50610eca82612aa6565b600554600160a060020a031690565b60075481565b6000805160206134f583398151915281565b600b5481565b7f2738f3f227143b7fbb9720e93e2e5b36d7a15966e130b49f1582c6432d949aa981565b50600190565b60006116c57fd625496217aa6a3453eecb9c3489dc5a53e6c67b444329ea2b2cbc9ff547639b612c35565b905090565b60006116e3600080516020613515833981519152612c35565b60408051808201909152601981527f5245454e5452414e43595f5245454e5452414e545f43414c4c00000000000000602082015290156117685760405160e560020a62461bcd028152600401808060200182810382528381815181526020019150805190602001908083836000838110156107f45781810151838201526020016107dc565b50611788600080516020613515833981519152600163ffffffff612c3916565b604080516000808252602082019092527f9ccaca4edf2127f20c425fdd86af1ba178b9e5bee280cd70d88ac5f6874c4f07916117c8913391849190610e46565b60408051808201909152600f81526000805160206134b5833981519152602082015290151561183c5760405160e560020a62461bcd028152600401808060200182810382528381815181526020019150805190602001908083836000838110156107f45781810151838201526020016107dc565b506001611847612536565b600381111561185257fe5b60408051808201909152601581527f50524553414c455f494e56414c49445f53544154450000000000000000000000602082015291146118d75760405160e560020a62461bcd028152600401808060200182810382528381815181526020019150805190602001908083836000838110156107f45781810151838201526020016107dc565b506040805180820190915260208082527f50524553414c455f494e56414c49445f434f4e545249425554455f56414c554590820152341561195d5760405160e560020a62461bcd028152600401808060200182810382528381815181526020019150805190602001908083836000838110156107f45781810151838201526020016107dc565b506040805180820190915260208082527f50524553414c455f494e56414c49445f434f4e545249425554455f56414c554590820152600084116119e55760405160e560020a62461bcd028152600401808060200182810382528381815181526020019150805190602001908083836000838110156107f45781810151838201526020016107dc565b50600554604080517f70a08231000000000000000000000000000000000000000000000000000000008152600160a060020a0387811660048301529151869392909216916370a08231916024808201926020929091908290030181600087803b158015611a5157600080fd5b505af1158015611a65573d6000803e3d6000fd5b505050506040513d6020811015611a7b57600080fd5b505160408051808201909152601c81527f50524553414c455f494e53554646494349454e545f42414c414e4345000000006020820152911115611b035760405160e560020a62461bcd028152600401808060200182810382528381815181526020019150805190602001908083836000838110156107f45781810151838201526020016107dc565b50600554604080517fdd62ed3e000000000000000000000000000000000000000000000000000000008152600160a060020a03878116600483015230602483015291518693929092169163dd62ed3e916044808201926020929091908290030181600087803b158015611b7557600080fd5b505af1158015611b89573d6000803e3d6000fd5b505050506040513d6020811015611b9f57600080fd5b505160408051808201909152601e81527f50524553414c455f494e53554646494349454e545f414c4c4f57414e434500006020820152911115611c275760405160e560020a62461bcd028152600401808060200182810382528381815181526020019150805190602001908083836000838110156107f45781810151838201526020016107dc565b50600554611c4090600160a060020a0316853086612cf4565b611c4983611e32565b600954909250611c5f908463ffffffff612e5316565b600955600a54611c75908363ffffffff612e5316565b600a55600254604080517f40c10f19000000000000000000000000000000000000000000000000000000008152600160a060020a03878116600483015260248201869052915191909216916340c10f1991604480830192600092919082900301818387803b158015611ce657600080fd5b505af1158015611cfa573d6000803e3d6000fd5b50505050600160a060020a0384166000908152600c60205260409020541515611d3557600b54611d3190600163ffffffff612e5316565b600b555b600160a060020a0384166000908152600c6020526040902054611d5e908463ffffffff612e5316565b600160a060020a0385166000818152600c6020908152604091829020939093558051868152928301859052805191927fc9ec9df36a160cd05ae36393dca23c0128234fc68a48baec833a6d8b5967d6da929081900390910190a250611dd8600080516020613515833981519152600063ffffffff612c3916565b505050565b60006116c57febb05b386a8d34882b8711d156f463690983dc47815980fb82aeeff1aa43579e612c35565b600a5481565b600d805467ffffffffffffffff191667ffffffffffffffff92909216919091179055565b6000611e3c610736565b60408051808201909152601481526000805160206135358339815191526020820152901515611eb05760405160e560020a62461bcd028152600401808060200182810382528381815181526020019150805190602001908083836000838110156107f45781810151838201526020016107dc565b50611ed9620f4240611ecd60065485612c3d90919063ffffffff16565b9063ffffffff612ee516565b92915050565b6000806000611eed84611694565b60408051808201909152601281527f5245434f5645525f444953414c4c4f57454400000000000000000000000000006020820152901515611f735760405160e560020a62461bcd028152600401808060200182810382528381815181526020019150805190602001908083836000838110156107f45781810151838201526020016107dc565b50611f7c610ece565b9250611f87836127cc565b60408051808201909152601a81527f5245434f5645525f5641554c545f4e4f545f434f4e5452414354000000000000602082015290151561200d5760405160e560020a62461bcd028152600401808060200182810382528381815181526020019150805190602001908083836000838110156107f45781810151838201526020016107dc565b50600160a060020a038416151561205e5760405130319250600160a060020a0384169083156108fc029084906000818181858888f19350505050158015612058573d6000803e3d6000fd5b5061211d565b5082612079600160a060020a0382163063ffffffff612f8516565b9150612095600160a060020a038216848463ffffffff61309a16565b60408051808201909152601d81527f5245434f5645525f544f4b454e5f5452414e534645525f4641494c4544000000602082015290151561211b5760405160e560020a62461bcd028152600401808060200182810382528381815181526020019150805190602001908083836000838110156107f45781810151838201526020016107dc565b505b83600160a060020a031683600160a060020a03167f596caf56044b55fb8c4ca640089bbc2b63cae3e978b851f5745cbb7c5b288e02846040518082815260200191505060405180910390a350505050565b600080612179610736565b151561218857600091506122b6565b61219061267e565b9050600160a060020a03811615156121ab57600091506122b6565b80600160a060020a031663fdef91068630876121c688613125565b60405160e060020a63ffffffff8716028152600160a060020a03808616600483019081529085166024830152604482018490526080606483019081528351608484015283519192909160a490910190602085019080838360005b83811015612238578181015183820152602001612220565b50505050905090810190601f1680156122655780820380516001836020036101000a031916815260200191505b5095505050505050602060405180830381600087803b15801561228757600080fd5b505af115801561229b573d6000803e3d6000fd5b505050506040513d60208110156122b157600080fd5b505191505b509392505050565b7f9ccaca4edf2127f20c425fdd86af1ba178b9e5bee280cd70d88ac5f6874c4f0781565b6000806122ed61267e565b604080517fbe00bbd80000000000000000000000000000000000000000000000000000000081527fd6f028ca0e8edb4a8c9757ca4fdccab25fa1e0317da1188108f7d2dee14902fb60048201527fddbcfd564f642ab5627cf68b9b7d374fb4f8a36e941a75d89c87998cef03bd6160248201529051600160a060020a03929092169163be00bbd8916044808201926020929091908290030181600087803b158015610dea57600080fd5b604080516000808252602082019092527f2738f3f227143b7fbb9720e93e2e5b36d7a15966e130b49f1582c6432d949aa9916123d7913391849190610e46565b60408051808201909152600f81526000805160206134b5833981519152602082015290151561244b5760405160e560020a62461bcd028152600401808060200182810382528381815181526020019150805190602001908083836000838110156107f45781810151838201526020016107dc565b5060075460408051808201909152601381527f50524553414c455f494e56414c49445f5043540000000000000000000000000060208201529067ffffffffffffffff8416106124df5760405160e560020a62461bcd028152600401808060200182810382528381815181526020019150805190602001908083836000838110156107f45781810151838201526020016107dc565b5067ffffffffffffffff8216600781905560408051918252517fa50304e35b9add7e0d49e0d23f05a2a2935cfa28fdc3abe3636318af4bed22459181900360200190a15050565b600d5467ffffffffffffffff1681565b6000612540610736565b604080518082019091526014815260008051602061353583398151915260208201529015156125b45760405160e560020a62461bcd028152600401808060200182810382528381815181526020019150805190602001908083836000838110156107f45781810151838201526020016107dc565b5060085467ffffffffffffffff1615806125e457506125d161312f565b60085467ffffffffffffffff9182169116115b156125f157506000610f44565b60085468010000000000000000900460ff161561261057506003610f44565b60055474010000000000000000000000000000000000000000900467ffffffffffffffff1661263d61315e565b67ffffffffffffffff161061169457506002610f44565b60085468010000000000000000900460ff1681565b60095481565b600354600160a060020a031681565b60006116c57f4172f0f7d2289153072b0a6ca36959e0cbe2efc3afe50fc81636caa96338137b612c35565b60006000196126b6611ddd565b14905090565b600254600160a060020a031681565b60085467ffffffffffffffff1681565b60055474010000000000000000000000000000000000000000900467ffffffffffffffff1681565b600054600160a060020a031681565b604080516000808252602082019092526000805160206134f583398151915291612740913391849190610e46565b60408051808201909152600f81526000805160206134b583398151915260208201529015156127b45760405160e560020a62461bcd028152600401808060200182810382528381815181526020019150805190602001908083836000838110156107f45781810151838201526020016107dc565b506127c56127c061312f565b612aa6565b50565b4390565b600080600160a060020a03831615156127e857600091506127f3565b823b90506000811191505b50919050565b612801611ddd565b60408051808201909152601881527f494e49545f414c52454144595f494e495449414c495a45440000000000000000602082015290156128865760405160e560020a62461bcd028152600401808060200182810382528381815181526020019150805190602001908083836000838110156107f45781810151838201526020016107dc565b506128bf6128926127c8565b7febb05b386a8d34882b8711d156f463690983dc47815980fb82aeeff1aa43579e9063ffffffff612c3916565b565b6127c57f4172f0f7d2289153072b0a6ca36959e0cbe2efc3afe50fc81636caa96338137b8263ffffffff612c3916565b60408051808201909152601881527f50524553414c455f54494d455f504552494f445f5a45524f00000000000000006020820152600067ffffffffffffffff8316116129825760405160e560020a62461bcd028152600401808060200182810382528381815181526020019150805190602001908083836000838110156107f45781810151838201526020016107dc565b5060085467ffffffffffffffff1615806129cc575061299f61312f565b60085467ffffffffffffffff918216916129c091168363ffffffff6131b616565b67ffffffffffffffff16115b60408051808201909152601b81527f50524553414c455f494e56414c49445f54494d455f504552494f4400000000006020820152901515612a525760405160e560020a62461bcd028152600401808060200182810382528381815181526020019150805190602001908083836000838110156107f45781810151838201526020016107dc565b506005805467ffffffffffffffff90921674010000000000000000000000000000000000000000027fffffffff0000000000000000ffffffffffffffffffffffffffffffffffffffff909216919091179055565b6000612ab0612536565b6003811115612abb57fe5b60408051808201909152601581527f50524553414c455f494e56414c49445f5354415445000000000000000000000060208201529114612b405760405160e560020a62461bcd028152600401808060200182810382528381815181526020019150805190602001908083836000838110156107f45781810151838201526020016107dc565b50612b4961312f565b60408051808201909152601981527f50524553414c455f494e56414c49445f4f50454e5f444154450000000000000060208201529067ffffffffffffffff9081169083161015612bde5760405160e560020a62461bcd028152600401808060200182810382528381815181526020019150805190602001908083836000838110156107f45781810151838201526020016107dc565b506008805467ffffffffffffffff831667ffffffffffffffff19909116811790915560408051918252517fab2aeaceefdbd207caa02bf58306335f7c37fd3b434a6cc547733be5e33a86779181900360200190a150565b5490565b9055565b600080831515612c505760009150612ced565b50828202828482811515612c6057fe5b60408051808201909152601181527f4d4154485f4d554c5f4f564552464c4f5700000000000000000000000000000060208201529291900414612ce85760405160e560020a62461bcd028152600401808060200182810382528381815181526020019150805190602001908083836000838110156107f45781810151838201526020016107dc565b508091505b5092915050565b600160a060020a038316301415612dab57612d1f600160a060020a038516838363ffffffff61309a16565b60408051808201909152601f81527f50524553414c455f544f4b454e5f5452414e534645525f5245564552544544006020820152901515612da55760405160e560020a62461bcd028152600401808060200182810382528381815181526020019150805190602001908083836000838110156107f45781810151838201526020016107dc565b50611591565b612dc6600160a060020a03851684848463ffffffff61325116565b60408051808201909152601f81527f50524553414c455f544f4b454e5f5452414e534645525f5245564552544544006020820152901515612e4c5760405160e560020a62461bcd028152600401808060200182810382528381815181526020019150805190602001908083836000838110156107f45781810151838201526020016107dc565b5050505050565b60408051808201909152601181527f4d4154485f4144445f4f564552464c4f5700000000000000000000000000000060208201526000908383019084821015612ce85760405160e560020a62461bcd028152600401808060200182810382528381815181526020019150805190602001908083836000838110156107f45781810151838201526020016107dc565b5490565b60408051808201909152600d81527f4d4154485f4449565f5a45524f0000000000000000000000000000000000000060208201526000908190818411612f705760405160e560020a62461bcd028152600401808060200182810382528381815181526020019150805190602001908083836000838110156107f45781810151838201526020016107dc565b508284811515612f7c57fe5b04949350505050565b60408051600160a060020a0383166024808301919091528251808303909101815260449091019091526020810180517bffffffffffffffffffffffffffffffffffffffffffffffffffffffff167f70a0823100000000000000000000000000000000000000000000000000000000179052600090818061300586846132e5565b60408051808201909152601c81527f534146455f4552435f32305f42414c414e43455f524556455254454400000000602082015291935091508215156130905760405160e560020a62461bcd028152600401808060200182810382528381815181526020019150805190602001908083836000838110156107f45781810151838201526020016107dc565b5095945050505050565b60408051600160a060020a038416602482015260448082018490528251808303909101815260649091019091526020810180517bffffffffffffffffffffffffffffffffffffffffffffffffffffffff167fa9059cbb0000000000000000000000000000000000000000000000000000000017905260009061311c8582613316565b95945050505050565b8051602002815290565b600d5460009067ffffffffffffffff161561315657600d5467ffffffffffffffff166116c5565b6116c5613364565b60085460009067ffffffffffffffff16151561317c57506000610f44565b6008546131ab9067ffffffffffffffff1661319561312f565b67ffffffffffffffff169063ffffffff61337616565b9050610f44565b9055565b60408051808201909152601381527f4d41544836345f4144445f4f564552464c4f570000000000000000000000000060208201526000908383019067ffffffffffffffff8086169083161015612ce85760405160e560020a62461bcd028152600401808060200182810382528381815181526020019150805190602001908083836000838110156107f45781810151838201526020016107dc565b60408051600160a060020a0385811660248301528416604482015260648082018490528251808303909101815260849091019091526020810180517bffffffffffffffffffffffffffffffffffffffffffffffffffffffff167f23b872dd000000000000000000000000000000000000000000000000000000001790526000906132db8682613316565b9695505050505050565b6000806000806040516020818751602089018a5afa9250600083111561330a57805191505b50909590945092505050565b6000806040516020818551602087016000895af1600081111561335a573d8015613347576020811461335057613358565b60019350613358565b600183511493505b505b5090949350505050565b60006116c5613371613417565b61341b565b60408051808201909152601481527f4d41544836345f5355425f554e444552464c4f570000000000000000000000006020820152600090819067ffffffffffffffff808616908516111561340f5760405160e560020a62461bcd028152600401808060200182810382528381815181526020019150805190602001908083836000838110156107f45781810151838201526020016107dc565b505050900390565b4290565b60408051808201909152601581527f55494e5436345f4e554d4245525f544f4f5f4249470000000000000000000000602082015260009067ffffffffffffffff8311156134ad5760405160e560020a62461bcd028152600401808060200182810382528381815181526020019150805190602001908083836000838110156107f45781810151838201526020016107dc565b509091905056004150505f415554485f4641494c4544000000000000000000000000000000000050524553414c455f434f4e54524143545f49535f454f41000000000000000000efa06053e2ca99a43c97c4a4f3d8a394ee3323a8ff237e625fba09fe30ceb0a4e855346402235fdd185c890e68d2c4ecad599b88587635ee285bce2fda58dacb494e49545f4e4f545f494e495449414c495a4544000000000000000000000000a165627a7a72305820e3ba6954ab6a7717613b8d41e39a54a35333a6d260a1f8a154dbaedae978eba30029ebb05b386a8d34882b8711d156f463690983dc47815980fb82aeeff1aa43579e",
  "devdoc": {
    "methods": {
      "allowRecoverability(address)": {
        "details": "By default deriving from AragonApp makes it recoverable",
        "params": {
          "token": "Token address that would be recovered"
        },
        "return": "bool whether the app allows the recovery"
      },
      "canPerform(address,bytes32,uint256[])": {
        "details": "Check whether an action can be performed by a sender for a particular role on this app",
        "params": {
          "_params": "Permission params for the role",
          "_role": "Role on this app",
          "_sender": "Sender of the call"
        },
        "return": "Boolean indicating whether the sender has the permissions to perform the action.        Always returns false if the app hasn't been initialized yet."
      },
      "contribute(address,uint256)": {
        "params": {
          "_contributor": "The address of the contributor",
          "_value": "The amount of contribution token to be spent"
        }
      },
      "contributionToTokens(uint256)": {
        "params": {
          "_value": "The amount of contribution tokens to be used in that computation"
        }
      },
      "getInitializationBlock()": {
        "return": "Block number in which the contract was initialized"
      },
      "getRecoveryVault()": {
        "details": "Get the recovery vault for the app",
        "return": "Recovery vault address for the app"
      },
      "hasInitialized()": {
        "return": "Whether the contract has been initialized by the time of the current block"
      },
      "initialize(address,address,address,address,address,address,address,uint64,uint256,uint256,uint64)": {
        "params": {
          "_beneficiary": "The address of the beneficiary [to whom a percentage of the raised funds is be to be sent]",
          "_bondedToken": "The address of the bonded token",
          "_controller": "The address of the controller contract",
          "_erc20ContribToken": "The address of the token to be used to contribute",
          "_exchangeRate": "The exchangeRate [= 1/price] at which [bonded] tokens are to be purchased for that presale [in PPM]",
          "_marketMaker": "The address of the market maker contract",
          "_openDate": "The date upon which that presale is to be open [ignored if 0]",
          "_period": "The period within which to accept contribution for that presale",
          "_reserve": "The address of the reserve [pool] contract"
        }
      },
      "reduceBeneficiaryPct(uint64)": {
        "params": {
          "_pct": "New percentage to be set"
        }
      },
      "setOpenDate(uint64)": {
        "params": {
          "_date": "New date to be set"
        }
      },
      "setPeriod(uint64)": {
        "params": {
          "_period": "New duration to be set"
        }
      },
      "transferToVault(address)": {
        "params": {
          "_token": "Token balance to be sent to recovery vault."
        }
      }
    }
  },
  "userdoc": {
    "methods": {
      "close()": {
        "notice": "Close presale and open trading"
      },
      "contribute(address,uint256)": {
        "notice": "Contribute to the presale up to `@tokenAmount(self.erc20ContribToken(): address, _value)`"
      },
      "contributionToTokens(uint256)": {
        "notice": "Computes the amount of [bonded] tokens that would be purchased for `@tokenAmount(self.contributionToken(): address, _value)`"
      },
      "initialize(address,address,address,address,address,address,address,uint64,uint256,uint256,uint64)": {
        "notice": "Initialize presale"
      },
      "open()": {
        "notice": "Open presale [enabling users to contribute]"
      },
      "reduceBeneficiaryPct(uint64)": {
        "notice": "Reduce pre-minting for beneficiary percentage to `_pct`"
      },
      "refund(address,uint256)": {
        "notice": "Does nothing. Interface compliance."
      },
      "setOpenDate(uint64)": {
        "notice": "Set presale open date"
      },
      "setPeriod(uint64)": {
        "notice": "Set presale duration"
      },
      "state()": {
        "notice": "Returns the current state of that presale"
      },
      "transferToVault(address)": {
        "notice": "Send funds to recovery Vault. This contract should never receive funds,        but in case it does, this function allows one to recover them."
      }
    }
  }
}